{
  "address": "0x6c25f894256cd505e8F8355DFe288C44b823bE2a",
  "abi": [
    {
      "inputs": [
        {
          "internalType": "address",
          "name": "_feeDestination",
          "type": "address"
        },
        {
          "internalType": "uint256",
          "name": "_protocolFeePercent",
          "type": "uint256"
        },
        {
          "internalType": "uint256",
          "name": "_subjectFeePercent",
          "type": "uint256"
        },
        {
          "internalType": "address",
          "name": "_token",
          "type": "address"
        },
        {
          "internalType": "uint256",
          "name": "_multiplier1",
          "type": "uint256"
        },
        {
          "internalType": "uint256",
          "name": "_multiplier2",
          "type": "uint256"
        },
        {
          "internalType": "uint256",
          "name": "_multiplier3",
          "type": "uint256"
        }
      ],
      "stateMutability": "nonpayable",
      "type": "constructor"
    },
    {
      "inputs": [
        {
          "internalType": "address",
          "name": "owner",
          "type": "address"
        }
      ],
      "name": "OwnableInvalidOwner",
      "type": "error"
    },
    {
      "inputs": [
        {
          "internalType": "address",
          "name": "account",
          "type": "address"
        }
      ],
      "name": "OwnableUnauthorizedAccount",
      "type": "error"
    },
    {
      "inputs": [
        {
          "internalType": "address",
          "name": "token",
          "type": "address"
        }
      ],
      "name": "SafeERC20FailedOperation",
      "type": "error"
    },
    {
      "anonymous": false,
      "inputs": [
        {
          "indexed": true,
          "internalType": "address",
          "name": "previousOwner",
          "type": "address"
        },
        {
          "indexed": true,
          "internalType": "address",
          "name": "newOwner",
          "type": "address"
        }
      ],
      "name": "OwnershipTransferred",
      "type": "event"
    },
    {
      "anonymous": false,
      "inputs": [
        {
          "indexed": false,
          "internalType": "address",
          "name": "trader",
          "type": "address"
        },
        {
          "indexed": false,
          "internalType": "address",
          "name": "subject",
          "type": "address"
        },
        {
          "indexed": false,
          "internalType": "bool",
          "name": "isBuy",
          "type": "bool"
        },
        {
          "indexed": false,
          "internalType": "uint256",
          "name": "shareAmount",
          "type": "uint256"
        },
        {
          "indexed": false,
          "internalType": "uint256",
          "name": "tokenAmount",
          "type": "uint256"
        },
        {
          "indexed": false,
          "internalType": "uint256",
          "name": "protocolTokenAmount",
          "type": "uint256"
        },
        {
          "indexed": false,
          "internalType": "uint256",
          "name": "subjectTokenAmount",
          "type": "uint256"
        },
        {
          "indexed": false,
          "internalType": "uint256",
          "name": "supply",
          "type": "uint256"
        },
        {
          "indexed": false,
          "internalType": "uint256",
          "name": "multiplier",
          "type": "uint256"
        }
      ],
      "name": "Trade",
      "type": "event"
    },
    {
      "inputs": [
        {
          "internalType": "address",
          "name": "sharesSubject",
          "type": "address"
        },
        {
          "internalType": "uint256",
          "name": "amount",
          "type": "uint256"
        },
        {
          "internalType": "uint256",
          "name": "curveIndex",
          "type": "uint256"
        }
      ],
      "name": "buyShares",
      "outputs": [],
      "stateMutability": "nonpayable",
      "type": "function"
    },
    {
      "inputs": [
        {
          "internalType": "address",
          "name": "sharesSubject",
          "type": "address"
        },
        {
          "internalType": "uint256",
          "name": "amount",
          "type": "uint256"
        }
      ],
      "name": "getBuyPrice",
      "outputs": [
        {
          "internalType": "uint256",
          "name": "",
          "type": "uint256"
        }
      ],
      "stateMutability": "view",
      "type": "function"
    },
    {
      "inputs": [
        {
          "internalType": "address",
          "name": "sharesSubject",
          "type": "address"
        },
        {
          "internalType": "uint256",
          "name": "amount",
          "type": "uint256"
        }
      ],
      "name": "getBuyPriceAfterFee",
      "outputs": [
        {
          "internalType": "uint256",
          "name": "",
          "type": "uint256"
        }
      ],
      "stateMutability": "view",
      "type": "function"
    },
    {
      "inputs": [
        {
          "internalType": "uint256",
          "name": "supply",
          "type": "uint256"
        },
        {
          "internalType": "uint256",
          "name": "amount",
          "type": "uint256"
        },
        {
          "internalType": "address",
          "name": "sharesSubject",
          "type": "address"
        }
      ],
      "name": "getPrice",
      "outputs": [
        {
          "internalType": "uint256",
          "name": "",
          "type": "uint256"
        }
      ],
      "stateMutability": "view",
      "type": "function"
    },
    {
      "inputs": [
        {
          "internalType": "address",
          "name": "sharesSubject",
          "type": "address"
        },
        {
          "internalType": "uint256",
          "name": "amount",
          "type": "uint256"
        }
      ],
      "name": "getSellPrice",
      "outputs": [
        {
          "internalType": "uint256",
          "name": "",
          "type": "uint256"
        }
      ],
      "stateMutability": "view",
      "type": "function"
    },
    {
      "inputs": [
        {
          "internalType": "address",
          "name": "sharesSubject",
          "type": "address"
        },
        {
          "internalType": "uint256",
          "name": "amount",
          "type": "uint256"
        }
      ],
      "name": "getSellPriceAfterFee",
      "outputs": [
        {
          "internalType": "uint256",
          "name": "",
          "type": "uint256"
        }
      ],
      "stateMutability": "view",
      "type": "function"
    },
    {
      "inputs": [],
      "name": "multiplier1",
      "outputs": [
        {
          "internalType": "uint256",
          "name": "",
          "type": "uint256"
        }
      ],
      "stateMutability": "view",
      "type": "function"
    },
    {
      "inputs": [],
      "name": "multiplier2",
      "outputs": [
        {
          "internalType": "uint256",
          "name": "",
          "type": "uint256"
        }
      ],
      "stateMutability": "view",
      "type": "function"
    },
    {
      "inputs": [],
      "name": "multiplier3",
      "outputs": [
        {
          "internalType": "uint256",
          "name": "",
          "type": "uint256"
        }
      ],
      "stateMutability": "view",
      "type": "function"
    },
    {
      "inputs": [],
      "name": "owner",
      "outputs": [
        {
          "internalType": "address",
          "name": "",
          "type": "address"
        }
      ],
      "stateMutability": "view",
      "type": "function"
    },
    {
      "inputs": [],
      "name": "protocolFeeDestination",
      "outputs": [
        {
          "internalType": "address",
          "name": "",
          "type": "address"
        }
      ],
      "stateMutability": "view",
      "type": "function"
    },
    {
      "inputs": [],
      "name": "protocolFeePercent",
      "outputs": [
        {
          "internalType": "uint256",
          "name": "",
          "type": "uint256"
        }
      ],
      "stateMutability": "view",
      "type": "function"
    },
    {
      "inputs": [],
      "name": "renounceOwnership",
      "outputs": [],
      "stateMutability": "nonpayable",
      "type": "function"
    },
    {
      "inputs": [
        {
          "internalType": "address",
          "name": "sharesSubject",
          "type": "address"
        },
        {
          "internalType": "uint256",
          "name": "amount",
          "type": "uint256"
        }
      ],
      "name": "sellShares",
      "outputs": [],
      "stateMutability": "nonpayable",
      "type": "function"
    },
    {
      "inputs": [
        {
          "internalType": "address",
          "name": "_feeDestination",
          "type": "address"
        }
      ],
      "name": "setFeeDestination",
      "outputs": [],
      "stateMutability": "nonpayable",
      "type": "function"
    },
    {
      "inputs": [
        {
          "internalType": "uint256",
          "name": "_feePercent",
          "type": "uint256"
        }
      ],
      "name": "setProtocolFeePercent",
      "outputs": [],
      "stateMutability": "nonpayable",
      "type": "function"
    },
    {
      "inputs": [
        {
          "internalType": "uint256",
          "name": "_feePercent",
          "type": "uint256"
        }
      ],
      "name": "setSubjectFeePercent",
      "outputs": [],
      "stateMutability": "nonpayable",
      "type": "function"
    },
    {
      "inputs": [
        {
          "internalType": "address",
          "name": "",
          "type": "address"
        },
        {
          "internalType": "address",
          "name": "",
          "type": "address"
        }
      ],
      "name": "sharesBalance",
      "outputs": [
        {
          "internalType": "uint256",
          "name": "",
          "type": "uint256"
        }
      ],
      "stateMutability": "view",
      "type": "function"
    },
    {
      "inputs": [
        {
          "internalType": "address",
          "name": "",
          "type": "address"
        }
      ],
      "name": "sharesSupply",
      "outputs": [
        {
          "internalType": "uint256",
          "name": "",
          "type": "uint256"
        }
      ],
      "stateMutability": "view",
      "type": "function"
    },
    {
      "inputs": [
        {
          "internalType": "address",
          "name": "",
          "type": "address"
        }
      ],
      "name": "subjectCurve",
      "outputs": [
        {
          "internalType": "uint256",
          "name": "",
          "type": "uint256"
        }
      ],
      "stateMutability": "view",
      "type": "function"
    },
    {
      "inputs": [],
      "name": "subjectFeePercent",
      "outputs": [
        {
          "internalType": "uint256",
          "name": "",
          "type": "uint256"
        }
      ],
      "stateMutability": "view",
      "type": "function"
    },
    {
      "inputs": [],
      "name": "token",
      "outputs": [
        {
          "internalType": "address",
          "name": "",
          "type": "address"
        }
      ],
      "stateMutability": "view",
      "type": "function"
    },
    {
      "inputs": [
        {
          "internalType": "address",
          "name": "newOwner",
          "type": "address"
        }
      ],
      "name": "transferOwnership",
      "outputs": [],
      "stateMutability": "nonpayable",
      "type": "function"
    }
  ],
  "transactionHash": "0x69f2aeaf317eb717d41d87dd1cb1aa38bd8d8c7fbadde367f2da11cbca6968aa",
  "args": [
    "0xE69101e591CD978Bc3ECbE8FD398B32417685521",
    "30000000000000000",
    "50000000000000000",
    "0x6555255b8dEd3c538Cb398d9E36769f45D7d3ea7",
    "5",
    "10",
    "20"
  ],
  "numDeployments": 1,
  "solcInputHash": "00748d604060dc0a558c88ff6a2a9a04",
  "bytecode": "0x60806040523480156200001157600080fd5b50604051620023be380380620023be8339818101604052810190620000379190620003ac565b33600073ffffffffffffffffffffffffffffffffffffffff168173ffffffffffffffffffffffffffffffffffffffff1603620000ad5760006040517f1e4fbdf7000000000000000000000000000000000000000000000000000000008152600401620000a4919062000470565b60405180910390fd5b620000be816200024360201b60201c565b506000831162000105576040517f08c379a0000000000000000000000000000000000000000000000000000000008152600401620000fc90620004ee565b60405180910390fd5b600082116200014b576040517f08c379a0000000000000000000000000000000000000000000000000000000008152600401620001429062000560565b60405180910390fd5b6000811162000191576040517f08c379a00000000000000000000000000000000000000000000000000000000081526004016200018890620005d2565b60405180910390fd5b86600160006101000a81548173ffffffffffffffffffffffffffffffffffffffff021916908373ffffffffffffffffffffffffffffffffffffffff160217905550856002819055508460038190555083600460006101000a81548173ffffffffffffffffffffffffffffffffffffffff021916908373ffffffffffffffffffffffffffffffffffffffff16021790555082600581905550816006819055508060078190555050505050505050620005f4565b60008060009054906101000a900473ffffffffffffffffffffffffffffffffffffffff169050816000806101000a81548173ffffffffffffffffffffffffffffffffffffffff021916908373ffffffffffffffffffffffffffffffffffffffff1602179055508173ffffffffffffffffffffffffffffffffffffffff168173ffffffffffffffffffffffffffffffffffffffff167f8be0079c531659141344cd1fd0a4f28419497f9722a3daafe3b4186f6b6457e060405160405180910390a35050565b600080fd5b600073ffffffffffffffffffffffffffffffffffffffff82169050919050565b600062000339826200030c565b9050919050565b6200034b816200032c565b81146200035757600080fd5b50565b6000815190506200036b8162000340565b92915050565b6000819050919050565b620003868162000371565b81146200039257600080fd5b50565b600081519050620003a6816200037b565b92915050565b600080600080600080600060e0888a031215620003ce57620003cd62000307565b5b6000620003de8a828b016200035a565b9750506020620003f18a828b0162000395565b9650506040620004048a828b0162000395565b9550506060620004178a828b016200035a565b94505060806200042a8a828b0162000395565b93505060a06200043d8a828b0162000395565b92505060c0620004508a828b0162000395565b91505092959891949750929550565b6200046a816200032c565b82525050565b60006020820190506200048760008301846200045f565b92915050565b600082825260208201905092915050565b7f4d756c7469706c696572312063616e6e6f74206265207a65726f000000000000600082015250565b6000620004d6601a836200048d565b9150620004e3826200049e565b602082019050919050565b600060208201905081810360008301526200050981620004c7565b9050919050565b7f4d756c7469706c696572322063616e6e6f74206265207a65726f000000000000600082015250565b600062000548601a836200048d565b9150620005558262000510565b602082019050919050565b600060208201905081810360008301526200057b8162000539565b9050919050565b7f4d756c7469706c696572332063616e6e6f74206265207a65726f000000000000600082015250565b6000620005ba601a836200048d565b9150620005c78262000582565b602082019050919050565b60006020820190508181036000830152620005ed81620005ab565b9050919050565b611dba80620006046000396000f3fe608060405234801561001057600080fd5b506004361061014d5760003560e01c80635a8a764e116100c3578063b51d05341161007c578063b51d0534146103b4578063d6e6eb9f146103d0578063f2fde38b146103ee578063f9931be01461040a578063fbe532341461043a578063fc0c546a146104565761014d565b80635a8a764e146102f4578063715018a61461031057806373f773ff1461031a5780638da5cb5b1461034a5780639ae7178114610368578063a4983421146103985761014d565b80631f66d2cb116101155780631f66d2cb1461020a5780632267a89c1461022857806324dc441d146102585780633b44c946146102765780634635256e146102a65780634ce7957c146102d65761014d565b8063020235ff1461015257806309675e12146101825780630f026f6d146101a057806317f69222146101d05780631daedef4146101ec575b600080fd5b61016c60048036038101906101679190611752565b610474565b60405161017991906117ab565b60405180910390f35b61018a610499565b60405161019791906117ab565b60405180910390f35b6101ba60048036038101906101b591906117f2565b61049f565b6040516101c791906117ab565b60405180910390f35b6101ea60048036038101906101e59190611832565b61051a565b005b6101f4610a4b565b60405161020191906117ab565b60405180910390f35b610212610a51565b60405161021f91906117ab565b60405180910390f35b610242600480360381019061023d91906117f2565b610a57565b60405161024f91906117ab565b60405180910390f35b610260610ad2565b60405161026d91906117ab565b60405180910390f35b610290600480360381019061028b9190611885565b610ad8565b60405161029d91906117ab565b60405180910390f35b6102c060048036038101906102bb91906117f2565b610af0565b6040516102cd91906117ab565b60405180910390f35b6102de610b44565b6040516102eb91906118c1565b60405180910390f35b61030e600480360381019061030991906118dc565b610b6a565b005b610318610b7c565b005b610334600480360381019061032f9190611909565b610b90565b60405161034191906117ab565b60405180910390f35b610352610d4a565b60405161035f91906118c1565b60405180910390f35b610382600480360381019061037d91906117f2565b610d73565b60405161038f91906117ab565b60405180910390f35b6103b260048036038101906103ad91906118dc565b610dd2565b005b6103ce60048036038101906103c991906117f2565b610de4565b005b6103d86112e3565b6040516103e591906117ab565b60405180910390f35b61040860048036038101906104039190611885565b6112e9565b005b610424600480360381019061041f9190611885565b61136f565b60405161043191906117ab565b60405180910390f35b610454600480360381019061044f9190611885565b611387565b005b61045e6113d3565b60405161046b91906118c1565b60405180910390f35b6009602052816000526040600020602052806000526040600020600091509150505481565b60055481565b6000806104ac8484610af0565b90506000670de0b6b3a7640000600254836104c7919061198b565b6104d191906119fc565b90506000670de0b6b3a7640000600354846104ec919061198b565b6104f691906119fc565b90508082846105059190611a2d565b61050f9190611a2d565b935050505092915050565b6000600a60008573ffffffffffffffffffffffffffffffffffffffff1673ffffffffffffffffffffffffffffffffffffffff168152602001908152602001600020549050600081118061059857503373ffffffffffffffffffffffffffffffffffffffff168473ffffffffffffffffffffffffffffffffffffffff16145b6105d7576040517f08c379a00000000000000000000000000000000000000000000000000000000081526004016105ce90611ae4565b60405180910390fd5b60008114801561061257503373ffffffffffffffffffffffffffffffffffffffff168473ffffffffffffffffffffffffffffffffffffffff16145b156106ad5760018210158015610629575060038211155b610668576040517f08c379a000000000000000000000000000000000000000000000000000000000815260040161065f90611b50565b60405180910390fd5b81600860008673ffffffffffffffffffffffffffffffffffffffff1673ffffffffffffffffffffffffffffffffffffffff168152602001908152602001600020819055505b60006106ba828587610b90565b90506000670de0b6b3a7640000600254836106d5919061198b565b6106df91906119fc565b90506000670de0b6b3a7640000600354846106fa919061198b565b61070491906119fc565b905085600960008973ffffffffffffffffffffffffffffffffffffffff1673ffffffffffffffffffffffffffffffffffffffff16815260200190815260200160002060003373ffffffffffffffffffffffffffffffffffffffff1673ffffffffffffffffffffffffffffffffffffffff1681526020019081526020016000205461078e9190611a2d565b600960008973ffffffffffffffffffffffffffffffffffffffff1673ffffffffffffffffffffffffffffffffffffffff16815260200190815260200160002060003373ffffffffffffffffffffffffffffffffffffffff1673ffffffffffffffffffffffffffffffffffffffff16815260200190815260200160002081905550858461081a9190611a2d565b600a60008973ffffffffffffffffffffffffffffffffffffffff1673ffffffffffffffffffffffffffffffffffffffff168152602001908152602001600020819055506000600860008973ffffffffffffffffffffffffffffffffffffffff1673ffffffffffffffffffffffffffffffffffffffff168152602001908152602001600020549550600186036108b35760055490506108df565b600286036108c55760065490506108de565b600386036108d75760075490506108dd565b60055490505b5b5b7f952ff8d90add9fdeaeb478102d54441cf0cc0cbe53b1d99e51f747cdc8379e54338960018a8888888e8d6109149190611a2d565b8960405161092a99989796959493929190611b8b565b60405180910390a1610981333086600460009054906101000a900473ffffffffffffffffffffffffffffffffffffffff1673ffffffffffffffffffffffffffffffffffffffff166113f9909392919063ffffffff16565b6109f233600160009054906101000a900473ffffffffffffffffffffffffffffffffffffffff1685600460009054906101000a900473ffffffffffffffffffffffffffffffffffffffff1673ffffffffffffffffffffffffffffffffffffffff166113f9909392919063ffffffff16565b610a41338984600460009054906101000a900473ffffffffffffffffffffffffffffffffffffffff1673ffffffffffffffffffffffffffffffffffffffff166113f9909392919063ffffffff16565b5050505050505050565b60065481565b60075481565b600080610a648484610d73565b90506000670de0b6b3a764000060025483610a7f919061198b565b610a8991906119fc565b90506000670de0b6b3a764000060035484610aa4919061198b565b610aae91906119fc565b9050808284610abd9190611c18565b610ac79190611c18565b935050505092915050565b60035481565b60086020528060005260406000206000915090505481565b6000610b3c600a60008573ffffffffffffffffffffffffffffffffffffffff1673ffffffffffffffffffffffffffffffffffffffff168152602001908152602001600020548385610b90565b905092915050565b600160009054906101000a900473ffffffffffffffffffffffffffffffffffffffff1681565b610b7261147b565b8060038190555050565b610b8461147b565b610b8e6000611502565b565b60008060008514610bf257600660018087610bab9190611c18565b6002610bb7919061198b565b610bc19190611a2d565b86600188610bcf9190611c18565b610bd9919061198b565b610be3919061198b565b610bed91906119fc565b610bf5565b60005b905060008086148015610c085750600185145b610c85576006600186600189610c1e9190611c18565b610c289190611a2d565b6002610c34919061198b565b610c3e9190611a2d565b8688610c4a9190611a2d565b8760018a610c589190611c18565b610c629190611a2d565b610c6c919061198b565b610c76919061198b565b610c8091906119fc565b610c88565b60005b905060008282610c989190611c18565b9050600080600860008873ffffffffffffffffffffffffffffffffffffffff1673ffffffffffffffffffffffffffffffffffffffff16815260200190815260200160002054905060018103610cf1576005549150610d1d565b60028103610d03576006549150610d1c565b60038103610d15576007549150610d1b565b60055491505b5b5b81670de0b6b3a764000084610d32919061198b565b610d3c919061198b565b955050505050509392505050565b60008060009054906101000a900473ffffffffffffffffffffffffffffffffffffffff16905090565b6000610dca82600a60008673ffffffffffffffffffffffffffffffffffffffff1673ffffffffffffffffffffffffffffffffffffffff16815260200190815260200160002054610dc39190611c18565b8385610b90565b905092915050565b610dda61147b565b8060028190555050565b6000600a60008473ffffffffffffffffffffffffffffffffffffffff1673ffffffffffffffffffffffffffffffffffffffff168152602001908152602001600020549050818111610e6a576040517f08c379a0000000000000000000000000000000000000000000000000000000008152600401610e6190611c98565b60405180910390fd5b6000610e828383610e7b9190611c18565b8486610b90565b90506000670de0b6b3a764000060025483610e9d919061198b565b610ea791906119fc565b90506000670de0b6b3a764000060035484610ec2919061198b565b610ecc91906119fc565b905084600960008873ffffffffffffffffffffffffffffffffffffffff1673ffffffffffffffffffffffffffffffffffffffff16815260200190815260200160002060003373ffffffffffffffffffffffffffffffffffffffff1673ffffffffffffffffffffffffffffffffffffffff168152602001908152602001600020541015610f8d576040517f08c379a0000000000000000000000000000000000000000000000000000000008152600401610f8490611d04565b60405180910390fd5b84600960008873ffffffffffffffffffffffffffffffffffffffff1673ffffffffffffffffffffffffffffffffffffffff16815260200190815260200160002060003373ffffffffffffffffffffffffffffffffffffffff1673ffffffffffffffffffffffffffffffffffffffff168152602001908152602001600020546110159190611c18565b600960008873ffffffffffffffffffffffffffffffffffffffff1673ffffffffffffffffffffffffffffffffffffffff16815260200190815260200160002060003373ffffffffffffffffffffffffffffffffffffffff1673ffffffffffffffffffffffffffffffffffffffff1681526020019081526020016000208190555084846110a19190611c18565b600a60008873ffffffffffffffffffffffffffffffffffffffff1673ffffffffffffffffffffffffffffffffffffffff16815260200190815260200160002081905550600080600860008973ffffffffffffffffffffffffffffffffffffffff1673ffffffffffffffffffffffffffffffffffffffff1681526020019081526020016000205490506001810361113b576005549150611167565b6002810361114d576006549150611166565b6003810361115f576007549150611165565b60055491505b5b5b7f952ff8d90add9fdeaeb478102d54441cf0cc0cbe53b1d99e51f747cdc8379e54338960008a8989898e8e61119c9190611c18565b8a6040516111b299989796959493929190611b8b565b60405180910390a161121d338486886111cb9190611c18565b6111d59190611c18565b600460009054906101000a900473ffffffffffffffffffffffffffffffffffffffff1673ffffffffffffffffffffffffffffffffffffffff166115c69092919063ffffffff16565b61128c600160009054906101000a900473ffffffffffffffffffffffffffffffffffffffff1685600460009054906101000a900473ffffffffffffffffffffffffffffffffffffffff1673ffffffffffffffffffffffffffffffffffffffff166115c69092919063ffffffff16565b6112d98884600460009054906101000a900473ffffffffffffffffffffffffffffffffffffffff1673ffffffffffffffffffffffffffffffffffffffff166115c69092919063ffffffff16565b5050505050505050565b60025481565b6112f161147b565b600073ffffffffffffffffffffffffffffffffffffffff168173ffffffffffffffffffffffffffffffffffffffff16036113635760006040517f1e4fbdf700000000000000000000000000000000000000000000000000000000815260040161135a91906118c1565b60405180910390fd5b61136c81611502565b50565b600a6020528060005260406000206000915090505481565b61138f61147b565b80600160006101000a81548173ffffffffffffffffffffffffffffffffffffffff021916908373ffffffffffffffffffffffffffffffffffffffff16021790555050565b600460009054906101000a900473ffffffffffffffffffffffffffffffffffffffff1681565b611475848573ffffffffffffffffffffffffffffffffffffffff166323b872dd86868660405160240161142e93929190611d24565b604051602081830303815290604052915060e01b6020820180517bffffffffffffffffffffffffffffffffffffffffffffffffffffffff8381831617835250505050611645565b50505050565b6114836116e7565b73ffffffffffffffffffffffffffffffffffffffff166114a1610d4a565b73ffffffffffffffffffffffffffffffffffffffff1614611500576114c46116e7565b6040517f118cdaa70000000000000000000000000000000000000000000000000000000081526004016114f791906118c1565b60405180910390fd5b565b60008060009054906101000a900473ffffffffffffffffffffffffffffffffffffffff169050816000806101000a81548173ffffffffffffffffffffffffffffffffffffffff021916908373ffffffffffffffffffffffffffffffffffffffff1602179055508173ffffffffffffffffffffffffffffffffffffffff168173ffffffffffffffffffffffffffffffffffffffff167f8be0079c531659141344cd1fd0a4f28419497f9722a3daafe3b4186f6b6457e060405160405180910390a35050565b611640838473ffffffffffffffffffffffffffffffffffffffff1663a9059cbb85856040516024016115f9929190611d5b565b604051602081830303815290604052915060e01b6020820180517bffffffffffffffffffffffffffffffffffffffffffffffffffffffff8381831617835250505050611645565b505050565b600080602060008451602086016000885af180611668576040513d6000823e3d81fd5b3d92506000519150506000821461168357600181141561169f565b60008473ffffffffffffffffffffffffffffffffffffffff163b145b156116e157836040517f5274afe70000000000000000000000000000000000000000000000000000000081526004016116d891906118c1565b60405180910390fd5b50505050565b600033905090565b600080fd5b600073ffffffffffffffffffffffffffffffffffffffff82169050919050565b600061171f826116f4565b9050919050565b61172f81611714565b811461173a57600080fd5b50565b60008135905061174c81611726565b92915050565b60008060408385031215611769576117686116ef565b5b60006117778582860161173d565b92505060206117888582860161173d565b9150509250929050565b6000819050919050565b6117a581611792565b82525050565b60006020820190506117c0600083018461179c565b92915050565b6117cf81611792565b81146117da57600080fd5b50565b6000813590506117ec816117c6565b92915050565b60008060408385031215611809576118086116ef565b5b60006118178582860161173d565b9250506020611828858286016117dd565b9150509250929050565b60008060006060848603121561184b5761184a6116ef565b5b60006118598682870161173d565b935050602061186a868287016117dd565b925050604061187b868287016117dd565b9150509250925092565b60006020828403121561189b5761189a6116ef565b5b60006118a98482850161173d565b91505092915050565b6118bb81611714565b82525050565b60006020820190506118d660008301846118b2565b92915050565b6000602082840312156118f2576118f16116ef565b5b6000611900848285016117dd565b91505092915050565b600080600060608486031215611922576119216116ef565b5b6000611930868287016117dd565b9350506020611941868287016117dd565b92505060406119528682870161173d565b9150509250925092565b7f4e487b7100000000000000000000000000000000000000000000000000000000600052601160045260246000fd5b600061199682611792565b91506119a183611792565b92508282026119af81611792565b915082820484148315176119c6576119c561195c565b5b5092915050565b7f4e487b7100000000000000000000000000000000000000000000000000000000600052601260045260246000fd5b6000611a0782611792565b9150611a1283611792565b925082611a2257611a216119cd565b5b828204905092915050565b6000611a3882611792565b9150611a4383611792565b9250828201905080821115611a5b57611a5a61195c565b5b92915050565b600082825260208201905092915050565b7f4f6e6c79207468652073686172657327207375626a6563742063616e2062757960008201527f2074686520666972737420736861726500000000000000000000000000000000602082015250565b6000611ace603083611a61565b9150611ad982611a72565b604082019050919050565b60006020820190508181036000830152611afd81611ac1565b9050919050565b7f496e76616c696420637572766520696e64657800000000000000000000000000600082015250565b6000611b3a601383611a61565b9150611b4582611b04565b602082019050919050565b60006020820190508181036000830152611b6981611b2d565b9050919050565b60008115159050919050565b611b8581611b70565b82525050565b600061012082019050611ba1600083018c6118b2565b611bae602083018b6118b2565b611bbb604083018a611b7c565b611bc8606083018961179c565b611bd5608083018861179c565b611be260a083018761179c565b611bef60c083018661179c565b611bfc60e083018561179c565b611c0a61010083018461179c565b9a9950505050505050505050565b6000611c2382611792565b9150611c2e83611792565b9250828203905081811115611c4657611c4561195c565b5b92915050565b7f43616e6e6f742073656c6c20746865206c617374207368617265000000000000600082015250565b6000611c82601a83611a61565b9150611c8d82611c4c565b602082019050919050565b60006020820190508181036000830152611cb181611c75565b9050919050565b7f496e73756666696369656e742073686172657300000000000000000000000000600082015250565b6000611cee601383611a61565b9150611cf982611cb8565b602082019050919050565b60006020820190508181036000830152611d1d81611ce1565b9050919050565b6000606082019050611d3960008301866118b2565b611d4660208301856118b2565b611d53604083018461179c565b949350505050565b6000604082019050611d7060008301856118b2565b611d7d602083018461179c565b939250505056fea2646970667358221220ab0b88d615c47bc753c4409a7cf73c9b6c0f27e29f20402f0d7802ee218cce8c64736f6c63430008140033",
  "devdoc": {
    "errors": {
      "OwnableInvalidOwner(address)": [
        {
          "details": "The owner is not a valid owner account. (eg. `address(0)`)"
        }
      ],
      "OwnableUnauthorizedAccount(address)": [
        {
          "details": "The caller account is not authorized to perform an operation."
        }
      ],
      "SafeERC20FailedOperation(address)": [
        {
          "details": "An operation with an ERC-20 token failed."
        }
      ]
    },
    "kind": "dev",
    "methods": {
      "owner()": {
        "details": "Returns the address of the current owner."
      },
      "renounceOwnership()": {
        "details": "Leaves the contract without owner. It will not be possible to call `onlyOwner` functions. Can only be called by the current owner. NOTE: Renouncing ownership will leave the contract without an owner, thereby disabling any functionality that is only available to the owner."
      },
      "transferOwnership(address)": {
        "details": "Transfers ownership of the contract to a new account (`newOwner`). Can only be called by the current owner."
      }
    },
    "version": 1
  },
  "userdoc": {
    "kind": "user",
    "methods": {},
    "version": 1
  },
  "storageLayout": {
    "storage": [
      {
        "astId": 8,
        "contract": "contracts/Backroom.sol:Backroom",
        "label": "_owner",
        "offset": 0,
        "slot": "0",
        "type": "t_address"
      },
      {
        "astId": 1515,
        "contract": "contracts/Backroom.sol:Backroom",
        "label": "protocolFeeDestination",
        "offset": 0,
        "slot": "1",
        "type": "t_address"
      },
      {
        "astId": 1517,
        "contract": "contracts/Backroom.sol:Backroom",
        "label": "protocolFeePercent",
        "offset": 0,
        "slot": "2",
        "type": "t_uint256"
      },
      {
        "astId": 1519,
        "contract": "contracts/Backroom.sol:Backroom",
        "label": "subjectFeePercent",
        "offset": 0,
        "slot": "3",
        "type": "t_uint256"
      },
      {
        "astId": 1521,
        "contract": "contracts/Backroom.sol:Backroom",
        "label": "token",
        "offset": 0,
        "slot": "4",
        "type": "t_address"
      },
      {
        "astId": 1523,
        "contract": "contracts/Backroom.sol:Backroom",
        "label": "multiplier1",
        "offset": 0,
        "slot": "5",
        "type": "t_uint256"
      },
      {
        "astId": 1525,
        "contract": "contracts/Backroom.sol:Backroom",
        "label": "multiplier2",
        "offset": 0,
        "slot": "6",
        "type": "t_uint256"
      },
      {
        "astId": 1527,
        "contract": "contracts/Backroom.sol:Backroom",
        "label": "multiplier3",
        "offset": 0,
        "slot": "7",
        "type": "t_uint256"
      },
      {
        "astId": 1531,
        "contract": "contracts/Backroom.sol:Backroom",
        "label": "subjectCurve",
        "offset": 0,
        "slot": "8",
        "type": "t_mapping(t_address,t_uint256)"
      },
      {
        "astId": 1557,
        "contract": "contracts/Backroom.sol:Backroom",
        "label": "sharesBalance",
        "offset": 0,
        "slot": "9",
        "type": "t_mapping(t_address,t_mapping(t_address,t_uint256))"
      },
      {
        "astId": 1561,
        "contract": "contracts/Backroom.sol:Backroom",
        "label": "sharesSupply",
        "offset": 0,
        "slot": "10",
        "type": "t_mapping(t_address,t_uint256)"
      }
    ],
    "types": {
      "t_address": {
        "encoding": "inplace",
        "label": "address",
        "numberOfBytes": "20"
      },
      "t_mapping(t_address,t_mapping(t_address,t_uint256))": {
        "encoding": "mapping",
        "key": "t_address",
        "label": "mapping(address => mapping(address => uint256))",
        "numberOfBytes": "32",
        "value": "t_mapping(t_address,t_uint256)"
      },
      "t_mapping(t_address,t_uint256)": {
        "encoding": "mapping",
        "key": "t_address",
        "label": "mapping(address => uint256)",
        "numberOfBytes": "32",
        "value": "t_uint256"
      },
      "t_uint256": {
        "encoding": "inplace",
        "label": "uint256",
        "numberOfBytes": "32"
      }
    }
  }
}