{
  "address": "0x4F547373e442eC5b95519dF1D741f0fb35A906f5",
  "abi": [
    {
      "inputs": [
        {
          "internalType": "address",
          "name": "_feeDestination",
          "type": "address"
        },
        {
          "internalType": "uint256",
          "name": "_protocolFeePercent",
          "type": "uint256"
        },
        {
          "internalType": "uint256",
          "name": "_subjectFeePercent",
          "type": "uint256"
        },
        {
          "internalType": "address",
          "name": "_token",
          "type": "address"
        },
        {
          "internalType": "uint256",
          "name": "_divisor1",
          "type": "uint256"
        },
        {
          "internalType": "uint256",
          "name": "_divisor2",
          "type": "uint256"
        },
        {
          "internalType": "uint256",
          "name": "_divisor3",
          "type": "uint256"
        }
      ],
      "stateMutability": "nonpayable",
      "type": "constructor"
    },
    {
      "inputs": [
        {
          "internalType": "address",
          "name": "owner",
          "type": "address"
        }
      ],
      "name": "OwnableInvalidOwner",
      "type": "error"
    },
    {
      "inputs": [
        {
          "internalType": "address",
          "name": "account",
          "type": "address"
        }
      ],
      "name": "OwnableUnauthorizedAccount",
      "type": "error"
    },
    {
      "inputs": [
        {
          "internalType": "address",
          "name": "token",
          "type": "address"
        }
      ],
      "name": "SafeERC20FailedOperation",
      "type": "error"
    },
    {
      "anonymous": false,
      "inputs": [
        {
          "indexed": true,
          "internalType": "address",
          "name": "previousOwner",
          "type": "address"
        },
        {
          "indexed": true,
          "internalType": "address",
          "name": "newOwner",
          "type": "address"
        }
      ],
      "name": "OwnershipTransferred",
      "type": "event"
    },
    {
      "anonymous": false,
      "inputs": [
        {
          "indexed": false,
          "internalType": "address",
          "name": "trader",
          "type": "address"
        },
        {
          "indexed": false,
          "internalType": "address",
          "name": "subject",
          "type": "address"
        },
        {
          "indexed": false,
          "internalType": "bool",
          "name": "isBuy",
          "type": "bool"
        },
        {
          "indexed": false,
          "internalType": "uint256",
          "name": "shareAmount",
          "type": "uint256"
        },
        {
          "indexed": false,
          "internalType": "uint256",
          "name": "ethAmount",
          "type": "uint256"
        },
        {
          "indexed": false,
          "internalType": "uint256",
          "name": "protocolEthAmount",
          "type": "uint256"
        },
        {
          "indexed": false,
          "internalType": "uint256",
          "name": "subjectEthAmount",
          "type": "uint256"
        },
        {
          "indexed": false,
          "internalType": "uint256",
          "name": "supply",
          "type": "uint256"
        }
      ],
      "name": "Trade",
      "type": "event"
    },
    {
      "inputs": [
        {
          "internalType": "address",
          "name": "sharesSubject",
          "type": "address"
        },
        {
          "internalType": "uint256",
          "name": "amount",
          "type": "uint256"
        },
        {
          "internalType": "uint256",
          "name": "curveIndex",
          "type": "uint256"
        }
      ],
      "name": "buyShares",
      "outputs": [],
      "stateMutability": "payable",
      "type": "function"
    },
    {
      "inputs": [],
      "name": "divisor1",
      "outputs": [
        {
          "internalType": "uint256",
          "name": "",
          "type": "uint256"
        }
      ],
      "stateMutability": "view",
      "type": "function"
    },
    {
      "inputs": [],
      "name": "divisor2",
      "outputs": [
        {
          "internalType": "uint256",
          "name": "",
          "type": "uint256"
        }
      ],
      "stateMutability": "view",
      "type": "function"
    },
    {
      "inputs": [],
      "name": "divisor3",
      "outputs": [
        {
          "internalType": "uint256",
          "name": "",
          "type": "uint256"
        }
      ],
      "stateMutability": "view",
      "type": "function"
    },
    {
      "inputs": [
        {
          "internalType": "address",
          "name": "sharesSubject",
          "type": "address"
        },
        {
          "internalType": "uint256",
          "name": "amount",
          "type": "uint256"
        }
      ],
      "name": "getBuyPrice",
      "outputs": [
        {
          "internalType": "uint256",
          "name": "",
          "type": "uint256"
        }
      ],
      "stateMutability": "view",
      "type": "function"
    },
    {
      "inputs": [
        {
          "internalType": "address",
          "name": "sharesSubject",
          "type": "address"
        },
        {
          "internalType": "uint256",
          "name": "amount",
          "type": "uint256"
        }
      ],
      "name": "getBuyPriceAfterFee",
      "outputs": [
        {
          "internalType": "uint256",
          "name": "",
          "type": "uint256"
        }
      ],
      "stateMutability": "view",
      "type": "function"
    },
    {
      "inputs": [
        {
          "internalType": "uint256",
          "name": "supply",
          "type": "uint256"
        },
        {
          "internalType": "uint256",
          "name": "amount",
          "type": "uint256"
        },
        {
          "internalType": "address",
          "name": "sharesSubject",
          "type": "address"
        }
      ],
      "name": "getPrice",
      "outputs": [
        {
          "internalType": "uint256",
          "name": "",
          "type": "uint256"
        }
      ],
      "stateMutability": "view",
      "type": "function"
    },
    {
      "inputs": [
        {
          "internalType": "address",
          "name": "sharesSubject",
          "type": "address"
        },
        {
          "internalType": "uint256",
          "name": "amount",
          "type": "uint256"
        }
      ],
      "name": "getSellPrice",
      "outputs": [
        {
          "internalType": "uint256",
          "name": "",
          "type": "uint256"
        }
      ],
      "stateMutability": "view",
      "type": "function"
    },
    {
      "inputs": [
        {
          "internalType": "address",
          "name": "sharesSubject",
          "type": "address"
        },
        {
          "internalType": "uint256",
          "name": "amount",
          "type": "uint256"
        }
      ],
      "name": "getSellPriceAfterFee",
      "outputs": [
        {
          "internalType": "uint256",
          "name": "",
          "type": "uint256"
        }
      ],
      "stateMutability": "view",
      "type": "function"
    },
    {
      "inputs": [],
      "name": "owner",
      "outputs": [
        {
          "internalType": "address",
          "name": "",
          "type": "address"
        }
      ],
      "stateMutability": "view",
      "type": "function"
    },
    {
      "inputs": [],
      "name": "protocolFeeDestination",
      "outputs": [
        {
          "internalType": "address",
          "name": "",
          "type": "address"
        }
      ],
      "stateMutability": "view",
      "type": "function"
    },
    {
      "inputs": [],
      "name": "protocolFeePercent",
      "outputs": [
        {
          "internalType": "uint256",
          "name": "",
          "type": "uint256"
        }
      ],
      "stateMutability": "view",
      "type": "function"
    },
    {
      "inputs": [],
      "name": "renounceOwnership",
      "outputs": [],
      "stateMutability": "nonpayable",
      "type": "function"
    },
    {
      "inputs": [
        {
          "internalType": "address",
          "name": "sharesSubject",
          "type": "address"
        },
        {
          "internalType": "uint256",
          "name": "amount",
          "type": "uint256"
        }
      ],
      "name": "sellShares",
      "outputs": [],
      "stateMutability": "payable",
      "type": "function"
    },
    {
      "inputs": [
        {
          "internalType": "address",
          "name": "_feeDestination",
          "type": "address"
        }
      ],
      "name": "setFeeDestination",
      "outputs": [],
      "stateMutability": "nonpayable",
      "type": "function"
    },
    {
      "inputs": [
        {
          "internalType": "uint256",
          "name": "_feePercent",
          "type": "uint256"
        }
      ],
      "name": "setProtocolFeePercent",
      "outputs": [],
      "stateMutability": "nonpayable",
      "type": "function"
    },
    {
      "inputs": [
        {
          "internalType": "uint256",
          "name": "_feePercent",
          "type": "uint256"
        }
      ],
      "name": "setSubjectFeePercent",
      "outputs": [],
      "stateMutability": "nonpayable",
      "type": "function"
    },
    {
      "inputs": [
        {
          "internalType": "address",
          "name": "",
          "type": "address"
        },
        {
          "internalType": "address",
          "name": "",
          "type": "address"
        }
      ],
      "name": "sharesBalance",
      "outputs": [
        {
          "internalType": "uint256",
          "name": "",
          "type": "uint256"
        }
      ],
      "stateMutability": "view",
      "type": "function"
    },
    {
      "inputs": [
        {
          "internalType": "address",
          "name": "",
          "type": "address"
        }
      ],
      "name": "sharesSupply",
      "outputs": [
        {
          "internalType": "uint256",
          "name": "",
          "type": "uint256"
        }
      ],
      "stateMutability": "view",
      "type": "function"
    },
    {
      "inputs": [
        {
          "internalType": "address",
          "name": "",
          "type": "address"
        }
      ],
      "name": "subjectCurve",
      "outputs": [
        {
          "internalType": "uint256",
          "name": "",
          "type": "uint256"
        }
      ],
      "stateMutability": "view",
      "type": "function"
    },
    {
      "inputs": [],
      "name": "subjectFeePercent",
      "outputs": [
        {
          "internalType": "uint256",
          "name": "",
          "type": "uint256"
        }
      ],
      "stateMutability": "view",
      "type": "function"
    },
    {
      "inputs": [],
      "name": "token",
      "outputs": [
        {
          "internalType": "address",
          "name": "",
          "type": "address"
        }
      ],
      "stateMutability": "view",
      "type": "function"
    },
    {
      "inputs": [
        {
          "internalType": "address",
          "name": "newOwner",
          "type": "address"
        }
      ],
      "name": "transferOwnership",
      "outputs": [],
      "stateMutability": "nonpayable",
      "type": "function"
    }
  ],
  "transactionHash": "0xd76c98d1d8f7dce7a91080a15780b8fd0e623fccd7d5c12a76c1fa5d210c5996",
  "args": [
    "0xf39Fd6e51aad88F6F4ce6aB8827279cffFb92266",
    "50000000000000000",
    "50000000000000000",
    "0xc08392d15C6EfaFa126364B0ddD4C18b82A1369e",
    "16000",
    "10000",
    "6000"
  ],
  "numDeployments": 1,
  "solcInputHash": "fdde4d4b145c8b638dceca4fc87922c0",
  "bytecode": "0x60806040523480156200001157600080fd5b50604051620023a7380380620023a78339818101604052810190620000379190620003ac565b33600073ffffffffffffffffffffffffffffffffffffffff168173ffffffffffffffffffffffffffffffffffffffff1603620000ad5760006040517f1e4fbdf7000000000000000000000000000000000000000000000000000000008152600401620000a4919062000470565b60405180910390fd5b620000be816200024360201b60201c565b506000831162000105576040517f08c379a0000000000000000000000000000000000000000000000000000000008152600401620000fc90620004ee565b60405180910390fd5b600082116200014b576040517f08c379a0000000000000000000000000000000000000000000000000000000008152600401620001429062000560565b60405180910390fd5b6000811162000191576040517f08c379a00000000000000000000000000000000000000000000000000000000081526004016200018890620005d2565b60405180910390fd5b86600160006101000a81548173ffffffffffffffffffffffffffffffffffffffff021916908373ffffffffffffffffffffffffffffffffffffffff160217905550856002819055508460038190555083600460006101000a81548173ffffffffffffffffffffffffffffffffffffffff021916908373ffffffffffffffffffffffffffffffffffffffff16021790555082600581905550816006819055508060078190555050505050505050620005f4565b60008060009054906101000a900473ffffffffffffffffffffffffffffffffffffffff169050816000806101000a81548173ffffffffffffffffffffffffffffffffffffffff021916908373ffffffffffffffffffffffffffffffffffffffff1602179055508173ffffffffffffffffffffffffffffffffffffffff168173ffffffffffffffffffffffffffffffffffffffff167f8be0079c531659141344cd1fd0a4f28419497f9722a3daafe3b4186f6b6457e060405160405180910390a35050565b600080fd5b600073ffffffffffffffffffffffffffffffffffffffff82169050919050565b600062000339826200030c565b9050919050565b6200034b816200032c565b81146200035757600080fd5b50565b6000815190506200036b8162000340565b92915050565b6000819050919050565b620003868162000371565b81146200039257600080fd5b50565b600081519050620003a6816200037b565b92915050565b600080600080600080600060e0888a031215620003ce57620003cd62000307565b5b6000620003de8a828b016200035a565b9750506020620003f18a828b0162000395565b9650506040620004048a828b0162000395565b9550506060620004178a828b016200035a565b94505060806200042a8a828b0162000395565b93505060a06200043d8a828b0162000395565b92505060c0620004508a828b0162000395565b91505092959891949750929550565b6200046a816200032c565b82525050565b60006020820190506200048760008301846200045f565b92915050565b600082825260208201905092915050565b7f44697669736f72312063616e6e6f74206265207a65726f000000000000000000600082015250565b6000620004d66017836200048d565b9150620004e3826200049e565b602082019050919050565b600060208201905081810360008301526200050981620004c7565b9050919050565b7f44697669736f72322063616e6e6f74206265207a65726f000000000000000000600082015250565b6000620005486017836200048d565b9150620005558262000510565b602082019050919050565b600060208201905081810360008301526200057b8162000539565b9050919050565b7f44697669736f72332063616e6e6f74206265207a65726f000000000000000000600082015250565b6000620005ba6017836200048d565b9150620005c78262000582565b602082019050919050565b60006020820190508181036000830152620005ed81620005ab565b9050919050565b611da380620006046000396000f3fe6080604052600436106101405760003560e01c806373f773ff116100b6578063b51d05341161006f578063b51d053414610477578063d6e6eb9f14610493578063f2fde38b146104be578063f9931be0146104e7578063fbe5323414610524578063fc0c546a1461054d57610140565b806373f773ff146103535780637ae5a159146103905780638903f396146103bb5780638da5cb5b146103e65780639ae7178114610411578063a49834211461044e57610140565b80633b44c946116101085780633b44c946146102435780634635256e146102805780634ce7957c146102bd5780635a8a764e146102e857806367c3cc3e14610311578063715018a61461033c57610140565b8063020235ff146101455780630f026f6d1461018257806317f69222146101bf5780632267a89c146101db57806324dc441d14610218575b600080fd5b34801561015157600080fd5b5061016c6004803603810190610167919061174a565b610578565b60405161017991906117a3565b60405180910390f35b34801561018e57600080fd5b506101a960048036038101906101a491906117ea565b61059d565b6040516101b691906117a3565b60405180910390f35b6101d960048036038101906101d4919061182a565b610618565b005b3480156101e757600080fd5b5061020260048036038101906101fd91906117ea565b610ac4565b60405161020f91906117a3565b60405180910390f35b34801561022457600080fd5b5061022d610b3f565b60405161023a91906117a3565b60405180910390f35b34801561024f57600080fd5b5061026a6004803603810190610265919061187d565b610b45565b60405161027791906117a3565b60405180910390f35b34801561028c57600080fd5b506102a760048036038101906102a291906117ea565b610b5d565b6040516102b491906117a3565b60405180910390f35b3480156102c957600080fd5b506102d2610bb1565b6040516102df91906118b9565b60405180910390f35b3480156102f457600080fd5b5061030f600480360381019061030a91906118d4565b610bd7565b005b34801561031d57600080fd5b50610326610be9565b60405161033391906117a3565b60405180910390f35b34801561034857600080fd5b50610351610bef565b005b34801561035f57600080fd5b5061037a60048036038101906103759190611901565b610c03565b60405161038791906117a3565b60405180910390f35b34801561039c57600080fd5b506103a5610dbd565b6040516103b291906117a3565b60405180910390f35b3480156103c757600080fd5b506103d0610dc3565b6040516103dd91906117a3565b60405180910390f35b3480156103f257600080fd5b506103fb610dc9565b60405161040891906118b9565b60405180910390f35b34801561041d57600080fd5b50610438600480360381019061043391906117ea565b610df2565b60405161044591906117a3565b60405180910390f35b34801561045a57600080fd5b50610475600480360381019061047091906118d4565b610e51565b005b610491600480360381019061048c91906117ea565b610e63565b005b34801561049f57600080fd5b506104a86112db565b6040516104b591906117a3565b60405180910390f35b3480156104ca57600080fd5b506104e560048036038101906104e0919061187d565b6112e1565b005b3480156104f357600080fd5b5061050e6004803603810190610509919061187d565b611367565b60405161051b91906117a3565b60405180910390f35b34801561053057600080fd5b5061054b6004803603810190610546919061187d565b61137f565b005b34801561055957600080fd5b506105626113cb565b60405161056f91906118b9565b60405180910390f35b6009602052816000526040600020602052806000526040600020600091509150505481565b6000806105aa8484610b5d565b90506000670de0b6b3a7640000600254836105c59190611983565b6105cf91906119f4565b90506000670de0b6b3a7640000600354846105ea9190611983565b6105f491906119f4565b90508082846106039190611a25565b61060d9190611a25565b935050505092915050565b6000600a60008573ffffffffffffffffffffffffffffffffffffffff1673ffffffffffffffffffffffffffffffffffffffff168152602001908152602001600020549050600081118061069657503373ffffffffffffffffffffffffffffffffffffffff168473ffffffffffffffffffffffffffffffffffffffff16145b6106d5576040517f08c379a00000000000000000000000000000000000000000000000000000000081526004016106cc90611adc565b60405180910390fd5b60008114801561071057503373ffffffffffffffffffffffffffffffffffffffff168473ffffffffffffffffffffffffffffffffffffffff16145b156107ab5760018210158015610727575060038211155b610766576040517f08c379a000000000000000000000000000000000000000000000000000000000815260040161075d90611b48565b60405180910390fd5b81600860008673ffffffffffffffffffffffffffffffffffffffff1673ffffffffffffffffffffffffffffffffffffffff168152602001908152602001600020819055505b60006107b8828587610c03565b90506000670de0b6b3a7640000600254836107d39190611983565b6107dd91906119f4565b90506000670de0b6b3a7640000600354846107f89190611983565b61080291906119f4565b905085600960008973ffffffffffffffffffffffffffffffffffffffff1673ffffffffffffffffffffffffffffffffffffffff16815260200190815260200160002060003373ffffffffffffffffffffffffffffffffffffffff1673ffffffffffffffffffffffffffffffffffffffff1681526020019081526020016000205461088c9190611a25565b600960008973ffffffffffffffffffffffffffffffffffffffff1673ffffffffffffffffffffffffffffffffffffffff16815260200190815260200160002060003373ffffffffffffffffffffffffffffffffffffffff1673ffffffffffffffffffffffffffffffffffffffff1681526020019081526020016000208190555085846109189190611a25565b600a60008973ffffffffffffffffffffffffffffffffffffffff1673ffffffffffffffffffffffffffffffffffffffff168152602001908152602001600020819055507f2c76e7a47fd53e2854856ac3f0a5f3ee40d15cfaa82266357ea9779c486ab9c333886001898787878d8c6109909190611a25565b6040516109a4989796959493929190611b83565b60405180910390a16109fb333085600460009054906101000a900473ffffffffffffffffffffffffffffffffffffffff1673ffffffffffffffffffffffffffffffffffffffff166113f1909392919063ffffffff16565b610a6c33600160009054906101000a900473ffffffffffffffffffffffffffffffffffffffff1684600460009054906101000a900473ffffffffffffffffffffffffffffffffffffffff1673ffffffffffffffffffffffffffffffffffffffff166113f1909392919063ffffffff16565b610abb338883600460009054906101000a900473ffffffffffffffffffffffffffffffffffffffff1673ffffffffffffffffffffffffffffffffffffffff166113f1909392919063ffffffff16565b50505050505050565b600080610ad18484610df2565b90506000670de0b6b3a764000060025483610aec9190611983565b610af691906119f4565b90506000670de0b6b3a764000060035484610b119190611983565b610b1b91906119f4565b9050808284610b2a9190611c01565b610b349190611c01565b935050505092915050565b60035481565b60086020528060005260406000206000915090505481565b6000610ba9600a60008573ffffffffffffffffffffffffffffffffffffffff1673ffffffffffffffffffffffffffffffffffffffff168152602001908152602001600020548385610c03565b905092915050565b600160009054906101000a900473ffffffffffffffffffffffffffffffffffffffff1681565b610bdf611473565b8060038190555050565b60075481565b610bf7611473565b610c0160006114fa565b565b60008060008514610c6557600660018087610c1e9190611c01565b6002610c2a9190611983565b610c349190611a25565b86600188610c429190611c01565b610c4c9190611983565b610c569190611983565b610c6091906119f4565b610c68565b60005b905060008086148015610c7b5750600185145b610cf8576006600186600189610c919190611c01565b610c9b9190611a25565b6002610ca79190611983565b610cb19190611a25565b8688610cbd9190611a25565b8760018a610ccb9190611c01565b610cd59190611a25565b610cdf9190611983565b610ce99190611983565b610cf391906119f4565b610cfb565b60005b905060008282610d0b9190611c01565b9050600080600860008873ffffffffffffffffffffffffffffffffffffffff1673ffffffffffffffffffffffffffffffffffffffff16815260200190815260200160002054905060018103610d64576005549150610d90565b60028103610d76576006549150610d8f565b60038103610d88576007549150610d8e565b60055491505b5b5b81670de0b6b3a764000084610da59190611983565b610daf91906119f4565b955050505050509392505050565b60065481565b60055481565b60008060009054906101000a900473ffffffffffffffffffffffffffffffffffffffff16905090565b6000610e4982600a60008673ffffffffffffffffffffffffffffffffffffffff1673ffffffffffffffffffffffffffffffffffffffff16815260200190815260200160002054610e429190611c01565b8385610c03565b905092915050565b610e59611473565b8060028190555050565b6000600a60008473ffffffffffffffffffffffffffffffffffffffff1673ffffffffffffffffffffffffffffffffffffffff168152602001908152602001600020549050818111610ee9576040517f08c379a0000000000000000000000000000000000000000000000000000000008152600401610ee090611c81565b60405180910390fd5b6000610f018383610efa9190611c01565b8486610c03565b90506000670de0b6b3a764000060025483610f1c9190611983565b610f2691906119f4565b90506000670de0b6b3a764000060035484610f419190611983565b610f4b91906119f4565b905084600960008873ffffffffffffffffffffffffffffffffffffffff1673ffffffffffffffffffffffffffffffffffffffff16815260200190815260200160002060003373ffffffffffffffffffffffffffffffffffffffff1673ffffffffffffffffffffffffffffffffffffffff16815260200190815260200160002054101561100c576040517f08c379a000000000000000000000000000000000000000000000000000000000815260040161100390611ced565b60405180910390fd5b84600960008873ffffffffffffffffffffffffffffffffffffffff1673ffffffffffffffffffffffffffffffffffffffff16815260200190815260200160002060003373ffffffffffffffffffffffffffffffffffffffff1673ffffffffffffffffffffffffffffffffffffffff168152602001908152602001600020546110949190611c01565b600960008873ffffffffffffffffffffffffffffffffffffffff1673ffffffffffffffffffffffffffffffffffffffff16815260200190815260200160002060003373ffffffffffffffffffffffffffffffffffffffff1673ffffffffffffffffffffffffffffffffffffffff1681526020019081526020016000208190555084846111209190611c01565b600a60008873ffffffffffffffffffffffffffffffffffffffff1673ffffffffffffffffffffffffffffffffffffffff168152602001908152602001600020819055507f2c76e7a47fd53e2854856ac3f0a5f3ee40d15cfaa82266357ea9779c486ab9c333876000888787878c8c6111989190611c01565b6040516111ac989796959493929190611b83565b60405180910390a1611217338284866111c59190611c01565b6111cf9190611c01565b600460009054906101000a900473ffffffffffffffffffffffffffffffffffffffff1673ffffffffffffffffffffffffffffffffffffffff166115be9092919063ffffffff16565b611286600160009054906101000a900473ffffffffffffffffffffffffffffffffffffffff1683600460009054906101000a900473ffffffffffffffffffffffffffffffffffffffff1673ffffffffffffffffffffffffffffffffffffffff166115be9092919063ffffffff16565b6112d38682600460009054906101000a900473ffffffffffffffffffffffffffffffffffffffff1673ffffffffffffffffffffffffffffffffffffffff166115be9092919063ffffffff16565b505050505050565b60025481565b6112e9611473565b600073ffffffffffffffffffffffffffffffffffffffff168173ffffffffffffffffffffffffffffffffffffffff160361135b5760006040517f1e4fbdf700000000000000000000000000000000000000000000000000000000815260040161135291906118b9565b60405180910390fd5b611364816114fa565b50565b600a6020528060005260406000206000915090505481565b611387611473565b80600160006101000a81548173ffffffffffffffffffffffffffffffffffffffff021916908373ffffffffffffffffffffffffffffffffffffffff16021790555050565b600460009054906101000a900473ffffffffffffffffffffffffffffffffffffffff1681565b61146d848573ffffffffffffffffffffffffffffffffffffffff166323b872dd86868660405160240161142693929190611d0d565b604051602081830303815290604052915060e01b6020820180517bffffffffffffffffffffffffffffffffffffffffffffffffffffffff838183161783525050505061163d565b50505050565b61147b6116df565b73ffffffffffffffffffffffffffffffffffffffff16611499610dc9565b73ffffffffffffffffffffffffffffffffffffffff16146114f8576114bc6116df565b6040517f118cdaa70000000000000000000000000000000000000000000000000000000081526004016114ef91906118b9565b60405180910390fd5b565b60008060009054906101000a900473ffffffffffffffffffffffffffffffffffffffff169050816000806101000a81548173ffffffffffffffffffffffffffffffffffffffff021916908373ffffffffffffffffffffffffffffffffffffffff1602179055508173ffffffffffffffffffffffffffffffffffffffff168173ffffffffffffffffffffffffffffffffffffffff167f8be0079c531659141344cd1fd0a4f28419497f9722a3daafe3b4186f6b6457e060405160405180910390a35050565b611638838473ffffffffffffffffffffffffffffffffffffffff1663a9059cbb85856040516024016115f1929190611d44565b604051602081830303815290604052915060e01b6020820180517bffffffffffffffffffffffffffffffffffffffffffffffffffffffff838183161783525050505061163d565b505050565b600080602060008451602086016000885af180611660576040513d6000823e3d81fd5b3d92506000519150506000821461167b576001811415611697565b60008473ffffffffffffffffffffffffffffffffffffffff163b145b156116d957836040517f5274afe70000000000000000000000000000000000000000000000000000000081526004016116d091906118b9565b60405180910390fd5b50505050565b600033905090565b600080fd5b600073ffffffffffffffffffffffffffffffffffffffff82169050919050565b6000611717826116ec565b9050919050565b6117278161170c565b811461173257600080fd5b50565b6000813590506117448161171e565b92915050565b60008060408385031215611761576117606116e7565b5b600061176f85828601611735565b925050602061178085828601611735565b9150509250929050565b6000819050919050565b61179d8161178a565b82525050565b60006020820190506117b86000830184611794565b92915050565b6117c78161178a565b81146117d257600080fd5b50565b6000813590506117e4816117be565b92915050565b60008060408385031215611801576118006116e7565b5b600061180f85828601611735565b9250506020611820858286016117d5565b9150509250929050565b600080600060608486031215611843576118426116e7565b5b600061185186828701611735565b9350506020611862868287016117d5565b9250506040611873868287016117d5565b9150509250925092565b600060208284031215611893576118926116e7565b5b60006118a184828501611735565b91505092915050565b6118b38161170c565b82525050565b60006020820190506118ce60008301846118aa565b92915050565b6000602082840312156118ea576118e96116e7565b5b60006118f8848285016117d5565b91505092915050565b60008060006060848603121561191a576119196116e7565b5b6000611928868287016117d5565b9350506020611939868287016117d5565b925050604061194a86828701611735565b9150509250925092565b7f4e487b7100000000000000000000000000000000000000000000000000000000600052601160045260246000fd5b600061198e8261178a565b91506119998361178a565b92508282026119a78161178a565b915082820484148315176119be576119bd611954565b5b5092915050565b7f4e487b7100000000000000000000000000000000000000000000000000000000600052601260045260246000fd5b60006119ff8261178a565b9150611a0a8361178a565b925082611a1a57611a196119c5565b5b828204905092915050565b6000611a308261178a565b9150611a3b8361178a565b9250828201905080821115611a5357611a52611954565b5b92915050565b600082825260208201905092915050565b7f4f6e6c79207468652073686172657327207375626a6563742063616e2062757960008201527f2074686520666972737420736861726500000000000000000000000000000000602082015250565b6000611ac6603083611a59565b9150611ad182611a6a565b604082019050919050565b60006020820190508181036000830152611af581611ab9565b9050919050565b7f496e76616c696420637572766520696e64657800000000000000000000000000600082015250565b6000611b32601383611a59565b9150611b3d82611afc565b602082019050919050565b60006020820190508181036000830152611b6181611b25565b9050919050565b60008115159050919050565b611b7d81611b68565b82525050565b600061010082019050611b99600083018b6118aa565b611ba6602083018a6118aa565b611bb36040830189611b74565b611bc06060830188611794565b611bcd6080830187611794565b611bda60a0830186611794565b611be760c0830185611794565b611bf460e0830184611794565b9998505050505050505050565b6000611c0c8261178a565b9150611c178361178a565b9250828203905081811115611c2f57611c2e611954565b5b92915050565b7f43616e6e6f742073656c6c20746865206c617374207368617265000000000000600082015250565b6000611c6b601a83611a59565b9150611c7682611c35565b602082019050919050565b60006020820190508181036000830152611c9a81611c5e565b9050919050565b7f496e73756666696369656e742073686172657300000000000000000000000000600082015250565b6000611cd7601383611a59565b9150611ce282611ca1565b602082019050919050565b60006020820190508181036000830152611d0681611cca565b9050919050565b6000606082019050611d2260008301866118aa565b611d2f60208301856118aa565b611d3c6040830184611794565b949350505050565b6000604082019050611d5960008301856118aa565b611d666020830184611794565b939250505056fea2646970667358221220c1728a94516575757a89801598283dc27ec76daafc745744f71688bf7efc6a5264736f6c63430008140033",
  "devdoc": {
    "errors": {
      "OwnableInvalidOwner(address)": [
        {
          "details": "The owner is not a valid owner account. (eg. `address(0)`)"
        }
      ],
      "OwnableUnauthorizedAccount(address)": [
        {
          "details": "The caller account is not authorized to perform an operation."
        }
      ],
      "SafeERC20FailedOperation(address)": [
        {
          "details": "An operation with an ERC-20 token failed."
        }
      ]
    },
    "kind": "dev",
    "methods": {
      "owner()": {
        "details": "Returns the address of the current owner."
      },
      "renounceOwnership()": {
        "details": "Leaves the contract without owner. It will not be possible to call `onlyOwner` functions. Can only be called by the current owner. NOTE: Renouncing ownership will leave the contract without an owner, thereby disabling any functionality that is only available to the owner."
      },
      "transferOwnership(address)": {
        "details": "Transfers ownership of the contract to a new account (`newOwner`). Can only be called by the current owner."
      }
    },
    "version": 1
  },
  "userdoc": {
    "kind": "user",
    "methods": {},
    "version": 1
  },
  "storageLayout": {
    "storage": [
      {
        "astId": 8,
        "contract": "contracts/BackroomShares.sol:BackroomShares",
        "label": "_owner",
        "offset": 0,
        "slot": "0",
        "type": "t_address"
      },
      {
        "astId": 1515,
        "contract": "contracts/BackroomShares.sol:BackroomShares",
        "label": "protocolFeeDestination",
        "offset": 0,
        "slot": "1",
        "type": "t_address"
      },
      {
        "astId": 1517,
        "contract": "contracts/BackroomShares.sol:BackroomShares",
        "label": "protocolFeePercent",
        "offset": 0,
        "slot": "2",
        "type": "t_uint256"
      },
      {
        "astId": 1519,
        "contract": "contracts/BackroomShares.sol:BackroomShares",
        "label": "subjectFeePercent",
        "offset": 0,
        "slot": "3",
        "type": "t_uint256"
      },
      {
        "astId": 1521,
        "contract": "contracts/BackroomShares.sol:BackroomShares",
        "label": "token",
        "offset": 0,
        "slot": "4",
        "type": "t_address"
      },
      {
        "astId": 1523,
        "contract": "contracts/BackroomShares.sol:BackroomShares",
        "label": "divisor1",
        "offset": 0,
        "slot": "5",
        "type": "t_uint256"
      },
      {
        "astId": 1525,
        "contract": "contracts/BackroomShares.sol:BackroomShares",
        "label": "divisor2",
        "offset": 0,
        "slot": "6",
        "type": "t_uint256"
      },
      {
        "astId": 1527,
        "contract": "contracts/BackroomShares.sol:BackroomShares",
        "label": "divisor3",
        "offset": 0,
        "slot": "7",
        "type": "t_uint256"
      },
      {
        "astId": 1531,
        "contract": "contracts/BackroomShares.sol:BackroomShares",
        "label": "subjectCurve",
        "offset": 0,
        "slot": "8",
        "type": "t_mapping(t_address,t_uint256)"
      },
      {
        "astId": 1555,
        "contract": "contracts/BackroomShares.sol:BackroomShares",
        "label": "sharesBalance",
        "offset": 0,
        "slot": "9",
        "type": "t_mapping(t_address,t_mapping(t_address,t_uint256))"
      },
      {
        "astId": 1559,
        "contract": "contracts/BackroomShares.sol:BackroomShares",
        "label": "sharesSupply",
        "offset": 0,
        "slot": "10",
        "type": "t_mapping(t_address,t_uint256)"
      }
    ],
    "types": {
      "t_address": {
        "encoding": "inplace",
        "label": "address",
        "numberOfBytes": "20"
      },
      "t_mapping(t_address,t_mapping(t_address,t_uint256))": {
        "encoding": "mapping",
        "key": "t_address",
        "label": "mapping(address => mapping(address => uint256))",
        "numberOfBytes": "32",
        "value": "t_mapping(t_address,t_uint256)"
      },
      "t_mapping(t_address,t_uint256)": {
        "encoding": "mapping",
        "key": "t_address",
        "label": "mapping(address => uint256)",
        "numberOfBytes": "32",
        "value": "t_uint256"
      },
      "t_uint256": {
        "encoding": "inplace",
        "label": "uint256",
        "numberOfBytes": "32"
      }
    }
  }
}