{
  "address": "0x2922C203D8a7840A8D27657514c5Ed44e021F7C4",
  "abi": [
    {
      "inputs": [
        {
          "internalType": "address",
          "name": "_usdcToken",
          "type": "address"
        },
        {
          "internalType": "address",
          "name": "_stakingContract",
          "type": "address"
        },
        {
          "internalType": "uint256",
          "name": "_saleDuration",
          "type": "uint256"
        }
      ],
      "stateMutability": "nonpayable",
      "type": "constructor"
    },
    {
      "inputs": [
        {
          "internalType": "address",
          "name": "owner",
          "type": "address"
        }
      ],
      "name": "OwnableInvalidOwner",
      "type": "error"
    },
    {
      "inputs": [
        {
          "internalType": "address",
          "name": "account",
          "type": "address"
        }
      ],
      "name": "OwnableUnauthorizedAccount",
      "type": "error"
    },
    {
      "inputs": [],
      "name": "ReentrancyGuardReentrantCall",
      "type": "error"
    },
    {
      "inputs": [
        {
          "internalType": "address",
          "name": "token",
          "type": "address"
        }
      ],
      "name": "SafeERC20FailedOperation",
      "type": "error"
    },
    {
      "anonymous": false,
      "inputs": [
        {
          "indexed": false,
          "internalType": "address[]",
          "name": "investors",
          "type": "address[]"
        },
        {
          "indexed": false,
          "internalType": "uint256[]",
          "name": "tokenAllocations",
          "type": "uint256[]"
        },
        {
          "indexed": false,
          "internalType": "uint256[]",
          "name": "usdcRefunds",
          "type": "uint256[]"
        }
      ],
      "name": "AllocationsSet",
      "type": "event"
    },
    {
      "anonymous": false,
      "inputs": [
        {
          "indexed": true,
          "internalType": "address",
          "name": "investor",
          "type": "address"
        },
        {
          "indexed": false,
          "internalType": "uint256",
          "name": "amount",
          "type": "uint256"
        },
        {
          "indexed": false,
          "internalType": "uint256",
          "name": "stakedSnapshot",
          "type": "uint256"
        }
      ],
      "name": "DepositMade",
      "type": "event"
    },
    {
      "anonymous": false,
      "inputs": [
        {
          "indexed": false,
          "internalType": "uint256",
          "name": "amount",
          "type": "uint256"
        }
      ],
      "name": "FundsWithdrawn",
      "type": "event"
    },
    {
      "anonymous": false,
      "inputs": [
        {
          "indexed": true,
          "internalType": "address",
          "name": "previousOwner",
          "type": "address"
        },
        {
          "indexed": true,
          "internalType": "address",
          "name": "newOwner",
          "type": "address"
        }
      ],
      "name": "OwnershipTransferred",
      "type": "event"
    },
    {
      "anonymous": false,
      "inputs": [
        {
          "indexed": false,
          "internalType": "uint256",
          "name": "startTime",
          "type": "uint256"
        },
        {
          "indexed": false,
          "internalType": "uint256",
          "name": "endTime",
          "type": "uint256"
        },
        {
          "indexed": false,
          "internalType": "uint256",
          "name": "duration",
          "type": "uint256"
        }
      ],
      "name": "SaleStarted",
      "type": "event"
    },
    {
      "inputs": [
        {
          "internalType": "address",
          "name": "",
          "type": "address"
        }
      ],
      "name": "amountInvested",
      "outputs": [
        {
          "internalType": "uint256",
          "name": "",
          "type": "uint256"
        }
      ],
      "stateMutability": "view",
      "type": "function"
    },
    {
      "inputs": [
        {
          "internalType": "uint256",
          "name": "_amount",
          "type": "uint256"
        }
      ],
      "name": "deposit",
      "outputs": [],
      "stateMutability": "nonpayable",
      "type": "function"
    },
    {
      "inputs": [],
      "name": "getAllInvestors",
      "outputs": [
        {
          "components": [
            {
              "internalType": "address",
              "name": "investor",
              "type": "address"
            },
            {
              "internalType": "uint256",
              "name": "amountInvested",
              "type": "uint256"
            },
            {
              "internalType": "uint256",
              "name": "stakedSnapshot",
              "type": "uint256"
            },
            {
              "internalType": "uint256",
              "name": "tokenAllocation",
              "type": "uint256"
            },
            {
              "internalType": "uint256",
              "name": "usdcRefund",
              "type": "uint256"
            }
          ],
          "internalType": "struct IInvesting.InvestorInfo[]",
          "name": "",
          "type": "tuple[]"
        }
      ],
      "stateMutability": "view",
      "type": "function"
    },
    {
      "inputs": [],
      "name": "getSaleTimes",
      "outputs": [
        {
          "internalType": "uint256",
          "name": "saleStart_",
          "type": "uint256"
        },
        {
          "internalType": "uint256",
          "name": "saleEnd_",
          "type": "uint256"
        },
        {
          "internalType": "uint256",
          "name": "saleDuration_",
          "type": "uint256"
        }
      ],
      "stateMutability": "view",
      "type": "function"
    },
    {
      "inputs": [],
      "name": "getTopInvestors",
      "outputs": [
        {
          "internalType": "address[]",
          "name": "investors_",
          "type": "address[]"
        },
        {
          "internalType": "uint256[]",
          "name": "amountsInvested_",
          "type": "uint256[]"
        }
      ],
      "stateMutability": "view",
      "type": "function"
    },
    {
      "inputs": [],
      "name": "getTotalInvested",
      "outputs": [
        {
          "internalType": "uint256",
          "name": "",
          "type": "uint256"
        }
      ],
      "stateMutability": "view",
      "type": "function"
    },
    {
      "inputs": [
        {
          "internalType": "address",
          "name": "user",
          "type": "address"
        }
      ],
      "name": "getUserInfo",
      "outputs": [
        {
          "internalType": "uint256",
          "name": "amountInvested_",
          "type": "uint256"
        },
        {
          "internalType": "uint256",
          "name": "stakedSnapshot_",
          "type": "uint256"
        },
        {
          "internalType": "uint256",
          "name": "tokenAllocation_",
          "type": "uint256"
        },
        {
          "internalType": "uint256",
          "name": "usdcRefund_",
          "type": "uint256"
        }
      ],
      "stateMutability": "view",
      "type": "function"
    },
    {
      "inputs": [
        {
          "internalType": "uint256",
          "name": "",
          "type": "uint256"
        }
      ],
      "name": "investors",
      "outputs": [
        {
          "internalType": "address",
          "name": "",
          "type": "address"
        }
      ],
      "stateMutability": "view",
      "type": "function"
    },
    {
      "inputs": [],
      "name": "isSaleActive",
      "outputs": [
        {
          "internalType": "bool",
          "name": "",
          "type": "bool"
        }
      ],
      "stateMutability": "view",
      "type": "function"
    },
    {
      "inputs": [],
      "name": "owner",
      "outputs": [
        {
          "internalType": "address",
          "name": "",
          "type": "address"
        }
      ],
      "stateMutability": "view",
      "type": "function"
    },
    {
      "inputs": [],
      "name": "renounceOwnership",
      "outputs": [],
      "stateMutability": "nonpayable",
      "type": "function"
    },
    {
      "inputs": [],
      "name": "saleDuration",
      "outputs": [
        {
          "internalType": "uint256",
          "name": "",
          "type": "uint256"
        }
      ],
      "stateMutability": "view",
      "type": "function"
    },
    {
      "inputs": [],
      "name": "saleEnd",
      "outputs": [
        {
          "internalType": "uint256",
          "name": "",
          "type": "uint256"
        }
      ],
      "stateMutability": "view",
      "type": "function"
    },
    {
      "inputs": [],
      "name": "saleStart",
      "outputs": [
        {
          "internalType": "uint256",
          "name": "",
          "type": "uint256"
        }
      ],
      "stateMutability": "view",
      "type": "function"
    },
    {
      "inputs": [
        {
          "internalType": "address[]",
          "name": "_addresses",
          "type": "address[]"
        },
        {
          "internalType": "uint256[]",
          "name": "_tokenAllocations",
          "type": "uint256[]"
        },
        {
          "internalType": "uint256[]",
          "name": "_usdcRefunds",
          "type": "uint256[]"
        }
      ],
      "name": "setAllocations",
      "outputs": [],
      "stateMutability": "nonpayable",
      "type": "function"
    },
    {
      "inputs": [
        {
          "internalType": "address",
          "name": "",
          "type": "address"
        }
      ],
      "name": "stakedSnapshot",
      "outputs": [
        {
          "internalType": "uint256",
          "name": "",
          "type": "uint256"
        }
      ],
      "stateMutability": "view",
      "type": "function"
    },
    {
      "inputs": [],
      "name": "stakingContract",
      "outputs": [
        {
          "internalType": "contract IStaking",
          "name": "",
          "type": "address"
        }
      ],
      "stateMutability": "view",
      "type": "function"
    },
    {
      "inputs": [],
      "name": "startSale",
      "outputs": [],
      "stateMutability": "nonpayable",
      "type": "function"
    },
    {
      "inputs": [
        {
          "internalType": "address",
          "name": "",
          "type": "address"
        }
      ],
      "name": "tokenAllocation",
      "outputs": [
        {
          "internalType": "uint256",
          "name": "",
          "type": "uint256"
        }
      ],
      "stateMutability": "view",
      "type": "function"
    },
    {
      "inputs": [],
      "name": "totalInvested",
      "outputs": [
        {
          "internalType": "uint256",
          "name": "",
          "type": "uint256"
        }
      ],
      "stateMutability": "view",
      "type": "function"
    },
    {
      "inputs": [
        {
          "internalType": "address",
          "name": "newOwner",
          "type": "address"
        }
      ],
      "name": "transferOwnership",
      "outputs": [],
      "stateMutability": "nonpayable",
      "type": "function"
    },
    {
      "inputs": [
        {
          "internalType": "address",
          "name": "",
          "type": "address"
        }
      ],
      "name": "usdcRefund",
      "outputs": [
        {
          "internalType": "uint256",
          "name": "",
          "type": "uint256"
        }
      ],
      "stateMutability": "view",
      "type": "function"
    },
    {
      "inputs": [],
      "name": "usdcToken",
      "outputs": [
        {
          "internalType": "contract IERC20",
          "name": "",
          "type": "address"
        }
      ],
      "stateMutability": "view",
      "type": "function"
    },
    {
      "inputs": [],
      "name": "withdrawFunds",
      "outputs": [],
      "stateMutability": "nonpayable",
      "type": "function"
    }
  ],
  "transactionHash": "0x59f3afa8bdaadb6677a9f92eae99de31d970e29cd89217fa040c21b7c7b36268",
  "args": [
    "0x833589fCD6eDb6E08f4c7C32D4f71b54bdA02913",
    "0x34b2Cc9eA1CBCd70227D72f86144f446648cD260",
    300
  ],
  "numDeployments": 1,
  "solcInputHash": "e14afe6d88bdb02302809b67081b8bb7",
  "bytecode": "0x60c06040523480156200001157600080fd5b50604051620031b3380380620031b38339818101604052810190620000379190620003d1565b33600073ffffffffffffffffffffffffffffffffffffffff168173ffffffffffffffffffffffffffffffffffffffff1603620000ad5760006040517f1e4fbdf7000000000000000000000000000000000000000000000000000000008152600401620000a491906200043e565b60405180910390fd5b620000be816200026860201b60201c565b5060018081905550600073ffffffffffffffffffffffffffffffffffffffff168373ffffffffffffffffffffffffffffffffffffffff160362000138576040517f08c379a00000000000000000000000000000000000000000000000000000000081526004016200012f90620004e2565b60405180910390fd5b600073ffffffffffffffffffffffffffffffffffffffff168273ffffffffffffffffffffffffffffffffffffffff1603620001aa576040517f08c379a0000000000000000000000000000000000000000000000000000000008152600401620001a1906200057a565b60405180910390fd5b60008111620001f0576040517f08c379a0000000000000000000000000000000000000000000000000000000008152600401620001e79062000612565b60405180910390fd5b8273ffffffffffffffffffffffffffffffffffffffff1660808173ffffffffffffffffffffffffffffffffffffffff16815250508173ffffffffffffffffffffffffffffffffffffffff1660a08173ffffffffffffffffffffffffffffffffffffffff16815250508060048190555050505062000634565b60008060009054906101000a900473ffffffffffffffffffffffffffffffffffffffff169050816000806101000a81548173ffffffffffffffffffffffffffffffffffffffff021916908373ffffffffffffffffffffffffffffffffffffffff1602179055508173ffffffffffffffffffffffffffffffffffffffff168173ffffffffffffffffffffffffffffffffffffffff167f8be0079c531659141344cd1fd0a4f28419497f9722a3daafe3b4186f6b6457e060405160405180910390a35050565b600080fd5b600073ffffffffffffffffffffffffffffffffffffffff82169050919050565b60006200035e8262000331565b9050919050565b620003708162000351565b81146200037c57600080fd5b50565b600081519050620003908162000365565b92915050565b6000819050919050565b620003ab8162000396565b8114620003b757600080fd5b50565b600081519050620003cb81620003a0565b92915050565b600080600060608486031215620003ed57620003ec6200032c565b5b6000620003fd868287016200037f565b935050602062000410868287016200037f565b92505060406200042386828701620003ba565b9150509250925092565b620004388162000351565b82525050565b60006020820190506200045560008301846200042d565b92915050565b600082825260208201905092915050565b7f5553444320746f6b656e20616464726573732063616e6e6f74206265207a657260008201527f6f00000000000000000000000000000000000000000000000000000000000000602082015250565b6000620004ca6021836200045b565b9150620004d7826200046c565b604082019050919050565b60006020820190508181036000830152620004fd81620004bb565b9050919050565b7f5374616b696e6720636f6e747261637420616464726573732063616e6e6f742060008201527f6265207a65726f00000000000000000000000000000000000000000000000000602082015250565b6000620005626027836200045b565b91506200056f8262000504565b604082019050919050565b60006020820190508181036000830152620005958162000553565b9050919050565b7f53616c65206475726174696f6e206d757374206265206772656174657220746860008201527f616e207a65726f00000000000000000000000000000000000000000000000000602082015250565b6000620005fa6027836200045b565b915062000607826200059c565b604082019050919050565b600060208201905081810360008301526200062d81620005eb565b9050919050565b60805160a051612b3d6200067660003960008181610e8601526112ad01526000818161045f015281816108410152818161092c0152610e3d0152612b3d6000f3fe608060405234801561001057600080fd5b50600436106101585760003560e01c80635f945733116100c3578063b6b55f251161007c578063b6b55f25146103ac578063c10b9358146103c8578063d0a2f2c4146103e6578063ee99205c14610404578063ef90f7fa14610422578063f2fde38b1461044157610158565b80635f9457331461030b5780636386c1c714610329578063715018a61461035c5780638da5cb5b14610366578063ab0bcc4114610384578063b66a0e5d146103a257610158565b80633feb5f2b116101155780633feb5f2b1461021f578063440e1e691461024f5780634c7f89291461027f5780635216aeec146102af578063564566a8146102cd57806358d21178146102eb57610158565b806311eac8551461015d578063182a89e61461017b5780631cbaa8481461019757806324600fc3146101c75780633711d9fb146101d15780633c3d3af6146101ef575b600080fd5b61016561045d565b6040516101729190611cdf565b60405180910390f35b61019560048036038101906101909190611dbf565b610481565b005b6101b160048036038101906101ac9190611eb1565b610794565b6040516101be9190611ef7565b60405180910390f35b6101cf6107ac565b005b6101d96109aa565b6040516101e69190611ef7565b60405180910390f35b61020960048036038101906102049190611eb1565b6109b0565b6040516102169190611ef7565b60405180910390f35b61023960048036038101906102349190611f3e565b6109c8565b6040516102469190611f7a565b60405180910390f35b61026960048036038101906102649190611eb1565b610a07565b6040516102769190611ef7565b60405180910390f35b61029960048036038101906102949190611eb1565b610a1f565b6040516102a69190611ef7565b60405180910390f35b6102b7610a37565b6040516102c49190611ef7565b60405180910390f35b6102d5610a3d565b6040516102e29190611fb0565b60405180910390f35b6102f3610a65565b60405161030293929190611fcb565b60405180910390f35b610313610a7e565b6040516103209190611ef7565b60405180910390f35b610343600480360381019061033e9190611eb1565b610a88565b6040516103539493929190612002565b60405180910390f35b610364610b9d565b005b61036e610bb1565b60405161037b9190611f7a565b60405180910390f35b61038c610bda565b6040516103999190611ef7565b60405180910390f35b6103aa610be0565b005b6103c660048036038101906103c19190611f3e565b610c99565b005b6103d0611080565b6040516103dd9190611ef7565b60405180910390f35b6103ee611086565b6040516103fb919061217c565b60405180910390f35b61040c6112ab565b60405161041991906121bf565b60405180910390f35b61042a6112cf565b604051610438929190612338565b60405180910390f35b61045b60048036038101906104569190611eb1565b611850565b005b7f000000000000000000000000000000000000000000000000000000000000000081565b6104896118d6565b83839050868690501480156104a357508181905086869050145b6104e2576040517f08c379a00000000000000000000000000000000000000000000000000000000081526004016104d9906123cc565b60405180910390fd5b60005b8686905081101561074a57600073ffffffffffffffffffffffffffffffffffffffff1687878381811061051b5761051a6123ec565b5b90506020020160208101906105309190611eb1565b73ffffffffffffffffffffffffffffffffffffffff1603610586576040517f08c379a000000000000000000000000000000000000000000000000000000000815260040161057d90612467565b60405180910390fd5b60006006600089898581811061059f5761059e6123ec565b5b90506020020160208101906105b49190611eb1565b73ffffffffffffffffffffffffffffffffffffffff1673ffffffffffffffffffffffffffffffffffffffff168152602001908152602001600020541161062f576040517f08c379a0000000000000000000000000000000000000000000000000000000008152600401610626906124d3565b60405180910390fd5b848482818110610642576106416123ec565b5b90506020020135600860008989858181106106605761065f6123ec565b5b90506020020160208101906106759190611eb1565b73ffffffffffffffffffffffffffffffffffffffff1673ffffffffffffffffffffffffffffffffffffffff168152602001908152602001600020819055508282828181106106c6576106c56123ec565b5b90506020020135600960008989858181106106e4576106e36123ec565b5b90506020020160208101906106f99190611eb1565b73ffffffffffffffffffffffffffffffffffffffff1673ffffffffffffffffffffffffffffffffffffffff16815260200190815260200160002081905550808061074290612522565b9150506104e5565b507f85e8d2c09fca20f54db67ec51505bc0191ba3f71778c8dd16f18275b8cc994708686868686866040516107849695949392919061265f565b60405180910390a1505050505050565b60096020528060005260406000206000915090505481565b6107b46118d6565b6000600254116107f9576040517f08c379a00000000000000000000000000000000000000000000000000000000081526004016107f0906126fd565b60405180910390fd5b600354421161083d576040517f08c379a000000000000000000000000000000000000000000000000000000000815260040161083490612769565b60405180910390fd5b60007f000000000000000000000000000000000000000000000000000000000000000073ffffffffffffffffffffffffffffffffffffffff166370a08231306040518263ffffffff1660e01b81526004016108989190611f7a565b602060405180830381865afa1580156108b5573d6000803e3d6000fd5b505050506040513d601f19601f820116820180604052508101906108d9919061279e565b90506000811161091e576040517f08c379a000000000000000000000000000000000000000000000000000000000815260040161091590612817565b60405180910390fd5b610970610929610bb1565b827f000000000000000000000000000000000000000000000000000000000000000073ffffffffffffffffffffffffffffffffffffffff1661195d9092919063ffffffff16565b7f4a37b25aab49761ecf63117fe82b98d750917451133cf797507bc9fb5b96044a8160405161099f9190611ef7565b60405180910390a150565b60045481565b60066020528060005260406000206000915090505481565b600a81815481106109d857600080fd5b906000526020600020016000915054906101000a900473ffffffffffffffffffffffffffffffffffffffff1681565b60086020528060005260406000206000915090505481565b60076020528060005260406000206000915090505481565b60055481565b600080600254118015610a5257506002544210155b8015610a6057506003544211155b905090565b6000806000600254600354600454925092509250909192565b6000600554905090565b600080600080600660008673ffffffffffffffffffffffffffffffffffffffff1673ffffffffffffffffffffffffffffffffffffffff16815260200190815260200160002054600760008773ffffffffffffffffffffffffffffffffffffffff1673ffffffffffffffffffffffffffffffffffffffff16815260200190815260200160002054600860008873ffffffffffffffffffffffffffffffffffffffff1673ffffffffffffffffffffffffffffffffffffffff16815260200190815260200160002054600960008973ffffffffffffffffffffffffffffffffffffffff1673ffffffffffffffffffffffffffffffffffffffff1681526020019081526020016000205493509350935093509193509193565b610ba56118d6565b610baf60006119dc565b565b60008060009054906101000a900473ffffffffffffffffffffffffffffffffffffffff16905090565b60025481565b610be86118d6565b60006002541480610bfa575060035442115b610c39576040517f08c379a0000000000000000000000000000000000000000000000000000000008152600401610c3090612883565b60405180910390fd5b42600281905550600454600254610c5091906128a3565b6003819055507f5ee5e9eecd6fd27ba20784f8da118fe26b697aca487c80f605baec0b88ed3636600254600354600454604051610c8f93929190611fcb565b60405180910390a1565b600060025411610cde576040517f08c379a0000000000000000000000000000000000000000000000000000000008152600401610cd5906126fd565b60405180910390fd5b600254421015610d23576040517f08c379a0000000000000000000000000000000000000000000000000000000008152600401610d1a906126fd565b60405180910390fd5b600354421115610d68576040517f08c379a0000000000000000000000000000000000000000000000000000000008152600401610d5f90612923565b60405180910390fd5b610d70611aa0565b60008111610db3576040517f08c379a0000000000000000000000000000000000000000000000000000000008152600401610daa9061298f565b60405180910390fd5b6000600660003373ffffffffffffffffffffffffffffffffffffffff1673ffffffffffffffffffffffffffffffffffffffff1681526020019081526020016000205414610e35576040517f08c379a0000000000000000000000000000000000000000000000000000000008152600401610e2c906129fb565b60405180910390fd5b610e823330837f000000000000000000000000000000000000000000000000000000000000000073ffffffffffffffffffffffffffffffffffffffff16611ae6909392919063ffffffff16565b60007f000000000000000000000000000000000000000000000000000000000000000073ffffffffffffffffffffffffffffffffffffffff16636e2f1696336040518263ffffffff1660e01b8152600401610edd9190611f7a565b602060405180830381865afa158015610efa573d6000803e3d6000fd5b505050506040513d601f19601f82011682018060405250810190610f1e919061279e565b905081600660003373ffffffffffffffffffffffffffffffffffffffff1673ffffffffffffffffffffffffffffffffffffffff1681526020019081526020016000208190555080600760003373ffffffffffffffffffffffffffffffffffffffff1673ffffffffffffffffffffffffffffffffffffffff16815260200190815260200160002081905550600a339080600181540180825580915050600190039060005260206000200160009091909190916101000a81548173ffffffffffffffffffffffffffffffffffffffff021916908373ffffffffffffffffffffffffffffffffffffffff160217905550816005600082825461101d91906128a3565b925050819055503373ffffffffffffffffffffffffffffffffffffffff167f0b05f0d1cd0819f155b8a61f60baf7767c1ee49d04aeaab701df236140eb93f9838360405161106c929190612a1b565b60405180910390a25061107d611b68565b50565b60035481565b60606000600a8054905067ffffffffffffffff8111156110a9576110a8612a44565b5b6040519080825280602002602001820160405280156110e257816020015b6110cf611c1b565b8152602001906001900390816110c75790505b50905060005b600a805490508110156112a3576000600a828154811061110b5761110a6123ec565b5b9060005260206000200160009054906101000a900473ffffffffffffffffffffffffffffffffffffffff1690506040518060a001604052808273ffffffffffffffffffffffffffffffffffffffff168152602001600660008473ffffffffffffffffffffffffffffffffffffffff1673ffffffffffffffffffffffffffffffffffffffff168152602001908152602001600020548152602001600760008473ffffffffffffffffffffffffffffffffffffffff1673ffffffffffffffffffffffffffffffffffffffff168152602001908152602001600020548152602001600860008473ffffffffffffffffffffffffffffffffffffffff1673ffffffffffffffffffffffffffffffffffffffff168152602001908152602001600020548152602001600960008473ffffffffffffffffffffffffffffffffffffffff1673ffffffffffffffffffffffffffffffffffffffff16815260200190815260200160002054815250838381518110611284576112836123ec565b5b602002602001018190525050808061129b90612522565b9150506110e8565b508091505090565b7f000000000000000000000000000000000000000000000000000000000000000081565b6060806000600a8054905090506000601482116112ec57816112ef565b60145b905060008267ffffffffffffffff81111561130d5761130c612a44565b5b60405190808252806020026020018201604052801561133b5781602001602082028036833780820191505090505b50905060008367ffffffffffffffff81111561135a57611359612a44565b5b6040519080825280602002602001820160405280156113885781602001602082028036833780820191505090505b50905060005b848110156114d257600a81815481106113aa576113a96123ec565b5b9060005260206000200160009054906101000a900473ffffffffffffffffffffffffffffffffffffffff168382815181106113e8576113e76123ec565b5b602002602001019073ffffffffffffffffffffffffffffffffffffffff16908173ffffffffffffffffffffffffffffffffffffffff168152505060066000600a838154811061143a576114396123ec565b5b9060005260206000200160009054906101000a900473ffffffffffffffffffffffffffffffffffffffff1673ffffffffffffffffffffffffffffffffffffffff1673ffffffffffffffffffffffffffffffffffffffff168152602001908152602001600020548282815181106114b3576114b26123ec565b5b60200260200101818152505080806114ca90612522565b91505061138e565b5060005b848110156116f05760005b600182876114ef9190612a73565b6114f99190612a73565b8110156116dc578260018261150e91906128a3565b8151811061151f5761151e6123ec565b5b602002602001015183828151811061153a576115396123ec565b5b602002602001015110156116c957600083828151811061155d5761155c6123ec565b5b602002602001015190508360018361157591906128a3565b81518110611586576115856123ec565b5b60200260200101518483815181106115a1576115a06123ec565b5b60200260200101818152505080846001846115bc91906128a3565b815181106115cd576115cc6123ec565b5b60200260200101818152505060008583815181106115ee576115ed6123ec565b5b602002602001015190508560018461160691906128a3565b81518110611617576116166123ec565b5b6020026020010151868481518110611632576116316123ec565b5b602002602001019073ffffffffffffffffffffffffffffffffffffffff16908173ffffffffffffffffffffffffffffffffffffffff1681525050808660018561167b91906128a3565b8151811061168c5761168b6123ec565b5b602002602001019073ffffffffffffffffffffffffffffffffffffffff16908173ffffffffffffffffffffffffffffffffffffffff168152505050505b80806116d490612522565b9150506114e1565b5080806116e890612522565b9150506114d6565b508267ffffffffffffffff81111561170b5761170a612a44565b5b6040519080825280602002602001820160405280156117395781602001602082028036833780820191505090505b5095508267ffffffffffffffff81111561175657611755612a44565b5b6040519080825280602002602001820160405280156117845781602001602082028036833780820191505090505b50945060005b83811015611847578281815181106117a5576117a46123ec565b5b60200260200101518782815181106117c0576117bf6123ec565b5b602002602001019073ffffffffffffffffffffffffffffffffffffffff16908173ffffffffffffffffffffffffffffffffffffffff168152505081818151811061180d5761180c6123ec565b5b6020026020010151868281518110611828576118276123ec565b5b602002602001018181525050808061183f90612522565b91505061178a565b50505050509091565b6118586118d6565b600073ffffffffffffffffffffffffffffffffffffffff168173ffffffffffffffffffffffffffffffffffffffff16036118ca5760006040517f1e4fbdf70000000000000000000000000000000000000000000000000000000081526004016118c19190611f7a565b60405180910390fd5b6118d3816119dc565b50565b6118de611b71565b73ffffffffffffffffffffffffffffffffffffffff166118fc610bb1565b73ffffffffffffffffffffffffffffffffffffffff161461195b5761191f611b71565b6040517f118cdaa70000000000000000000000000000000000000000000000000000000081526004016119529190611f7a565b60405180910390fd5b565b6119d7838473ffffffffffffffffffffffffffffffffffffffff1663a9059cbb8585604051602401611990929190612aa7565b604051602081830303815290604052915060e01b6020820180517bffffffffffffffffffffffffffffffffffffffffffffffffffffffff8381831617835250505050611b79565b505050565b60008060009054906101000a900473ffffffffffffffffffffffffffffffffffffffff169050816000806101000a81548173ffffffffffffffffffffffffffffffffffffffff021916908373ffffffffffffffffffffffffffffffffffffffff1602179055508173ffffffffffffffffffffffffffffffffffffffff168173ffffffffffffffffffffffffffffffffffffffff167f8be0079c531659141344cd1fd0a4f28419497f9722a3daafe3b4186f6b6457e060405160405180910390a35050565b600260015403611adc576040517f3ee5aeb500000000000000000000000000000000000000000000000000000000815260040160405180910390fd5b6002600181905550565b611b62848573ffffffffffffffffffffffffffffffffffffffff166323b872dd868686604051602401611b1b93929190612ad0565b604051602081830303815290604052915060e01b6020820180517bffffffffffffffffffffffffffffffffffffffffffffffffffffffff8381831617835250505050611b79565b50505050565b60018081905550565b600033905090565b600080602060008451602086016000885af180611b9c576040513d6000823e3d81fd5b3d925060005191505060008214611bb7576001811415611bd3565b60008473ffffffffffffffffffffffffffffffffffffffff163b145b15611c1557836040517f5274afe7000000000000000000000000000000000000000000000000000000008152600401611c0c9190611f7a565b60405180910390fd5b50505050565b6040518060a00160405280600073ffffffffffffffffffffffffffffffffffffffff168152602001600081526020016000815260200160008152602001600081525090565b600073ffffffffffffffffffffffffffffffffffffffff82169050919050565b6000819050919050565b6000611ca5611ca0611c9b84611c60565b611c80565b611c60565b9050919050565b6000611cb782611c8a565b9050919050565b6000611cc982611cac565b9050919050565b611cd981611cbe565b82525050565b6000602082019050611cf46000830184611cd0565b92915050565b600080fd5b600080fd5b600080fd5b600080fd5b600080fd5b60008083601f840112611d2957611d28611d04565b5b8235905067ffffffffffffffff811115611d4657611d45611d09565b5b602083019150836020820283011115611d6257611d61611d0e565b5b9250929050565b60008083601f840112611d7f57611d7e611d04565b5b8235905067ffffffffffffffff811115611d9c57611d9b611d09565b5b602083019150836020820283011115611db857611db7611d0e565b5b9250929050565b60008060008060008060608789031215611ddc57611ddb611cfa565b5b600087013567ffffffffffffffff811115611dfa57611df9611cff565b5b611e0689828a01611d13565b9650965050602087013567ffffffffffffffff811115611e2957611e28611cff565b5b611e3589828a01611d69565b9450945050604087013567ffffffffffffffff811115611e5857611e57611cff565b5b611e6489828a01611d69565b92509250509295509295509295565b6000611e7e82611c60565b9050919050565b611e8e81611e73565b8114611e9957600080fd5b50565b600081359050611eab81611e85565b92915050565b600060208284031215611ec757611ec6611cfa565b5b6000611ed584828501611e9c565b91505092915050565b6000819050919050565b611ef181611ede565b82525050565b6000602082019050611f0c6000830184611ee8565b92915050565b611f1b81611ede565b8114611f2657600080fd5b50565b600081359050611f3881611f12565b92915050565b600060208284031215611f5457611f53611cfa565b5b6000611f6284828501611f29565b91505092915050565b611f7481611e73565b82525050565b6000602082019050611f8f6000830184611f6b565b92915050565b60008115159050919050565b611faa81611f95565b82525050565b6000602082019050611fc56000830184611fa1565b92915050565b6000606082019050611fe06000830186611ee8565b611fed6020830185611ee8565b611ffa6040830184611ee8565b949350505050565b60006080820190506120176000830187611ee8565b6120246020830186611ee8565b6120316040830185611ee8565b61203e6060830184611ee8565b95945050505050565b600081519050919050565b600082825260208201905092915050565b6000819050602082019050919050565b61207c81611e73565b82525050565b61208b81611ede565b82525050565b60a0820160008201516120a76000850182612073565b5060208201516120ba6020850182612082565b5060408201516120cd6040850182612082565b5060608201516120e06060850182612082565b5060808201516120f36080850182612082565b50505050565b60006121058383612091565b60a08301905092915050565b6000602082019050919050565b600061212982612047565b6121338185612052565b935061213e83612063565b8060005b8381101561216f57815161215688826120f9565b975061216183612111565b925050600181019050612142565b5085935050505092915050565b60006020820190508181036000830152612196818461211e565b905092915050565b60006121a982611cac565b9050919050565b6121b98161219e565b82525050565b60006020820190506121d460008301846121b0565b92915050565b600081519050919050565b600082825260208201905092915050565b6000819050602082019050919050565b60006122128383612073565b60208301905092915050565b6000602082019050919050565b6000612236826121da565b61224081856121e5565b935061224b836121f6565b8060005b8381101561227c5781516122638882612206565b975061226e8361221e565b92505060018101905061224f565b5085935050505092915050565b600081519050919050565b600082825260208201905092915050565b6000819050602082019050919050565b60006122c18383612082565b60208301905092915050565b6000602082019050919050565b60006122e582612289565b6122ef8185612294565b93506122fa836122a5565b8060005b8381101561232b57815161231288826122b5565b975061231d836122cd565b9250506001810190506122fe565b5085935050505092915050565b60006040820190508181036000830152612352818561222b565b9050818103602083015261236681846122da565b90509392505050565b600082825260208201905092915050565b7f4172726179206c656e67746873206d757374206d617463680000000000000000600082015250565b60006123b660188361236f565b91506123c182612380565b602082019050919050565b600060208201905081810360008301526123e5816123a9565b9050919050565b7f4e487b7100000000000000000000000000000000000000000000000000000000600052603260045260246000fd5b7f496e76616c696420616464726573730000000000000000000000000000000000600082015250565b6000612451600f8361236f565b915061245c8261241b565b602082019050919050565b6000602082019050818103600083015261248081612444565b9050919050565b7f4164647265737320646964206e6f7420696e7665737400000000000000000000600082015250565b60006124bd60168361236f565b91506124c882612487565b602082019050919050565b600060208201905081810360008301526124ec816124b0565b9050919050565b7f4e487b7100000000000000000000000000000000000000000000000000000000600052601160045260246000fd5b600061252d82611ede565b91507fffffffffffffffffffffffffffffffffffffffffffffffffffffffffffffffff820361255f5761255e6124f3565b5b600182019050919050565b6000819050919050565b60006125836020840184611e9c565b905092915050565b6000602082019050919050565b60006125a483856121e5565b93506125af8261256a565b8060005b858110156125e8576125c58284612574565b6125cf8882612206565b97506125da8361258b565b9250506001810190506125b3565b5085925050509392505050565b600080fd5b82818337505050565b600061260f8385612294565b93507f07ffffffffffffffffffffffffffffffffffffffffffffffffffffffffffffff831115612642576126416125f5565b5b6020830292506126538385846125fa565b82840190509392505050565b6000606082019050818103600083015261267a81888a612598565b9050818103602083015261268f818688612603565b905081810360408301526126a4818486612603565b9050979650505050505050565b7f53616c65206e6f74207374617274656400000000000000000000000000000000600082015250565b60006126e760108361236f565b91506126f2826126b1565b602082019050919050565b60006020820190508181036000830152612716816126da565b9050919050565b7f53616c65207374696c6c20616374697665000000000000000000000000000000600082015250565b600061275360118361236f565b915061275e8261271d565b602082019050919050565b6000602082019050818103600083015261278281612746565b9050919050565b60008151905061279881611f12565b92915050565b6000602082840312156127b4576127b3611cfa565b5b60006127c284828501612789565b91505092915050565b7f4e6f2066756e647320746f207769746864726177000000000000000000000000600082015250565b600061280160148361236f565b915061280c826127cb565b602082019050919050565b60006020820190508181036000830152612830816127f4565b9050919050565b7f53616c6520616c72656164792061637469766500000000000000000000000000600082015250565b600061286d60138361236f565b915061287882612837565b602082019050919050565b6000602082019050818103600083015261289c81612860565b9050919050565b60006128ae82611ede565b91506128b983611ede565b92508282019050808211156128d1576128d06124f3565b5b92915050565b7f53616c6520656e64656400000000000000000000000000000000000000000000600082015250565b600061290d600a8361236f565b9150612918826128d7565b602082019050919050565b6000602082019050818103600083015261293c81612900565b9050919050565b7f416d6f756e74206d7573742062652067726561746572207468616e207a65726f600082015250565b600061297960208361236f565b915061298482612943565b602082019050919050565b600060208201905081810360008301526129a88161296c565b9050919050565b7f416c7265616479206465706f7369746564000000000000000000000000000000600082015250565b60006129e560118361236f565b91506129f0826129af565b602082019050919050565b60006020820190508181036000830152612a14816129d8565b9050919050565b6000604082019050612a306000830185611ee8565b612a3d6020830184611ee8565b9392505050565b7f4e487b7100000000000000000000000000000000000000000000000000000000600052604160045260246000fd5b6000612a7e82611ede565b9150612a8983611ede565b9250828203905081811115612aa157612aa06124f3565b5b92915050565b6000604082019050612abc6000830185611f6b565b612ac96020830184611ee8565b9392505050565b6000606082019050612ae56000830186611f6b565b612af26020830185611f6b565b612aff6040830184611ee8565b94935050505056fea264697066735822122031be21298d2379bc3a65d3081ad12d296e51eedc264f9f1881f4fd147f1ea60364736f6c63430008140033",
  "devdoc": {
    "details": "Simple sale collector that accepts USDC deposits, snapshots staked balances,      and stores final token allocations and refund amounts",
    "errors": {
      "OwnableInvalidOwner(address)": [
        {
          "details": "The owner is not a valid owner account. (eg. `address(0)`)"
        }
      ],
      "OwnableUnauthorizedAccount(address)": [
        {
          "details": "The caller account is not authorized to perform an operation."
        }
      ],
      "ReentrancyGuardReentrantCall()": [
        {
          "details": "Unauthorized reentrant call."
        }
      ],
      "SafeERC20FailedOperation(address)": [
        {
          "details": "An operation with an ERC-20 token failed."
        }
      ]
    },
    "kind": "dev",
    "methods": {
      "constructor": {
        "details": "Constructor",
        "params": {
          "_saleDuration": "Duration of the sale in seconds",
          "_stakingContract": "Address of staking contract",
          "_usdcToken": "Address of USDC token"
        }
      },
      "deposit(uint256)": {
        "details": "Deposit USDC during the sale",
        "params": {
          "_amount": "Amount of USDC to deposit"
        }
      },
      "getAllInvestors()": {
        "details": "Get all investors with their complete information",
        "returns": {
          "_0": "Array of InvestorInfo structs"
        }
      },
      "getSaleTimes()": {
        "details": "Get sale timing information",
        "returns": {
          "saleDuration_": "Sale duration in seconds",
          "saleEnd_": "Sale end timestamp",
          "saleStart_": "Sale start timestamp"
        }
      },
      "getTopInvestors()": {
        "details": "Get top investors by amount invested (up to 20)",
        "returns": {
          "amountsInvested_": "Array of corresponding investment amounts",
          "investors_": "Array of top investor addresses"
        }
      },
      "getTotalInvested()": {
        "details": "Get total amount invested across all users",
        "returns": {
          "_0": "Total USDC invested"
        }
      },
      "getUserInfo(address)": {
        "details": "Get user investment information",
        "params": {
          "user": "Address of the user"
        },
        "returns": {
          "amountInvested_": "USDC deposited by user",
          "stakedSnapshot_": "Staked balance at deposit time",
          "tokenAllocation_": "Final token allocation",
          "usdcRefund_": "Final USDC refund amount"
        }
      },
      "isSaleActive()": {
        "details": "Check if sale is currently active",
        "returns": {
          "_0": "true if sale is active, false otherwise"
        }
      },
      "owner()": {
        "details": "Returns the address of the current owner."
      },
      "renounceOwnership()": {
        "details": "Leaves the contract without owner. It will not be possible to call `onlyOwner` functions. Can only be called by the current owner. NOTE: Renouncing ownership will leave the contract without an owner, thereby disabling any functionality that is only available to the owner."
      },
      "setAllocations(address[],uint256[],uint256[])": {
        "details": "Set allocations and refunds for investors (admin only)",
        "params": {
          "_addresses": "Array of investor addresses",
          "_tokenAllocations": "Array of token allocations",
          "_usdcRefunds": "Array of USDC refund amounts"
        }
      },
      "startSale()": {
        "details": "Start the sale (admin only)"
      },
      "transferOwnership(address)": {
        "details": "Transfers ownership of the contract to a new account (`newOwner`). Can only be called by the current owner."
      },
      "withdrawFunds()": {
        "details": "Withdraw all collected USDC after the sale (admin only)"
      }
    },
    "title": "InvestmentContract",
    "version": 1
  },
  "userdoc": {
    "kind": "user",
    "methods": {},
    "version": 1
  },
  "storageLayout": {
    "storage": [
      {
        "astId": 8,
        "contract": "contracts/InvestmentContract.sol:InvestmentContract",
        "label": "_owner",
        "offset": 0,
        "slot": "0",
        "type": "t_address"
      },
      {
        "astId": 820,
        "contract": "contracts/InvestmentContract.sol:InvestmentContract",
        "label": "_status",
        "offset": 0,
        "slot": "1",
        "type": "t_uint256"
      },
      {
        "astId": 917,
        "contract": "contracts/InvestmentContract.sol:InvestmentContract",
        "label": "saleStart",
        "offset": 0,
        "slot": "2",
        "type": "t_uint256"
      },
      {
        "astId": 919,
        "contract": "contracts/InvestmentContract.sol:InvestmentContract",
        "label": "saleEnd",
        "offset": 0,
        "slot": "3",
        "type": "t_uint256"
      },
      {
        "astId": 921,
        "contract": "contracts/InvestmentContract.sol:InvestmentContract",
        "label": "saleDuration",
        "offset": 0,
        "slot": "4",
        "type": "t_uint256"
      },
      {
        "astId": 923,
        "contract": "contracts/InvestmentContract.sol:InvestmentContract",
        "label": "totalInvested",
        "offset": 0,
        "slot": "5",
        "type": "t_uint256"
      },
      {
        "astId": 927,
        "contract": "contracts/InvestmentContract.sol:InvestmentContract",
        "label": "amountInvested",
        "offset": 0,
        "slot": "6",
        "type": "t_mapping(t_address,t_uint256)"
      },
      {
        "astId": 931,
        "contract": "contracts/InvestmentContract.sol:InvestmentContract",
        "label": "stakedSnapshot",
        "offset": 0,
        "slot": "7",
        "type": "t_mapping(t_address,t_uint256)"
      },
      {
        "astId": 935,
        "contract": "contracts/InvestmentContract.sol:InvestmentContract",
        "label": "tokenAllocation",
        "offset": 0,
        "slot": "8",
        "type": "t_mapping(t_address,t_uint256)"
      },
      {
        "astId": 939,
        "contract": "contracts/InvestmentContract.sol:InvestmentContract",
        "label": "usdcRefund",
        "offset": 0,
        "slot": "9",
        "type": "t_mapping(t_address,t_uint256)"
      },
      {
        "astId": 942,
        "contract": "contracts/InvestmentContract.sol:InvestmentContract",
        "label": "investors",
        "offset": 0,
        "slot": "10",
        "type": "t_array(t_address)dyn_storage"
      }
    ],
    "types": {
      "t_address": {
        "encoding": "inplace",
        "label": "address",
        "numberOfBytes": "20"
      },
      "t_array(t_address)dyn_storage": {
        "base": "t_address",
        "encoding": "dynamic_array",
        "label": "address[]",
        "numberOfBytes": "32"
      },
      "t_mapping(t_address,t_uint256)": {
        "encoding": "mapping",
        "key": "t_address",
        "label": "mapping(address => uint256)",
        "numberOfBytes": "32",
        "value": "t_uint256"
      },
      "t_uint256": {
        "encoding": "inplace",
        "label": "uint256",
        "numberOfBytes": "32"
      }
    }
  }
}