{
  "address": "0x643be81cf6928CC27e76B615cf73CeF920b775D4",
  "abi": [
    {
      "inputs": [
        {
          "internalType": "address",
          "name": "_usdcToken",
          "type": "address"
        }
      ],
      "stateMutability": "nonpayable",
      "type": "constructor"
    },
    {
      "inputs": [
        {
          "internalType": "address",
          "name": "owner",
          "type": "address"
        }
      ],
      "name": "OwnableInvalidOwner",
      "type": "error"
    },
    {
      "inputs": [
        {
          "internalType": "address",
          "name": "account",
          "type": "address"
        }
      ],
      "name": "OwnableUnauthorizedAccount",
      "type": "error"
    },
    {
      "inputs": [],
      "name": "ReentrancyGuardReentrantCall",
      "type": "error"
    },
    {
      "inputs": [
        {
          "internalType": "address",
          "name": "token",
          "type": "address"
        }
      ],
      "name": "SafeERC20FailedOperation",
      "type": "error"
    },
    {
      "anonymous": false,
      "inputs": [
        {
          "indexed": true,
          "internalType": "address",
          "name": "contributor",
          "type": "address"
        },
        {
          "indexed": false,
          "internalType": "uint256",
          "name": "amount",
          "type": "uint256"
        }
      ],
      "name": "ContributionMade",
      "type": "event"
    },
    {
      "anonymous": false,
      "inputs": [
        {
          "indexed": false,
          "internalType": "uint256",
          "name": "amount",
          "type": "uint256"
        }
      ],
      "name": "FundsWithdrawn",
      "type": "event"
    },
    {
      "anonymous": false,
      "inputs": [
        {
          "indexed": true,
          "internalType": "address",
          "name": "previousOwner",
          "type": "address"
        },
        {
          "indexed": true,
          "internalType": "address",
          "name": "newOwner",
          "type": "address"
        }
      ],
      "name": "OwnershipTransferred",
      "type": "event"
    },
    {
      "anonymous": false,
      "inputs": [
        {
          "indexed": false,
          "internalType": "bool",
          "name": "successful",
          "type": "bool"
        },
        {
          "indexed": false,
          "internalType": "uint256",
          "name": "totalRaised",
          "type": "uint256"
        }
      ],
      "name": "SaleFinalized",
      "type": "event"
    },
    {
      "anonymous": false,
      "inputs": [
        {
          "indexed": false,
          "internalType": "uint256",
          "name": "startTime",
          "type": "uint256"
        },
        {
          "indexed": false,
          "internalType": "uint256",
          "name": "endTime",
          "type": "uint256"
        }
      ],
      "name": "SaleStarted",
      "type": "event"
    },
    {
      "anonymous": false,
      "inputs": [
        {
          "indexed": true,
          "internalType": "address",
          "name": "user",
          "type": "address"
        },
        {
          "indexed": false,
          "internalType": "uint256",
          "name": "tier",
          "type": "uint256"
        }
      ],
      "name": "UserWhitelisted",
      "type": "event"
    },
    {
      "inputs": [],
      "name": "SALE_DURATION",
      "outputs": [
        {
          "internalType": "uint256",
          "name": "",
          "type": "uint256"
        }
      ],
      "stateMutability": "view",
      "type": "function"
    },
    {
      "inputs": [
        {
          "internalType": "address[]",
          "name": "_users",
          "type": "address[]"
        },
        {
          "internalType": "uint256[]",
          "name": "_tiers",
          "type": "uint256[]"
        }
      ],
      "name": "addMultipleToWhitelist",
      "outputs": [],
      "stateMutability": "nonpayable",
      "type": "function"
    },
    {
      "inputs": [
        {
          "internalType": "address",
          "name": "_contributor",
          "type": "address"
        },
        {
          "internalType": "uint256",
          "name": "_totalTokensAllocated",
          "type": "uint256"
        }
      ],
      "name": "calculateTokenAllocation",
      "outputs": [
        {
          "internalType": "uint256",
          "name": "",
          "type": "uint256"
        }
      ],
      "stateMutability": "view",
      "type": "function"
    },
    {
      "inputs": [
        {
          "internalType": "address",
          "name": "",
          "type": "address"
        }
      ],
      "name": "contributions",
      "outputs": [
        {
          "internalType": "uint256",
          "name": "",
          "type": "uint256"
        }
      ],
      "stateMutability": "view",
      "type": "function"
    },
    {
      "inputs": [
        {
          "internalType": "uint256",
          "name": "_amount",
          "type": "uint256"
        }
      ],
      "name": "deposit",
      "outputs": [],
      "stateMutability": "nonpayable",
      "type": "function"
    },
    {
      "inputs": [],
      "name": "finalizeSale",
      "outputs": [],
      "stateMutability": "nonpayable",
      "type": "function"
    },
    {
      "inputs": [
        {
          "internalType": "address",
          "name": "_contributor",
          "type": "address"
        }
      ],
      "name": "getContributionInfo",
      "outputs": [
        {
          "internalType": "uint256",
          "name": "_contribution",
          "type": "uint256"
        },
        {
          "internalType": "bool",
          "name": "_isWhitelisted",
          "type": "bool"
        }
      ],
      "stateMutability": "view",
      "type": "function"
    },
    {
      "inputs": [],
      "name": "getSaleInfo",
      "outputs": [
        {
          "internalType": "bool",
          "name": "_saleFinalized",
          "type": "bool"
        },
        {
          "internalType": "bool",
          "name": "_saleSuccessful",
          "type": "bool"
        },
        {
          "internalType": "uint256",
          "name": "_totalRaised",
          "type": "uint256"
        },
        {
          "internalType": "uint256",
          "name": "_startTime",
          "type": "uint256"
        },
        {
          "internalType": "uint256",
          "name": "_endTime",
          "type": "uint256"
        }
      ],
      "stateMutability": "view",
      "type": "function"
    },
    {
      "inputs": [],
      "name": "getTimeRemaining",
      "outputs": [
        {
          "internalType": "uint256",
          "name": "",
          "type": "uint256"
        }
      ],
      "stateMutability": "view",
      "type": "function"
    },
    {
      "inputs": [],
      "name": "owner",
      "outputs": [
        {
          "internalType": "address",
          "name": "",
          "type": "address"
        }
      ],
      "stateMutability": "view",
      "type": "function"
    },
    {
      "inputs": [],
      "name": "renounceOwnership",
      "outputs": [],
      "stateMutability": "nonpayable",
      "type": "function"
    },
    {
      "inputs": [],
      "name": "saleEndTime",
      "outputs": [
        {
          "internalType": "uint256",
          "name": "",
          "type": "uint256"
        }
      ],
      "stateMutability": "view",
      "type": "function"
    },
    {
      "inputs": [],
      "name": "saleFinalized",
      "outputs": [
        {
          "internalType": "bool",
          "name": "",
          "type": "bool"
        }
      ],
      "stateMutability": "view",
      "type": "function"
    },
    {
      "inputs": [],
      "name": "saleStartTime",
      "outputs": [
        {
          "internalType": "uint256",
          "name": "",
          "type": "uint256"
        }
      ],
      "stateMutability": "view",
      "type": "function"
    },
    {
      "inputs": [],
      "name": "saleSuccessful",
      "outputs": [
        {
          "internalType": "bool",
          "name": "",
          "type": "bool"
        }
      ],
      "stateMutability": "view",
      "type": "function"
    },
    {
      "inputs": [],
      "name": "startSale",
      "outputs": [],
      "stateMutability": "nonpayable",
      "type": "function"
    },
    {
      "inputs": [],
      "name": "totalRaised",
      "outputs": [
        {
          "internalType": "uint256",
          "name": "",
          "type": "uint256"
        }
      ],
      "stateMutability": "view",
      "type": "function"
    },
    {
      "inputs": [
        {
          "internalType": "address",
          "name": "newOwner",
          "type": "address"
        }
      ],
      "name": "transferOwnership",
      "outputs": [],
      "stateMutability": "nonpayable",
      "type": "function"
    },
    {
      "inputs": [],
      "name": "usdcToken",
      "outputs": [
        {
          "internalType": "contract IERC20",
          "name": "",
          "type": "address"
        }
      ],
      "stateMutability": "view",
      "type": "function"
    },
    {
      "inputs": [
        {
          "internalType": "address",
          "name": "",
          "type": "address"
        }
      ],
      "name": "whitelist",
      "outputs": [
        {
          "internalType": "uint256",
          "name": "",
          "type": "uint256"
        }
      ],
      "stateMutability": "view",
      "type": "function"
    },
    {
      "inputs": [],
      "name": "withdrawFunds",
      "outputs": [],
      "stateMutability": "nonpayable",
      "type": "function"
    }
  ],
  "transactionHash": "0xe927ad9de69e484dfa0da4612842f51239ee0fab13e4d210203317b7fdf1fd8d",
  "args": [
    "0x833589fCD6eDb6E08f4c7C32D4f71b54bdA02913"
  ],
  "numDeployments": 1,
  "solcInputHash": "166f0eaa8bc4273fb830d0ee75f082cc",
  "bytecode": "0x60a06040523480156200001157600080fd5b50604051620025de380380620025de8339818101604052810190620000379190620002a1565b33600073ffffffffffffffffffffffffffffffffffffffff168173ffffffffffffffffffffffffffffffffffffffff1603620000ad5760006040517f1e4fbdf7000000000000000000000000000000000000000000000000000000008152600401620000a49190620002e4565b60405180910390fd5b620000be816200017360201b60201c565b5060018081905550600073ffffffffffffffffffffffffffffffffffffffff168173ffffffffffffffffffffffffffffffffffffffff160362000138576040517f08c379a00000000000000000000000000000000000000000000000000000000081526004016200012f9062000388565b60405180910390fd5b8073ffffffffffffffffffffffffffffffffffffffff1660808173ffffffffffffffffffffffffffffffffffffffff168152505050620003aa565b60008060009054906101000a900473ffffffffffffffffffffffffffffffffffffffff169050816000806101000a81548173ffffffffffffffffffffffffffffffffffffffff021916908373ffffffffffffffffffffffffffffffffffffffff1602179055508173ffffffffffffffffffffffffffffffffffffffff168173ffffffffffffffffffffffffffffffffffffffff167f8be0079c531659141344cd1fd0a4f28419497f9722a3daafe3b4186f6b6457e060405160405180910390a35050565b600080fd5b600073ffffffffffffffffffffffffffffffffffffffff82169050919050565b600062000269826200023c565b9050919050565b6200027b816200025c565b81146200028757600080fd5b50565b6000815190506200029b8162000270565b92915050565b600060208284031215620002ba57620002b962000237565b5b6000620002ca848285016200028a565b91505092915050565b620002de816200025c565b82525050565b6000602082019050620002fb6000830184620002d3565b92915050565b600082825260208201905092915050565b7f5553444320746f6b656e20616464726573732063616e6e6f74206265207a657260008201527f6f00000000000000000000000000000000000000000000000000000000000000602082015250565b60006200037060218362000301565b91506200037d8262000312565b604082019050919050565b60006020820190508181036000830152620003a38162000361565b9050919050565b608051612203620003db600039600081816103ab0152818161047d015281816105680152610d5e01526122036000f3fe608060405234801561001057600080fd5b50600436106101375760003560e01c80639b19251a116100b8578063cd78d92c1161007c578063cd78d92c146102ce578063dac6270d146102ff578063db83694c1461031d578063ed338ff11461033f578063f2fde38b1461035d578063f881ccfa1461037957610137565b80639b19251a1461023c578063a5f0dea21461026c578063b66a0e5d1461028a578063b6b55f2514610294578063c5c4744c146102b057610137565b80635eabe01e116100ff5780635eabe01e146101bc5780636d79207c146101da578063715018a6146101f8578063870670fc146102025780638da5cb5b1461021e57610137565b806311eac8551461013c5780631cbaee2d1461015a57806324600fc31461017857806342e94c901461018257806358a687ec146101b2575b600080fd5b6101446103a9565b60405161015191906114dd565b60405180910390f35b6101626103cd565b60405161016f9190611511565b60405180910390f35b6101806103d3565b005b61019c60048036038101906101979190611574565b6105e6565b6040516101a99190611511565b60405180910390f35b6101ba6105fe565b005b6101c4610714565b6040516101d191906115bc565b60405180910390f35b6101e2610727565b6040516101ef9190611511565b60405180910390f35b61020061072e565b005b61021c60048036038101906102179190611692565b610742565b005b610226610962565b6040516102339190611722565b60405180910390f35b61025660048036038101906102519190611574565b61098b565b6040516102639190611511565b60405180910390f35b6102746109a3565b60405161028191906115bc565b60405180910390f35b6102926109b6565b005b6102ae60048036038101906102a99190611769565b610aba565b005b6102b8610e59565b6040516102c59190611511565b60405180910390f35b6102e860048036038101906102e39190611574565b610e5f565b6040516102f6929190611796565b60405180910390f35b610307610eee565b6040516103149190611511565b60405180910390f35b610325610f24565b6040516103369594939291906117bf565b60405180910390f35b610347610f66565b6040516103549190611511565b60405180910390f35b61037760048036038101906103729190611574565b610f6c565b005b610393600480360381019061038e9190611812565b610ff2565b6040516103a09190611511565b60405180910390f35b7f000000000000000000000000000000000000000000000000000000000000000081565b60025481565b6103db611119565b600560009054906101000a900460ff1661042a576040517f08c379a0000000000000000000000000000000000000000000000000000000008152600401610421906118af565b60405180910390fd5b600560019054906101000a900460ff16610479576040517f08c379a00000000000000000000000000000000000000000000000000000000081526004016104709061191b565b60405180910390fd5b60007f000000000000000000000000000000000000000000000000000000000000000073ffffffffffffffffffffffffffffffffffffffff166370a08231306040518263ffffffff1660e01b81526004016104d49190611722565b602060405180830381865afa1580156104f1573d6000803e3d6000fd5b505050506040513d601f19601f820116820180604052508101906105159190611950565b90506000811161055a576040517f08c379a0000000000000000000000000000000000000000000000000000000008152600401610551906119c9565b60405180910390fd5b6105ac610565610962565b827f000000000000000000000000000000000000000000000000000000000000000073ffffffffffffffffffffffffffffffffffffffff166111a09092919063ffffffff16565b7f4a37b25aab49761ecf63117fe82b98d750917451133cf797507bc9fb5b96044a816040516105db9190611511565b60405180910390a150565b60066020528060005260406000206000915090505481565b600560009054906101000a900460ff161561064e576040517f08c379a000000000000000000000000000000000000000000000000000000000815260040161064590611a35565b60405180910390fd5b6003544211610692576040517f08c379a000000000000000000000000000000000000000000000000000000000815260040161068990611ac7565b60405180910390fd5b6001600560006101000a81548160ff0219169083151502179055506001600560016101000a81548160ff0219169083151502179055507ff0d46ecf16ea6c4029ade01a6213d074c98f462769781b2a022fac1d81a58cbe600560019054906101000a900460ff1660045460405161070a929190611ae7565b60405180910390a1565b600560019054906101000a900460ff1681565b6201518081565b610736611119565b610740600061121f565b565b61074a611119565b818190508484905014610792576040517f08c379a000000000000000000000000000000000000000000000000000000000815260040161078990611b82565b60405180910390fd5b60005b8484905081101561095b57600073ffffffffffffffffffffffffffffffffffffffff168585838181106107cb576107ca611ba2565b5b90506020020160208101906107e09190611574565b73ffffffffffffffffffffffffffffffffffffffff1603610836576040517f08c379a000000000000000000000000000000000000000000000000000000000815260040161082d90611c1d565b60405180910390fd5b82828281811061084957610848611ba2565b5b905060200201356007600087878581811061086757610866611ba2565b5b905060200201602081019061087c9190611574565b73ffffffffffffffffffffffffffffffffffffffff1673ffffffffffffffffffffffffffffffffffffffff168152602001908152602001600020819055508484828181106108cd576108cc611ba2565b5b90506020020160208101906108e29190611574565b73ffffffffffffffffffffffffffffffffffffffff167fcdbba03e839781c2474e5e9bf8e4d1c7aa5b2505bda8f93576309659a967b6b584848481811061092c5761092b611ba2565b5b905060200201356040516109409190611511565b60405180910390a2808061095390611c6c565b915050610795565b5050505050565b60008060009054906101000a900473ffffffffffffffffffffffffffffffffffffffff16905090565b60076020528060005260406000206000915090505481565b600560009054906101000a900460ff1681565b6109be611119565b6003544211806109d057506000600254145b610a0f576040517f08c379a0000000000000000000000000000000000000000000000000000000008152600401610a0690611d00565b60405180910390fd5b600560009054906101000a900460ff1615610a5f576040517f08c379a0000000000000000000000000000000000000000000000000000000008152600401610a5690611a35565b60405180910390fd5b426002819055506201518042610a759190611d20565b6003819055507f87d03dcfa12666a6f670d52387c414c3147775a8cc623d78088c0e23b4a90346600254600354604051610ab0929190611d54565b60405180910390a1565b600060025411610aff576040517f08c379a0000000000000000000000000000000000000000000000000000000008152600401610af690611dc9565b60405180910390fd5b600254421015610b44576040517f08c379a0000000000000000000000000000000000000000000000000000000008152600401610b3b90611dc9565b60405180910390fd5b600354421115610b89576040517f08c379a0000000000000000000000000000000000000000000000000000000008152600401610b8090611e35565b60405180910390fd5b610b916112e3565b6000600760003373ffffffffffffffffffffffffffffffffffffffff1673ffffffffffffffffffffffffffffffffffffffff1681526020019081526020016000205411610c13576040517f08c379a0000000000000000000000000000000000000000000000000000000008152600401610c0a90611ea1565b60405180910390fd5b600760003373ffffffffffffffffffffffffffffffffffffffff1673ffffffffffffffffffffffffffffffffffffffff16815260200190815260200160002054600660003373ffffffffffffffffffffffffffffffffffffffff1673ffffffffffffffffffffffffffffffffffffffff168152602001908152602001600020541115610cd4576040517f08c379a0000000000000000000000000000000000000000000000000000000008152600401610ccb90611f0d565b60405180910390fd5b600760003373ffffffffffffffffffffffffffffffffffffffff1673ffffffffffffffffffffffffffffffffffffffff16815260200190815260200160002054811115610d56576040517f08c379a0000000000000000000000000000000000000000000000000000000008152600401610d4d90611f9f565b60405180910390fd5b610da33330837f000000000000000000000000000000000000000000000000000000000000000073ffffffffffffffffffffffffffffffffffffffff16611329909392919063ffffffff16565b80600660003373ffffffffffffffffffffffffffffffffffffffff1673ffffffffffffffffffffffffffffffffffffffff168152602001908152602001600020819055508060046000828254610df99190611d20565b925050819055503373ffffffffffffffffffffffffffffffffffffffff167f6770260ea820d2f539364e7617e021543aaf6d192f2fd2a47c20db6bd99a4eb982604051610e469190611511565b60405180910390a2610e566113ab565b50565b60045481565b600080600660008473ffffffffffffffffffffffffffffffffffffffff1673ffffffffffffffffffffffffffffffffffffffff168152602001908152602001600020546000600760008673ffffffffffffffffffffffffffffffffffffffff1673ffffffffffffffffffffffffffffffffffffffff168152602001908152602001600020541191509150915091565b6000806002541480610f0257506003544210155b15610f105760009050610f21565b42600354610f1e9190611fbf565b90505b90565b6000806000806000600560009054906101000a900460ff16600560019054906101000a900460ff16600454600254600354945094509450945094509091929394565b60035481565b610f74611119565b600073ffffffffffffffffffffffffffffffffffffffff168173ffffffffffffffffffffffffffffffffffffffff1603610fe65760006040517f1e4fbdf7000000000000000000000000000000000000000000000000000000008152600401610fdd9190611722565b60405180910390fd5b610fef8161121f565b50565b6000600560009054906101000a900460ff16801561101c5750600560019054906101000a900460ff165b61105b576040517f08c379a00000000000000000000000000000000000000000000000000000000081526004016110529061203f565b60405180910390fd5b6000600454116110a0576040517f08c379a0000000000000000000000000000000000000000000000000000000008152600401611097906120ab565b60405180910390fd5b6000600660008573ffffffffffffffffffffffffffffffffffffffff1673ffffffffffffffffffffffffffffffffffffffff168152602001908152602001600020549050600081036110f6576000915050611113565b600454838261110591906120cb565b61110f919061213c565b9150505b92915050565b6111216113b4565b73ffffffffffffffffffffffffffffffffffffffff1661113f610962565b73ffffffffffffffffffffffffffffffffffffffff161461119e576111626113b4565b6040517f118cdaa70000000000000000000000000000000000000000000000000000000081526004016111959190611722565b60405180910390fd5b565b61121a838473ffffffffffffffffffffffffffffffffffffffff1663a9059cbb85856040516024016111d392919061216d565b604051602081830303815290604052915060e01b6020820180517bffffffffffffffffffffffffffffffffffffffffffffffffffffffff83818316178352505050506113bc565b505050565b60008060009054906101000a900473ffffffffffffffffffffffffffffffffffffffff169050816000806101000a81548173ffffffffffffffffffffffffffffffffffffffff021916908373ffffffffffffffffffffffffffffffffffffffff1602179055508173ffffffffffffffffffffffffffffffffffffffff168173ffffffffffffffffffffffffffffffffffffffff167f8be0079c531659141344cd1fd0a4f28419497f9722a3daafe3b4186f6b6457e060405160405180910390a35050565b60026001540361131f576040517f3ee5aeb500000000000000000000000000000000000000000000000000000000815260040160405180910390fd5b6002600181905550565b6113a5848573ffffffffffffffffffffffffffffffffffffffff166323b872dd86868660405160240161135e93929190612196565b604051602081830303815290604052915060e01b6020820180517bffffffffffffffffffffffffffffffffffffffffffffffffffffffff83818316178352505050506113bc565b50505050565b60018081905550565b600033905090565b600080602060008451602086016000885af1806113df576040513d6000823e3d81fd5b3d9250600051915050600082146113fa576001811415611416565b60008473ffffffffffffffffffffffffffffffffffffffff163b145b1561145857836040517f5274afe700000000000000000000000000000000000000000000000000000000815260040161144f9190611722565b60405180910390fd5b50505050565b600073ffffffffffffffffffffffffffffffffffffffff82169050919050565b6000819050919050565b60006114a361149e6114998461145e565b61147e565b61145e565b9050919050565b60006114b582611488565b9050919050565b60006114c7826114aa565b9050919050565b6114d7816114bc565b82525050565b60006020820190506114f260008301846114ce565b92915050565b6000819050919050565b61150b816114f8565b82525050565b60006020820190506115266000830184611502565b92915050565b600080fd5b600080fd5b60006115418261145e565b9050919050565b61155181611536565b811461155c57600080fd5b50565b60008135905061156e81611548565b92915050565b60006020828403121561158a5761158961152c565b5b60006115988482850161155f565b91505092915050565b60008115159050919050565b6115b6816115a1565b82525050565b60006020820190506115d160008301846115ad565b92915050565b600080fd5b600080fd5b600080fd5b60008083601f8401126115fc576115fb6115d7565b5b8235905067ffffffffffffffff811115611619576116186115dc565b5b602083019150836020820283011115611635576116346115e1565b5b9250929050565b60008083601f840112611652576116516115d7565b5b8235905067ffffffffffffffff81111561166f5761166e6115dc565b5b60208301915083602082028301111561168b5761168a6115e1565b5b9250929050565b600080600080604085870312156116ac576116ab61152c565b5b600085013567ffffffffffffffff8111156116ca576116c9611531565b5b6116d6878288016115e6565b9450945050602085013567ffffffffffffffff8111156116f9576116f8611531565b5b6117058782880161163c565b925092505092959194509250565b61171c81611536565b82525050565b60006020820190506117376000830184611713565b92915050565b611746816114f8565b811461175157600080fd5b50565b6000813590506117638161173d565b92915050565b60006020828403121561177f5761177e61152c565b5b600061178d84828501611754565b91505092915050565b60006040820190506117ab6000830185611502565b6117b860208301846115ad565b9392505050565b600060a0820190506117d460008301886115ad565b6117e160208301876115ad565b6117ee6040830186611502565b6117fb6060830185611502565b6118086080830184611502565b9695505050505050565b600080604083850312156118295761182861152c565b5b60006118378582860161155f565b925050602061184885828601611754565b9150509250929050565b600082825260208201905092915050565b7f53616c65206e6f742066696e616c697a65640000000000000000000000000000600082015250565b6000611899601283611852565b91506118a482611863565b602082019050919050565b600060208201905081810360008301526118c88161188c565b9050919050565b7f53616c6520776173206e6f74207375636365737366756c000000000000000000600082015250565b6000611905601783611852565b9150611910826118cf565b602082019050919050565b60006020820190508181036000830152611934816118f8565b9050919050565b60008151905061194a8161173d565b92915050565b6000602082840312156119665761196561152c565b5b60006119748482850161193b565b91505092915050565b7f4e6f2066756e647320746f207769746864726177000000000000000000000000600082015250565b60006119b3601483611852565b91506119be8261197d565b602082019050919050565b600060208201905081810360008301526119e2816119a6565b9050919050565b7f53616c6520616c72656164792066696e616c697a656400000000000000000000600082015250565b6000611a1f601683611852565b9150611a2a826119e9565b602082019050919050565b60006020820190508181036000830152611a4e81611a12565b9050919050565b7f53616c6520706572696f64206e6f7420656e64656420616e642068617264206360008201527f6170206e6f742072656163686564000000000000000000000000000000000000602082015250565b6000611ab1602e83611852565b9150611abc82611a55565b604082019050919050565b60006020820190508181036000830152611ae081611aa4565b9050919050565b6000604082019050611afc60008301856115ad565b611b096020830184611502565b9392505050565b7f557365727320616e64207469657273206d75737420686176652074686520736160008201527f6d65206c656e6774680000000000000000000000000000000000000000000000602082015250565b6000611b6c602983611852565b9150611b7782611b10565b604082019050919050565b60006020820190508181036000830152611b9b81611b5f565b9050919050565b7f4e487b7100000000000000000000000000000000000000000000000000000000600052603260045260246000fd5b7f496e76616c696420616464726573730000000000000000000000000000000000600082015250565b6000611c07600f83611852565b9150611c1282611bd1565b602082019050919050565b60006020820190508181036000830152611c3681611bfa565b9050919050565b7f4e487b7100000000000000000000000000000000000000000000000000000000600052601160045260246000fd5b6000611c77826114f8565b91507fffffffffffffffffffffffffffffffffffffffffffffffffffffffffffffffff8203611ca957611ca8611c3d565b5b600182019050919050565b7f53616c6520616c726561647920616374697665206f722066696e616c697a6564600082015250565b6000611cea602083611852565b9150611cf582611cb4565b602082019050919050565b60006020820190508181036000830152611d1981611cdd565b9050919050565b6000611d2b826114f8565b9150611d36836114f8565b9250828201905080821115611d4e57611d4d611c3d565b5b92915050565b6000604082019050611d696000830185611502565b611d766020830184611502565b9392505050565b7f53616c65206e6f74207374617274656400000000000000000000000000000000600082015250565b6000611db3601083611852565b9150611dbe82611d7d565b602082019050919050565b60006020820190508181036000830152611de281611da6565b9050919050565b7f53616c6520656e64656400000000000000000000000000000000000000000000600082015250565b6000611e1f600a83611852565b9150611e2a82611de9565b602082019050919050565b60006020820190508181036000830152611e4e81611e12565b9050919050565b7f41646472657373206e6f742077686974656c6973746564000000000000000000600082015250565b6000611e8b601783611852565b9150611e9682611e55565b602082019050919050565b60006020820190508181036000830152611eba81611e7e565b9050919050565b7f416c726561647920636f6e74726962757465642066756c6c20616d6f756e7400600082015250565b6000611ef7601f83611852565b9150611f0282611ec1565b602082019050919050565b60006020820190508181036000830152611f2681611eea565b9050919050565b7f416d6f756e74206d757374206265206c657373207468616e206f72206571756160008201527f6c20746f2077686974656c697374000000000000000000000000000000000000602082015250565b6000611f89602e83611852565b9150611f9482611f2d565b604082019050919050565b60006020820190508181036000830152611fb881611f7c565b9050919050565b6000611fca826114f8565b9150611fd5836114f8565b9250828203905081811115611fed57611fec611c3d565b5b92915050565b7f53616c65206e6f74207375636365737366756c6c792066696e616c697a656400600082015250565b6000612029601f83611852565b915061203482611ff3565b602082019050919050565b600060208201905081810360008301526120588161201c565b9050919050565b7f4e6f20636f6e747269627574696f6e7300000000000000000000000000000000600082015250565b6000612095601083611852565b91506120a08261205f565b602082019050919050565b600060208201905081810360008301526120c481612088565b9050919050565b60006120d6826114f8565b91506120e1836114f8565b92508282026120ef816114f8565b9150828204841483151761210657612105611c3d565b5b5092915050565b7f4e487b7100000000000000000000000000000000000000000000000000000000600052601260045260246000fd5b6000612147826114f8565b9150612152836114f8565b9250826121625761216161210d565b5b828204905092915050565b60006040820190506121826000830185611713565b61218f6020830184611502565b9392505050565b60006060820190506121ab6000830186611713565b6121b86020830185611713565b6121c56040830184611502565b94935050505056fea26469706673582212209a4388842b30221faf7f89a59cf91f0ab61755872ba98a0ce23d74d5f062633464736f6c63430008140033",
  "devdoc": {
    "details": "Presale contract for Backroom token with USDC contributions",
    "errors": {
      "OwnableInvalidOwner(address)": [
        {
          "details": "The owner is not a valid owner account. (eg. `address(0)`)"
        }
      ],
      "OwnableUnauthorizedAccount(address)": [
        {
          "details": "The caller account is not authorized to perform an operation."
        }
      ],
      "ReentrancyGuardReentrantCall()": [
        {
          "details": "Unauthorized reentrant call."
        }
      ],
      "SafeERC20FailedOperation(address)": [
        {
          "details": "An operation with an ERC-20 token failed."
        }
      ]
    },
    "kind": "dev",
    "methods": {
      "addMultipleToWhitelist(address[],uint256[])": {
        "details": "Add multiple users to whitelist (admin only)"
      },
      "calculateTokenAllocation(address,uint256)": {
        "details": "Calculate token allocation for a contributor (view only, for off-chain reference)",
        "params": {
          "_contributor": "Address to calculate for",
          "_totalTokensAllocated": "Total tokens allocated to presale (e.g., 5% of supply)"
        }
      },
      "deposit(uint256)": {
        "details": "Contribute USDC to the presale"
      },
      "finalizeSale()": {
        "details": "Finalize the sale after 24 hours"
      },
      "getContributionInfo(address)": {
        "details": "Get contribution info for an address"
      },
      "getSaleInfo()": {
        "details": "Get sale status information"
      },
      "getTimeRemaining()": {
        "details": "Get time remaining in sale"
      },
      "owner()": {
        "details": "Returns the address of the current owner."
      },
      "renounceOwnership()": {
        "details": "Leaves the contract without owner. It will not be possible to call `onlyOwner` functions. Can only be called by the current owner. NOTE: Renouncing ownership will leave the contract without an owner, thereby disabling any functionality that is only available to the owner."
      },
      "startSale()": {
        "details": "Start the presale (admin only)"
      },
      "transferOwnership(address)": {
        "details": "Transfers ownership of the contract to a new account (`newOwner`). Can only be called by the current owner."
      },
      "withdrawFunds()": {
        "details": "Withdraw raised funds if sale was successful (admin only)"
      }
    },
    "title": "Presale",
    "version": 1
  },
  "userdoc": {
    "kind": "user",
    "methods": {},
    "version": 1
  },
  "storageLayout": {
    "storage": [
      {
        "astId": 8,
        "contract": "contracts/Presale.sol:Presale",
        "label": "_owner",
        "offset": 0,
        "slot": "0",
        "type": "t_address"
      },
      {
        "astId": 820,
        "contract": "contracts/Presale.sol:Presale",
        "label": "_status",
        "offset": 0,
        "slot": "1",
        "type": "t_uint256"
      },
      {
        "astId": 910,
        "contract": "contracts/Presale.sol:Presale",
        "label": "saleStartTime",
        "offset": 0,
        "slot": "2",
        "type": "t_uint256"
      },
      {
        "astId": 912,
        "contract": "contracts/Presale.sol:Presale",
        "label": "saleEndTime",
        "offset": 0,
        "slot": "3",
        "type": "t_uint256"
      },
      {
        "astId": 914,
        "contract": "contracts/Presale.sol:Presale",
        "label": "totalRaised",
        "offset": 0,
        "slot": "4",
        "type": "t_uint256"
      },
      {
        "astId": 916,
        "contract": "contracts/Presale.sol:Presale",
        "label": "saleFinalized",
        "offset": 0,
        "slot": "5",
        "type": "t_bool"
      },
      {
        "astId": 918,
        "contract": "contracts/Presale.sol:Presale",
        "label": "saleSuccessful",
        "offset": 1,
        "slot": "5",
        "type": "t_bool"
      },
      {
        "astId": 925,
        "contract": "contracts/Presale.sol:Presale",
        "label": "contributions",
        "offset": 0,
        "slot": "6",
        "type": "t_mapping(t_address,t_uint256)"
      },
      {
        "astId": 929,
        "contract": "contracts/Presale.sol:Presale",
        "label": "whitelist",
        "offset": 0,
        "slot": "7",
        "type": "t_mapping(t_address,t_uint256)"
      }
    ],
    "types": {
      "t_address": {
        "encoding": "inplace",
        "label": "address",
        "numberOfBytes": "20"
      },
      "t_bool": {
        "encoding": "inplace",
        "label": "bool",
        "numberOfBytes": "1"
      },
      "t_mapping(t_address,t_uint256)": {
        "encoding": "mapping",
        "key": "t_address",
        "label": "mapping(address => uint256)",
        "numberOfBytes": "32",
        "value": "t_uint256"
      },
      "t_uint256": {
        "encoding": "inplace",
        "label": "uint256",
        "numberOfBytes": "32"
      }
    }
  }
}