{
  "address": "0x1AA0a1EB0e773ea61AF53CCCe843E14dB6Eb1Cd4",
  "abi": [
    {
      "inputs": [
        {
          "internalType": "address",
          "name": "_usdcToken",
          "type": "address"
        },
        {
          "internalType": "uint256",
          "name": "_softCap",
          "type": "uint256"
        },
        {
          "internalType": "uint256",
          "name": "_hardCap",
          "type": "uint256"
        },
        {
          "internalType": "uint256",
          "name": "_minContribution",
          "type": "uint256"
        },
        {
          "internalType": "uint256",
          "name": "_maxContribution",
          "type": "uint256"
        }
      ],
      "stateMutability": "nonpayable",
      "type": "constructor"
    },
    {
      "inputs": [
        {
          "internalType": "address",
          "name": "owner",
          "type": "address"
        }
      ],
      "name": "OwnableInvalidOwner",
      "type": "error"
    },
    {
      "inputs": [
        {
          "internalType": "address",
          "name": "account",
          "type": "address"
        }
      ],
      "name": "OwnableUnauthorizedAccount",
      "type": "error"
    },
    {
      "inputs": [],
      "name": "ReentrancyGuardReentrantCall",
      "type": "error"
    },
    {
      "anonymous": false,
      "inputs": [
        {
          "indexed": true,
          "internalType": "address",
          "name": "contributor",
          "type": "address"
        },
        {
          "indexed": false,
          "internalType": "uint256",
          "name": "amount",
          "type": "uint256"
        }
      ],
      "name": "ContributionMade",
      "type": "event"
    },
    {
      "anonymous": false,
      "inputs": [
        {
          "indexed": false,
          "internalType": "uint256",
          "name": "amount",
          "type": "uint256"
        }
      ],
      "name": "FundsWithdrawn",
      "type": "event"
    },
    {
      "anonymous": false,
      "inputs": [
        {
          "indexed": true,
          "internalType": "address",
          "name": "previousOwner",
          "type": "address"
        },
        {
          "indexed": true,
          "internalType": "address",
          "name": "newOwner",
          "type": "address"
        }
      ],
      "name": "OwnershipTransferred",
      "type": "event"
    },
    {
      "anonymous": false,
      "inputs": [
        {
          "indexed": true,
          "internalType": "address",
          "name": "contributor",
          "type": "address"
        },
        {
          "indexed": false,
          "internalType": "uint256",
          "name": "amount",
          "type": "uint256"
        }
      ],
      "name": "RefundClaimed",
      "type": "event"
    },
    {
      "anonymous": false,
      "inputs": [
        {
          "indexed": false,
          "internalType": "bool",
          "name": "successful",
          "type": "bool"
        },
        {
          "indexed": false,
          "internalType": "uint256",
          "name": "totalRaised",
          "type": "uint256"
        }
      ],
      "name": "SaleFinalized",
      "type": "event"
    },
    {
      "anonymous": false,
      "inputs": [
        {
          "indexed": false,
          "internalType": "uint256",
          "name": "startTime",
          "type": "uint256"
        },
        {
          "indexed": false,
          "internalType": "uint256",
          "name": "endTime",
          "type": "uint256"
        }
      ],
      "name": "SaleStarted",
      "type": "event"
    },
    {
      "anonymous": false,
      "inputs": [
        {
          "indexed": true,
          "internalType": "address",
          "name": "user",
          "type": "address"
        }
      ],
      "name": "UserWhitelisted",
      "type": "event"
    },
    {
      "inputs": [],
      "name": "SALE_DURATION",
      "outputs": [
        {
          "internalType": "uint256",
          "name": "",
          "type": "uint256"
        }
      ],
      "stateMutability": "view",
      "type": "function"
    },
    {
      "inputs": [
        {
          "internalType": "address[]",
          "name": "_users",
          "type": "address[]"
        }
      ],
      "name": "addMultipleToWhitelist",
      "outputs": [],
      "stateMutability": "nonpayable",
      "type": "function"
    },
    {
      "inputs": [
        {
          "internalType": "address",
          "name": "_contributor",
          "type": "address"
        },
        {
          "internalType": "uint256",
          "name": "_totalTokensAllocated",
          "type": "uint256"
        }
      ],
      "name": "calculateTokenAllocation",
      "outputs": [
        {
          "internalType": "uint256",
          "name": "",
          "type": "uint256"
        }
      ],
      "stateMutability": "view",
      "type": "function"
    },
    {
      "inputs": [],
      "name": "claimRefund",
      "outputs": [],
      "stateMutability": "nonpayable",
      "type": "function"
    },
    {
      "inputs": [
        {
          "internalType": "address",
          "name": "",
          "type": "address"
        }
      ],
      "name": "contributions",
      "outputs": [
        {
          "internalType": "uint256",
          "name": "",
          "type": "uint256"
        }
      ],
      "stateMutability": "view",
      "type": "function"
    },
    {
      "inputs": [
        {
          "internalType": "uint256",
          "name": "_amount",
          "type": "uint256"
        }
      ],
      "name": "deposit",
      "outputs": [],
      "stateMutability": "nonpayable",
      "type": "function"
    },
    {
      "inputs": [],
      "name": "finalizeSale",
      "outputs": [],
      "stateMutability": "nonpayable",
      "type": "function"
    },
    {
      "inputs": [
        {
          "internalType": "address",
          "name": "_contributor",
          "type": "address"
        }
      ],
      "name": "getContributionInfo",
      "outputs": [
        {
          "internalType": "uint256",
          "name": "_contribution",
          "type": "uint256"
        },
        {
          "internalType": "bool",
          "name": "_isWhitelisted",
          "type": "bool"
        }
      ],
      "stateMutability": "view",
      "type": "function"
    },
    {
      "inputs": [],
      "name": "getSaleInfo",
      "outputs": [
        {
          "internalType": "bool",
          "name": "_saleFinalized",
          "type": "bool"
        },
        {
          "internalType": "bool",
          "name": "_saleSuccessful",
          "type": "bool"
        },
        {
          "internalType": "uint256",
          "name": "_totalRaised",
          "type": "uint256"
        },
        {
          "internalType": "uint256",
          "name": "_startTime",
          "type": "uint256"
        },
        {
          "internalType": "uint256",
          "name": "_endTime",
          "type": "uint256"
        }
      ],
      "stateMutability": "view",
      "type": "function"
    },
    {
      "inputs": [],
      "name": "getTimeRemaining",
      "outputs": [
        {
          "internalType": "uint256",
          "name": "",
          "type": "uint256"
        }
      ],
      "stateMutability": "view",
      "type": "function"
    },
    {
      "inputs": [],
      "name": "hardCap",
      "outputs": [
        {
          "internalType": "uint256",
          "name": "",
          "type": "uint256"
        }
      ],
      "stateMutability": "view",
      "type": "function"
    },
    {
      "inputs": [],
      "name": "maxContribution",
      "outputs": [
        {
          "internalType": "uint256",
          "name": "",
          "type": "uint256"
        }
      ],
      "stateMutability": "view",
      "type": "function"
    },
    {
      "inputs": [],
      "name": "minContribution",
      "outputs": [
        {
          "internalType": "uint256",
          "name": "",
          "type": "uint256"
        }
      ],
      "stateMutability": "view",
      "type": "function"
    },
    {
      "inputs": [],
      "name": "owner",
      "outputs": [
        {
          "internalType": "address",
          "name": "",
          "type": "address"
        }
      ],
      "stateMutability": "view",
      "type": "function"
    },
    {
      "inputs": [],
      "name": "renounceOwnership",
      "outputs": [],
      "stateMutability": "nonpayable",
      "type": "function"
    },
    {
      "inputs": [],
      "name": "saleEndTime",
      "outputs": [
        {
          "internalType": "uint256",
          "name": "",
          "type": "uint256"
        }
      ],
      "stateMutability": "view",
      "type": "function"
    },
    {
      "inputs": [],
      "name": "saleFinalized",
      "outputs": [
        {
          "internalType": "bool",
          "name": "",
          "type": "bool"
        }
      ],
      "stateMutability": "view",
      "type": "function"
    },
    {
      "inputs": [],
      "name": "saleStartTime",
      "outputs": [
        {
          "internalType": "uint256",
          "name": "",
          "type": "uint256"
        }
      ],
      "stateMutability": "view",
      "type": "function"
    },
    {
      "inputs": [],
      "name": "saleSuccessful",
      "outputs": [
        {
          "internalType": "bool",
          "name": "",
          "type": "bool"
        }
      ],
      "stateMutability": "view",
      "type": "function"
    },
    {
      "inputs": [],
      "name": "softCap",
      "outputs": [
        {
          "internalType": "uint256",
          "name": "",
          "type": "uint256"
        }
      ],
      "stateMutability": "view",
      "type": "function"
    },
    {
      "inputs": [],
      "name": "startSale",
      "outputs": [],
      "stateMutability": "nonpayable",
      "type": "function"
    },
    {
      "inputs": [],
      "name": "totalRaised",
      "outputs": [
        {
          "internalType": "uint256",
          "name": "",
          "type": "uint256"
        }
      ],
      "stateMutability": "view",
      "type": "function"
    },
    {
      "inputs": [
        {
          "internalType": "address",
          "name": "newOwner",
          "type": "address"
        }
      ],
      "name": "transferOwnership",
      "outputs": [],
      "stateMutability": "nonpayable",
      "type": "function"
    },
    {
      "inputs": [],
      "name": "usdcToken",
      "outputs": [
        {
          "internalType": "contract IERC20",
          "name": "",
          "type": "address"
        }
      ],
      "stateMutability": "view",
      "type": "function"
    },
    {
      "inputs": [
        {
          "internalType": "address",
          "name": "",
          "type": "address"
        }
      ],
      "name": "whitelist",
      "outputs": [
        {
          "internalType": "bool",
          "name": "",
          "type": "bool"
        }
      ],
      "stateMutability": "view",
      "type": "function"
    },
    {
      "inputs": [],
      "name": "withdrawFunds",
      "outputs": [],
      "stateMutability": "nonpayable",
      "type": "function"
    }
  ],
  "transactionHash": "0x8876776d7ff4ddc25464465fa089865b4f7084413875a7dbed6064ff5eac6bf1",
  "args": [
    "0xDc2aCCA7c2d40EADbc0845847Ae23F6BFAf28FC0",
    "1000000",
    "20000000000",
    "100000000",
    "1000000000"
  ],
  "numDeployments": 1,
  "solcInputHash": "450d238861417ff0e2d09a342c6dd4cc",
  "bytecode": "0x60a06040523480156200001157600080fd5b506040516200302238038062003022833981810160405281019062000037919062000459565b33600073ffffffffffffffffffffffffffffffffffffffff168173ffffffffffffffffffffffffffffffffffffffff1603620000ad5760006040517f1e4fbdf7000000000000000000000000000000000000000000000000000000008152600401620000a49190620004f2565b60405180910390fd5b620000be81620002f060201b60201c565b5060018081905550600073ffffffffffffffffffffffffffffffffffffffff168573ffffffffffffffffffffffffffffffffffffffff160362000138576040517f08c379a00000000000000000000000000000000000000000000000000000000081526004016200012f9062000596565b60405180910390fd5b600084116200017e576040517f08c379a0000000000000000000000000000000000000000000000000000000008152600401620001759062000608565b60405180910390fd5b838311620001c3576040517f08c379a0000000000000000000000000000000000000000000000000000000008152600401620001ba906200067a565b60405180910390fd5b6000821162000209576040517f08c379a00000000000000000000000000000000000000000000000000000000081526004016200020090620006ec565b60405180910390fd5b818110156200024f576040517f08c379a000000000000000000000000000000000000000000000000000000000815260040162000246906200075e565b60405180910390fd5b8281111562000295576040517f08c379a00000000000000000000000000000000000000000000000000000000081526004016200028c90620007f6565b60405180910390fd5b8473ffffffffffffffffffffffffffffffffffffffff1660808173ffffffffffffffffffffffffffffffffffffffff168152505083600281905550826003819055508160048190555080600581905550505050505062000818565b60008060009054906101000a900473ffffffffffffffffffffffffffffffffffffffff169050816000806101000a81548173ffffffffffffffffffffffffffffffffffffffff021916908373ffffffffffffffffffffffffffffffffffffffff1602179055508173ffffffffffffffffffffffffffffffffffffffff168173ffffffffffffffffffffffffffffffffffffffff167f8be0079c531659141344cd1fd0a4f28419497f9722a3daafe3b4186f6b6457e060405160405180910390a35050565b600080fd5b600073ffffffffffffffffffffffffffffffffffffffff82169050919050565b6000620003e682620003b9565b9050919050565b620003f881620003d9565b81146200040457600080fd5b50565b6000815190506200041881620003ed565b92915050565b6000819050919050565b62000433816200041e565b81146200043f57600080fd5b50565b600081519050620004538162000428565b92915050565b600080600080600060a08688031215620004785762000477620003b4565b5b6000620004888882890162000407565b95505060206200049b8882890162000442565b9450506040620004ae8882890162000442565b9350506060620004c18882890162000442565b9250506080620004d48882890162000442565b9150509295509295909350565b620004ec81620003d9565b82525050565b6000602082019050620005096000830184620004e1565b92915050565b600082825260208201905092915050565b7f5553444320746f6b656e20616464726573732063616e6e6f74206265207a657260008201527f6f00000000000000000000000000000000000000000000000000000000000000602082015250565b60006200057e6021836200050f565b91506200058b8262000520565b604082019050919050565b60006020820190508181036000830152620005b1816200056f565b9050919050565b7f536f667420636170206d757374206265203e2030000000000000000000000000600082015250565b6000620005f06014836200050f565b9150620005fd82620005b8565b602082019050919050565b600060208201905081810360008301526200062381620005e1565b9050919050565b7f4861726420636170206d757374206265203e20736f6674206361700000000000600082015250565b600062000662601b836200050f565b91506200066f826200062a565b602082019050919050565b60006020820190508181036000830152620006958162000653565b9050919050565b7f4d696e20636f6e747269627574696f6e206d757374206265203e203000000000600082015250565b6000620006d4601c836200050f565b9150620006e1826200069c565b602082019050919050565b600060208201905081810360008301526200070781620006c5565b9050919050565b7f4d6178206d757374206265203e3d206d696e20636f6e747269627574696f6e00600082015250565b600062000746601f836200050f565b915062000753826200070e565b602082019050919050565b60006020820190508181036000830152620007798162000737565b9050919050565b7f4d617820636f6e747269627574696f6e2063616e6e6f7420657863656564206860008201527f6172642063617000000000000000000000000000000000000000000000000000602082015250565b6000620007de6027836200050f565b9150620007eb8262000780565b604082019050919050565b600060208201905081810360008301526200081181620007cf565b9050919050565b6080516127d26200085060003960008181610484015281816105560152818161063501528181610bd4015261111501526127d26000f3fe608060405234801561001057600080fd5b506004361061018e5760003560e01c8063a5f0dea2116100de578063cd78d92c11610097578063ed338ff111610071578063ed338ff1146103fa578063f2fde38b14610418578063f881ccfa14610434578063fb86a404146104645761018e565b8063cd78d92c14610389578063dac6270d146103ba578063db83694c146103d85761018e565b8063a5f0dea2146102ff578063aaffadf31461031d578063b5545a3c1461033b578063b66a0e5d14610345578063b6b55f251461034f578063c5c4744c1461036b5761018e565b80636d79207c1161014b5780638d3d6576116101255780638d3d6576146102755780638da5cb5b14610293578063906a26e0146102b15780639b19251a146102cf5761018e565b80636d79207c14610231578063715018a61461024f5780638401f8d1146102595761018e565b806311eac855146101935780631cbaee2d146101b157806324600fc3146101cf57806342e94c90146101d957806358a687ec146102095780635eabe01e14610213575b600080fd5b61019b610482565b6040516101a89190611835565b60405180910390f35b6101b96104a6565b6040516101c69190611869565b60405180910390f35b6101d76104ac565b005b6101f360048036038101906101ee91906118cc565b610751565b6040516102009190611869565b60405180910390f35b610211610769565b005b61021b610816565b6040516102289190611914565b60405180910390f35b610239610829565b6040516102469190611869565b60405180910390f35b610257610830565b005b610273600480360381019061026e9190611994565b610844565b005b61027d6109f1565b60405161028a9190611869565b60405180910390f35b61029b6109f7565b6040516102a891906119f0565b60405180910390f35b6102b9610a20565b6040516102c69190611869565b60405180910390f35b6102e960048036038101906102e491906118cc565b610a26565b6040516102f69190611914565b60405180910390f35b610307610a46565b6040516103149190611914565b60405180910390f35b610325610a59565b6040516103329190611869565b60405180910390f35b610343610a5f565b005b61034d610d08565b005b61036960048036038101906103649190611a37565b610e0c565b005b6103736112bc565b6040516103809190611869565b60405180910390f35b6103a3600480360381019061039e91906118cc565b6112c2565b6040516103b1929190611a64565b60405180910390f35b6103c261135b565b6040516103cf9190611869565b60405180910390f35b6103e0611391565b6040516103f1959493929190611a8d565b60405180910390f35b6104026113d3565b60405161040f9190611869565b60405180910390f35b610432600480360381019061042d91906118cc565b6113d9565b005b61044e60048036038101906104499190611ae0565b61145f565b60405161045b9190611869565b60405180910390f35b61046c611586565b6040516104799190611869565b60405180910390f35b7f000000000000000000000000000000000000000000000000000000000000000081565b60065481565b6104b461158c565b600960009054906101000a900460ff16610503576040517f08c379a00000000000000000000000000000000000000000000000000000000081526004016104fa90611b7d565b60405180910390fd5b600960019054906101000a900460ff16610552576040517f08c379a000000000000000000000000000000000000000000000000000000000815260040161054990611be9565b60405180910390fd5b60007f000000000000000000000000000000000000000000000000000000000000000073ffffffffffffffffffffffffffffffffffffffff166370a08231306040518263ffffffff1660e01b81526004016105ad91906119f0565b602060405180830381865afa1580156105ca573d6000803e3d6000fd5b505050506040513d601f19601f820116820180604052508101906105ee9190611c1e565b905060008111610633576040517f08c379a000000000000000000000000000000000000000000000000000000000815260040161062a90611c97565b60405180910390fd5b7f000000000000000000000000000000000000000000000000000000000000000073ffffffffffffffffffffffffffffffffffffffff1663a9059cbb6106776109f7565b836040518363ffffffff1660e01b8152600401610695929190611cb7565b6020604051808303816000875af11580156106b4573d6000803e3d6000fd5b505050506040513d601f19601f820116820180604052508101906106d89190611d0c565b610717576040517f08c379a000000000000000000000000000000000000000000000000000000000815260040161070e90611d85565b60405180910390fd5b7f4a37b25aab49761ecf63117fe82b98d750917451133cf797507bc9fb5b96044a816040516107469190611869565b60405180910390a150565b600a6020528060005260406000206000915090505481565b600960009054906101000a900460ff16156107b9576040517f08c379a00000000000000000000000000000000000000000000000000000000081526004016107b090611df1565b60405180910390fd5b6007544211806107cd575060035460085410155b61080c576040517f08c379a000000000000000000000000000000000000000000000000000000000815260040161080390611e83565b60405180910390fd5b610814611613565b565b600960019054906101000a900460ff1681565b6201518081565b61083861158c565b610842600061169b565b565b61084c61158c565b60005b828290508110156109ec57600073ffffffffffffffffffffffffffffffffffffffff1683838381811061088557610884611ea3565b5b905060200201602081019061089a91906118cc565b73ffffffffffffffffffffffffffffffffffffffff16036108f0576040517f08c379a00000000000000000000000000000000000000000000000000000000081526004016108e790611f1e565b60405180910390fd5b6001600b600085858581811061090957610908611ea3565b5b905060200201602081019061091e91906118cc565b73ffffffffffffffffffffffffffffffffffffffff1673ffffffffffffffffffffffffffffffffffffffff16815260200190815260200160002060006101000a81548160ff02191690831515021790555082828281811061098257610981611ea3565b5b905060200201602081019061099791906118cc565b73ffffffffffffffffffffffffffffffffffffffff167f7409cb8e690bcd1487fd4fd27dad3fa92388d201ba6f953631d6d6b26299f84960405160405180910390a280806109e490611f6d565b91505061084f565b505050565b60055481565b60008060009054906101000a900473ffffffffffffffffffffffffffffffffffffffff16905090565b60025481565b600b6020528060005260406000206000915054906101000a900460ff1681565b600960009054906101000a900460ff1681565b60045481565b600960009054906101000a900460ff16610aae576040517f08c379a0000000000000000000000000000000000000000000000000000000008152600401610aa590611b7d565b60405180910390fd5b610ab661175f565b600960019054906101000a900460ff1615610b06576040517f08c379a0000000000000000000000000000000000000000000000000000000008152600401610afd90612001565b60405180910390fd5b6000600a60003373ffffffffffffffffffffffffffffffffffffffff1673ffffffffffffffffffffffffffffffffffffffff16815260200190815260200160002054905060008111610b8d576040517f08c379a0000000000000000000000000000000000000000000000000000000008152600401610b849061206d565b60405180910390fd5b6000600a60003373ffffffffffffffffffffffffffffffffffffffff1673ffffffffffffffffffffffffffffffffffffffff168152602001908152602001600020819055507f000000000000000000000000000000000000000000000000000000000000000073ffffffffffffffffffffffffffffffffffffffff1663a9059cbb33836040518363ffffffff1660e01b8152600401610c2d929190611cb7565b6020604051808303816000875af1158015610c4c573d6000803e3d6000fd5b505050506040513d601f19601f82011682018060405250810190610c709190611d0c565b610caf576040517f08c379a0000000000000000000000000000000000000000000000000000000008152600401610ca6906120d9565b60405180910390fd5b3373ffffffffffffffffffffffffffffffffffffffff167f358fe4192934d3bf28ae181feda1f4bd08ca67f5e2fad55582cce5eb67304ae982604051610cf59190611869565b60405180910390a250610d066117a5565b565b610d1061158c565b600754421180610d2257506000600654145b610d61576040517f08c379a0000000000000000000000000000000000000000000000000000000008152600401610d5890612145565b60405180910390fd5b600960009054906101000a900460ff1615610db1576040517f08c379a0000000000000000000000000000000000000000000000000000000008152600401610da890611df1565b60405180910390fd5b426006819055506201518042610dc79190612165565b6007819055507f87d03dcfa12666a6f670d52387c414c3147775a8cc623d78088c0e23b4a90346600654600754604051610e02929190612199565b60405180910390a1565b600060065411610e51576040517f08c379a0000000000000000000000000000000000000000000000000000000008152600401610e489061220e565b60405180910390fd5b600654421015610e96576040517f08c379a0000000000000000000000000000000000000000000000000000000008152600401610e8d9061220e565b60405180910390fd5b600754421115610edb576040517f08c379a0000000000000000000000000000000000000000000000000000000008152600401610ed29061227a565b60405180910390fd5b60035460085410610f21576040517f08c379a0000000000000000000000000000000000000000000000000000000008152600401610f18906122e6565b60405180910390fd5b610f2961175f565b600b60003373ffffffffffffffffffffffffffffffffffffffff1673ffffffffffffffffffffffffffffffffffffffff16815260200190815260200160002060009054906101000a900460ff16610fb5576040517f08c379a0000000000000000000000000000000000000000000000000000000008152600401610fac90612352565b60405180910390fd5b600454811015610ffa576040517f08c379a0000000000000000000000000000000000000000000000000000000008152600401610ff1906123be565b60405180910390fd5b6000600a60003373ffffffffffffffffffffffffffffffffffffffff1673ffffffffffffffffffffffffffffffffffffffff168152602001908152602001600020541461107c576040517f08c379a00000000000000000000000000000000000000000000000000000000081526004016110739061242a565b60405180910390fd5b6005548111156110c1576040517f08c379a00000000000000000000000000000000000000000000000000000000081526004016110b890612496565b60405180910390fd5b600354816008546110d29190612165565b1115611113576040517f08c379a000000000000000000000000000000000000000000000000000000000815260040161110a90612502565b60405180910390fd5b7f000000000000000000000000000000000000000000000000000000000000000073ffffffffffffffffffffffffffffffffffffffff166323b872dd3330846040518463ffffffff1660e01b815260040161117093929190612522565b6020604051808303816000875af115801561118f573d6000803e3d6000fd5b505050506040513d601f19601f820116820180604052508101906111b39190611d0c565b6111f2576040517f08c379a00000000000000000000000000000000000000000000000000000000081526004016111e9906125a5565b60405180910390fd5b80600a60003373ffffffffffffffffffffffffffffffffffffffff1673ffffffffffffffffffffffffffffffffffffffff1681526020019081526020016000208190555080600860008282546112489190612165565b925050819055503373ffffffffffffffffffffffffffffffffffffffff167f6770260ea820d2f539364e7617e021543aaf6d192f2fd2a47c20db6bd99a4eb9826040516112959190611869565b60405180910390a2600354600854106112b1576112b0611613565b5b6112b96117a5565b50565b60085481565b600080600a60008473ffffffffffffffffffffffffffffffffffffffff1673ffffffffffffffffffffffffffffffffffffffff16815260200190815260200160002054600b60008573ffffffffffffffffffffffffffffffffffffffff1673ffffffffffffffffffffffffffffffffffffffff16815260200190815260200160002060009054906101000a900460ff1691509150915091565b600080600654148061136f57506007544210155b1561137d576000905061138e565b4260075461138b91906125c5565b90505b90565b6000806000806000600960009054906101000a900460ff16600960019054906101000a900460ff16600854600654600754945094509450945094509091929394565b60075481565b6113e161158c565b600073ffffffffffffffffffffffffffffffffffffffff168173ffffffffffffffffffffffffffffffffffffffff16036114535760006040517f1e4fbdf700000000000000000000000000000000000000000000000000000000815260040161144a91906119f0565b60405180910390fd5b61145c8161169b565b50565b6000600960009054906101000a900460ff1680156114895750600960019054906101000a900460ff165b6114c8576040517f08c379a00000000000000000000000000000000000000000000000000000000081526004016114bf90612645565b60405180910390fd5b60006008541161150d576040517f08c379a0000000000000000000000000000000000000000000000000000000008152600401611504906126b1565b60405180910390fd5b6000600a60008573ffffffffffffffffffffffffffffffffffffffff1673ffffffffffffffffffffffffffffffffffffffff16815260200190815260200160002054905060008103611563576000915050611580565b600854838261157291906126d1565b61157c9190612742565b9150505b92915050565b60035481565b6115946117ae565b73ffffffffffffffffffffffffffffffffffffffff166115b26109f7565b73ffffffffffffffffffffffffffffffffffffffff1614611611576115d56117ae565b6040517f118cdaa700000000000000000000000000000000000000000000000000000000815260040161160891906119f0565b60405180910390fd5b565b6001600960006101000a81548160ff0219169083151502179055506002546008541015600960016101000a81548160ff0219169083151502179055507ff0d46ecf16ea6c4029ade01a6213d074c98f462769781b2a022fac1d81a58cbe600960019054906101000a900460ff16600854604051611691929190612773565b60405180910390a1565b60008060009054906101000a900473ffffffffffffffffffffffffffffffffffffffff169050816000806101000a81548173ffffffffffffffffffffffffffffffffffffffff021916908373ffffffffffffffffffffffffffffffffffffffff1602179055508173ffffffffffffffffffffffffffffffffffffffff168173ffffffffffffffffffffffffffffffffffffffff167f8be0079c531659141344cd1fd0a4f28419497f9722a3daafe3b4186f6b6457e060405160405180910390a35050565b60026001540361179b576040517f3ee5aeb500000000000000000000000000000000000000000000000000000000815260040160405180910390fd5b6002600181905550565b60018081905550565b600033905090565b600073ffffffffffffffffffffffffffffffffffffffff82169050919050565b6000819050919050565b60006117fb6117f66117f1846117b6565b6117d6565b6117b6565b9050919050565b600061180d826117e0565b9050919050565b600061181f82611802565b9050919050565b61182f81611814565b82525050565b600060208201905061184a6000830184611826565b92915050565b6000819050919050565b61186381611850565b82525050565b600060208201905061187e600083018461185a565b92915050565b600080fd5b600080fd5b6000611899826117b6565b9050919050565b6118a98161188e565b81146118b457600080fd5b50565b6000813590506118c6816118a0565b92915050565b6000602082840312156118e2576118e1611884565b5b60006118f0848285016118b7565b91505092915050565b60008115159050919050565b61190e816118f9565b82525050565b60006020820190506119296000830184611905565b92915050565b600080fd5b600080fd5b600080fd5b60008083601f8401126119545761195361192f565b5b8235905067ffffffffffffffff81111561197157611970611934565b5b60208301915083602082028301111561198d5761198c611939565b5b9250929050565b600080602083850312156119ab576119aa611884565b5b600083013567ffffffffffffffff8111156119c9576119c8611889565b5b6119d58582860161193e565b92509250509250929050565b6119ea8161188e565b82525050565b6000602082019050611a0560008301846119e1565b92915050565b611a1481611850565b8114611a1f57600080fd5b50565b600081359050611a3181611a0b565b92915050565b600060208284031215611a4d57611a4c611884565b5b6000611a5b84828501611a22565b91505092915050565b6000604082019050611a79600083018561185a565b611a866020830184611905565b9392505050565b600060a082019050611aa26000830188611905565b611aaf6020830187611905565b611abc604083018661185a565b611ac9606083018561185a565b611ad6608083018461185a565b9695505050505050565b60008060408385031215611af757611af6611884565b5b6000611b05858286016118b7565b9250506020611b1685828601611a22565b9150509250929050565b600082825260208201905092915050565b7f53616c65206e6f742066696e616c697a65640000000000000000000000000000600082015250565b6000611b67601283611b20565b9150611b7282611b31565b602082019050919050565b60006020820190508181036000830152611b9681611b5a565b9050919050565b7f53616c6520776173206e6f74207375636365737366756c000000000000000000600082015250565b6000611bd3601783611b20565b9150611bde82611b9d565b602082019050919050565b60006020820190508181036000830152611c0281611bc6565b9050919050565b600081519050611c1881611a0b565b92915050565b600060208284031215611c3457611c33611884565b5b6000611c4284828501611c09565b91505092915050565b7f4e6f2066756e647320746f207769746864726177000000000000000000000000600082015250565b6000611c81601483611b20565b9150611c8c82611c4b565b602082019050919050565b60006020820190508181036000830152611cb081611c74565b9050919050565b6000604082019050611ccc60008301856119e1565b611cd9602083018461185a565b9392505050565b611ce9816118f9565b8114611cf457600080fd5b50565b600081519050611d0681611ce0565b92915050565b600060208284031215611d2257611d21611884565b5b6000611d3084828501611cf7565b91505092915050565b7f55534443207769746864726177616c206661696c656400000000000000000000600082015250565b6000611d6f601683611b20565b9150611d7a82611d39565b602082019050919050565b60006020820190508181036000830152611d9e81611d62565b9050919050565b7f53616c6520616c72656164792066696e616c697a656400000000000000000000600082015250565b6000611ddb601683611b20565b9150611de682611da5565b602082019050919050565b60006020820190508181036000830152611e0a81611dce565b9050919050565b7f53616c6520706572696f64206e6f7420656e64656420616e642068617264206360008201527f6170206e6f742072656163686564000000000000000000000000000000000000602082015250565b6000611e6d602e83611b20565b9150611e7882611e11565b604082019050919050565b60006020820190508181036000830152611e9c81611e60565b9050919050565b7f4e487b7100000000000000000000000000000000000000000000000000000000600052603260045260246000fd5b7f496e76616c696420616464726573730000000000000000000000000000000000600082015250565b6000611f08600f83611b20565b9150611f1382611ed2565b602082019050919050565b60006020820190508181036000830152611f3781611efb565b9050919050565b7f4e487b7100000000000000000000000000000000000000000000000000000000600052601160045260246000fd5b6000611f7882611850565b91507fffffffffffffffffffffffffffffffffffffffffffffffffffffffffffffffff8203611faa57611fa9611f3e565b5b600182019050919050565b7f53616c6520776173207375636365737366756c2c206e6f20726566756e647300600082015250565b6000611feb601f83611b20565b9150611ff682611fb5565b602082019050919050565b6000602082019050818103600083015261201a81611fde565b9050919050565b7f4e6f20636f6e747269627574696f6e20666f756e640000000000000000000000600082015250565b6000612057601583611b20565b915061206282612021565b602082019050919050565b600060208201905081810360008301526120868161204a565b9050919050565b7f5553444320726566756e64207472616e73666572206661696c65640000000000600082015250565b60006120c3601b83611b20565b91506120ce8261208d565b602082019050919050565b600060208201905081810360008301526120f2816120b6565b9050919050565b7f53616c6520616c726561647920616374697665206f722066696e616c697a6564600082015250565b600061212f602083611b20565b915061213a826120f9565b602082019050919050565b6000602082019050818103600083015261215e81612122565b9050919050565b600061217082611850565b915061217b83611850565b925082820190508082111561219357612192611f3e565b5b92915050565b60006040820190506121ae600083018561185a565b6121bb602083018461185a565b9392505050565b7f53616c65206e6f74207374617274656400000000000000000000000000000000600082015250565b60006121f8601083611b20565b9150612203826121c2565b602082019050919050565b60006020820190508181036000830152612227816121eb565b9050919050565b7f53616c6520656e64656400000000000000000000000000000000000000000000600082015250565b6000612264600a83611b20565b915061226f8261222e565b602082019050919050565b6000602082019050818103600083015261229381612257565b9050919050565b7f4861726420636170207265616368656400000000000000000000000000000000600082015250565b60006122d0601083611b20565b91506122db8261229a565b602082019050919050565b600060208201905081810360008301526122ff816122c3565b9050919050565b7f41646472657373206e6f742077686974656c6973746564000000000000000000600082015250565b600061233c601783611b20565b915061234782612306565b602082019050919050565b6000602082019050818103600083015261236b8161232f565b9050919050565b7f42656c6f77206d696e696d756d20636f6e747269627574696f6e000000000000600082015250565b60006123a8601a83611b20565b91506123b382612372565b602082019050919050565b600060208201905081810360008301526123d78161239b565b9050919050565b7f416c726561647920636f6e747269627574656400000000000000000000000000600082015250565b6000612414601383611b20565b915061241f826123de565b602082019050919050565b6000602082019050818103600083015261244381612407565b9050919050565b7f45786365656473206d6178696d756d20636f6e747269627574696f6e00000000600082015250565b6000612480601c83611b20565b915061248b8261244a565b602082019050919050565b600060208201905081810360008301526124af81612473565b9050919050565b7f576f756c64206578636565642068617264206361700000000000000000000000600082015250565b60006124ec601583611b20565b91506124f7826124b6565b602082019050919050565b6000602082019050818103600083015261251b816124df565b9050919050565b600060608201905061253760008301866119e1565b61254460208301856119e1565b612551604083018461185a565b949350505050565b7f55534443207472616e73666572206661696c6564000000000000000000000000600082015250565b600061258f601483611b20565b915061259a82612559565b602082019050919050565b600060208201905081810360008301526125be81612582565b9050919050565b60006125d082611850565b91506125db83611850565b92508282039050818111156125f3576125f2611f3e565b5b92915050565b7f53616c65206e6f74207375636365737366756c6c792066696e616c697a656400600082015250565b600061262f601f83611b20565b915061263a826125f9565b602082019050919050565b6000602082019050818103600083015261265e81612622565b9050919050565b7f4e6f20636f6e747269627574696f6e7300000000000000000000000000000000600082015250565b600061269b601083611b20565b91506126a682612665565b602082019050919050565b600060208201905081810360008301526126ca8161268e565b9050919050565b60006126dc82611850565b91506126e783611850565b92508282026126f581611850565b9150828204841483151761270c5761270b611f3e565b5b5092915050565b7f4e487b7100000000000000000000000000000000000000000000000000000000600052601260045260246000fd5b600061274d82611850565b915061275883611850565b92508261276857612767612713565b5b828204905092915050565b60006040820190506127886000830185611905565b612795602083018461185a565b939250505056fea2646970667358221220d257630a913bf1ec73553942e66334f137315d8d705b12647b706a8e60a7827464736f6c63430008140033",
  "devdoc": {
    "details": "Presale contract for Backroom token with USDC contributions",
    "errors": {
      "OwnableInvalidOwner(address)": [
        {
          "details": "The owner is not a valid owner account. (eg. `address(0)`)"
        }
      ],
      "OwnableUnauthorizedAccount(address)": [
        {
          "details": "The caller account is not authorized to perform an operation."
        }
      ],
      "ReentrancyGuardReentrantCall()": [
        {
          "details": "Unauthorized reentrant call."
        }
      ]
    },
    "kind": "dev",
    "methods": {
      "addMultipleToWhitelist(address[])": {
        "details": "Add multiple users to whitelist (admin only)"
      },
      "calculateTokenAllocation(address,uint256)": {
        "details": "Calculate token allocation for a contributor (view only, for off-chain reference)",
        "params": {
          "_contributor": "Address to calculate for",
          "_totalTokensAllocated": "Total tokens allocated to presale (e.g., 5% of supply)"
        }
      },
      "claimRefund()": {
        "details": "Claim refund if sale failed (contributors only)"
      },
      "deposit(uint256)": {
        "details": "Contribute USDC to the presale"
      },
      "finalizeSale()": {
        "details": "Finalize the sale after 24 hours or when hard cap is reached"
      },
      "getContributionInfo(address)": {
        "details": "Get contribution info for an address"
      },
      "getSaleInfo()": {
        "details": "Get sale status information"
      },
      "getTimeRemaining()": {
        "details": "Get time remaining in sale"
      },
      "owner()": {
        "details": "Returns the address of the current owner."
      },
      "renounceOwnership()": {
        "details": "Leaves the contract without owner. It will not be possible to call `onlyOwner` functions. Can only be called by the current owner. NOTE: Renouncing ownership will leave the contract without an owner, thereby disabling any functionality that is only available to the owner."
      },
      "startSale()": {
        "details": "Start the presale (admin only)"
      },
      "transferOwnership(address)": {
        "details": "Transfers ownership of the contract to a new account (`newOwner`). Can only be called by the current owner."
      },
      "withdrawFunds()": {
        "details": "Withdraw raised funds if sale was successful (admin only)"
      }
    },
    "title": "Presale",
    "version": 1
  },
  "userdoc": {
    "kind": "user",
    "methods": {},
    "version": 1
  },
  "storageLayout": {
    "storage": [
      {
        "astId": 8,
        "contract": "contracts/Presale.sol:Presale",
        "label": "_owner",
        "offset": 0,
        "slot": "0",
        "type": "t_address"
      },
      {
        "astId": 1498,
        "contract": "contracts/Presale.sol:Presale",
        "label": "_status",
        "offset": 0,
        "slot": "1",
        "type": "t_uint256"
      },
      {
        "astId": 3656,
        "contract": "contracts/Presale.sol:Presale",
        "label": "softCap",
        "offset": 0,
        "slot": "2",
        "type": "t_uint256"
      },
      {
        "astId": 3658,
        "contract": "contracts/Presale.sol:Presale",
        "label": "hardCap",
        "offset": 0,
        "slot": "3",
        "type": "t_uint256"
      },
      {
        "astId": 3660,
        "contract": "contracts/Presale.sol:Presale",
        "label": "minContribution",
        "offset": 0,
        "slot": "4",
        "type": "t_uint256"
      },
      {
        "astId": 3662,
        "contract": "contracts/Presale.sol:Presale",
        "label": "maxContribution",
        "offset": 0,
        "slot": "5",
        "type": "t_uint256"
      },
      {
        "astId": 3664,
        "contract": "contracts/Presale.sol:Presale",
        "label": "saleStartTime",
        "offset": 0,
        "slot": "6",
        "type": "t_uint256"
      },
      {
        "astId": 3666,
        "contract": "contracts/Presale.sol:Presale",
        "label": "saleEndTime",
        "offset": 0,
        "slot": "7",
        "type": "t_uint256"
      },
      {
        "astId": 3668,
        "contract": "contracts/Presale.sol:Presale",
        "label": "totalRaised",
        "offset": 0,
        "slot": "8",
        "type": "t_uint256"
      },
      {
        "astId": 3670,
        "contract": "contracts/Presale.sol:Presale",
        "label": "saleFinalized",
        "offset": 0,
        "slot": "9",
        "type": "t_bool"
      },
      {
        "astId": 3672,
        "contract": "contracts/Presale.sol:Presale",
        "label": "saleSuccessful",
        "offset": 1,
        "slot": "9",
        "type": "t_bool"
      },
      {
        "astId": 3679,
        "contract": "contracts/Presale.sol:Presale",
        "label": "contributions",
        "offset": 0,
        "slot": "10",
        "type": "t_mapping(t_address,t_uint256)"
      },
      {
        "astId": 3683,
        "contract": "contracts/Presale.sol:Presale",
        "label": "whitelist",
        "offset": 0,
        "slot": "11",
        "type": "t_mapping(t_address,t_bool)"
      }
    ],
    "types": {
      "t_address": {
        "encoding": "inplace",
        "label": "address",
        "numberOfBytes": "20"
      },
      "t_bool": {
        "encoding": "inplace",
        "label": "bool",
        "numberOfBytes": "1"
      },
      "t_mapping(t_address,t_bool)": {
        "encoding": "mapping",
        "key": "t_address",
        "label": "mapping(address => bool)",
        "numberOfBytes": "32",
        "value": "t_bool"
      },
      "t_mapping(t_address,t_uint256)": {
        "encoding": "mapping",
        "key": "t_address",
        "label": "mapping(address => uint256)",
        "numberOfBytes": "32",
        "value": "t_uint256"
      },
      "t_uint256": {
        "encoding": "inplace",
        "label": "uint256",
        "numberOfBytes": "32"
      }
    }
  }
}