{
  "address": "0x5c910b67EbF8F897CE96CBEc20Baa0Acb0a2De25",
  "abi": [
    {
      "inputs": [
        {
          "internalType": "address",
          "name": "_roomToken",
          "type": "address"
        }
      ],
      "stateMutability": "nonpayable",
      "type": "constructor"
    },
    {
      "inputs": [],
      "name": "ReentrancyGuardReentrantCall",
      "type": "error"
    },
    {
      "inputs": [
        {
          "internalType": "address",
          "name": "token",
          "type": "address"
        }
      ],
      "name": "SafeERC20FailedOperation",
      "type": "error"
    },
    {
      "anonymous": false,
      "inputs": [
        {
          "indexed": true,
          "internalType": "uint256",
          "name": "positionId",
          "type": "uint256"
        },
        {
          "indexed": true,
          "internalType": "address",
          "name": "owner",
          "type": "address"
        },
        {
          "indexed": false,
          "internalType": "uint256",
          "name": "amount",
          "type": "uint256"
        }
      ],
      "name": "PositionClaimed",
      "type": "event"
    },
    {
      "anonymous": false,
      "inputs": [
        {
          "indexed": true,
          "internalType": "uint256",
          "name": "positionId",
          "type": "uint256"
        },
        {
          "indexed": true,
          "internalType": "address",
          "name": "owner",
          "type": "address"
        },
        {
          "indexed": false,
          "internalType": "uint256",
          "name": "amount",
          "type": "uint256"
        },
        {
          "indexed": false,
          "internalType": "uint256",
          "name": "stakeTime",
          "type": "uint256"
        }
      ],
      "name": "PositionCreated",
      "type": "event"
    },
    {
      "anonymous": false,
      "inputs": [
        {
          "indexed": true,
          "internalType": "uint256",
          "name": "positionId",
          "type": "uint256"
        },
        {
          "indexed": true,
          "internalType": "address",
          "name": "owner",
          "type": "address"
        },
        {
          "indexed": false,
          "internalType": "uint256",
          "name": "amount",
          "type": "uint256"
        }
      ],
      "name": "PositionRestaked",
      "type": "event"
    },
    {
      "anonymous": false,
      "inputs": [
        {
          "indexed": true,
          "internalType": "uint256",
          "name": "positionId",
          "type": "uint256"
        },
        {
          "indexed": true,
          "internalType": "address",
          "name": "owner",
          "type": "address"
        },
        {
          "indexed": false,
          "internalType": "uint256",
          "name": "amount",
          "type": "uint256"
        },
        {
          "indexed": false,
          "internalType": "uint256",
          "name": "unlockTime",
          "type": "uint256"
        }
      ],
      "name": "PositionUnstaked",
      "type": "event"
    },
    {
      "inputs": [],
      "name": "COOLDOWN_PERIOD",
      "outputs": [
        {
          "internalType": "uint256",
          "name": "",
          "type": "uint256"
        }
      ],
      "stateMutability": "view",
      "type": "function"
    },
    {
      "inputs": [
        {
          "internalType": "uint256",
          "name": "positionId",
          "type": "uint256"
        }
      ],
      "name": "canClaim",
      "outputs": [
        {
          "internalType": "bool",
          "name": "",
          "type": "bool"
        }
      ],
      "stateMutability": "view",
      "type": "function"
    },
    {
      "inputs": [
        {
          "internalType": "uint256",
          "name": "positionId",
          "type": "uint256"
        }
      ],
      "name": "claim",
      "outputs": [],
      "stateMutability": "nonpayable",
      "type": "function"
    },
    {
      "inputs": [
        {
          "internalType": "uint256",
          "name": "positionId",
          "type": "uint256"
        }
      ],
      "name": "getPosition",
      "outputs": [
        {
          "components": [
            {
              "internalType": "uint256",
              "name": "positionId",
              "type": "uint256"
            },
            {
              "internalType": "address",
              "name": "owner",
              "type": "address"
            },
            {
              "internalType": "uint256",
              "name": "amount",
              "type": "uint256"
            },
            {
              "internalType": "uint256",
              "name": "unlockTime",
              "type": "uint256"
            },
            {
              "internalType": "enum IStaking.PositionStatus",
              "name": "status",
              "type": "uint8"
            }
          ],
          "internalType": "struct IStaking.Position",
          "name": "",
          "type": "tuple"
        }
      ],
      "stateMutability": "view",
      "type": "function"
    },
    {
      "inputs": [
        {
          "internalType": "uint256",
          "name": "positionId",
          "type": "uint256"
        }
      ],
      "name": "getTimeUntilUnlock",
      "outputs": [
        {
          "internalType": "uint256",
          "name": "",
          "type": "uint256"
        }
      ],
      "stateMutability": "view",
      "type": "function"
    },
    {
      "inputs": [
        {
          "internalType": "address",
          "name": "user",
          "type": "address"
        }
      ],
      "name": "getUserPositions",
      "outputs": [
        {
          "internalType": "uint256[]",
          "name": "",
          "type": "uint256[]"
        }
      ],
      "stateMutability": "view",
      "type": "function"
    },
    {
      "inputs": [
        {
          "internalType": "address",
          "name": "user",
          "type": "address"
        }
      ],
      "name": "getUserTotalStaked",
      "outputs": [
        {
          "internalType": "uint256",
          "name": "",
          "type": "uint256"
        }
      ],
      "stateMutability": "view",
      "type": "function"
    },
    {
      "inputs": [],
      "name": "nextPositionId",
      "outputs": [
        {
          "internalType": "uint256",
          "name": "",
          "type": "uint256"
        }
      ],
      "stateMutability": "view",
      "type": "function"
    },
    {
      "inputs": [
        {
          "internalType": "uint256",
          "name": "",
          "type": "uint256"
        }
      ],
      "name": "positions",
      "outputs": [
        {
          "internalType": "uint256",
          "name": "positionId",
          "type": "uint256"
        },
        {
          "internalType": "address",
          "name": "owner",
          "type": "address"
        },
        {
          "internalType": "uint256",
          "name": "amount",
          "type": "uint256"
        },
        {
          "internalType": "uint256",
          "name": "unlockTime",
          "type": "uint256"
        },
        {
          "internalType": "enum IStaking.PositionStatus",
          "name": "status",
          "type": "uint8"
        }
      ],
      "stateMutability": "view",
      "type": "function"
    },
    {
      "inputs": [
        {
          "internalType": "uint256",
          "name": "positionId",
          "type": "uint256"
        }
      ],
      "name": "restake",
      "outputs": [],
      "stateMutability": "nonpayable",
      "type": "function"
    },
    {
      "inputs": [],
      "name": "roomToken",
      "outputs": [
        {
          "internalType": "contract IERC20",
          "name": "",
          "type": "address"
        }
      ],
      "stateMutability": "view",
      "type": "function"
    },
    {
      "inputs": [
        {
          "internalType": "uint256",
          "name": "amount",
          "type": "uint256"
        }
      ],
      "name": "stake",
      "outputs": [
        {
          "internalType": "uint256",
          "name": "",
          "type": "uint256"
        }
      ],
      "stateMutability": "nonpayable",
      "type": "function"
    },
    {
      "inputs": [
        {
          "internalType": "address",
          "name": "",
          "type": "address"
        }
      ],
      "name": "totalStaked",
      "outputs": [
        {
          "internalType": "uint256",
          "name": "",
          "type": "uint256"
        }
      ],
      "stateMutability": "view",
      "type": "function"
    },
    {
      "inputs": [
        {
          "internalType": "uint256",
          "name": "positionId",
          "type": "uint256"
        }
      ],
      "name": "unstake",
      "outputs": [],
      "stateMutability": "nonpayable",
      "type": "function"
    },
    {
      "inputs": [
        {
          "internalType": "address",
          "name": "",
          "type": "address"
        },
        {
          "internalType": "uint256",
          "name": "",
          "type": "uint256"
        }
      ],
      "name": "userPositions",
      "outputs": [
        {
          "internalType": "uint256",
          "name": "",
          "type": "uint256"
        }
      ],
      "stateMutability": "view",
      "type": "function"
    }
  ],
  "transactionHash": "0xe5aebc6ed0d126800f0b30fcb75882de39e912ee9c93d6f6656c3eb42ea9811c",
  "args": [
    "0x21Cc998e627Ba6c18a134153341A6771996Ef304"
  ],
  "numDeployments": 2,
  "solcInputHash": "0d15dd6d8c1b13a7b63e1c1494723154",
  "bytecode": "0x60a0604052600180553480156200001557600080fd5b50604051620021393803806200213983398181016040528101906200003b91906200015a565b6001600081905550600073ffffffffffffffffffffffffffffffffffffffff168173ffffffffffffffffffffffffffffffffffffffff1603620000b5576040517f08c379a0000000000000000000000000000000000000000000000000000000008152600401620000ac9062000213565b60405180910390fd5b8073ffffffffffffffffffffffffffffffffffffffff1660808173ffffffffffffffffffffffffffffffffffffffff16815250505062000235565b600080fd5b600073ffffffffffffffffffffffffffffffffffffffff82169050919050565b60006200012282620000f5565b9050919050565b620001348162000115565b81146200014057600080fd5b50565b600081519050620001548162000129565b92915050565b600060208284031215620001735762000172620000f0565b5b6000620001838482850162000143565b91505092915050565b600082825260208201905092915050565b7f524f4f4d20746f6b656e20616464726573732063616e6e6f74206265207a657260008201527f6f00000000000000000000000000000000000000000000000000000000000000602082015250565b6000620001fb6021836200018c565b915062000208826200019d565b604082019050919050565b600060208201905081810360008301526200022e81620001ec565b9050919050565b608051611eda6200025f60003960008181610a7a01528181610c080152610c970152611eda6000f3fe608060405234801561001057600080fd5b50600436106100f55760003560e01c8063899346c711610097578063a694fc3a11610066578063a694fc3a146102b0578063bce1b520146102e0578063c95c0d89146102fc578063eb02c3011461032c576100f5565b8063899346c71461021057806399fbab881461022e5780639ae17af4146102625780639bfd8d6114610280576100f5565b8063379607f5116100d3578063379607f5146101765780635e1b4d99146101925780636e2f1696146101c25780636e99d52f146101f2576100f5565b80632a6bc2dd146100fa5780632e17de781461012a5780632f6fe5f714610146575b600080fd5b610114600480360381019061010f9190611684565b61035c565b6040516101219190611779565b60405180910390f35b610144600480360381019061013f91906117c7565b6103f3565b005b610160600480360381019061015b91906117c7565b6106da565b60405161016d9190611803565b60405180910390f35b610190600480360381019061018b91906117c7565b610814565b005b6101ac60048036038101906101a7919061181e565b610b1c565b6040516101b99190611803565b60405180910390f35b6101dc60048036038101906101d79190611684565b610b4d565b6040516101e99190611803565b60405180910390f35b6101fa610b96565b6040516102079190611803565b60405180910390f35b610218610b9d565b6040516102259190611803565b60405180910390f35b610248600480360381019061024391906117c7565b610ba3565b6040516102599594939291906118e4565b60405180910390f35b61026a610c06565b6040516102779190611996565b60405180910390f35b61029a60048036038101906102959190611684565b610c2a565b6040516102a79190611803565b60405180910390f35b6102ca60048036038101906102c591906117c7565b610c42565b6040516102d79190611803565b60405180910390f35b6102fa60048036038101906102f591906117c7565b610f11565b005b610316600480360381019061031191906117c7565b6111e5565b60405161032391906119cc565b60405180910390f35b610346600480360381019061034191906117c7565b6112fb565b6040516103539190611a6d565b60405180910390f35b6060600360008373ffffffffffffffffffffffffffffffffffffffff1673ffffffffffffffffffffffffffffffffffffffff1681526020019081526020016000208054806020026020016040519081016040528092919081815260200182805480156103e757602002820191906000526020600020905b8154815260200190600101908083116103d3575b50505050509050919050565b80600073ffffffffffffffffffffffffffffffffffffffff166002600083815260200190815260200160002060010160009054906101000a900473ffffffffffffffffffffffffffffffffffffffff1673ffffffffffffffffffffffffffffffffffffffff1603610499576040517f08c379a000000000000000000000000000000000000000000000000000000000815260040161049090611ae5565b60405180910390fd5b813373ffffffffffffffffffffffffffffffffffffffff166002600083815260200190815260200160002060010160009054906101000a900473ffffffffffffffffffffffffffffffffffffffff1673ffffffffffffffffffffffffffffffffffffffff161461053e576040517f08c379a000000000000000000000000000000000000000000000000000000000815260040161053590611b51565b60405180910390fd5b6105466113d7565b6000600260008581526020019081526020016000209050600160038111156105715761057061186d565b5b8160040160009054906101000a900460ff1660038111156105955761059461186d565b5b146105d5576040517f08c379a00000000000000000000000000000000000000000000000000000000081526004016105cc90611bbd565b60405180910390fd5b60028160040160006101000a81548160ff021916908360038111156105fd576105fc61186d565b5b021790555062127500426106119190611c0c565b81600301819055508060020154600460003373ffffffffffffffffffffffffffffffffffffffff1673ffffffffffffffffffffffffffffffffffffffff168152602001908152602001600020600082825461066c9190611c40565b925050819055503373ffffffffffffffffffffffffffffffffffffffff16847ff69bed7fd866b8ff5e2d7b9ca384c57a26024d067d128ea7f01152351d6d085b836002015484600301546040516106c4929190611c74565b60405180910390a3506106d561141d565b505050565b600080600260008481526020019081526020016000206040518060a0016040529081600082015481526020016001820160009054906101000a900473ffffffffffffffffffffffffffffffffffffffff1673ffffffffffffffffffffffffffffffffffffffff1673ffffffffffffffffffffffffffffffffffffffff16815260200160028201548152602001600382015481526020016004820160009054906101000a900460ff1660038111156107945761079361186d565b5b60038111156107a6576107a561186d565b5b815250509050600260038111156107c0576107bf61186d565b5b816080015160038111156107d7576107d661186d565b5b146107e657600091505061080f565b806060015142106107fb57600091505061080f565b42816060015161080b9190611c40565b9150505b919050565b80600073ffffffffffffffffffffffffffffffffffffffff166002600083815260200190815260200160002060010160009054906101000a900473ffffffffffffffffffffffffffffffffffffffff1673ffffffffffffffffffffffffffffffffffffffff16036108ba576040517f08c379a00000000000000000000000000000000000000000000000000000000081526004016108b190611ae5565b60405180910390fd5b813373ffffffffffffffffffffffffffffffffffffffff166002600083815260200190815260200160002060010160009054906101000a900473ffffffffffffffffffffffffffffffffffffffff1673ffffffffffffffffffffffffffffffffffffffff161461095f576040517f08c379a000000000000000000000000000000000000000000000000000000000815260040161095690611b51565b60405180910390fd5b6109676113d7565b6000600260008581526020019081526020016000209050600260038111156109925761099161186d565b5b8160040160009054906101000a900460ff1660038111156109b6576109b561186d565b5b146109f6576040517f08c379a00000000000000000000000000000000000000000000000000000000081526004016109ed90611ce9565b60405180910390fd5b8060030154421015610a3d576040517f08c379a0000000000000000000000000000000000000000000000000000000008152600401610a3490611d55565b60405180910390fd5b60008160020154905060038260040160006101000a81548160ff02191690836003811115610a6e57610a6d61186d565b5b0217905550610abe33827f000000000000000000000000000000000000000000000000000000000000000073ffffffffffffffffffffffffffffffffffffffff166114279092919063ffffffff16565b3373ffffffffffffffffffffffffffffffffffffffff16857ff18ca9717b47ea7629d17b5d7b2ede46e864155725629e7d0347924c2f6d112d83604051610b059190611803565b60405180910390a35050610b1761141d565b505050565b60036020528160005260406000208181548110610b3857600080fd5b90600052602060002001600091509150505481565b6000600460008373ffffffffffffffffffffffffffffffffffffffff1673ffffffffffffffffffffffffffffffffffffffff168152602001908152602001600020549050919050565b6212750081565b60015481565b60026020528060005260406000206000915090508060000154908060010160009054906101000a900473ffffffffffffffffffffffffffffffffffffffff16908060020154908060030154908060040160009054906101000a900460ff16905085565b7f000000000000000000000000000000000000000000000000000000000000000081565b60046020528060005260406000206000915090505481565b6000610c4c6113d7565b60008211610c8f576040517f08c379a0000000000000000000000000000000000000000000000000000000008152600401610c8690611dc1565b60405180910390fd5b610cdc3330847f000000000000000000000000000000000000000000000000000000000000000073ffffffffffffffffffffffffffffffffffffffff166114a6909392919063ffffffff16565b600060016000815480929190610cf190611de1565b9190505590506040518060a001604052808281526020013373ffffffffffffffffffffffffffffffffffffffff1681526020018481526020016000815260200160016003811115610d4557610d4461186d565b5b815250600260008381526020019081526020016000206000820151816000015560208201518160010160006101000a81548173ffffffffffffffffffffffffffffffffffffffff021916908373ffffffffffffffffffffffffffffffffffffffff160217905550604082015181600201556060820151816003015560808201518160040160006101000a81548160ff02191690836003811115610deb57610dea61186d565b5b0217905550905050600360003373ffffffffffffffffffffffffffffffffffffffff1673ffffffffffffffffffffffffffffffffffffffff16815260200190815260200160002081908060018154018082558091505060019003906000526020600020016000909190919091505582600460003373ffffffffffffffffffffffffffffffffffffffff1673ffffffffffffffffffffffffffffffffffffffff1681526020019081526020016000206000828254610ea89190611c0c565b925050819055503373ffffffffffffffffffffffffffffffffffffffff16817ffb617c13a5b4b052ee893903dca019ab1611dfef1b20f7acb7a5bfe008c102608542604051610ef8929190611c74565b60405180910390a380915050610f0c61141d565b919050565b80600073ffffffffffffffffffffffffffffffffffffffff166002600083815260200190815260200160002060010160009054906101000a900473ffffffffffffffffffffffffffffffffffffffff1673ffffffffffffffffffffffffffffffffffffffff1603610fb7576040517f08c379a0000000000000000000000000000000000000000000000000000000008152600401610fae90611ae5565b60405180910390fd5b813373ffffffffffffffffffffffffffffffffffffffff166002600083815260200190815260200160002060010160009054906101000a900473ffffffffffffffffffffffffffffffffffffffff1673ffffffffffffffffffffffffffffffffffffffff161461105c576040517f08c379a000000000000000000000000000000000000000000000000000000000815260040161105390611b51565b60405180910390fd5b6110646113d7565b60006002600085815260200190815260200160002090506002600381111561108f5761108e61186d565b5b8160040160009054906101000a900460ff1660038111156110b3576110b261186d565b5b146110f3576040517f08c379a00000000000000000000000000000000000000000000000000000000081526004016110ea90611ce9565b60405180910390fd5b60018160040160006101000a81548160ff0219169083600381111561111b5761111a61186d565b5b0217905550600081600301819055508060020154600460003373ffffffffffffffffffffffffffffffffffffffff1673ffffffffffffffffffffffffffffffffffffffff168152602001908152602001600020600082825461117d9190611c0c565b925050819055503373ffffffffffffffffffffffffffffffffffffffff16847fe372915d347984c68379c4f420399841c8a334216a05e56653a1f93e1f53e9f983600201546040516111cf9190611803565b60405180910390a3506111e061141d565b505050565b600080600260008481526020019081526020016000206040518060a0016040529081600082015481526020016001820160009054906101000a900473ffffffffffffffffffffffffffffffffffffffff1673ffffffffffffffffffffffffffffffffffffffff1673ffffffffffffffffffffffffffffffffffffffff16815260200160028201548152602001600382015481526020016004820160009054906101000a900460ff16600381111561129f5761129e61186d565b5b60038111156112b1576112b061186d565b5b815250509050600260038111156112cb576112ca61186d565b5b816080015160038111156112e2576112e161186d565b5b1480156112f3575080606001514210155b915050919050565b6113036115ca565b600260008381526020019081526020016000206040518060a0016040529081600082015481526020016001820160009054906101000a900473ffffffffffffffffffffffffffffffffffffffff1673ffffffffffffffffffffffffffffffffffffffff1673ffffffffffffffffffffffffffffffffffffffff16815260200160028201548152602001600382015481526020016004820160009054906101000a900460ff1660038111156113ba576113b961186d565b5b60038111156113cc576113cb61186d565b5b815250509050919050565b600260005403611413576040517f3ee5aeb500000000000000000000000000000000000000000000000000000000815260040160405180910390fd5b6002600081905550565b6001600081905550565b6114a1838473ffffffffffffffffffffffffffffffffffffffff1663a9059cbb858560405160240161145a929190611e29565b604051602081830303815290604052915060e01b6020820180517bffffffffffffffffffffffffffffffffffffffffffffffffffffffff8381831617835250505050611528565b505050565b611522848573ffffffffffffffffffffffffffffffffffffffff166323b872dd8686866040516024016114db93929190611e52565b604051602081830303815290604052915060e01b6020820180517bffffffffffffffffffffffffffffffffffffffffffffffffffffffff8381831617835250505050611528565b50505050565b600080602060008451602086016000885af18061154b576040513d6000823e3d81fd5b3d925060005191505060008214611566576001811415611582565b60008473ffffffffffffffffffffffffffffffffffffffff163b145b156115c457836040517f5274afe70000000000000000000000000000000000000000000000000000000081526004016115bb9190611e89565b60405180910390fd5b50505050565b6040518060a0016040528060008152602001600073ffffffffffffffffffffffffffffffffffffffff16815260200160008152602001600081526020016000600381111561161b5761161a61186d565b5b81525090565b600080fd5b600073ffffffffffffffffffffffffffffffffffffffff82169050919050565b600061165182611626565b9050919050565b61166181611646565b811461166c57600080fd5b50565b60008135905061167e81611658565b92915050565b60006020828403121561169a57611699611621565b5b60006116a88482850161166f565b91505092915050565b600081519050919050565b600082825260208201905092915050565b6000819050602082019050919050565b6000819050919050565b6116f0816116dd565b82525050565b600061170283836116e7565b60208301905092915050565b6000602082019050919050565b6000611726826116b1565b61173081856116bc565b935061173b836116cd565b8060005b8381101561176c57815161175388826116f6565b975061175e8361170e565b92505060018101905061173f565b5085935050505092915050565b60006020820190508181036000830152611793818461171b565b905092915050565b6117a4816116dd565b81146117af57600080fd5b50565b6000813590506117c18161179b565b92915050565b6000602082840312156117dd576117dc611621565b5b60006117eb848285016117b2565b91505092915050565b6117fd816116dd565b82525050565b600060208201905061181860008301846117f4565b92915050565b6000806040838503121561183557611834611621565b5b60006118438582860161166f565b9250506020611854858286016117b2565b9150509250929050565b61186781611646565b82525050565b7f4e487b7100000000000000000000000000000000000000000000000000000000600052602160045260246000fd5b600481106118ad576118ac61186d565b5b50565b60008190506118be8261189c565b919050565b60006118ce826118b0565b9050919050565b6118de816118c3565b82525050565b600060a0820190506118f960008301886117f4565b611906602083018761185e565b61191360408301866117f4565b61192060608301856117f4565b61192d60808301846118d5565b9695505050505050565b6000819050919050565b600061195c61195761195284611626565b611937565b611626565b9050919050565b600061196e82611941565b9050919050565b600061198082611963565b9050919050565b61199081611975565b82525050565b60006020820190506119ab6000830184611987565b92915050565b60008115159050919050565b6119c6816119b1565b82525050565b60006020820190506119e160008301846119bd565b92915050565b6119f081611646565b82525050565b6119ff816118c3565b82525050565b60a082016000820151611a1b60008501826116e7565b506020820151611a2e60208501826119e7565b506040820151611a4160408501826116e7565b506060820151611a5460608501826116e7565b506080820151611a6760808501826119f6565b50505050565b600060a082019050611a826000830184611a05565b92915050565b600082825260208201905092915050565b7f506f736974696f6e20646f6573206e6f74206578697374000000000000000000600082015250565b6000611acf601783611a88565b9150611ada82611a99565b602082019050919050565b60006020820190508181036000830152611afe81611ac2565b9050919050565b7f4e6f7420706f736974696f6e206f776e65720000000000000000000000000000600082015250565b6000611b3b601283611a88565b9150611b4682611b05565b602082019050919050565b60006020820190508181036000830152611b6a81611b2e565b9050919050565b7f506f736974696f6e206e6f742061637469766500000000000000000000000000600082015250565b6000611ba7601383611a88565b9150611bb282611b71565b602082019050919050565b60006020820190508181036000830152611bd681611b9a565b9050919050565b7f4e487b7100000000000000000000000000000000000000000000000000000000600052601160045260246000fd5b6000611c17826116dd565b9150611c22836116dd565b9250828201905080821115611c3a57611c39611bdd565b5b92915050565b6000611c4b826116dd565b9150611c56836116dd565b9250828203905081811115611c6e57611c6d611bdd565b5b92915050565b6000604082019050611c8960008301856117f4565b611c9660208301846117f4565b9392505050565b7f506f736974696f6e206e6f742070656e64696e67000000000000000000000000600082015250565b6000611cd3601483611a88565b9150611cde82611c9d565b602082019050919050565b60006020820190508181036000830152611d0281611cc6565b9050919050565b7f4c6f636b20706572696f64206e6f7420656e6465640000000000000000000000600082015250565b6000611d3f601583611a88565b9150611d4a82611d09565b602082019050919050565b60006020820190508181036000830152611d6e81611d32565b9050919050565b7f416d6f756e74206d7573742062652067726561746572207468616e207a65726f600082015250565b6000611dab602083611a88565b9150611db682611d75565b602082019050919050565b60006020820190508181036000830152611dda81611d9e565b9050919050565b6000611dec826116dd565b91507fffffffffffffffffffffffffffffffffffffffffffffffffffffffffffffffff8203611e1e57611e1d611bdd565b5b600182019050919050565b6000604082019050611e3e600083018561185e565b611e4b60208301846117f4565b9392505050565b6000606082019050611e67600083018661185e565b611e74602083018561185e565b611e8160408301846117f4565b949350505050565b6000602082019050611e9e600083018461185e565b9291505056fea2646970667358221220e5ba9c6870cae700d0729e416b9ddf25b313290b6d1acfbdf21cb4a1c68368ee64736f6c63430008140033",
  "devdoc": {
    "details": "Staking contract for $ROOM tokens with 2-week lock period Features: - Unlimited number of positions per user - Each stake creates a unique position with positionId - 2-week lock period for unstaked tokens - Restake function to return pending tokens to active staking",
    "errors": {
      "ReentrancyGuardReentrantCall()": [
        {
          "details": "Unauthorized reentrant call."
        }
      ],
      "SafeERC20FailedOperation(address)": [
        {
          "details": "An operation with an ERC-20 token failed."
        }
      ]
    },
    "kind": "dev",
    "methods": {
      "canClaim(uint256)": {
        "details": "Check if position can be claimed",
        "params": {
          "positionId": "ID of the position"
        },
        "returns": {
          "_0": "True if position can be claimed"
        }
      },
      "claim(uint256)": {
        "details": "Claim tokens after lock period has ended",
        "params": {
          "positionId": "ID of the position to claim"
        }
      },
      "getPosition(uint256)": {
        "details": "Get position details",
        "params": {
          "positionId": "ID of the position"
        },
        "returns": {
          "_0": "Position struct"
        }
      },
      "getTimeUntilUnlock(uint256)": {
        "details": "Get time remaining until position can be claimed",
        "params": {
          "positionId": "ID of the position"
        },
        "returns": {
          "_0": "Time remaining in seconds (0 if not pending or already unlockable)"
        }
      },
      "getUserPositions(address)": {
        "details": "Get all position IDs for a user",
        "params": {
          "user": "Address of the user"
        },
        "returns": {
          "_0": "Array of position IDs"
        }
      },
      "getUserTotalStaked(address)": {
        "details": "Get user's total staked amount",
        "params": {
          "user": "Address of the user"
        },
        "returns": {
          "_0": "Total staked amount"
        }
      },
      "restake(uint256)": {
        "details": "Restake tokens from a pending position (cancels lock period)",
        "params": {
          "positionId": "ID of the position to restake"
        }
      },
      "stake(uint256)": {
        "details": "Stake tokens and create a new position",
        "params": {
          "amount": "Amount of tokens to stake"
        },
        "returns": {
          "_0": "positionId The ID of the created position"
        }
      },
      "unstake(uint256)": {
        "details": "Unstake tokens from a position (starts lock period)",
        "params": {
          "positionId": "ID of the position to unstake"
        }
      }
    },
    "title": "Staking",
    "version": 1
  },
  "userdoc": {
    "kind": "user",
    "methods": {},
    "version": 1
  },
  "storageLayout": {
    "storage": [
      {
        "astId": 642,
        "contract": "contracts/Staking.sol:Staking",
        "label": "_status",
        "offset": 0,
        "slot": "0",
        "type": "t_uint256"
      },
      {
        "astId": 737,
        "contract": "contracts/Staking.sol:Staking",
        "label": "nextPositionId",
        "offset": 0,
        "slot": "1",
        "type": "t_uint256"
      },
      {
        "astId": 742,
        "contract": "contracts/Staking.sol:Staking",
        "label": "positions",
        "offset": 0,
        "slot": "2",
        "type": "t_mapping(t_uint256,t_struct(Position)1205_storage)"
      },
      {
        "astId": 747,
        "contract": "contracts/Staking.sol:Staking",
        "label": "userPositions",
        "offset": 0,
        "slot": "3",
        "type": "t_mapping(t_address,t_array(t_uint256)dyn_storage)"
      },
      {
        "astId": 751,
        "contract": "contracts/Staking.sol:Staking",
        "label": "totalStaked",
        "offset": 0,
        "slot": "4",
        "type": "t_mapping(t_address,t_uint256)"
      }
    ],
    "types": {
      "t_address": {
        "encoding": "inplace",
        "label": "address",
        "numberOfBytes": "20"
      },
      "t_array(t_uint256)dyn_storage": {
        "base": "t_uint256",
        "encoding": "dynamic_array",
        "label": "uint256[]",
        "numberOfBytes": "32"
      },
      "t_enum(PositionStatus)1193": {
        "encoding": "inplace",
        "label": "enum IStaking.PositionStatus",
        "numberOfBytes": "1"
      },
      "t_mapping(t_address,t_array(t_uint256)dyn_storage)": {
        "encoding": "mapping",
        "key": "t_address",
        "label": "mapping(address => uint256[])",
        "numberOfBytes": "32",
        "value": "t_array(t_uint256)dyn_storage"
      },
      "t_mapping(t_address,t_uint256)": {
        "encoding": "mapping",
        "key": "t_address",
        "label": "mapping(address => uint256)",
        "numberOfBytes": "32",
        "value": "t_uint256"
      },
      "t_mapping(t_uint256,t_struct(Position)1205_storage)": {
        "encoding": "mapping",
        "key": "t_uint256",
        "label": "mapping(uint256 => struct IStaking.Position)",
        "numberOfBytes": "32",
        "value": "t_struct(Position)1205_storage"
      },
      "t_struct(Position)1205_storage": {
        "encoding": "inplace",
        "label": "struct IStaking.Position",
        "members": [
          {
            "astId": 1195,
            "contract": "contracts/Staking.sol:Staking",
            "label": "positionId",
            "offset": 0,
            "slot": "0",
            "type": "t_uint256"
          },
          {
            "astId": 1197,
            "contract": "contracts/Staking.sol:Staking",
            "label": "owner",
            "offset": 0,
            "slot": "1",
            "type": "t_address"
          },
          {
            "astId": 1199,
            "contract": "contracts/Staking.sol:Staking",
            "label": "amount",
            "offset": 0,
            "slot": "2",
            "type": "t_uint256"
          },
          {
            "astId": 1201,
            "contract": "contracts/Staking.sol:Staking",
            "label": "unlockTime",
            "offset": 0,
            "slot": "3",
            "type": "t_uint256"
          },
          {
            "astId": 1204,
            "contract": "contracts/Staking.sol:Staking",
            "label": "status",
            "offset": 0,
            "slot": "4",
            "type": "t_enum(PositionStatus)1193"
          }
        ],
        "numberOfBytes": "160"
      },
      "t_uint256": {
        "encoding": "inplace",
        "label": "uint256",
        "numberOfBytes": "32"
      }
    }
  }
}