{
  "address": "0x34b2Cc9eA1CBCd70227D72f86144f446648cD260",
  "abi": [
    {
      "inputs": [
        {
          "internalType": "address",
          "name": "_roomToken",
          "type": "address"
        }
      ],
      "stateMutability": "nonpayable",
      "type": "constructor"
    },
    {
      "inputs": [],
      "name": "ReentrancyGuardReentrantCall",
      "type": "error"
    },
    {
      "inputs": [
        {
          "internalType": "address",
          "name": "token",
          "type": "address"
        }
      ],
      "name": "SafeERC20FailedOperation",
      "type": "error"
    },
    {
      "anonymous": false,
      "inputs": [
        {
          "indexed": true,
          "internalType": "uint256",
          "name": "positionId",
          "type": "uint256"
        },
        {
          "indexed": true,
          "internalType": "address",
          "name": "owner",
          "type": "address"
        },
        {
          "indexed": false,
          "internalType": "uint256",
          "name": "amount",
          "type": "uint256"
        }
      ],
      "name": "PositionClaimed",
      "type": "event"
    },
    {
      "anonymous": false,
      "inputs": [
        {
          "indexed": true,
          "internalType": "uint256",
          "name": "positionId",
          "type": "uint256"
        },
        {
          "indexed": true,
          "internalType": "address",
          "name": "owner",
          "type": "address"
        },
        {
          "indexed": false,
          "internalType": "uint256",
          "name": "amount",
          "type": "uint256"
        },
        {
          "indexed": false,
          "internalType": "uint256",
          "name": "stakeTime",
          "type": "uint256"
        }
      ],
      "name": "PositionCreated",
      "type": "event"
    },
    {
      "anonymous": false,
      "inputs": [
        {
          "indexed": true,
          "internalType": "uint256",
          "name": "positionId",
          "type": "uint256"
        },
        {
          "indexed": true,
          "internalType": "address",
          "name": "owner",
          "type": "address"
        },
        {
          "indexed": false,
          "internalType": "uint256",
          "name": "amount",
          "type": "uint256"
        }
      ],
      "name": "PositionRestaked",
      "type": "event"
    },
    {
      "anonymous": false,
      "inputs": [
        {
          "indexed": true,
          "internalType": "uint256",
          "name": "positionId",
          "type": "uint256"
        },
        {
          "indexed": true,
          "internalType": "address",
          "name": "owner",
          "type": "address"
        },
        {
          "indexed": false,
          "internalType": "uint256",
          "name": "amount",
          "type": "uint256"
        },
        {
          "indexed": false,
          "internalType": "uint256",
          "name": "unlockTime",
          "type": "uint256"
        }
      ],
      "name": "PositionUnstaked",
      "type": "event"
    },
    {
      "inputs": [],
      "name": "COOLDOWN_PERIOD",
      "outputs": [
        {
          "internalType": "uint256",
          "name": "",
          "type": "uint256"
        }
      ],
      "stateMutability": "view",
      "type": "function"
    },
    {
      "inputs": [
        {
          "internalType": "uint256",
          "name": "positionId",
          "type": "uint256"
        }
      ],
      "name": "canClaim",
      "outputs": [
        {
          "internalType": "bool",
          "name": "",
          "type": "bool"
        }
      ],
      "stateMutability": "view",
      "type": "function"
    },
    {
      "inputs": [
        {
          "internalType": "uint256",
          "name": "positionId",
          "type": "uint256"
        }
      ],
      "name": "claim",
      "outputs": [],
      "stateMutability": "nonpayable",
      "type": "function"
    },
    {
      "inputs": [
        {
          "internalType": "enum IStaking.PositionStatus",
          "name": "status",
          "type": "uint8"
        },
        {
          "internalType": "uint256",
          "name": "offset",
          "type": "uint256"
        },
        {
          "internalType": "uint256",
          "name": "limit",
          "type": "uint256"
        }
      ],
      "name": "getAllPositionsByStatusWithPagination",
      "outputs": [
        {
          "components": [
            {
              "internalType": "uint256",
              "name": "positionId",
              "type": "uint256"
            },
            {
              "internalType": "address",
              "name": "owner",
              "type": "address"
            },
            {
              "internalType": "uint256",
              "name": "amount",
              "type": "uint256"
            },
            {
              "internalType": "uint256",
              "name": "unlockTime",
              "type": "uint256"
            },
            {
              "internalType": "uint256",
              "name": "stakeTime",
              "type": "uint256"
            },
            {
              "internalType": "enum IStaking.PositionStatus",
              "name": "status",
              "type": "uint8"
            }
          ],
          "internalType": "struct IStaking.Position[]",
          "name": "",
          "type": "tuple[]"
        }
      ],
      "stateMutability": "view",
      "type": "function"
    },
    {
      "inputs": [
        {
          "internalType": "uint256",
          "name": "offset",
          "type": "uint256"
        },
        {
          "internalType": "uint256",
          "name": "limit",
          "type": "uint256"
        }
      ],
      "name": "getAllPositionsWithPagination",
      "outputs": [
        {
          "components": [
            {
              "internalType": "uint256",
              "name": "positionId",
              "type": "uint256"
            },
            {
              "internalType": "address",
              "name": "owner",
              "type": "address"
            },
            {
              "internalType": "uint256",
              "name": "amount",
              "type": "uint256"
            },
            {
              "internalType": "uint256",
              "name": "unlockTime",
              "type": "uint256"
            },
            {
              "internalType": "uint256",
              "name": "stakeTime",
              "type": "uint256"
            },
            {
              "internalType": "enum IStaking.PositionStatus",
              "name": "status",
              "type": "uint8"
            }
          ],
          "internalType": "struct IStaking.Position[]",
          "name": "",
          "type": "tuple[]"
        }
      ],
      "stateMutability": "view",
      "type": "function"
    },
    {
      "inputs": [
        {
          "internalType": "uint256",
          "name": "offset",
          "type": "uint256"
        },
        {
          "internalType": "uint256",
          "name": "limit",
          "type": "uint256"
        }
      ],
      "name": "getAllStakersWithPagination",
      "outputs": [
        {
          "internalType": "address[]",
          "name": "",
          "type": "address[]"
        }
      ],
      "stateMutability": "view",
      "type": "function"
    },
    {
      "inputs": [
        {
          "internalType": "uint256",
          "name": "positionId",
          "type": "uint256"
        }
      ],
      "name": "getPosition",
      "outputs": [
        {
          "components": [
            {
              "internalType": "uint256",
              "name": "positionId",
              "type": "uint256"
            },
            {
              "internalType": "address",
              "name": "owner",
              "type": "address"
            },
            {
              "internalType": "uint256",
              "name": "amount",
              "type": "uint256"
            },
            {
              "internalType": "uint256",
              "name": "unlockTime",
              "type": "uint256"
            },
            {
              "internalType": "uint256",
              "name": "stakeTime",
              "type": "uint256"
            },
            {
              "internalType": "enum IStaking.PositionStatus",
              "name": "status",
              "type": "uint8"
            }
          ],
          "internalType": "struct IStaking.Position",
          "name": "",
          "type": "tuple"
        }
      ],
      "stateMutability": "view",
      "type": "function"
    },
    {
      "inputs": [
        {
          "internalType": "uint256",
          "name": "positionId",
          "type": "uint256"
        }
      ],
      "name": "getTimeUntilUnlock",
      "outputs": [
        {
          "internalType": "uint256",
          "name": "",
          "type": "uint256"
        }
      ],
      "stateMutability": "view",
      "type": "function"
    },
    {
      "inputs": [
        {
          "internalType": "address",
          "name": "user",
          "type": "address"
        }
      ],
      "name": "getUserPositionCount",
      "outputs": [
        {
          "internalType": "uint256",
          "name": "",
          "type": "uint256"
        }
      ],
      "stateMutability": "view",
      "type": "function"
    },
    {
      "inputs": [
        {
          "internalType": "address",
          "name": "user",
          "type": "address"
        }
      ],
      "name": "getUserPositions",
      "outputs": [
        {
          "internalType": "uint256[]",
          "name": "",
          "type": "uint256[]"
        }
      ],
      "stateMutability": "view",
      "type": "function"
    },
    {
      "inputs": [
        {
          "internalType": "address",
          "name": "user",
          "type": "address"
        },
        {
          "internalType": "uint256",
          "name": "offset",
          "type": "uint256"
        },
        {
          "internalType": "uint256",
          "name": "limit",
          "type": "uint256"
        }
      ],
      "name": "getUserPositionsPaginated",
      "outputs": [
        {
          "internalType": "uint256[]",
          "name": "",
          "type": "uint256[]"
        }
      ],
      "stateMutability": "view",
      "type": "function"
    },
    {
      "inputs": [
        {
          "internalType": "address",
          "name": "user",
          "type": "address"
        }
      ],
      "name": "getUserTotalStaked",
      "outputs": [
        {
          "internalType": "uint256",
          "name": "",
          "type": "uint256"
        }
      ],
      "stateMutability": "view",
      "type": "function"
    },
    {
      "inputs": [
        {
          "internalType": "address",
          "name": "",
          "type": "address"
        }
      ],
      "name": "isRegistered",
      "outputs": [
        {
          "internalType": "bool",
          "name": "",
          "type": "bool"
        }
      ],
      "stateMutability": "view",
      "type": "function"
    },
    {
      "inputs": [],
      "name": "nextPositionId",
      "outputs": [
        {
          "internalType": "uint256",
          "name": "",
          "type": "uint256"
        }
      ],
      "stateMutability": "view",
      "type": "function"
    },
    {
      "inputs": [
        {
          "internalType": "uint256",
          "name": "",
          "type": "uint256"
        }
      ],
      "name": "positions",
      "outputs": [
        {
          "internalType": "uint256",
          "name": "positionId",
          "type": "uint256"
        },
        {
          "internalType": "address",
          "name": "owner",
          "type": "address"
        },
        {
          "internalType": "uint256",
          "name": "amount",
          "type": "uint256"
        },
        {
          "internalType": "uint256",
          "name": "unlockTime",
          "type": "uint256"
        },
        {
          "internalType": "uint256",
          "name": "stakeTime",
          "type": "uint256"
        },
        {
          "internalType": "enum IStaking.PositionStatus",
          "name": "status",
          "type": "uint8"
        }
      ],
      "stateMutability": "view",
      "type": "function"
    },
    {
      "inputs": [
        {
          "internalType": "uint256",
          "name": "positionId",
          "type": "uint256"
        }
      ],
      "name": "restake",
      "outputs": [],
      "stateMutability": "nonpayable",
      "type": "function"
    },
    {
      "inputs": [],
      "name": "roomToken",
      "outputs": [
        {
          "internalType": "contract IERC20",
          "name": "",
          "type": "address"
        }
      ],
      "stateMutability": "view",
      "type": "function"
    },
    {
      "inputs": [
        {
          "internalType": "uint256",
          "name": "amount",
          "type": "uint256"
        }
      ],
      "name": "stake",
      "outputs": [
        {
          "internalType": "uint256",
          "name": "",
          "type": "uint256"
        }
      ],
      "stateMutability": "nonpayable",
      "type": "function"
    },
    {
      "inputs": [
        {
          "internalType": "uint256",
          "name": "",
          "type": "uint256"
        }
      ],
      "name": "stakers",
      "outputs": [
        {
          "internalType": "address",
          "name": "",
          "type": "address"
        }
      ],
      "stateMutability": "view",
      "type": "function"
    },
    {
      "inputs": [
        {
          "internalType": "address",
          "name": "",
          "type": "address"
        }
      ],
      "name": "totalStaked",
      "outputs": [
        {
          "internalType": "uint256",
          "name": "",
          "type": "uint256"
        }
      ],
      "stateMutability": "view",
      "type": "function"
    },
    {
      "inputs": [
        {
          "internalType": "uint256",
          "name": "positionId",
          "type": "uint256"
        }
      ],
      "name": "unstake",
      "outputs": [],
      "stateMutability": "nonpayable",
      "type": "function"
    },
    {
      "inputs": [
        {
          "internalType": "address",
          "name": "",
          "type": "address"
        },
        {
          "internalType": "uint256",
          "name": "",
          "type": "uint256"
        }
      ],
      "name": "userPositions",
      "outputs": [
        {
          "internalType": "uint256",
          "name": "",
          "type": "uint256"
        }
      ],
      "stateMutability": "view",
      "type": "function"
    }
  ],
  "transactionHash": "0xce86931c5ccb1a804055eb4bd358cf39f38cbf3d6176418d9b29cb3adca59ddd",
  "args": [
    "0x809fe0C6acD263C9CF987f3D30aD47Fdc4706e54"
  ],
  "numDeployments": 1,
  "solcInputHash": "ac9844b00ed8c45f969458b508d4cdd0",
  "bytecode": "0x60a0604052600180553480156200001557600080fd5b50604051620030883803806200308883398181016040528101906200003b91906200015a565b6001600081905550600073ffffffffffffffffffffffffffffffffffffffff168173ffffffffffffffffffffffffffffffffffffffff1603620000b5576040517f08c379a0000000000000000000000000000000000000000000000000000000008152600401620000ac9062000213565b60405180910390fd5b8073ffffffffffffffffffffffffffffffffffffffff1660808173ffffffffffffffffffffffffffffffffffffffff16815250505062000235565b600080fd5b600073ffffffffffffffffffffffffffffffffffffffff82169050919050565b60006200012282620000f5565b9050919050565b620001348162000115565b81146200014057600080fd5b50565b600081519050620001548162000129565b92915050565b600060208284031215620001735762000172620000f0565b5b6000620001838482850162000143565b91505092915050565b600082825260208201905092915050565b7f524f4f4d20746f6b656e20616464726573732063616e6e6f74206265207a657260008201527f6f00000000000000000000000000000000000000000000000000000000000000602082015250565b6000620001fb6021836200018c565b915062000208826200019d565b604082019050919050565b600060208201905081810360008301526200022e81620001ec565b9050919050565b608051612e296200025f60003960008181610c6c0152818161129a01526113290152612e296000f3fe608060405234801561001057600080fd5b50600436106101425760003560e01c806399fbab88116100b8578063c3c5a5471161007c578063c3c5a547146103da578063c95c0d891461040a578063d71c3e411461043a578063eb02c3011461046a578063eb33b7501461049a578063fd5e6dd1146104ca57610142565b806399fbab881461030b5780639ae17af4146103405780639bfd8d611461035e578063a694fc3a1461038e578063bce1b520146103be57610142565b80635e1b4d991161010a5780635e1b4d991461020f57806360e1ce8d1461023f5780636e2f16961461026f5780636e99d52f1461029f5780638230252d146102bd578063899346c7146102ed57610142565b80632a6bc2dd146101475780632e17de78146101775780632f6fe5f71461019357806331e8a7ef146101c3578063379607f5146101f3575b600080fd5b610161600480360381019061015c919061222c565b6104fa565b60405161016e9190612321565b60405180910390f35b610191600480360381019061018c919061236f565b610591565b005b6101ad60048036038101906101a8919061236f565b610876565b6040516101ba91906123ab565b60405180910390f35b6101dd60048036038101906101d8919061222c565b6109ba565b6040516101ea91906123ab565b60405180910390f35b61020d6004803603810190610208919061236f565b610a06565b005b610229600480360381019061022491906123c6565b610d0e565b60405161023691906123ab565b60405180910390f35b6102596004803603810190610254919061242b565b610d3f565b604051610266919061262e565b60405180910390f35b6102896004803603810190610284919061222c565b610fff565b60405161029691906123ab565b60405180910390f35b6102a7611048565b6040516102b491906123ab565b60405180910390f35b6102d760048036038101906102d29190612650565b61104d565b6040516102e4919061262e565b60405180910390f35b6102f5611229565b60405161030291906123ab565b60405180910390f35b6103256004803603810190610320919061236f565b61122f565b604051610337969594939291906126ae565b60405180910390f35b610348611298565b604051610355919061276e565b60405180910390f35b6103786004803603810190610373919061222c565b6112bc565b60405161038591906123ab565b60405180910390f35b6103a860048036038101906103a3919061236f565b6112d4565b6040516103b591906123ab565b60405180910390f35b6103d860048036038101906103d3919061236f565b6116c0565b005b6103f460048036038101906103ef919061222c565b611994565b60405161040191906127a4565b60405180910390f35b610424600480360381019061041f919061236f565b6119b4565b60405161043191906127a4565b60405180910390f35b610454600480360381019061044f9190612650565b611ad4565b604051610461919061286e565b60405180910390f35b610484600480360381019061047f919061236f565b611cbe565b604051610491919061290b565b60405180910390f35b6104b460048036038101906104af9190612926565b611da4565b6040516104c19190612321565b60405180910390f35b6104e460048036038101906104df919061236f565b611f39565b6040516104f19190612979565b60405180910390f35b6060600360008373ffffffffffffffffffffffffffffffffffffffff1673ffffffffffffffffffffffffffffffffffffffff16815260200190815260200160002080548060200260200160405190810160405280929190818152602001828054801561058557602002820191906000526020600020905b815481526020019060010190808311610571575b50505050509050919050565b80600073ffffffffffffffffffffffffffffffffffffffff166002600083815260200190815260200160002060010160009054906101000a900473ffffffffffffffffffffffffffffffffffffffff1673ffffffffffffffffffffffffffffffffffffffff1603610637576040517f08c379a000000000000000000000000000000000000000000000000000000000815260040161062e906129f1565b60405180910390fd5b813373ffffffffffffffffffffffffffffffffffffffff166002600083815260200190815260200160002060010160009054906101000a900473ffffffffffffffffffffffffffffffffffffffff1673ffffffffffffffffffffffffffffffffffffffff16146106dc576040517f08c379a00000000000000000000000000000000000000000000000000000000081526004016106d390612a5d565b60405180910390fd5b6106e4611f78565b60006002600085815260200190815260200160002090506001600381111561070f5761070e6124b9565b5b8160050160009054906101000a900460ff166003811115610733576107326124b9565b5b14610773576040517f08c379a000000000000000000000000000000000000000000000000000000000815260040161076a90612ac9565b60405180910390fd5b60028160050160006101000a81548160ff0219169083600381111561079b5761079a6124b9565b5b0217905550603c426107ad9190612b18565b81600301819055508060020154600460003373ffffffffffffffffffffffffffffffffffffffff1673ffffffffffffffffffffffffffffffffffffffff16815260200190815260200160002060008282546108089190612b4c565b925050819055503373ffffffffffffffffffffffffffffffffffffffff16847ff69bed7fd866b8ff5e2d7b9ca384c57a26024d067d128ea7f01152351d6d085b83600201548460030154604051610860929190612b80565b60405180910390a350610871611fbe565b505050565b600080600260008481526020019081526020016000206040518060c0016040529081600082015481526020016001820160009054906101000a900473ffffffffffffffffffffffffffffffffffffffff1673ffffffffffffffffffffffffffffffffffffffff1673ffffffffffffffffffffffffffffffffffffffff1681526020016002820154815260200160038201548152602001600482015481526020016005820160009054906101000a900460ff16600381111561093a576109396124b9565b5b600381111561094c5761094b6124b9565b5b81525050905060026003811115610966576109656124b9565b5b8160a00151600381111561097d5761097c6124b9565b5b1461098c5760009150506109b5565b806060015142106109a15760009150506109b5565b4281606001516109b19190612b4c565b9150505b919050565b6000600360008373ffffffffffffffffffffffffffffffffffffffff1673ffffffffffffffffffffffffffffffffffffffff168152602001908152602001600020805490509050919050565b80600073ffffffffffffffffffffffffffffffffffffffff166002600083815260200190815260200160002060010160009054906101000a900473ffffffffffffffffffffffffffffffffffffffff1673ffffffffffffffffffffffffffffffffffffffff1603610aac576040517f08c379a0000000000000000000000000000000000000000000000000000000008152600401610aa3906129f1565b60405180910390fd5b813373ffffffffffffffffffffffffffffffffffffffff166002600083815260200190815260200160002060010160009054906101000a900473ffffffffffffffffffffffffffffffffffffffff1673ffffffffffffffffffffffffffffffffffffffff1614610b51576040517f08c379a0000000000000000000000000000000000000000000000000000000008152600401610b4890612a5d565b60405180910390fd5b610b59611f78565b600060026000858152602001908152602001600020905060026003811115610b8457610b836124b9565b5b8160050160009054906101000a900460ff166003811115610ba857610ba76124b9565b5b14610be8576040517f08c379a0000000000000000000000000000000000000000000000000000000008152600401610bdf90612bf5565b60405180910390fd5b8060030154421015610c2f576040517f08c379a0000000000000000000000000000000000000000000000000000000008152600401610c2690612c61565b60405180910390fd5b60008160020154905060038260050160006101000a81548160ff02191690836003811115610c6057610c5f6124b9565b5b0217905550610cb033827f000000000000000000000000000000000000000000000000000000000000000073ffffffffffffffffffffffffffffffffffffffff16611fc89092919063ffffffff16565b3373ffffffffffffffffffffffffffffffffffffffff16857ff18ca9717b47ea7629d17b5d7b2ede46e864155725629e7d0347924c2f6d112d83604051610cf791906123ab565b60405180910390a35050610d09611fbe565b505050565b60036020528160005260406000208181548110610d2a57600080fd5b90600052602060002001600091509150505481565b6060600080600190505b600154811015610dc357856003811115610d6657610d656124b9565b5b6002600083815260200190815260200160002060050160009054906101000a900460ff166003811115610d9c57610d9b6124b9565b5b03610db0578180610dac90612c81565b9250505b8080610dbb90612c81565b915050610d49565b5060008367ffffffffffffffff811115610de057610ddf612cc9565b5b604051908082528060200260200182016040528015610e1957816020015b610e0661216b565b815260200190600190039081610dfe5790505b509050818510610e2d578092505050610ff8565b6000849050828587610e3f9190612b18565b1115610e54578583610e519190612b4c565b90505b6000806000600190505b60015481108015610e6e57508383105b15610fee57896003811115610e8657610e856124b9565b5b6002600083815260200190815260200160002060050160009054906101000a900460ff166003811115610ebc57610ebb6124b9565b5b03610fdb57888210610fcc57600260008281526020019081526020016000206040518060c0016040529081600082015481526020016001820160009054906101000a900473ffffffffffffffffffffffffffffffffffffffff1673ffffffffffffffffffffffffffffffffffffffff1673ffffffffffffffffffffffffffffffffffffffff1681526020016002820154815260200160038201548152602001600482015481526020016005820160009054906101000a900460ff166003811115610f8957610f886124b9565b5b6003811115610f9b57610f9a6124b9565b5b81525050858481518110610fb257610fb1612cf8565b5b60200260200101819052508280610fc890612c81565b9350505b8180610fd790612c81565b9250505b8080610fe690612c81565b915050610e5e565b5083955050505050505b9392505050565b6000600460008373ffffffffffffffffffffffffffffffffffffffff1673ffffffffffffffffffffffffffffffffffffffff168152602001908152602001600020549050919050565b603c81565b606060006001805461105f9190612b4c565b905060008367ffffffffffffffff81111561107d5761107c612cc9565b5b6040519080825280602002602001820160405280156110b657816020015b6110a361216b565b81526020019060019003908161109b5790505b5090508185106110ca578092505050611223565b60008490508285876110dc9190612b18565b11156110f15785836110ee9190612b4c565b90505b60005b8181101561121b57600260008260018a61110e9190612b18565b6111189190612b18565b81526020019081526020016000206040518060c0016040529081600082015481526020016001820160009054906101000a900473ffffffffffffffffffffffffffffffffffffffff1673ffffffffffffffffffffffffffffffffffffffff1673ffffffffffffffffffffffffffffffffffffffff1681526020016002820154815260200160038201548152602001600482015481526020016005820160009054906101000a900460ff1660038111156111d4576111d36124b9565b5b60038111156111e6576111e56124b9565b5b815250508382815181106111fd576111fc612cf8565b5b6020026020010181905250808061121390612c81565b9150506110f4565b508193505050505b92915050565b60015481565b60026020528060005260406000206000915090508060000154908060010160009054906101000a900473ffffffffffffffffffffffffffffffffffffffff16908060020154908060030154908060040154908060050160009054906101000a900460ff16905086565b7f000000000000000000000000000000000000000000000000000000000000000081565b60046020528060005260406000206000915090505481565b60006112de611f78565b60008211611321576040517f08c379a000000000000000000000000000000000000000000000000000000000815260040161131890612d73565b60405180910390fd5b61136e3330847f000000000000000000000000000000000000000000000000000000000000000073ffffffffffffffffffffffffffffffffffffffff16612047909392919063ffffffff16565b60006001600081548092919061138390612c81565b9190505590506040518060c001604052808281526020013373ffffffffffffffffffffffffffffffffffffffff16815260200184815260200160008152602001428152602001600160038111156113dd576113dc6124b9565b5b815250600260008381526020019081526020016000206000820151816000015560208201518160010160006101000a81548173ffffffffffffffffffffffffffffffffffffffff021916908373ffffffffffffffffffffffffffffffffffffffff16021790555060408201518160020155606082015181600301556080820151816004015560a08201518160050160006101000a81548160ff0219169083600381111561148d5761148c6124b9565b5b0217905550905050600360003373ffffffffffffffffffffffffffffffffffffffff1673ffffffffffffffffffffffffffffffffffffffff16815260200190815260200160002081908060018154018082558091505060019003906000526020600020016000909190919091505582600460003373ffffffffffffffffffffffffffffffffffffffff1673ffffffffffffffffffffffffffffffffffffffff168152602001908152602001600020600082825461154a9190612b18565b92505081905550600660003373ffffffffffffffffffffffffffffffffffffffff1673ffffffffffffffffffffffffffffffffffffffff16815260200190815260200160002060009054906101000a900460ff1661165e576001600660003373ffffffffffffffffffffffffffffffffffffffff1673ffffffffffffffffffffffffffffffffffffffff16815260200190815260200160002060006101000a81548160ff0219169083151502179055506005339080600181540180825580915050600190039060005260206000200160009091909190916101000a81548173ffffffffffffffffffffffffffffffffffffffff021916908373ffffffffffffffffffffffffffffffffffffffff1602179055505b3373ffffffffffffffffffffffffffffffffffffffff16817ffb617c13a5b4b052ee893903dca019ab1611dfef1b20f7acb7a5bfe008c1026085426040516116a7929190612b80565b60405180910390a3809150506116bb611fbe565b919050565b80600073ffffffffffffffffffffffffffffffffffffffff166002600083815260200190815260200160002060010160009054906101000a900473ffffffffffffffffffffffffffffffffffffffff1673ffffffffffffffffffffffffffffffffffffffff1603611766576040517f08c379a000000000000000000000000000000000000000000000000000000000815260040161175d906129f1565b60405180910390fd5b813373ffffffffffffffffffffffffffffffffffffffff166002600083815260200190815260200160002060010160009054906101000a900473ffffffffffffffffffffffffffffffffffffffff1673ffffffffffffffffffffffffffffffffffffffff161461180b576040517f08c379a000000000000000000000000000000000000000000000000000000000815260040161180290612a5d565b60405180910390fd5b611813611f78565b60006002600085815260200190815260200160002090506002600381111561183e5761183d6124b9565b5b8160050160009054906101000a900460ff166003811115611862576118616124b9565b5b146118a2576040517f08c379a000000000000000000000000000000000000000000000000000000000815260040161189990612bf5565b60405180910390fd5b60018160050160006101000a81548160ff021916908360038111156118ca576118c96124b9565b5b0217905550600081600301819055508060020154600460003373ffffffffffffffffffffffffffffffffffffffff1673ffffffffffffffffffffffffffffffffffffffff168152602001908152602001600020600082825461192c9190612b18565b925050819055503373ffffffffffffffffffffffffffffffffffffffff16847fe372915d347984c68379c4f420399841c8a334216a05e56653a1f93e1f53e9f9836002015460405161197e91906123ab565b60405180910390a35061198f611fbe565b505050565b60066020528060005260406000206000915054906101000a900460ff1681565b600080600260008481526020019081526020016000206040518060c0016040529081600082015481526020016001820160009054906101000a900473ffffffffffffffffffffffffffffffffffffffff1673ffffffffffffffffffffffffffffffffffffffff1673ffffffffffffffffffffffffffffffffffffffff1681526020016002820154815260200160038201548152602001600482015481526020016005820160009054906101000a900460ff166003811115611a7857611a776124b9565b5b6003811115611a8a57611a896124b9565b5b81525050905060026003811115611aa457611aa36124b9565b5b8160a001516003811115611abb57611aba6124b9565b5b148015611acc575080606001514210155b915050919050565b60606000600580549050905060008367ffffffffffffffff811115611afc57611afb612cc9565b5b604051908082528060200260200182016040528015611b2a5781602001602082028036833780820191505090505b509050818510611b89578367ffffffffffffffff811115611b4e57611b4d612cc9565b5b604051908082528060200260200182016040528015611b7c5781602001602082028036833780820191505090505b5090508092505050611cb8565b6000849050828587611b9b9190612b18565b1115611bb0578583611bad9190612b4c565b90505b8067ffffffffffffffff811115611bca57611bc9612cc9565b5b604051908082528060200260200182016040528015611bf85781602001602082028036833780820191505090505b50915060005b81811015611cb05760058188611c149190612b18565b81548110611c2557611c24612cf8565b5b9060005260206000200160009054906101000a900473ffffffffffffffffffffffffffffffffffffffff16838281518110611c6357611c62612cf8565b5b602002602001019073ffffffffffffffffffffffffffffffffffffffff16908173ffffffffffffffffffffffffffffffffffffffff16815250508080611ca890612c81565b915050611bfe565b508193505050505b92915050565b611cc661216b565b600260008381526020019081526020016000206040518060c0016040529081600082015481526020016001820160009054906101000a900473ffffffffffffffffffffffffffffffffffffffff1673ffffffffffffffffffffffffffffffffffffffff1673ffffffffffffffffffffffffffffffffffffffff1681526020016002820154815260200160038201548152602001600482015481526020016005820160009054906101000a900460ff166003811115611d8757611d866124b9565b5b6003811115611d9957611d986124b9565b5b815250509050919050565b60606000600360008673ffffffffffffffffffffffffffffffffffffffff1673ffffffffffffffffffffffffffffffffffffffff1681526020019081526020016000209050600081805490509050808510611e4c57600067ffffffffffffffff811115611e1457611e13612cc9565b5b604051908082528060200260200182016040528015611e425781602001602082028036833780820191505090505b5092505050611f32565b60008486611e5a9190612b18565b905081811115611e68578190505b60008682611e769190612b4c565b67ffffffffffffffff811115611e8f57611e8e612cc9565b5b604051908082528060200260200182016040528015611ebd5781602001602082028036833780820191505090505b50905060008790505b82811015611f2957848181548110611ee157611ee0612cf8565b5b9060005260206000200154828983611ef99190612b4c565b81518110611f0a57611f09612cf8565b5b6020026020010181815250508080611f2190612c81565b915050611ec6565b50809450505050505b9392505050565b60058181548110611f4957600080fd5b906000526020600020016000915054906101000a900473ffffffffffffffffffffffffffffffffffffffff1681565b600260005403611fb4576040517f3ee5aeb500000000000000000000000000000000000000000000000000000000815260040160405180910390fd5b6002600081905550565b6001600081905550565b612042838473ffffffffffffffffffffffffffffffffffffffff1663a9059cbb8585604051602401611ffb929190612d93565b604051602081830303815290604052915060e01b6020820180517bffffffffffffffffffffffffffffffffffffffffffffffffffffffff83818316178352505050506120c9565b505050565b6120c3848573ffffffffffffffffffffffffffffffffffffffff166323b872dd86868660405160240161207c93929190612dbc565b604051602081830303815290604052915060e01b6020820180517bffffffffffffffffffffffffffffffffffffffffffffffffffffffff83818316178352505050506120c9565b50505050565b600080602060008451602086016000885af1806120ec576040513d6000823e3d81fd5b3d925060005191505060008214612107576001811415612123565b60008473ffffffffffffffffffffffffffffffffffffffff163b145b1561216557836040517f5274afe700000000000000000000000000000000000000000000000000000000815260040161215c9190612979565b60405180910390fd5b50505050565b6040518060c0016040528060008152602001600073ffffffffffffffffffffffffffffffffffffffff168152602001600081526020016000815260200160008152602001600060038111156121c3576121c26124b9565b5b81525090565b600080fd5b600073ffffffffffffffffffffffffffffffffffffffff82169050919050565b60006121f9826121ce565b9050919050565b612209816121ee565b811461221457600080fd5b50565b60008135905061222681612200565b92915050565b600060208284031215612242576122416121c9565b5b600061225084828501612217565b91505092915050565b600081519050919050565b600082825260208201905092915050565b6000819050602082019050919050565b6000819050919050565b61229881612285565b82525050565b60006122aa838361228f565b60208301905092915050565b6000602082019050919050565b60006122ce82612259565b6122d88185612264565b93506122e383612275565b8060005b838110156123145781516122fb888261229e565b9750612306836122b6565b9250506001810190506122e7565b5085935050505092915050565b6000602082019050818103600083015261233b81846122c3565b905092915050565b61234c81612285565b811461235757600080fd5b50565b60008135905061236981612343565b92915050565b600060208284031215612385576123846121c9565b5b60006123938482850161235a565b91505092915050565b6123a581612285565b82525050565b60006020820190506123c0600083018461239c565b92915050565b600080604083850312156123dd576123dc6121c9565b5b60006123eb85828601612217565b92505060206123fc8582860161235a565b9150509250929050565b6004811061241357600080fd5b50565b60008135905061242581612406565b92915050565b600080600060608486031215612444576124436121c9565b5b600061245286828701612416565b93505060206124638682870161235a565b92505060406124748682870161235a565b9150509250925092565b600081519050919050565b600082825260208201905092915050565b6000819050602082019050919050565b6124b3816121ee565b82525050565b7f4e487b7100000000000000000000000000000000000000000000000000000000600052602160045260246000fd5b600481106124f9576124f86124b9565b5b50565b600081905061250a826124e8565b919050565b600061251a826124fc565b9050919050565b61252a8161250f565b82525050565b60c082016000820151612546600085018261228f565b50602082015161255960208501826124aa565b50604082015161256c604085018261228f565b50606082015161257f606085018261228f565b506080820151612592608085018261228f565b5060a08201516125a560a0850182612521565b50505050565b60006125b78383612530565b60c08301905092915050565b6000602082019050919050565b60006125db8261247e565b6125e58185612489565b93506125f08361249a565b8060005b8381101561262157815161260888826125ab565b9750612613836125c3565b9250506001810190506125f4565b5085935050505092915050565b6000602082019050818103600083015261264881846125d0565b905092915050565b60008060408385031215612667576126666121c9565b5b60006126758582860161235a565b92505060206126868582860161235a565b9150509250929050565b612699816121ee565b82525050565b6126a88161250f565b82525050565b600060c0820190506126c3600083018961239c565b6126d06020830188612690565b6126dd604083018761239c565b6126ea606083018661239c565b6126f7608083018561239c565b61270460a083018461269f565b979650505050505050565b6000819050919050565b600061273461272f61272a846121ce565b61270f565b6121ce565b9050919050565b600061274682612719565b9050919050565b60006127588261273b565b9050919050565b6127688161274d565b82525050565b6000602082019050612783600083018461275f565b92915050565b60008115159050919050565b61279e81612789565b82525050565b60006020820190506127b96000830184612795565b92915050565b600081519050919050565b600082825260208201905092915050565b6000819050602082019050919050565b60006127f783836124aa565b60208301905092915050565b6000602082019050919050565b600061281b826127bf565b61282581856127ca565b9350612830836127db565b8060005b8381101561286157815161284888826127eb565b975061285383612803565b925050600181019050612834565b5085935050505092915050565b600060208201905081810360008301526128888184612810565b905092915050565b60c0820160008201516128a6600085018261228f565b5060208201516128b960208501826124aa565b5060408201516128cc604085018261228f565b5060608201516128df606085018261228f565b5060808201516128f2608085018261228f565b5060a082015161290560a0850182612521565b50505050565b600060c0820190506129206000830184612890565b92915050565b60008060006060848603121561293f5761293e6121c9565b5b600061294d86828701612217565b935050602061295e8682870161235a565b925050604061296f8682870161235a565b9150509250925092565b600060208201905061298e6000830184612690565b92915050565b600082825260208201905092915050565b7f506f736974696f6e20646f6573206e6f74206578697374000000000000000000600082015250565b60006129db601783612994565b91506129e6826129a5565b602082019050919050565b60006020820190508181036000830152612a0a816129ce565b9050919050565b7f4e6f7420706f736974696f6e206f776e65720000000000000000000000000000600082015250565b6000612a47601283612994565b9150612a5282612a11565b602082019050919050565b60006020820190508181036000830152612a7681612a3a565b9050919050565b7f506f736974696f6e206e6f742061637469766500000000000000000000000000600082015250565b6000612ab3601383612994565b9150612abe82612a7d565b602082019050919050565b60006020820190508181036000830152612ae281612aa6565b9050919050565b7f4e487b7100000000000000000000000000000000000000000000000000000000600052601160045260246000fd5b6000612b2382612285565b9150612b2e83612285565b9250828201905080821115612b4657612b45612ae9565b5b92915050565b6000612b5782612285565b9150612b6283612285565b9250828203905081811115612b7a57612b79612ae9565b5b92915050565b6000604082019050612b95600083018561239c565b612ba2602083018461239c565b9392505050565b7f506f736974696f6e206e6f742070656e64696e67000000000000000000000000600082015250565b6000612bdf601483612994565b9150612bea82612ba9565b602082019050919050565b60006020820190508181036000830152612c0e81612bd2565b9050919050565b7f4c6f636b20706572696f64206e6f7420656e6465640000000000000000000000600082015250565b6000612c4b601583612994565b9150612c5682612c15565b602082019050919050565b60006020820190508181036000830152612c7a81612c3e565b9050919050565b6000612c8c82612285565b91507fffffffffffffffffffffffffffffffffffffffffffffffffffffffffffffffff8203612cbe57612cbd612ae9565b5b600182019050919050565b7f4e487b7100000000000000000000000000000000000000000000000000000000600052604160045260246000fd5b7f4e487b7100000000000000000000000000000000000000000000000000000000600052603260045260246000fd5b7f416d6f756e74206d7573742062652067726561746572207468616e207a65726f600082015250565b6000612d5d602083612994565b9150612d6882612d27565b602082019050919050565b60006020820190508181036000830152612d8c81612d50565b9050919050565b6000604082019050612da86000830185612690565b612db5602083018461239c565b9392505050565b6000606082019050612dd16000830186612690565b612dde6020830185612690565b612deb604083018461239c565b94935050505056fea26469706673582212209ab8720cd9928bf91fa38e0583367c134f43b245680be27d54b23777b1fce2c064736f6c63430008140033",
  "devdoc": {
    "details": "Staking contract for $ROOM tokens with 2-week lock period Features: - Unlimited number of positions per user - Each stake creates a unique position with positionId - 2-week lock period for unstaked tokens - Restake function to return pending tokens to active staking",
    "errors": {
      "ReentrancyGuardReentrantCall()": [
        {
          "details": "Unauthorized reentrant call."
        }
      ],
      "SafeERC20FailedOperation(address)": [
        {
          "details": "An operation with an ERC-20 token failed."
        }
      ]
    },
    "kind": "dev",
    "methods": {
      "canClaim(uint256)": {
        "details": "Check if position can be claimed",
        "params": {
          "positionId": "ID of the position"
        },
        "returns": {
          "_0": "True if position can be claimed"
        }
      },
      "claim(uint256)": {
        "details": "Claim tokens after lock period has ended",
        "params": {
          "positionId": "ID of the position to claim"
        }
      },
      "getPosition(uint256)": {
        "details": "Get position details",
        "params": {
          "positionId": "ID of the position"
        },
        "returns": {
          "_0": "Position struct"
        }
      },
      "getTimeUntilUnlock(uint256)": {
        "details": "Get time remaining until position can be claimed",
        "params": {
          "positionId": "ID of the position"
        },
        "returns": {
          "_0": "Time remaining in seconds (0 if not pending or already unlockable)"
        }
      },
      "getUserTotalStaked(address)": {
        "details": "Get user's total staked amount",
        "params": {
          "user": "Address of the user"
        },
        "returns": {
          "_0": "Total staked amount"
        }
      },
      "restake(uint256)": {
        "details": "Restake tokens from a pending position (cancels lock period)",
        "params": {
          "positionId": "ID of the position to restake"
        }
      },
      "stake(uint256)": {
        "details": "Stake tokens and create a new position",
        "params": {
          "amount": "Amount of tokens to stake"
        },
        "returns": {
          "_0": "positionId The ID of the created position"
        }
      },
      "unstake(uint256)": {
        "details": "Unstake tokens from a position (starts lock period)",
        "params": {
          "positionId": "ID of the position to unstake"
        }
      }
    },
    "title": "Staking",
    "version": 1
  },
  "userdoc": {
    "kind": "user",
    "methods": {},
    "version": 1
  },
  "storageLayout": {
    "storage": [
      {
        "astId": 642,
        "contract": "contracts/Staking.sol:Staking",
        "label": "_status",
        "offset": 0,
        "slot": "0",
        "type": "t_uint256"
      },
      {
        "astId": 737,
        "contract": "contracts/Staking.sol:Staking",
        "label": "nextPositionId",
        "offset": 0,
        "slot": "1",
        "type": "t_uint256"
      },
      {
        "astId": 742,
        "contract": "contracts/Staking.sol:Staking",
        "label": "positions",
        "offset": 0,
        "slot": "2",
        "type": "t_mapping(t_uint256,t_struct(Position)1641_storage)"
      },
      {
        "astId": 747,
        "contract": "contracts/Staking.sol:Staking",
        "label": "userPositions",
        "offset": 0,
        "slot": "3",
        "type": "t_mapping(t_address,t_array(t_uint256)dyn_storage)"
      },
      {
        "astId": 751,
        "contract": "contracts/Staking.sol:Staking",
        "label": "totalStaked",
        "offset": 0,
        "slot": "4",
        "type": "t_mapping(t_address,t_uint256)"
      },
      {
        "astId": 754,
        "contract": "contracts/Staking.sol:Staking",
        "label": "stakers",
        "offset": 0,
        "slot": "5",
        "type": "t_array(t_address)dyn_storage"
      },
      {
        "astId": 758,
        "contract": "contracts/Staking.sol:Staking",
        "label": "isRegistered",
        "offset": 0,
        "slot": "6",
        "type": "t_mapping(t_address,t_bool)"
      }
    ],
    "types": {
      "t_address": {
        "encoding": "inplace",
        "label": "address",
        "numberOfBytes": "20"
      },
      "t_array(t_address)dyn_storage": {
        "base": "t_address",
        "encoding": "dynamic_array",
        "label": "address[]",
        "numberOfBytes": "32"
      },
      "t_array(t_uint256)dyn_storage": {
        "base": "t_uint256",
        "encoding": "dynamic_array",
        "label": "uint256[]",
        "numberOfBytes": "32"
      },
      "t_bool": {
        "encoding": "inplace",
        "label": "bool",
        "numberOfBytes": "1"
      },
      "t_enum(PositionStatus)1627": {
        "encoding": "inplace",
        "label": "enum IStaking.PositionStatus",
        "numberOfBytes": "1"
      },
      "t_mapping(t_address,t_array(t_uint256)dyn_storage)": {
        "encoding": "mapping",
        "key": "t_address",
        "label": "mapping(address => uint256[])",
        "numberOfBytes": "32",
        "value": "t_array(t_uint256)dyn_storage"
      },
      "t_mapping(t_address,t_bool)": {
        "encoding": "mapping",
        "key": "t_address",
        "label": "mapping(address => bool)",
        "numberOfBytes": "32",
        "value": "t_bool"
      },
      "t_mapping(t_address,t_uint256)": {
        "encoding": "mapping",
        "key": "t_address",
        "label": "mapping(address => uint256)",
        "numberOfBytes": "32",
        "value": "t_uint256"
      },
      "t_mapping(t_uint256,t_struct(Position)1641_storage)": {
        "encoding": "mapping",
        "key": "t_uint256",
        "label": "mapping(uint256 => struct IStaking.Position)",
        "numberOfBytes": "32",
        "value": "t_struct(Position)1641_storage"
      },
      "t_struct(Position)1641_storage": {
        "encoding": "inplace",
        "label": "struct IStaking.Position",
        "members": [
          {
            "astId": 1629,
            "contract": "contracts/Staking.sol:Staking",
            "label": "positionId",
            "offset": 0,
            "slot": "0",
            "type": "t_uint256"
          },
          {
            "astId": 1631,
            "contract": "contracts/Staking.sol:Staking",
            "label": "owner",
            "offset": 0,
            "slot": "1",
            "type": "t_address"
          },
          {
            "astId": 1633,
            "contract": "contracts/Staking.sol:Staking",
            "label": "amount",
            "offset": 0,
            "slot": "2",
            "type": "t_uint256"
          },
          {
            "astId": 1635,
            "contract": "contracts/Staking.sol:Staking",
            "label": "unlockTime",
            "offset": 0,
            "slot": "3",
            "type": "t_uint256"
          },
          {
            "astId": 1637,
            "contract": "contracts/Staking.sol:Staking",
            "label": "stakeTime",
            "offset": 0,
            "slot": "4",
            "type": "t_uint256"
          },
          {
            "astId": 1640,
            "contract": "contracts/Staking.sol:Staking",
            "label": "status",
            "offset": 0,
            "slot": "5",
            "type": "t_enum(PositionStatus)1627"
          }
        ],
        "numberOfBytes": "192"
      },
      "t_uint256": {
        "encoding": "inplace",
        "label": "uint256",
        "numberOfBytes": "32"
      }
    }
  }
}