{
  "address": "0x8B968c0564A7Ac79735A7A8bB4A94fe3602d3522",
  "abi": [
    {
      "inputs": [],
      "stateMutability": "nonpayable",
      "type": "constructor"
    },
    {
      "inputs": [
        {
          "internalType": "address",
          "name": "spender",
          "type": "address"
        },
        {
          "internalType": "uint256",
          "name": "allowance",
          "type": "uint256"
        },
        {
          "internalType": "uint256",
          "name": "needed",
          "type": "uint256"
        }
      ],
      "name": "ERC20InsufficientAllowance",
      "type": "error"
    },
    {
      "inputs": [
        {
          "internalType": "address",
          "name": "sender",
          "type": "address"
        },
        {
          "internalType": "uint256",
          "name": "balance",
          "type": "uint256"
        },
        {
          "internalType": "uint256",
          "name": "needed",
          "type": "uint256"
        }
      ],
      "name": "ERC20InsufficientBalance",
      "type": "error"
    },
    {
      "inputs": [
        {
          "internalType": "address",
          "name": "approver",
          "type": "address"
        }
      ],
      "name": "ERC20InvalidApprover",
      "type": "error"
    },
    {
      "inputs": [
        {
          "internalType": "address",
          "name": "receiver",
          "type": "address"
        }
      ],
      "name": "ERC20InvalidReceiver",
      "type": "error"
    },
    {
      "inputs": [
        {
          "internalType": "address",
          "name": "sender",
          "type": "address"
        }
      ],
      "name": "ERC20InvalidSender",
      "type": "error"
    },
    {
      "inputs": [
        {
          "internalType": "address",
          "name": "spender",
          "type": "address"
        }
      ],
      "name": "ERC20InvalidSpender",
      "type": "error"
    },
    {
      "anonymous": false,
      "inputs": [
        {
          "indexed": true,
          "internalType": "address",
          "name": "owner",
          "type": "address"
        },
        {
          "indexed": true,
          "internalType": "address",
          "name": "spender",
          "type": "address"
        },
        {
          "indexed": false,
          "internalType": "uint256",
          "name": "value",
          "type": "uint256"
        }
      ],
      "name": "Approval",
      "type": "event"
    },
    {
      "anonymous": false,
      "inputs": [
        {
          "indexed": true,
          "internalType": "address",
          "name": "from",
          "type": "address"
        },
        {
          "indexed": true,
          "internalType": "address",
          "name": "to",
          "type": "address"
        },
        {
          "indexed": false,
          "internalType": "uint256",
          "name": "value",
          "type": "uint256"
        }
      ],
      "name": "Transfer",
      "type": "event"
    },
    {
      "inputs": [
        {
          "internalType": "address",
          "name": "owner",
          "type": "address"
        },
        {
          "internalType": "address",
          "name": "spender",
          "type": "address"
        }
      ],
      "name": "allowance",
      "outputs": [
        {
          "internalType": "uint256",
          "name": "",
          "type": "uint256"
        }
      ],
      "stateMutability": "view",
      "type": "function"
    },
    {
      "inputs": [
        {
          "internalType": "address",
          "name": "spender",
          "type": "address"
        },
        {
          "internalType": "uint256",
          "name": "value",
          "type": "uint256"
        }
      ],
      "name": "approve",
      "outputs": [
        {
          "internalType": "bool",
          "name": "",
          "type": "bool"
        }
      ],
      "stateMutability": "nonpayable",
      "type": "function"
    },
    {
      "inputs": [
        {
          "internalType": "address",
          "name": "account",
          "type": "address"
        }
      ],
      "name": "balanceOf",
      "outputs": [
        {
          "internalType": "uint256",
          "name": "",
          "type": "uint256"
        }
      ],
      "stateMutability": "view",
      "type": "function"
    },
    {
      "inputs": [
        {
          "internalType": "uint256",
          "name": "value",
          "type": "uint256"
        }
      ],
      "name": "burn",
      "outputs": [],
      "stateMutability": "nonpayable",
      "type": "function"
    },
    {
      "inputs": [
        {
          "internalType": "address",
          "name": "account",
          "type": "address"
        },
        {
          "internalType": "uint256",
          "name": "value",
          "type": "uint256"
        }
      ],
      "name": "burnFrom",
      "outputs": [],
      "stateMutability": "nonpayable",
      "type": "function"
    },
    {
      "inputs": [],
      "name": "decimals",
      "outputs": [
        {
          "internalType": "uint8",
          "name": "",
          "type": "uint8"
        }
      ],
      "stateMutability": "view",
      "type": "function"
    },
    {
      "inputs": [],
      "name": "name",
      "outputs": [
        {
          "internalType": "string",
          "name": "",
          "type": "string"
        }
      ],
      "stateMutability": "view",
      "type": "function"
    },
    {
      "inputs": [],
      "name": "symbol",
      "outputs": [
        {
          "internalType": "string",
          "name": "",
          "type": "string"
        }
      ],
      "stateMutability": "view",
      "type": "function"
    },
    {
      "inputs": [],
      "name": "totalSupply",
      "outputs": [
        {
          "internalType": "uint256",
          "name": "",
          "type": "uint256"
        }
      ],
      "stateMutability": "view",
      "type": "function"
    },
    {
      "inputs": [
        {
          "internalType": "address",
          "name": "to",
          "type": "address"
        },
        {
          "internalType": "uint256",
          "name": "value",
          "type": "uint256"
        }
      ],
      "name": "transfer",
      "outputs": [
        {
          "internalType": "bool",
          "name": "",
          "type": "bool"
        }
      ],
      "stateMutability": "nonpayable",
      "type": "function"
    },
    {
      "inputs": [
        {
          "internalType": "address",
          "name": "from",
          "type": "address"
        },
        {
          "internalType": "address",
          "name": "to",
          "type": "address"
        },
        {
          "internalType": "uint256",
          "name": "value",
          "type": "uint256"
        }
      ],
      "name": "transferFrom",
      "outputs": [
        {
          "internalType": "bool",
          "name": "",
          "type": "bool"
        }
      ],
      "stateMutability": "nonpayable",
      "type": "function"
    }
  ],
  "transactionHash": "0x33fc719f5dbe3c761642c85e7bc648a56f56ce4f4ce1f06c6938bc1fb7b2797d",
  "args": [],
  "numDeployments": 1,
  "solcInputHash": "6754df9758859a8bb2b4207d693695e2",
  "bytecode": "0x60806040523480156200001157600080fd5b506040518060400160405280600681526020017f5061756c696500000000000000000000000000000000000000000000000000008152506040518060400160405280600781526020017f245041554c49450000000000000000000000000000000000000000000000000081525081600390816200008f91906200062b565b508060049081620000a191906200062b565b505050620000e533620000b9620000eb60201b60201c565b600a620000c79190620008a2565b6402540be400620000d99190620008f3565b620000f460201b60201c565b62000a46565b60006012905090565b600073ffffffffffffffffffffffffffffffffffffffff168273ffffffffffffffffffffffffffffffffffffffff1603620001695760006040517fec442f0500000000000000000000000000000000000000000000000000000000815260040162000160919062000983565b60405180910390fd5b6200017d600083836200018160201b60201c565b5050565b600073ffffffffffffffffffffffffffffffffffffffff168373ffffffffffffffffffffffffffffffffffffffff1603620001d7578060026000828254620001ca9190620009a0565b92505081905550620002ad565b60008060008573ffffffffffffffffffffffffffffffffffffffff1673ffffffffffffffffffffffffffffffffffffffff1681526020019081526020016000205490508181101562000266578381836040517fe450d38c0000000000000000000000000000000000000000000000000000000081526004016200025d93929190620009ec565b60405180910390fd5b8181036000808673ffffffffffffffffffffffffffffffffffffffff1673ffffffffffffffffffffffffffffffffffffffff16815260200190815260200160002081905550505b600073ffffffffffffffffffffffffffffffffffffffff168273ffffffffffffffffffffffffffffffffffffffff1603620002f8578060026000828254039250508190555062000345565b806000808473ffffffffffffffffffffffffffffffffffffffff1673ffffffffffffffffffffffffffffffffffffffff168152602001908152602001600020600082825401925050819055505b8173ffffffffffffffffffffffffffffffffffffffff168373ffffffffffffffffffffffffffffffffffffffff167fddf252ad1be2c89b69c2b068fc378daa952ba7f163c4a11628f55a4df523b3ef83604051620003a4919062000a29565b60405180910390a3505050565b600081519050919050565b7f4e487b7100000000000000000000000000000000000000000000000000000000600052604160045260246000fd5b7f4e487b7100000000000000000000000000000000000000000000000000000000600052602260045260246000fd5b600060028204905060018216806200043357607f821691505b602082108103620004495762000448620003eb565b5b50919050565b60008190508160005260206000209050919050565b60006020601f8301049050919050565b600082821b905092915050565b600060088302620004b37fffffffffffffffffffffffffffffffffffffffffffffffffffffffffffffffff8262000474565b620004bf868362000474565b95508019841693508086168417925050509392505050565b6000819050919050565b6000819050919050565b60006200050c620005066200050084620004d7565b620004e1565b620004d7565b9050919050565b6000819050919050565b6200052883620004eb565b62000540620005378262000513565b84845462000481565b825550505050565b600090565b6200055762000548565b620005648184846200051d565b505050565b5b818110156200058c57620005806000826200054d565b6001810190506200056a565b5050565b601f821115620005db57620005a5816200044f565b620005b08462000464565b81016020851015620005c0578190505b620005d8620005cf8562000464565b83018262000569565b50505b505050565b600082821c905092915050565b60006200060060001984600802620005e0565b1980831691505092915050565b60006200061b8383620005ed565b9150826002028217905092915050565b6200063682620003b1565b67ffffffffffffffff811115620006525762000651620003bc565b5b6200065e82546200041a565b6200066b82828562000590565b600060209050601f831160018114620006a357600084156200068e578287015190505b6200069a85826200060d565b8655506200070a565b601f198416620006b3866200044f565b60005b82811015620006dd57848901518255600182019150602085019450602081019050620006b6565b86831015620006fd5784890151620006f9601f891682620005ed565b8355505b6001600288020188555050505b505050505050565b7f4e487b7100000000000000000000000000000000000000000000000000000000600052601160045260246000fd5b60008160011c9050919050565b6000808291508390505b6001851115620007a05780860481111562000778576200077762000712565b5b6001851615620007885780820291505b8081029050620007988562000741565b945062000758565b94509492505050565b600082620007bb57600190506200088e565b81620007cb57600090506200088e565b8160018114620007e45760028114620007ef5762000825565b60019150506200088e565b60ff84111562000804576200080362000712565b5b8360020a9150848211156200081e576200081d62000712565b5b506200088e565b5060208310610133831016604e8410600b84101617156200085f5782820a90508381111562000859576200085862000712565b5b6200088e565b6200086e84848460016200074e565b9250905081840481111562000888576200088762000712565b5b81810290505b9392505050565b600060ff82169050919050565b6000620008af82620004d7565b9150620008bc8362000895565b9250620008eb7fffffffffffffffffffffffffffffffffffffffffffffffffffffffffffffffff8484620007a9565b905092915050565b60006200090082620004d7565b91506200090d83620004d7565b92508282026200091d81620004d7565b9150828204841483151762000937576200093662000712565b5b5092915050565b600073ffffffffffffffffffffffffffffffffffffffff82169050919050565b60006200096b826200093e565b9050919050565b6200097d816200095e565b82525050565b60006020820190506200099a600083018462000972565b92915050565b6000620009ad82620004d7565b9150620009ba83620004d7565b9250828201905080821115620009d557620009d462000712565b5b92915050565b620009e681620004d7565b82525050565b600060608201905062000a03600083018662000972565b62000a126020830185620009db565b62000a216040830184620009db565b949350505050565b600060208201905062000a406000830184620009db565b92915050565b610f878062000a566000396000f3fe608060405234801561001057600080fd5b50600436106100a95760003560e01c806342966c681161007157806342966c681461016857806370a082311461018457806379cc6790146101b457806395d89b41146101d0578063a9059cbb146101ee578063dd62ed3e1461021e576100a9565b806306fdde03146100ae578063095ea7b3146100cc57806318160ddd146100fc57806323b872dd1461011a578063313ce5671461014a575b600080fd5b6100b661024e565b6040516100c39190610bae565b60405180910390f35b6100e660048036038101906100e19190610c69565b6102e0565b6040516100f39190610cc4565b60405180910390f35b610104610303565b6040516101119190610cee565b60405180910390f35b610134600480360381019061012f9190610d09565b61030d565b6040516101419190610cc4565b60405180910390f35b61015261033c565b60405161015f9190610d78565b60405180910390f35b610182600480360381019061017d9190610d93565b610345565b005b61019e60048036038101906101999190610dc0565b610359565b6040516101ab9190610cee565b60405180910390f35b6101ce60048036038101906101c99190610c69565b6103a1565b005b6101d86103c1565b6040516101e59190610bae565b60405180910390f35b61020860048036038101906102039190610c69565b610453565b6040516102159190610cc4565b60405180910390f35b61023860048036038101906102339190610ded565b610476565b6040516102459190610cee565b60405180910390f35b60606003805461025d90610e5c565b80601f016020809104026020016040519081016040528092919081815260200182805461028990610e5c565b80156102d65780601f106102ab576101008083540402835291602001916102d6565b820191906000526020600020905b8154815290600101906020018083116102b957829003601f168201915b5050505050905090565b6000806102eb6104fd565b90506102f8818585610505565b600191505092915050565b6000600254905090565b6000806103186104fd565b9050610325858285610517565b6103308585856105ac565b60019150509392505050565b60006012905090565b6103566103506104fd565b826106a0565b50565b60008060008373ffffffffffffffffffffffffffffffffffffffff1673ffffffffffffffffffffffffffffffffffffffff168152602001908152602001600020549050919050565b6103b3826103ad6104fd565b83610517565b6103bd82826106a0565b5050565b6060600480546103d090610e5c565b80601f01602080910402602001604051908101604052809291908181526020018280546103fc90610e5c565b80156104495780601f1061041e57610100808354040283529160200191610449565b820191906000526020600020905b81548152906001019060200180831161042c57829003601f168201915b5050505050905090565b60008061045e6104fd565b905061046b8185856105ac565b600191505092915050565b6000600160008473ffffffffffffffffffffffffffffffffffffffff1673ffffffffffffffffffffffffffffffffffffffff16815260200190815260200160002060008373ffffffffffffffffffffffffffffffffffffffff1673ffffffffffffffffffffffffffffffffffffffff16815260200190815260200160002054905092915050565b600033905090565b6105128383836001610722565b505050565b60006105238484610476565b90507fffffffffffffffffffffffffffffffffffffffffffffffffffffffffffffffff8110156105a65781811015610596578281836040517ffb8f41b200000000000000000000000000000000000000000000000000000000815260040161058d93929190610e9c565b60405180910390fd5b6105a584848484036000610722565b5b50505050565b600073ffffffffffffffffffffffffffffffffffffffff168373ffffffffffffffffffffffffffffffffffffffff160361061e5760006040517f96c6fd1e0000000000000000000000000000000000000000000000000000000081526004016106159190610ed3565b60405180910390fd5b600073ffffffffffffffffffffffffffffffffffffffff168273ffffffffffffffffffffffffffffffffffffffff16036106905760006040517fec442f050000000000000000000000000000000000000000000000000000000081526004016106879190610ed3565b60405180910390fd5b61069b8383836108f9565b505050565b600073ffffffffffffffffffffffffffffffffffffffff168273ffffffffffffffffffffffffffffffffffffffff16036107125760006040517f96c6fd1e0000000000000000000000000000000000000000000000000000000081526004016107099190610ed3565b60405180910390fd5b61071e826000836108f9565b5050565b600073ffffffffffffffffffffffffffffffffffffffff168473ffffffffffffffffffffffffffffffffffffffff16036107945760006040517fe602df0500000000000000000000000000000000000000000000000000000000815260040161078b9190610ed3565b60405180910390fd5b600073ffffffffffffffffffffffffffffffffffffffff168373ffffffffffffffffffffffffffffffffffffffff16036108065760006040517f94280d620000000000000000000000000000000000000000000000000000000081526004016107fd9190610ed3565b60405180910390fd5b81600160008673ffffffffffffffffffffffffffffffffffffffff1673ffffffffffffffffffffffffffffffffffffffff16815260200190815260200160002060008573ffffffffffffffffffffffffffffffffffffffff1673ffffffffffffffffffffffffffffffffffffffff1681526020019081526020016000208190555080156108f3578273ffffffffffffffffffffffffffffffffffffffff168473ffffffffffffffffffffffffffffffffffffffff167f8c5be1e5ebec7d5bd14f71427d1e84f3dd0314c0f7b2291e5b200ac8c7c3b925846040516108ea9190610cee565b60405180910390a35b50505050565b600073ffffffffffffffffffffffffffffffffffffffff168373ffffffffffffffffffffffffffffffffffffffff160361094b57806002600082825461093f9190610f1d565b92505081905550610a1e565b60008060008573ffffffffffffffffffffffffffffffffffffffff1673ffffffffffffffffffffffffffffffffffffffff168152602001908152602001600020549050818110156109d7578381836040517fe450d38c0000000000000000000000000000000000000000000000000000000081526004016109ce93929190610e9c565b60405180910390fd5b8181036000808673ffffffffffffffffffffffffffffffffffffffff1673ffffffffffffffffffffffffffffffffffffffff16815260200190815260200160002081905550505b600073ffffffffffffffffffffffffffffffffffffffff168273ffffffffffffffffffffffffffffffffffffffff1603610a675780600260008282540392505081905550610ab4565b806000808473ffffffffffffffffffffffffffffffffffffffff1673ffffffffffffffffffffffffffffffffffffffff168152602001908152602001600020600082825401925050819055505b8173ffffffffffffffffffffffffffffffffffffffff168373ffffffffffffffffffffffffffffffffffffffff167fddf252ad1be2c89b69c2b068fc378daa952ba7f163c4a11628f55a4df523b3ef83604051610b119190610cee565b60405180910390a3505050565b600081519050919050565b600082825260208201905092915050565b60005b83811015610b58578082015181840152602081019050610b3d565b60008484015250505050565b6000601f19601f8301169050919050565b6000610b8082610b1e565b610b8a8185610b29565b9350610b9a818560208601610b3a565b610ba381610b64565b840191505092915050565b60006020820190508181036000830152610bc88184610b75565b905092915050565b600080fd5b600073ffffffffffffffffffffffffffffffffffffffff82169050919050565b6000610c0082610bd5565b9050919050565b610c1081610bf5565b8114610c1b57600080fd5b50565b600081359050610c2d81610c07565b92915050565b6000819050919050565b610c4681610c33565b8114610c5157600080fd5b50565b600081359050610c6381610c3d565b92915050565b60008060408385031215610c8057610c7f610bd0565b5b6000610c8e85828601610c1e565b9250506020610c9f85828601610c54565b9150509250929050565b60008115159050919050565b610cbe81610ca9565b82525050565b6000602082019050610cd96000830184610cb5565b92915050565b610ce881610c33565b82525050565b6000602082019050610d036000830184610cdf565b92915050565b600080600060608486031215610d2257610d21610bd0565b5b6000610d3086828701610c1e565b9350506020610d4186828701610c1e565b9250506040610d5286828701610c54565b9150509250925092565b600060ff82169050919050565b610d7281610d5c565b82525050565b6000602082019050610d8d6000830184610d69565b92915050565b600060208284031215610da957610da8610bd0565b5b6000610db784828501610c54565b91505092915050565b600060208284031215610dd657610dd5610bd0565b5b6000610de484828501610c1e565b91505092915050565b60008060408385031215610e0457610e03610bd0565b5b6000610e1285828601610c1e565b9250506020610e2385828601610c1e565b9150509250929050565b7f4e487b7100000000000000000000000000000000000000000000000000000000600052602260045260246000fd5b60006002820490506001821680610e7457607f821691505b602082108103610e8757610e86610e2d565b5b50919050565b610e9681610bf5565b82525050565b6000606082019050610eb16000830186610e8d565b610ebe6020830185610cdf565b610ecb6040830184610cdf565b949350505050565b6000602082019050610ee86000830184610e8d565b92915050565b7f4e487b7100000000000000000000000000000000000000000000000000000000600052601160045260246000fd5b6000610f2882610c33565b9150610f3383610c33565b9250828201905080821115610f4b57610f4a610eee565b5b9291505056fea264697066735822122037755bd6058d6dd396d4f0028de9132356cc9ccc5ce83b30dc353483490a5fb964736f6c63430008140033",
  "devdoc": {
    "errors": {
      "ERC20InsufficientAllowance(address,uint256,uint256)": [
        {
          "details": "Indicates a failure with the `spender`s `allowance`. Used in transfers.",
          "params": {
            "allowance": "Amount of tokens a `spender` is allowed to operate with.",
            "needed": "Minimum amount required to perform a transfer.",
            "spender": "Address that may be allowed to operate on tokens without being their owner."
          }
        }
      ],
      "ERC20InsufficientBalance(address,uint256,uint256)": [
        {
          "details": "Indicates an error related to the current `balance` of a `sender`. Used in transfers.",
          "params": {
            "balance": "Current balance for the interacting account.",
            "needed": "Minimum amount required to perform a transfer.",
            "sender": "Address whose tokens are being transferred."
          }
        }
      ],
      "ERC20InvalidApprover(address)": [
        {
          "details": "Indicates a failure with the `approver` of a token to be approved. Used in approvals.",
          "params": {
            "approver": "Address initiating an approval operation."
          }
        }
      ],
      "ERC20InvalidReceiver(address)": [
        {
          "details": "Indicates a failure with the token `receiver`. Used in transfers.",
          "params": {
            "receiver": "Address to which tokens are being transferred."
          }
        }
      ],
      "ERC20InvalidSender(address)": [
        {
          "details": "Indicates a failure with the token `sender`. Used in transfers.",
          "params": {
            "sender": "Address whose tokens are being transferred."
          }
        }
      ],
      "ERC20InvalidSpender(address)": [
        {
          "details": "Indicates a failure with the `spender` to be approved. Used in approvals.",
          "params": {
            "spender": "Address that may be allowed to operate on tokens without being their owner."
          }
        }
      ]
    },
    "events": {
      "Approval(address,address,uint256)": {
        "details": "Emitted when the allowance of a `spender` for an `owner` is set by a call to {approve}. `value` is the new allowance."
      },
      "Transfer(address,address,uint256)": {
        "details": "Emitted when `value` tokens are moved from one account (`from`) to another (`to`). Note that `value` may be zero."
      }
    },
    "kind": "dev",
    "methods": {
      "allowance(address,address)": {
        "details": "See {IERC20-allowance}."
      },
      "approve(address,uint256)": {
        "details": "See {IERC20-approve}. NOTE: If `value` is the maximum `uint256`, the allowance is not updated on `transferFrom`. This is semantically equivalent to an infinite approval. Requirements: - `spender` cannot be the zero address."
      },
      "balanceOf(address)": {
        "details": "See {IERC20-balanceOf}."
      },
      "burn(uint256)": {
        "details": "Destroys a `value` amount of tokens from the caller. See {ERC20-_burn}."
      },
      "burnFrom(address,uint256)": {
        "details": "Destroys a `value` amount of tokens from `account`, deducting from the caller's allowance. See {ERC20-_burn} and {ERC20-allowance}. Requirements: - the caller must have allowance for ``accounts``'s tokens of at least `value`."
      },
      "decimals()": {
        "details": "Returns the number of decimals used to get its user representation. For example, if `decimals` equals `2`, a balance of `505` tokens should be displayed to a user as `5.05` (`505 / 10 ** 2`). Tokens usually opt for a value of 18, imitating the relationship between Ether and Wei. This is the default value returned by this function, unless it's overridden. NOTE: This information is only used for _display_ purposes: it in no way affects any of the arithmetic of the contract, including {IERC20-balanceOf} and {IERC20-transfer}."
      },
      "name()": {
        "details": "Returns the name of the token."
      },
      "symbol()": {
        "details": "Returns the symbol of the token, usually a shorter version of the name."
      },
      "totalSupply()": {
        "details": "See {IERC20-totalSupply}."
      },
      "transfer(address,uint256)": {
        "details": "See {IERC20-transfer}. Requirements: - `to` cannot be the zero address. - the caller must have a balance of at least `value`."
      },
      "transferFrom(address,address,uint256)": {
        "details": "See {IERC20-transferFrom}. Skips emitting an {Approval} event indicating an allowance update. This is not required by the ERC. See {xref-ERC20-_approve-address-address-uint256-bool-}[_approve]. NOTE: Does not update the allowance if the current allowance is the maximum `uint256`. Requirements: - `from` and `to` cannot be the zero address. - `from` must have a balance of at least `value`. - the caller must have allowance for ``from``'s tokens of at least `value`."
      }
    },
    "version": 1
  },
  "userdoc": {
    "kind": "user",
    "methods": {},
    "version": 1
  },
  "storageLayout": {
    "storage": [
      {
        "astId": 159,
        "contract": "contracts/TestToken.sol:Paulie",
        "label": "_balances",
        "offset": 0,
        "slot": "0",
        "type": "t_mapping(t_address,t_uint256)"
      },
      {
        "astId": 165,
        "contract": "contracts/TestToken.sol:Paulie",
        "label": "_allowances",
        "offset": 0,
        "slot": "1",
        "type": "t_mapping(t_address,t_mapping(t_address,t_uint256))"
      },
      {
        "astId": 167,
        "contract": "contracts/TestToken.sol:Paulie",
        "label": "_totalSupply",
        "offset": 0,
        "slot": "2",
        "type": "t_uint256"
      },
      {
        "astId": 169,
        "contract": "contracts/TestToken.sol:Paulie",
        "label": "_name",
        "offset": 0,
        "slot": "3",
        "type": "t_string_storage"
      },
      {
        "astId": 171,
        "contract": "contracts/TestToken.sol:Paulie",
        "label": "_symbol",
        "offset": 0,
        "slot": "4",
        "type": "t_string_storage"
      }
    ],
    "types": {
      "t_address": {
        "encoding": "inplace",
        "label": "address",
        "numberOfBytes": "20"
      },
      "t_mapping(t_address,t_mapping(t_address,t_uint256))": {
        "encoding": "mapping",
        "key": "t_address",
        "label": "mapping(address => mapping(address => uint256))",
        "numberOfBytes": "32",
        "value": "t_mapping(t_address,t_uint256)"
      },
      "t_mapping(t_address,t_uint256)": {
        "encoding": "mapping",
        "key": "t_address",
        "label": "mapping(address => uint256)",
        "numberOfBytes": "32",
        "value": "t_uint256"
      },
      "t_string_storage": {
        "encoding": "bytes",
        "label": "string",
        "numberOfBytes": "32"
      },
      "t_uint256": {
        "encoding": "inplace",
        "label": "uint256",
        "numberOfBytes": "32"
      }
    }
  }
}