{
  "address": "0x20844f6A560b955B0a84A9cBf3F7793ab25630E2",
  "abi": [
    {
      "inputs": [
        {
          "internalType": "address",
          "name": "_feeDestination",
          "type": "address"
        },
        {
          "internalType": "uint256",
          "name": "_protocolFeePercent",
          "type": "uint256"
        },
        {
          "internalType": "uint256",
          "name": "_subjectFeePercent",
          "type": "uint256"
        },
        {
          "internalType": "address",
          "name": "_token",
          "type": "address"
        },
        {
          "internalType": "uint256",
          "name": "_multiplier1",
          "type": "uint256"
        },
        {
          "internalType": "uint256",
          "name": "_multiplier2",
          "type": "uint256"
        },
        {
          "internalType": "uint256",
          "name": "_multiplier3",
          "type": "uint256"
        }
      ],
      "stateMutability": "nonpayable",
      "type": "constructor"
    },
    {
      "inputs": [
        {
          "internalType": "address",
          "name": "owner",
          "type": "address"
        }
      ],
      "name": "OwnableInvalidOwner",
      "type": "error"
    },
    {
      "inputs": [
        {
          "internalType": "address",
          "name": "account",
          "type": "address"
        }
      ],
      "name": "OwnableUnauthorizedAccount",
      "type": "error"
    },
    {
      "inputs": [
        {
          "internalType": "address",
          "name": "token",
          "type": "address"
        }
      ],
      "name": "SafeERC20FailedOperation",
      "type": "error"
    },
    {
      "anonymous": false,
      "inputs": [
        {
          "indexed": true,
          "internalType": "address",
          "name": "previousOwner",
          "type": "address"
        },
        {
          "indexed": true,
          "internalType": "address",
          "name": "newOwner",
          "type": "address"
        }
      ],
      "name": "OwnershipTransferred",
      "type": "event"
    },
    {
      "anonymous": false,
      "inputs": [
        {
          "indexed": false,
          "internalType": "address",
          "name": "trader",
          "type": "address"
        },
        {
          "indexed": false,
          "internalType": "address",
          "name": "subject",
          "type": "address"
        },
        {
          "indexed": false,
          "internalType": "bool",
          "name": "isBuy",
          "type": "bool"
        },
        {
          "indexed": false,
          "internalType": "uint256",
          "name": "shareAmount",
          "type": "uint256"
        },
        {
          "indexed": false,
          "internalType": "uint256",
          "name": "tokenAmount",
          "type": "uint256"
        },
        {
          "indexed": false,
          "internalType": "uint256",
          "name": "protocolTokenAmount",
          "type": "uint256"
        },
        {
          "indexed": false,
          "internalType": "uint256",
          "name": "subjectTokenAmount",
          "type": "uint256"
        },
        {
          "indexed": false,
          "internalType": "uint256",
          "name": "supply",
          "type": "uint256"
        },
        {
          "indexed": false,
          "internalType": "uint256",
          "name": "multiplier",
          "type": "uint256"
        }
      ],
      "name": "Trade",
      "type": "event"
    },
    {
      "inputs": [
        {
          "internalType": "address",
          "name": "sharesSubject",
          "type": "address"
        },
        {
          "internalType": "uint256",
          "name": "amount",
          "type": "uint256"
        },
        {
          "internalType": "uint256",
          "name": "curveIndex",
          "type": "uint256"
        }
      ],
      "name": "buyShares",
      "outputs": [],
      "stateMutability": "payable",
      "type": "function"
    },
    {
      "inputs": [
        {
          "internalType": "address",
          "name": "sharesSubject",
          "type": "address"
        },
        {
          "internalType": "uint256",
          "name": "amount",
          "type": "uint256"
        }
      ],
      "name": "getBuyPrice",
      "outputs": [
        {
          "internalType": "uint256",
          "name": "",
          "type": "uint256"
        }
      ],
      "stateMutability": "view",
      "type": "function"
    },
    {
      "inputs": [
        {
          "internalType": "address",
          "name": "sharesSubject",
          "type": "address"
        },
        {
          "internalType": "uint256",
          "name": "amount",
          "type": "uint256"
        }
      ],
      "name": "getBuyPriceAfterFee",
      "outputs": [
        {
          "internalType": "uint256",
          "name": "",
          "type": "uint256"
        }
      ],
      "stateMutability": "view",
      "type": "function"
    },
    {
      "inputs": [
        {
          "internalType": "uint256",
          "name": "supply",
          "type": "uint256"
        },
        {
          "internalType": "uint256",
          "name": "amount",
          "type": "uint256"
        },
        {
          "internalType": "address",
          "name": "sharesSubject",
          "type": "address"
        }
      ],
      "name": "getPrice",
      "outputs": [
        {
          "internalType": "uint256",
          "name": "",
          "type": "uint256"
        }
      ],
      "stateMutability": "view",
      "type": "function"
    },
    {
      "inputs": [
        {
          "internalType": "address",
          "name": "sharesSubject",
          "type": "address"
        },
        {
          "internalType": "uint256",
          "name": "amount",
          "type": "uint256"
        }
      ],
      "name": "getSellPrice",
      "outputs": [
        {
          "internalType": "uint256",
          "name": "",
          "type": "uint256"
        }
      ],
      "stateMutability": "view",
      "type": "function"
    },
    {
      "inputs": [
        {
          "internalType": "address",
          "name": "sharesSubject",
          "type": "address"
        },
        {
          "internalType": "uint256",
          "name": "amount",
          "type": "uint256"
        }
      ],
      "name": "getSellPriceAfterFee",
      "outputs": [
        {
          "internalType": "uint256",
          "name": "",
          "type": "uint256"
        }
      ],
      "stateMutability": "view",
      "type": "function"
    },
    {
      "inputs": [],
      "name": "multiplier1",
      "outputs": [
        {
          "internalType": "uint256",
          "name": "",
          "type": "uint256"
        }
      ],
      "stateMutability": "view",
      "type": "function"
    },
    {
      "inputs": [],
      "name": "multiplier2",
      "outputs": [
        {
          "internalType": "uint256",
          "name": "",
          "type": "uint256"
        }
      ],
      "stateMutability": "view",
      "type": "function"
    },
    {
      "inputs": [],
      "name": "multiplier3",
      "outputs": [
        {
          "internalType": "uint256",
          "name": "",
          "type": "uint256"
        }
      ],
      "stateMutability": "view",
      "type": "function"
    },
    {
      "inputs": [],
      "name": "owner",
      "outputs": [
        {
          "internalType": "address",
          "name": "",
          "type": "address"
        }
      ],
      "stateMutability": "view",
      "type": "function"
    },
    {
      "inputs": [],
      "name": "protocolFeeDestination",
      "outputs": [
        {
          "internalType": "address",
          "name": "",
          "type": "address"
        }
      ],
      "stateMutability": "view",
      "type": "function"
    },
    {
      "inputs": [],
      "name": "protocolFeePercent",
      "outputs": [
        {
          "internalType": "uint256",
          "name": "",
          "type": "uint256"
        }
      ],
      "stateMutability": "view",
      "type": "function"
    },
    {
      "inputs": [],
      "name": "renounceOwnership",
      "outputs": [],
      "stateMutability": "nonpayable",
      "type": "function"
    },
    {
      "inputs": [
        {
          "internalType": "address",
          "name": "sharesSubject",
          "type": "address"
        },
        {
          "internalType": "uint256",
          "name": "amount",
          "type": "uint256"
        }
      ],
      "name": "sellShares",
      "outputs": [],
      "stateMutability": "payable",
      "type": "function"
    },
    {
      "inputs": [
        {
          "internalType": "address",
          "name": "_feeDestination",
          "type": "address"
        }
      ],
      "name": "setFeeDestination",
      "outputs": [],
      "stateMutability": "nonpayable",
      "type": "function"
    },
    {
      "inputs": [
        {
          "internalType": "uint256",
          "name": "_feePercent",
          "type": "uint256"
        }
      ],
      "name": "setProtocolFeePercent",
      "outputs": [],
      "stateMutability": "nonpayable",
      "type": "function"
    },
    {
      "inputs": [
        {
          "internalType": "uint256",
          "name": "_feePercent",
          "type": "uint256"
        }
      ],
      "name": "setSubjectFeePercent",
      "outputs": [],
      "stateMutability": "nonpayable",
      "type": "function"
    },
    {
      "inputs": [
        {
          "internalType": "address",
          "name": "",
          "type": "address"
        },
        {
          "internalType": "address",
          "name": "",
          "type": "address"
        }
      ],
      "name": "sharesBalance",
      "outputs": [
        {
          "internalType": "uint256",
          "name": "",
          "type": "uint256"
        }
      ],
      "stateMutability": "view",
      "type": "function"
    },
    {
      "inputs": [
        {
          "internalType": "address",
          "name": "",
          "type": "address"
        }
      ],
      "name": "sharesSupply",
      "outputs": [
        {
          "internalType": "uint256",
          "name": "",
          "type": "uint256"
        }
      ],
      "stateMutability": "view",
      "type": "function"
    },
    {
      "inputs": [
        {
          "internalType": "address",
          "name": "",
          "type": "address"
        }
      ],
      "name": "subjectCurve",
      "outputs": [
        {
          "internalType": "uint256",
          "name": "",
          "type": "uint256"
        }
      ],
      "stateMutability": "view",
      "type": "function"
    },
    {
      "inputs": [],
      "name": "subjectFeePercent",
      "outputs": [
        {
          "internalType": "uint256",
          "name": "",
          "type": "uint256"
        }
      ],
      "stateMutability": "view",
      "type": "function"
    },
    {
      "inputs": [],
      "name": "token",
      "outputs": [
        {
          "internalType": "address",
          "name": "",
          "type": "address"
        }
      ],
      "stateMutability": "view",
      "type": "function"
    },
    {
      "inputs": [
        {
          "internalType": "address",
          "name": "newOwner",
          "type": "address"
        }
      ],
      "name": "transferOwnership",
      "outputs": [],
      "stateMutability": "nonpayable",
      "type": "function"
    }
  ],
  "transactionHash": "0x5e4a0a1f96264b243d96577bf9c4cc783ca825f9eaabaf6c511fb7af8fc9817e",
  "args": [
    "0xE69101e591CD978Bc3ECbE8FD398B32417685521",
    "50000000000000000",
    "30000000000000000",
    "0x6555255b8dEd3c538Cb398d9E36769f45D7d3ea7",
    "5",
    "10",
    "20"
  ],
  "numDeployments": 1,
  "solcInputHash": "b86b409e6632a5119353ce8a7450f317",
  "bytecode": "0x60806040523480156200001157600080fd5b50604051620024c2380380620024c28339818101604052810190620000379190620003ac565b33600073ffffffffffffffffffffffffffffffffffffffff168173ffffffffffffffffffffffffffffffffffffffff1603620000ad5760006040517f1e4fbdf7000000000000000000000000000000000000000000000000000000008152600401620000a4919062000470565b60405180910390fd5b620000be816200024360201b60201c565b506000831162000105576040517f08c379a0000000000000000000000000000000000000000000000000000000008152600401620000fc90620004ee565b60405180910390fd5b600082116200014b576040517f08c379a0000000000000000000000000000000000000000000000000000000008152600401620001429062000560565b60405180910390fd5b6000811162000191576040517f08c379a00000000000000000000000000000000000000000000000000000000081526004016200018890620005d2565b60405180910390fd5b86600160006101000a81548173ffffffffffffffffffffffffffffffffffffffff021916908373ffffffffffffffffffffffffffffffffffffffff160217905550856002819055508460038190555083600460006101000a81548173ffffffffffffffffffffffffffffffffffffffff021916908373ffffffffffffffffffffffffffffffffffffffff16021790555082600581905550816006819055508060078190555050505050505050620005f4565b60008060009054906101000a900473ffffffffffffffffffffffffffffffffffffffff169050816000806101000a81548173ffffffffffffffffffffffffffffffffffffffff021916908373ffffffffffffffffffffffffffffffffffffffff1602179055508173ffffffffffffffffffffffffffffffffffffffff168173ffffffffffffffffffffffffffffffffffffffff167f8be0079c531659141344cd1fd0a4f28419497f9722a3daafe3b4186f6b6457e060405160405180910390a35050565b600080fd5b600073ffffffffffffffffffffffffffffffffffffffff82169050919050565b600062000339826200030c565b9050919050565b6200034b816200032c565b81146200035757600080fd5b50565b6000815190506200036b8162000340565b92915050565b6000819050919050565b620003868162000371565b81146200039257600080fd5b50565b600081519050620003a6816200037b565b92915050565b600080600080600080600060e0888a031215620003ce57620003cd62000307565b5b6000620003de8a828b016200035a565b9750506020620003f18a828b0162000395565b9650506040620004048a828b0162000395565b9550506060620004178a828b016200035a565b94505060806200042a8a828b0162000395565b93505060a06200043d8a828b0162000395565b92505060c0620004508a828b0162000395565b91505092959891949750929550565b6200046a816200032c565b82525050565b60006020820190506200048760008301846200045f565b92915050565b600082825260208201905092915050565b7f4d756c7469706c696572312063616e6e6f74206265207a65726f000000000000600082015250565b6000620004d6601a836200048d565b9150620004e3826200049e565b602082019050919050565b600060208201905081810360008301526200050981620004c7565b9050919050565b7f4d756c7469706c696572322063616e6e6f74206265207a65726f000000000000600082015250565b600062000548601a836200048d565b9150620005558262000510565b602082019050919050565b600060208201905081810360008301526200057b8162000539565b9050919050565b7f4d756c7469706c696572332063616e6e6f74206265207a65726f000000000000600082015250565b6000620005ba601a836200048d565b9150620005c78262000582565b602082019050919050565b60006020820190508181036000830152620005ed81620005ab565b9050919050565b611ebe80620006046000396000f3fe6080604052600436106101405760003560e01c80635a8a764e116100b6578063b51d05341161006f578063b51d053414610477578063d6e6eb9f14610493578063f2fde38b146104be578063f9931be0146104e7578063fbe5323414610524578063fc0c546a1461054d57610140565b80635a8a764e14610369578063715018a61461039257806373f773ff146103a95780638da5cb5b146103e65780639ae7178114610411578063a49834211461044e57610140565b80631f66d2cb116101085780631f66d2cb146102315780632267a89c1461025c57806324dc441d146102995780633b44c946146102c45780634635256e146103015780634ce7957c1461033e57610140565b8063020235ff1461014557806309675e12146101825780630f026f6d146101ad57806317f69222146101ea5780631daedef414610206575b600080fd5b34801561015157600080fd5b5061016c60048036038101906101679190611856565b610578565b60405161017991906118af565b60405180910390f35b34801561018e57600080fd5b5061019761059d565b6040516101a491906118af565b60405180910390f35b3480156101b957600080fd5b506101d460048036038101906101cf91906118f6565b6105a3565b6040516101e191906118af565b60405180910390f35b61020460048036038101906101ff9190611936565b61061e565b005b34801561021257600080fd5b5061021b610b4f565b60405161022891906118af565b60405180910390f35b34801561023d57600080fd5b50610246610b55565b60405161025391906118af565b60405180910390f35b34801561026857600080fd5b50610283600480360381019061027e91906118f6565b610b5b565b60405161029091906118af565b60405180910390f35b3480156102a557600080fd5b506102ae610bd6565b6040516102bb91906118af565b60405180910390f35b3480156102d057600080fd5b506102eb60048036038101906102e69190611989565b610bdc565b6040516102f891906118af565b60405180910390f35b34801561030d57600080fd5b50610328600480360381019061032391906118f6565b610bf4565b60405161033591906118af565b60405180910390f35b34801561034a57600080fd5b50610353610c48565b60405161036091906119c5565b60405180910390f35b34801561037557600080fd5b50610390600480360381019061038b91906119e0565b610c6e565b005b34801561039e57600080fd5b506103a7610c80565b005b3480156103b557600080fd5b506103d060048036038101906103cb9190611a0d565b610c94565b6040516103dd91906118af565b60405180910390f35b3480156103f257600080fd5b506103fb610e4e565b60405161040891906119c5565b60405180910390f35b34801561041d57600080fd5b50610438600480360381019061043391906118f6565b610e77565b60405161044591906118af565b60405180910390f35b34801561045a57600080fd5b50610475600480360381019061047091906119e0565b610ed6565b005b610491600480360381019061048c91906118f6565b610ee8565b005b34801561049f57600080fd5b506104a86113e7565b6040516104b591906118af565b60405180910390f35b3480156104ca57600080fd5b506104e560048036038101906104e09190611989565b6113ed565b005b3480156104f357600080fd5b5061050e60048036038101906105099190611989565b611473565b60405161051b91906118af565b60405180910390f35b34801561053057600080fd5b5061054b60048036038101906105469190611989565b61148b565b005b34801561055957600080fd5b506105626114d7565b60405161056f91906119c5565b60405180910390f35b6009602052816000526040600020602052806000526040600020600091509150505481565b60055481565b6000806105b08484610bf4565b90506000670de0b6b3a7640000600254836105cb9190611a8f565b6105d59190611b00565b90506000670de0b6b3a7640000600354846105f09190611a8f565b6105fa9190611b00565b90508082846106099190611b31565b6106139190611b31565b935050505092915050565b6000600a60008573ffffffffffffffffffffffffffffffffffffffff1673ffffffffffffffffffffffffffffffffffffffff168152602001908152602001600020549050600081118061069c57503373ffffffffffffffffffffffffffffffffffffffff168473ffffffffffffffffffffffffffffffffffffffff16145b6106db576040517f08c379a00000000000000000000000000000000000000000000000000000000081526004016106d290611be8565b60405180910390fd5b60008114801561071657503373ffffffffffffffffffffffffffffffffffffffff168473ffffffffffffffffffffffffffffffffffffffff16145b156107b1576001821015801561072d575060038211155b61076c576040517f08c379a000000000000000000000000000000000000000000000000000000000815260040161076390611c54565b60405180910390fd5b81600860008673ffffffffffffffffffffffffffffffffffffffff1673ffffffffffffffffffffffffffffffffffffffff168152602001908152602001600020819055505b60006107be828587610c94565b90506000670de0b6b3a7640000600254836107d99190611a8f565b6107e39190611b00565b90506000670de0b6b3a7640000600354846107fe9190611a8f565b6108089190611b00565b905085600960008973ffffffffffffffffffffffffffffffffffffffff1673ffffffffffffffffffffffffffffffffffffffff16815260200190815260200160002060003373ffffffffffffffffffffffffffffffffffffffff1673ffffffffffffffffffffffffffffffffffffffff168152602001908152602001600020546108929190611b31565b600960008973ffffffffffffffffffffffffffffffffffffffff1673ffffffffffffffffffffffffffffffffffffffff16815260200190815260200160002060003373ffffffffffffffffffffffffffffffffffffffff1673ffffffffffffffffffffffffffffffffffffffff16815260200190815260200160002081905550858461091e9190611b31565b600a60008973ffffffffffffffffffffffffffffffffffffffff1673ffffffffffffffffffffffffffffffffffffffff168152602001908152602001600020819055506000600860008973ffffffffffffffffffffffffffffffffffffffff1673ffffffffffffffffffffffffffffffffffffffff168152602001908152602001600020549550600186036109b75760055490506109e3565b600286036109c95760065490506109e2565b600386036109db5760075490506109e1565b60055490505b5b5b7f952ff8d90add9fdeaeb478102d54441cf0cc0cbe53b1d99e51f747cdc8379e54338960018a8888888e8d610a189190611b31565b89604051610a2e99989796959493929190611c8f565b60405180910390a1610a85333086600460009054906101000a900473ffffffffffffffffffffffffffffffffffffffff1673ffffffffffffffffffffffffffffffffffffffff166114fd909392919063ffffffff16565b610af633600160009054906101000a900473ffffffffffffffffffffffffffffffffffffffff1685600460009054906101000a900473ffffffffffffffffffffffffffffffffffffffff1673ffffffffffffffffffffffffffffffffffffffff166114fd909392919063ffffffff16565b610b45338984600460009054906101000a900473ffffffffffffffffffffffffffffffffffffffff1673ffffffffffffffffffffffffffffffffffffffff166114fd909392919063ffffffff16565b5050505050505050565b60065481565b60075481565b600080610b688484610e77565b90506000670de0b6b3a764000060025483610b839190611a8f565b610b8d9190611b00565b90506000670de0b6b3a764000060035484610ba89190611a8f565b610bb29190611b00565b9050808284610bc19190611d1c565b610bcb9190611d1c565b935050505092915050565b60035481565b60086020528060005260406000206000915090505481565b6000610c40600a60008573ffffffffffffffffffffffffffffffffffffffff1673ffffffffffffffffffffffffffffffffffffffff168152602001908152602001600020548385610c94565b905092915050565b600160009054906101000a900473ffffffffffffffffffffffffffffffffffffffff1681565b610c7661157f565b8060038190555050565b610c8861157f565b610c926000611606565b565b60008060008514610cf657600660018087610caf9190611d1c565b6002610cbb9190611a8f565b610cc59190611b31565b86600188610cd39190611d1c565b610cdd9190611a8f565b610ce79190611a8f565b610cf19190611b00565b610cf9565b60005b905060008086148015610d0c5750600185145b610d89576006600186600189610d229190611d1c565b610d2c9190611b31565b6002610d389190611a8f565b610d429190611b31565b8688610d4e9190611b31565b8760018a610d5c9190611d1c565b610d669190611b31565b610d709190611a8f565b610d7a9190611a8f565b610d849190611b00565b610d8c565b60005b905060008282610d9c9190611d1c565b9050600080600860008873ffffffffffffffffffffffffffffffffffffffff1673ffffffffffffffffffffffffffffffffffffffff16815260200190815260200160002054905060018103610df5576005549150610e21565b60028103610e07576006549150610e20565b60038103610e19576007549150610e1f565b60055491505b5b5b81670de0b6b3a764000084610e369190611a8f565b610e409190611a8f565b955050505050509392505050565b60008060009054906101000a900473ffffffffffffffffffffffffffffffffffffffff16905090565b6000610ece82600a60008673ffffffffffffffffffffffffffffffffffffffff1673ffffffffffffffffffffffffffffffffffffffff16815260200190815260200160002054610ec79190611d1c565b8385610c94565b905092915050565b610ede61157f565b8060028190555050565b6000600a60008473ffffffffffffffffffffffffffffffffffffffff1673ffffffffffffffffffffffffffffffffffffffff168152602001908152602001600020549050818111610f6e576040517f08c379a0000000000000000000000000000000000000000000000000000000008152600401610f6590611d9c565b60405180910390fd5b6000610f868383610f7f9190611d1c565b8486610c94565b90506000670de0b6b3a764000060025483610fa19190611a8f565b610fab9190611b00565b90506000670de0b6b3a764000060035484610fc69190611a8f565b610fd09190611b00565b905084600960008873ffffffffffffffffffffffffffffffffffffffff1673ffffffffffffffffffffffffffffffffffffffff16815260200190815260200160002060003373ffffffffffffffffffffffffffffffffffffffff1673ffffffffffffffffffffffffffffffffffffffff168152602001908152602001600020541015611091576040517f08c379a000000000000000000000000000000000000000000000000000000000815260040161108890611e08565b60405180910390fd5b84600960008873ffffffffffffffffffffffffffffffffffffffff1673ffffffffffffffffffffffffffffffffffffffff16815260200190815260200160002060003373ffffffffffffffffffffffffffffffffffffffff1673ffffffffffffffffffffffffffffffffffffffff168152602001908152602001600020546111199190611d1c565b600960008873ffffffffffffffffffffffffffffffffffffffff1673ffffffffffffffffffffffffffffffffffffffff16815260200190815260200160002060003373ffffffffffffffffffffffffffffffffffffffff1673ffffffffffffffffffffffffffffffffffffffff1681526020019081526020016000208190555084846111a59190611d1c565b600a60008873ffffffffffffffffffffffffffffffffffffffff1673ffffffffffffffffffffffffffffffffffffffff16815260200190815260200160002081905550600080600860008973ffffffffffffffffffffffffffffffffffffffff1673ffffffffffffffffffffffffffffffffffffffff1681526020019081526020016000205490506001810361123f57600554915061126b565b6002810361125157600654915061126a565b60038103611263576007549150611269565b60055491505b5b5b7f952ff8d90add9fdeaeb478102d54441cf0cc0cbe53b1d99e51f747cdc8379e54338960008a8989898e8e6112a09190611d1c565b8a6040516112b699989796959493929190611c8f565b60405180910390a1611321338486886112cf9190611d1c565b6112d99190611d1c565b600460009054906101000a900473ffffffffffffffffffffffffffffffffffffffff1673ffffffffffffffffffffffffffffffffffffffff166116ca9092919063ffffffff16565b611390600160009054906101000a900473ffffffffffffffffffffffffffffffffffffffff1685600460009054906101000a900473ffffffffffffffffffffffffffffffffffffffff1673ffffffffffffffffffffffffffffffffffffffff166116ca9092919063ffffffff16565b6113dd8884600460009054906101000a900473ffffffffffffffffffffffffffffffffffffffff1673ffffffffffffffffffffffffffffffffffffffff166116ca9092919063ffffffff16565b5050505050505050565b60025481565b6113f561157f565b600073ffffffffffffffffffffffffffffffffffffffff168173ffffffffffffffffffffffffffffffffffffffff16036114675760006040517f1e4fbdf700000000000000000000000000000000000000000000000000000000815260040161145e91906119c5565b60405180910390fd5b61147081611606565b50565b600a6020528060005260406000206000915090505481565b61149361157f565b80600160006101000a81548173ffffffffffffffffffffffffffffffffffffffff021916908373ffffffffffffffffffffffffffffffffffffffff16021790555050565b600460009054906101000a900473ffffffffffffffffffffffffffffffffffffffff1681565b611579848573ffffffffffffffffffffffffffffffffffffffff166323b872dd86868660405160240161153293929190611e28565b604051602081830303815290604052915060e01b6020820180517bffffffffffffffffffffffffffffffffffffffffffffffffffffffff8381831617835250505050611749565b50505050565b6115876117eb565b73ffffffffffffffffffffffffffffffffffffffff166115a5610e4e565b73ffffffffffffffffffffffffffffffffffffffff1614611604576115c86117eb565b6040517f118cdaa70000000000000000000000000000000000000000000000000000000081526004016115fb91906119c5565b60405180910390fd5b565b60008060009054906101000a900473ffffffffffffffffffffffffffffffffffffffff169050816000806101000a81548173ffffffffffffffffffffffffffffffffffffffff021916908373ffffffffffffffffffffffffffffffffffffffff1602179055508173ffffffffffffffffffffffffffffffffffffffff168173ffffffffffffffffffffffffffffffffffffffff167f8be0079c531659141344cd1fd0a4f28419497f9722a3daafe3b4186f6b6457e060405160405180910390a35050565b611744838473ffffffffffffffffffffffffffffffffffffffff1663a9059cbb85856040516024016116fd929190611e5f565b604051602081830303815290604052915060e01b6020820180517bffffffffffffffffffffffffffffffffffffffffffffffffffffffff8381831617835250505050611749565b505050565b600080602060008451602086016000885af18061176c576040513d6000823e3d81fd5b3d9250600051915050600082146117875760018114156117a3565b60008473ffffffffffffffffffffffffffffffffffffffff163b145b156117e557836040517f5274afe70000000000000000000000000000000000000000000000000000000081526004016117dc91906119c5565b60405180910390fd5b50505050565b600033905090565b600080fd5b600073ffffffffffffffffffffffffffffffffffffffff82169050919050565b6000611823826117f8565b9050919050565b61183381611818565b811461183e57600080fd5b50565b6000813590506118508161182a565b92915050565b6000806040838503121561186d5761186c6117f3565b5b600061187b85828601611841565b925050602061188c85828601611841565b9150509250929050565b6000819050919050565b6118a981611896565b82525050565b60006020820190506118c460008301846118a0565b92915050565b6118d381611896565b81146118de57600080fd5b50565b6000813590506118f0816118ca565b92915050565b6000806040838503121561190d5761190c6117f3565b5b600061191b85828601611841565b925050602061192c858286016118e1565b9150509250929050565b60008060006060848603121561194f5761194e6117f3565b5b600061195d86828701611841565b935050602061196e868287016118e1565b925050604061197f868287016118e1565b9150509250925092565b60006020828403121561199f5761199e6117f3565b5b60006119ad84828501611841565b91505092915050565b6119bf81611818565b82525050565b60006020820190506119da60008301846119b6565b92915050565b6000602082840312156119f6576119f56117f3565b5b6000611a04848285016118e1565b91505092915050565b600080600060608486031215611a2657611a256117f3565b5b6000611a34868287016118e1565b9350506020611a45868287016118e1565b9250506040611a5686828701611841565b9150509250925092565b7f4e487b7100000000000000000000000000000000000000000000000000000000600052601160045260246000fd5b6000611a9a82611896565b9150611aa583611896565b9250828202611ab381611896565b91508282048414831517611aca57611ac9611a60565b5b5092915050565b7f4e487b7100000000000000000000000000000000000000000000000000000000600052601260045260246000fd5b6000611b0b82611896565b9150611b1683611896565b925082611b2657611b25611ad1565b5b828204905092915050565b6000611b3c82611896565b9150611b4783611896565b9250828201905080821115611b5f57611b5e611a60565b5b92915050565b600082825260208201905092915050565b7f4f6e6c79207468652073686172657327207375626a6563742063616e2062757960008201527f2074686520666972737420736861726500000000000000000000000000000000602082015250565b6000611bd2603083611b65565b9150611bdd82611b76565b604082019050919050565b60006020820190508181036000830152611c0181611bc5565b9050919050565b7f496e76616c696420637572766520696e64657800000000000000000000000000600082015250565b6000611c3e601383611b65565b9150611c4982611c08565b602082019050919050565b60006020820190508181036000830152611c6d81611c31565b9050919050565b60008115159050919050565b611c8981611c74565b82525050565b600061012082019050611ca5600083018c6119b6565b611cb2602083018b6119b6565b611cbf604083018a611c80565b611ccc60608301896118a0565b611cd960808301886118a0565b611ce660a08301876118a0565b611cf360c08301866118a0565b611d0060e08301856118a0565b611d0e6101008301846118a0565b9a9950505050505050505050565b6000611d2782611896565b9150611d3283611896565b9250828203905081811115611d4a57611d49611a60565b5b92915050565b7f43616e6e6f742073656c6c20746865206c617374207368617265000000000000600082015250565b6000611d86601a83611b65565b9150611d9182611d50565b602082019050919050565b60006020820190508181036000830152611db581611d79565b9050919050565b7f496e73756666696369656e742073686172657300000000000000000000000000600082015250565b6000611df2601383611b65565b9150611dfd82611dbc565b602082019050919050565b60006020820190508181036000830152611e2181611de5565b9050919050565b6000606082019050611e3d60008301866119b6565b611e4a60208301856119b6565b611e5760408301846118a0565b949350505050565b6000604082019050611e7460008301856119b6565b611e8160208301846118a0565b939250505056fea2646970667358221220ae0fc5c5dd41415e6a9d4980687828c0f870dfabe8a5beb4173256b9891840d864736f6c63430008140033",
  "devdoc": {
    "errors": {
      "OwnableInvalidOwner(address)": [
        {
          "details": "The owner is not a valid owner account. (eg. `address(0)`)"
        }
      ],
      "OwnableUnauthorizedAccount(address)": [
        {
          "details": "The caller account is not authorized to perform an operation."
        }
      ],
      "SafeERC20FailedOperation(address)": [
        {
          "details": "An operation with an ERC-20 token failed."
        }
      ]
    },
    "kind": "dev",
    "methods": {
      "owner()": {
        "details": "Returns the address of the current owner."
      },
      "renounceOwnership()": {
        "details": "Leaves the contract without owner. It will not be possible to call `onlyOwner` functions. Can only be called by the current owner. NOTE: Renouncing ownership will leave the contract without an owner, thereby disabling any functionality that is only available to the owner."
      },
      "transferOwnership(address)": {
        "details": "Transfers ownership of the contract to a new account (`newOwner`). Can only be called by the current owner."
      }
    },
    "version": 1
  },
  "userdoc": {
    "kind": "user",
    "methods": {},
    "version": 1
  },
  "storageLayout": {
    "storage": [
      {
        "astId": 8,
        "contract": "contracts/Backroom.sol:Backroom",
        "label": "_owner",
        "offset": 0,
        "slot": "0",
        "type": "t_address"
      },
      {
        "astId": 1515,
        "contract": "contracts/Backroom.sol:Backroom",
        "label": "protocolFeeDestination",
        "offset": 0,
        "slot": "1",
        "type": "t_address"
      },
      {
        "astId": 1517,
        "contract": "contracts/Backroom.sol:Backroom",
        "label": "protocolFeePercent",
        "offset": 0,
        "slot": "2",
        "type": "t_uint256"
      },
      {
        "astId": 1519,
        "contract": "contracts/Backroom.sol:Backroom",
        "label": "subjectFeePercent",
        "offset": 0,
        "slot": "3",
        "type": "t_uint256"
      },
      {
        "astId": 1521,
        "contract": "contracts/Backroom.sol:Backroom",
        "label": "token",
        "offset": 0,
        "slot": "4",
        "type": "t_address"
      },
      {
        "astId": 1523,
        "contract": "contracts/Backroom.sol:Backroom",
        "label": "multiplier1",
        "offset": 0,
        "slot": "5",
        "type": "t_uint256"
      },
      {
        "astId": 1525,
        "contract": "contracts/Backroom.sol:Backroom",
        "label": "multiplier2",
        "offset": 0,
        "slot": "6",
        "type": "t_uint256"
      },
      {
        "astId": 1527,
        "contract": "contracts/Backroom.sol:Backroom",
        "label": "multiplier3",
        "offset": 0,
        "slot": "7",
        "type": "t_uint256"
      },
      {
        "astId": 1531,
        "contract": "contracts/Backroom.sol:Backroom",
        "label": "subjectCurve",
        "offset": 0,
        "slot": "8",
        "type": "t_mapping(t_address,t_uint256)"
      },
      {
        "astId": 1557,
        "contract": "contracts/Backroom.sol:Backroom",
        "label": "sharesBalance",
        "offset": 0,
        "slot": "9",
        "type": "t_mapping(t_address,t_mapping(t_address,t_uint256))"
      },
      {
        "astId": 1561,
        "contract": "contracts/Backroom.sol:Backroom",
        "label": "sharesSupply",
        "offset": 0,
        "slot": "10",
        "type": "t_mapping(t_address,t_uint256)"
      }
    ],
    "types": {
      "t_address": {
        "encoding": "inplace",
        "label": "address",
        "numberOfBytes": "20"
      },
      "t_mapping(t_address,t_mapping(t_address,t_uint256))": {
        "encoding": "mapping",
        "key": "t_address",
        "label": "mapping(address => mapping(address => uint256))",
        "numberOfBytes": "32",
        "value": "t_mapping(t_address,t_uint256)"
      },
      "t_mapping(t_address,t_uint256)": {
        "encoding": "mapping",
        "key": "t_address",
        "label": "mapping(address => uint256)",
        "numberOfBytes": "32",
        "value": "t_uint256"
      },
      "t_uint256": {
        "encoding": "inplace",
        "label": "uint256",
        "numberOfBytes": "32"
      }
    }
  }
}