{
  "address": "0x7CF80D6925547e8393754eee2Faf2837b9Eca9a1",
  "abi": [
    {
      "inputs": [
        {
          "internalType": "address",
          "name": "_usdcToken",
          "type": "address"
        },
        {
          "internalType": "address",
          "name": "_stakingContract",
          "type": "address"
        },
        {
          "internalType": "uint256",
          "name": "_saleDuration",
          "type": "uint256"
        }
      ],
      "stateMutability": "nonpayable",
      "type": "constructor"
    },
    {
      "inputs": [
        {
          "internalType": "address",
          "name": "owner",
          "type": "address"
        }
      ],
      "name": "OwnableInvalidOwner",
      "type": "error"
    },
    {
      "inputs": [
        {
          "internalType": "address",
          "name": "account",
          "type": "address"
        }
      ],
      "name": "OwnableUnauthorizedAccount",
      "type": "error"
    },
    {
      "inputs": [],
      "name": "ReentrancyGuardReentrantCall",
      "type": "error"
    },
    {
      "inputs": [
        {
          "internalType": "address",
          "name": "token",
          "type": "address"
        }
      ],
      "name": "SafeERC20FailedOperation",
      "type": "error"
    },
    {
      "anonymous": false,
      "inputs": [
        {
          "indexed": false,
          "internalType": "address[]",
          "name": "investors",
          "type": "address[]"
        },
        {
          "indexed": false,
          "internalType": "uint256[]",
          "name": "tokenAllocations",
          "type": "uint256[]"
        },
        {
          "indexed": false,
          "internalType": "uint256[]",
          "name": "usdcRefunds",
          "type": "uint256[]"
        }
      ],
      "name": "AllocationsSet",
      "type": "event"
    },
    {
      "anonymous": false,
      "inputs": [
        {
          "indexed": true,
          "internalType": "address",
          "name": "investor",
          "type": "address"
        },
        {
          "indexed": false,
          "internalType": "uint256",
          "name": "amount",
          "type": "uint256"
        },
        {
          "indexed": false,
          "internalType": "uint256",
          "name": "stakedSnapshot",
          "type": "uint256"
        }
      ],
      "name": "DepositMade",
      "type": "event"
    },
    {
      "anonymous": false,
      "inputs": [
        {
          "indexed": false,
          "internalType": "uint256",
          "name": "amount",
          "type": "uint256"
        }
      ],
      "name": "FundsWithdrawn",
      "type": "event"
    },
    {
      "anonymous": false,
      "inputs": [
        {
          "indexed": true,
          "internalType": "address",
          "name": "previousOwner",
          "type": "address"
        },
        {
          "indexed": true,
          "internalType": "address",
          "name": "newOwner",
          "type": "address"
        }
      ],
      "name": "OwnershipTransferred",
      "type": "event"
    },
    {
      "anonymous": false,
      "inputs": [
        {
          "indexed": false,
          "internalType": "uint256",
          "name": "startTime",
          "type": "uint256"
        },
        {
          "indexed": false,
          "internalType": "uint256",
          "name": "endTime",
          "type": "uint256"
        },
        {
          "indexed": false,
          "internalType": "uint256",
          "name": "duration",
          "type": "uint256"
        }
      ],
      "name": "SaleStarted",
      "type": "event"
    },
    {
      "inputs": [
        {
          "internalType": "address",
          "name": "",
          "type": "address"
        }
      ],
      "name": "amountInvested",
      "outputs": [
        {
          "internalType": "uint256",
          "name": "",
          "type": "uint256"
        }
      ],
      "stateMutability": "view",
      "type": "function"
    },
    {
      "inputs": [
        {
          "internalType": "uint256",
          "name": "_amount",
          "type": "uint256"
        }
      ],
      "name": "deposit",
      "outputs": [],
      "stateMutability": "nonpayable",
      "type": "function"
    },
    {
      "inputs": [
        {
          "internalType": "uint256",
          "name": "offset",
          "type": "uint256"
        },
        {
          "internalType": "uint256",
          "name": "limit",
          "type": "uint256"
        }
      ],
      "name": "getAllInvestors",
      "outputs": [
        {
          "components": [
            {
              "internalType": "address",
              "name": "investor",
              "type": "address"
            },
            {
              "internalType": "uint256",
              "name": "amountInvested",
              "type": "uint256"
            },
            {
              "internalType": "uint256",
              "name": "stakedSnapshot",
              "type": "uint256"
            },
            {
              "internalType": "uint256",
              "name": "tokenAllocation",
              "type": "uint256"
            },
            {
              "internalType": "uint256",
              "name": "usdcRefund",
              "type": "uint256"
            }
          ],
          "internalType": "struct IInvesting.InvestorInfo[]",
          "name": "",
          "type": "tuple[]"
        }
      ],
      "stateMutability": "view",
      "type": "function"
    },
    {
      "inputs": [],
      "name": "getSaleTimes",
      "outputs": [
        {
          "internalType": "uint256",
          "name": "saleStart_",
          "type": "uint256"
        },
        {
          "internalType": "uint256",
          "name": "saleEnd_",
          "type": "uint256"
        },
        {
          "internalType": "uint256",
          "name": "saleDuration_",
          "type": "uint256"
        }
      ],
      "stateMutability": "view",
      "type": "function"
    },
    {
      "inputs": [],
      "name": "getTotalInvested",
      "outputs": [
        {
          "internalType": "uint256",
          "name": "",
          "type": "uint256"
        }
      ],
      "stateMutability": "view",
      "type": "function"
    },
    {
      "inputs": [
        {
          "internalType": "address",
          "name": "user",
          "type": "address"
        }
      ],
      "name": "getUserInfo",
      "outputs": [
        {
          "internalType": "uint256",
          "name": "amountInvested_",
          "type": "uint256"
        },
        {
          "internalType": "uint256",
          "name": "stakedSnapshot_",
          "type": "uint256"
        },
        {
          "internalType": "uint256",
          "name": "tokenAllocation_",
          "type": "uint256"
        },
        {
          "internalType": "uint256",
          "name": "usdcRefund_",
          "type": "uint256"
        }
      ],
      "stateMutability": "view",
      "type": "function"
    },
    {
      "inputs": [
        {
          "internalType": "uint256",
          "name": "",
          "type": "uint256"
        }
      ],
      "name": "investors",
      "outputs": [
        {
          "internalType": "address",
          "name": "",
          "type": "address"
        }
      ],
      "stateMutability": "view",
      "type": "function"
    },
    {
      "inputs": [],
      "name": "isSaleActive",
      "outputs": [
        {
          "internalType": "bool",
          "name": "",
          "type": "bool"
        }
      ],
      "stateMutability": "view",
      "type": "function"
    },
    {
      "inputs": [],
      "name": "owner",
      "outputs": [
        {
          "internalType": "address",
          "name": "",
          "type": "address"
        }
      ],
      "stateMutability": "view",
      "type": "function"
    },
    {
      "inputs": [],
      "name": "renounceOwnership",
      "outputs": [],
      "stateMutability": "nonpayable",
      "type": "function"
    },
    {
      "inputs": [],
      "name": "saleDuration",
      "outputs": [
        {
          "internalType": "uint256",
          "name": "",
          "type": "uint256"
        }
      ],
      "stateMutability": "view",
      "type": "function"
    },
    {
      "inputs": [],
      "name": "saleEnd",
      "outputs": [
        {
          "internalType": "uint256",
          "name": "",
          "type": "uint256"
        }
      ],
      "stateMutability": "view",
      "type": "function"
    },
    {
      "inputs": [],
      "name": "saleStart",
      "outputs": [
        {
          "internalType": "uint256",
          "name": "",
          "type": "uint256"
        }
      ],
      "stateMutability": "view",
      "type": "function"
    },
    {
      "inputs": [
        {
          "internalType": "address[]",
          "name": "_addresses",
          "type": "address[]"
        },
        {
          "internalType": "uint256[]",
          "name": "_tokenAllocations",
          "type": "uint256[]"
        },
        {
          "internalType": "uint256[]",
          "name": "_usdcRefunds",
          "type": "uint256[]"
        }
      ],
      "name": "setAllocations",
      "outputs": [],
      "stateMutability": "nonpayable",
      "type": "function"
    },
    {
      "inputs": [
        {
          "internalType": "address",
          "name": "",
          "type": "address"
        }
      ],
      "name": "stakedSnapshot",
      "outputs": [
        {
          "internalType": "uint256",
          "name": "",
          "type": "uint256"
        }
      ],
      "stateMutability": "view",
      "type": "function"
    },
    {
      "inputs": [],
      "name": "stakingContract",
      "outputs": [
        {
          "internalType": "contract IStaking",
          "name": "",
          "type": "address"
        }
      ],
      "stateMutability": "view",
      "type": "function"
    },
    {
      "inputs": [],
      "name": "startSale",
      "outputs": [],
      "stateMutability": "nonpayable",
      "type": "function"
    },
    {
      "inputs": [
        {
          "internalType": "address",
          "name": "",
          "type": "address"
        }
      ],
      "name": "tokenAllocation",
      "outputs": [
        {
          "internalType": "uint256",
          "name": "",
          "type": "uint256"
        }
      ],
      "stateMutability": "view",
      "type": "function"
    },
    {
      "inputs": [],
      "name": "totalInvested",
      "outputs": [
        {
          "internalType": "uint256",
          "name": "",
          "type": "uint256"
        }
      ],
      "stateMutability": "view",
      "type": "function"
    },
    {
      "inputs": [
        {
          "internalType": "address",
          "name": "newOwner",
          "type": "address"
        }
      ],
      "name": "transferOwnership",
      "outputs": [],
      "stateMutability": "nonpayable",
      "type": "function"
    },
    {
      "inputs": [
        {
          "internalType": "address",
          "name": "",
          "type": "address"
        }
      ],
      "name": "usdcRefund",
      "outputs": [
        {
          "internalType": "uint256",
          "name": "",
          "type": "uint256"
        }
      ],
      "stateMutability": "view",
      "type": "function"
    },
    {
      "inputs": [],
      "name": "usdcToken",
      "outputs": [
        {
          "internalType": "contract IERC20",
          "name": "",
          "type": "address"
        }
      ],
      "stateMutability": "view",
      "type": "function"
    },
    {
      "inputs": [],
      "name": "withdrawFunds",
      "outputs": [],
      "stateMutability": "nonpayable",
      "type": "function"
    }
  ],
  "transactionHash": "0x54e28b4aca16426f8fdbf8dd57b6f54e9102f85e1186cdec9f965cf19d262472",
  "args": [
    "0xEEec074eD8F45c0E553DD34280c6030b34ddAca5",
    "0x266Da9B9064803dEd6fE3FEeF0417A4f2a7e0c8E",
    7200
  ],
  "numDeployments": 1,
  "solcInputHash": "d46f6d34935256255104bb1a6d9a84d8",
  "bytecode": "0x60c06040523480156200001157600080fd5b5060405162002b9b38038062002b9b8339818101604052810190620000379190620003d1565b33600073ffffffffffffffffffffffffffffffffffffffff168173ffffffffffffffffffffffffffffffffffffffff1603620000ad5760006040517f1e4fbdf7000000000000000000000000000000000000000000000000000000008152600401620000a491906200043e565b60405180910390fd5b620000be816200026860201b60201c565b5060018081905550600073ffffffffffffffffffffffffffffffffffffffff168373ffffffffffffffffffffffffffffffffffffffff160362000138576040517f08c379a00000000000000000000000000000000000000000000000000000000081526004016200012f90620004e2565b60405180910390fd5b600073ffffffffffffffffffffffffffffffffffffffff168273ffffffffffffffffffffffffffffffffffffffff1603620001aa576040517f08c379a0000000000000000000000000000000000000000000000000000000008152600401620001a1906200057a565b60405180910390fd5b60008111620001f0576040517f08c379a0000000000000000000000000000000000000000000000000000000008152600401620001e79062000612565b60405180910390fd5b8273ffffffffffffffffffffffffffffffffffffffff1660808173ffffffffffffffffffffffffffffffffffffffff16815250508173ffffffffffffffffffffffffffffffffffffffff1660a08173ffffffffffffffffffffffffffffffffffffffff16815250508060048190555050505062000634565b60008060009054906101000a900473ffffffffffffffffffffffffffffffffffffffff169050816000806101000a81548173ffffffffffffffffffffffffffffffffffffffff021916908373ffffffffffffffffffffffffffffffffffffffff1602179055508173ffffffffffffffffffffffffffffffffffffffff168173ffffffffffffffffffffffffffffffffffffffff167f8be0079c531659141344cd1fd0a4f28419497f9722a3daafe3b4186f6b6457e060405160405180910390a35050565b600080fd5b600073ffffffffffffffffffffffffffffffffffffffff82169050919050565b60006200035e8262000331565b9050919050565b620003708162000351565b81146200037c57600080fd5b50565b600081519050620003908162000365565b92915050565b6000819050919050565b620003ab8162000396565b8114620003b757600080fd5b50565b600081519050620003cb81620003a0565b92915050565b600080600060608486031215620003ed57620003ec6200032c565b5b6000620003fd868287016200037f565b935050602062000410868287016200037f565b92505060406200042386828701620003ba565b9150509250925092565b620004388162000351565b82525050565b60006020820190506200045560008301846200042d565b92915050565b600082825260208201905092915050565b7f5553444320746f6b656e20616464726573732063616e6e6f74206265207a657260008201527f6f00000000000000000000000000000000000000000000000000000000000000602082015250565b6000620004ca6021836200045b565b9150620004d7826200046c565b604082019050919050565b60006020820190508181036000830152620004fd81620004bb565b9050919050565b7f5374616b696e6720636f6e747261637420616464726573732063616e6e6f742060008201527f6265207a65726f00000000000000000000000000000000000000000000000000602082015250565b6000620005626027836200045b565b91506200056f8262000504565b604082019050919050565b60006020820190508181036000830152620005958162000553565b9050919050565b7f53616c65206475726174696f6e206d757374206265206772656174657220746860008201527f616e207a65726f00000000000000000000000000000000000000000000000000602082015250565b6000620005fa6027836200045b565b915062000607826200059c565b604082019050919050565b600060208201905081810360008301526200062d81620005eb565b9050919050565b60805160a0516125256200067660003960008181610e6e015261133101526000818161044701528181610829015281816109140152610e2501526125256000f3fe608060405234801561001057600080fd5b506004361061014d5760003560e01c806358d21178116100c3578063b66a0e5d1161007c578063b66a0e5d14610397578063b6b55f25146103a1578063c10b9358146103bd578063dd785ef8146103db578063ee99205c1461040b578063f2fde38b146104295761014d565b806358d21178146102e05780635f945733146103005780636386c1c71461031e578063715018a6146103515780638da5cb5b1461035b578063ab0bcc41146103795761014d565b80633c3d3af6116101155780633c3d3af6146101e45780633feb5f2b14610214578063440e1e69146102445780634c7f8929146102745780635216aeec146102a4578063564566a8146102c25761014d565b806311eac85514610152578063182a89e6146101705780631cbaa8481461018c57806324600fc3146101bc5780633711d9fb146101c6575b600080fd5b61015a610445565b60405161016791906117e2565b60405180910390f35b61018a600480360381019061018591906118c2565b610469565b005b6101a660048036038101906101a191906119b4565b61077c565b6040516101b391906119fa565b60405180910390f35b6101c4610794565b005b6101ce610992565b6040516101db91906119fa565b60405180910390f35b6101fe60048036038101906101f991906119b4565b610998565b60405161020b91906119fa565b60405180910390f35b61022e60048036038101906102299190611a41565b6109b0565b60405161023b9190611a7d565b60405180910390f35b61025e600480360381019061025991906119b4565b6109ef565b60405161026b91906119fa565b60405180910390f35b61028e600480360381019061028991906119b4565b610a07565b60405161029b91906119fa565b60405180910390f35b6102ac610a1f565b6040516102b991906119fa565b60405180910390f35b6102ca610a25565b6040516102d79190611ab3565b60405180910390f35b6102e8610a4d565b6040516102f793929190611ace565b60405180910390f35b610308610a66565b60405161031591906119fa565b60405180910390f35b610338600480360381019061033391906119b4565b610a70565b6040516103489493929190611b05565b60405180910390f35b610359610b85565b005b610363610b99565b6040516103709190611a7d565b60405180910390f35b610381610bc2565b60405161038e91906119fa565b60405180910390f35b61039f610bc8565b005b6103bb60048036038101906103b69190611a41565b610c81565b005b6103c5611068565b6040516103d291906119fa565b60405180910390f35b6103f560048036038101906103f09190611b4a565b61106e565b6040516104029190611cbf565b60405180910390f35b61041361132f565b6040516104209190611d02565b60405180910390f35b610443600480360381019061043e91906119b4565b611353565b005b7f000000000000000000000000000000000000000000000000000000000000000081565b6104716113d9565b838390508686905014801561048b57508181905086869050145b6104ca576040517f08c379a00000000000000000000000000000000000000000000000000000000081526004016104c190611d7a565b60405180910390fd5b60005b8686905081101561073257600073ffffffffffffffffffffffffffffffffffffffff1687878381811061050357610502611d9a565b5b905060200201602081019061051891906119b4565b73ffffffffffffffffffffffffffffffffffffffff160361056e576040517f08c379a000000000000000000000000000000000000000000000000000000000815260040161056590611e15565b60405180910390fd5b60006006600089898581811061058757610586611d9a565b5b905060200201602081019061059c91906119b4565b73ffffffffffffffffffffffffffffffffffffffff1673ffffffffffffffffffffffffffffffffffffffff1681526020019081526020016000205411610617576040517f08c379a000000000000000000000000000000000000000000000000000000000815260040161060e90611e81565b60405180910390fd5b84848281811061062a57610629611d9a565b5b905060200201356008600089898581811061064857610647611d9a565b5b905060200201602081019061065d91906119b4565b73ffffffffffffffffffffffffffffffffffffffff1673ffffffffffffffffffffffffffffffffffffffff168152602001908152602001600020819055508282828181106106ae576106ad611d9a565b5b90506020020135600960008989858181106106cc576106cb611d9a565b5b90506020020160208101906106e191906119b4565b73ffffffffffffffffffffffffffffffffffffffff1673ffffffffffffffffffffffffffffffffffffffff16815260200190815260200160002081905550808061072a90611ed0565b9150506104cd565b507f85e8d2c09fca20f54db67ec51505bc0191ba3f71778c8dd16f18275b8cc9947086868686868660405161076c96959493929190612047565b60405180910390a1505050505050565b60096020528060005260406000206000915090505481565b61079c6113d9565b6000600254116107e1576040517f08c379a00000000000000000000000000000000000000000000000000000000081526004016107d8906120e5565b60405180910390fd5b6003544211610825576040517f08c379a000000000000000000000000000000000000000000000000000000000815260040161081c90612151565b60405180910390fd5b60007f000000000000000000000000000000000000000000000000000000000000000073ffffffffffffffffffffffffffffffffffffffff166370a08231306040518263ffffffff1660e01b81526004016108809190611a7d565b602060405180830381865afa15801561089d573d6000803e3d6000fd5b505050506040513d601f19601f820116820180604052508101906108c19190612186565b905060008111610906576040517f08c379a00000000000000000000000000000000000000000000000000000000081526004016108fd906121ff565b60405180910390fd5b610958610911610b99565b827f000000000000000000000000000000000000000000000000000000000000000073ffffffffffffffffffffffffffffffffffffffff166114609092919063ffffffff16565b7f4a37b25aab49761ecf63117fe82b98d750917451133cf797507bc9fb5b96044a8160405161098791906119fa565b60405180910390a150565b60045481565b60066020528060005260406000206000915090505481565b600a81815481106109c057600080fd5b906000526020600020016000915054906101000a900473ffffffffffffffffffffffffffffffffffffffff1681565b60086020528060005260406000206000915090505481565b60076020528060005260406000206000915090505481565b60055481565b600080600254118015610a3a57506002544210155b8015610a4857506003544211155b905090565b6000806000600254600354600454925092509250909192565b6000600554905090565b600080600080600660008673ffffffffffffffffffffffffffffffffffffffff1673ffffffffffffffffffffffffffffffffffffffff16815260200190815260200160002054600760008773ffffffffffffffffffffffffffffffffffffffff1673ffffffffffffffffffffffffffffffffffffffff16815260200190815260200160002054600860008873ffffffffffffffffffffffffffffffffffffffff1673ffffffffffffffffffffffffffffffffffffffff16815260200190815260200160002054600960008973ffffffffffffffffffffffffffffffffffffffff1673ffffffffffffffffffffffffffffffffffffffff1681526020019081526020016000205493509350935093509193509193565b610b8d6113d9565b610b9760006114df565b565b60008060009054906101000a900473ffffffffffffffffffffffffffffffffffffffff16905090565b60025481565b610bd06113d9565b60006002541480610be2575060035442115b610c21576040517f08c379a0000000000000000000000000000000000000000000000000000000008152600401610c189061226b565b60405180910390fd5b42600281905550600454600254610c38919061228b565b6003819055507f5ee5e9eecd6fd27ba20784f8da118fe26b697aca487c80f605baec0b88ed3636600254600354600454604051610c7793929190611ace565b60405180910390a1565b600060025411610cc6576040517f08c379a0000000000000000000000000000000000000000000000000000000008152600401610cbd906120e5565b60405180910390fd5b600254421015610d0b576040517f08c379a0000000000000000000000000000000000000000000000000000000008152600401610d02906120e5565b60405180910390fd5b600354421115610d50576040517f08c379a0000000000000000000000000000000000000000000000000000000008152600401610d479061230b565b60405180910390fd5b610d586115a3565b60008111610d9b576040517f08c379a0000000000000000000000000000000000000000000000000000000008152600401610d9290612377565b60405180910390fd5b6000600660003373ffffffffffffffffffffffffffffffffffffffff1673ffffffffffffffffffffffffffffffffffffffff1681526020019081526020016000205414610e1d576040517f08c379a0000000000000000000000000000000000000000000000000000000008152600401610e14906123e3565b60405180910390fd5b610e6a3330837f000000000000000000000000000000000000000000000000000000000000000073ffffffffffffffffffffffffffffffffffffffff166115e9909392919063ffffffff16565b60007f000000000000000000000000000000000000000000000000000000000000000073ffffffffffffffffffffffffffffffffffffffff16636e2f1696336040518263ffffffff1660e01b8152600401610ec59190611a7d565b602060405180830381865afa158015610ee2573d6000803e3d6000fd5b505050506040513d601f19601f82011682018060405250810190610f069190612186565b905081600660003373ffffffffffffffffffffffffffffffffffffffff1673ffffffffffffffffffffffffffffffffffffffff1681526020019081526020016000208190555080600760003373ffffffffffffffffffffffffffffffffffffffff1673ffffffffffffffffffffffffffffffffffffffff16815260200190815260200160002081905550600a339080600181540180825580915050600190039060005260206000200160009091909190916101000a81548173ffffffffffffffffffffffffffffffffffffffff021916908373ffffffffffffffffffffffffffffffffffffffff1602179055508160056000828254611005919061228b565b925050819055503373ffffffffffffffffffffffffffffffffffffffff167f0b05f0d1cd0819f155b8a61f60baf7767c1ee49d04aeaab701df236140eb93f98383604051611054929190612403565b60405180910390a25061106561166b565b50565b60035481565b60606000600a8054905090508084106110de57600067ffffffffffffffff81111561109c5761109b61242c565b5b6040519080825280602002602001820160405280156110d557816020015b6110c261171e565b8152602001906001900390816110ba5790505b50915050611329565b60008390508184866110f0919061228b565b1115611105578482611102919061245b565b90505b60008167ffffffffffffffff8111156111215761112061242c565b5b60405190808252806020026020018201604052801561115a57816020015b61114761171e565b81526020019060019003908161113f5790505b50905060005b82811015611321576000600a8289611178919061228b565b8154811061118957611188611d9a565b5b9060005260206000200160009054906101000a900473ffffffffffffffffffffffffffffffffffffffff1690506040518060a001604052808273ffffffffffffffffffffffffffffffffffffffff168152602001600660008473ffffffffffffffffffffffffffffffffffffffff1673ffffffffffffffffffffffffffffffffffffffff168152602001908152602001600020548152602001600760008473ffffffffffffffffffffffffffffffffffffffff1673ffffffffffffffffffffffffffffffffffffffff168152602001908152602001600020548152602001600860008473ffffffffffffffffffffffffffffffffffffffff1673ffffffffffffffffffffffffffffffffffffffff168152602001908152602001600020548152602001600960008473ffffffffffffffffffffffffffffffffffffffff1673ffffffffffffffffffffffffffffffffffffffff1681526020019081526020016000205481525083838151811061130257611301611d9a565b5b602002602001018190525050808061131990611ed0565b915050611160565b508093505050505b92915050565b7f000000000000000000000000000000000000000000000000000000000000000081565b61135b6113d9565b600073ffffffffffffffffffffffffffffffffffffffff168173ffffffffffffffffffffffffffffffffffffffff16036113cd5760006040517f1e4fbdf70000000000000000000000000000000000000000000000000000000081526004016113c49190611a7d565b60405180910390fd5b6113d6816114df565b50565b6113e1611674565b73ffffffffffffffffffffffffffffffffffffffff166113ff610b99565b73ffffffffffffffffffffffffffffffffffffffff161461145e57611422611674565b6040517f118cdaa70000000000000000000000000000000000000000000000000000000081526004016114559190611a7d565b60405180910390fd5b565b6114da838473ffffffffffffffffffffffffffffffffffffffff1663a9059cbb858560405160240161149392919061248f565b604051602081830303815290604052915060e01b6020820180517bffffffffffffffffffffffffffffffffffffffffffffffffffffffff838183161783525050505061167c565b505050565b60008060009054906101000a900473ffffffffffffffffffffffffffffffffffffffff169050816000806101000a81548173ffffffffffffffffffffffffffffffffffffffff021916908373ffffffffffffffffffffffffffffffffffffffff1602179055508173ffffffffffffffffffffffffffffffffffffffff168173ffffffffffffffffffffffffffffffffffffffff167f8be0079c531659141344cd1fd0a4f28419497f9722a3daafe3b4186f6b6457e060405160405180910390a35050565b6002600154036115df576040517f3ee5aeb500000000000000000000000000000000000000000000000000000000815260040160405180910390fd5b6002600181905550565b611665848573ffffffffffffffffffffffffffffffffffffffff166323b872dd86868660405160240161161e939291906124b8565b604051602081830303815290604052915060e01b6020820180517bffffffffffffffffffffffffffffffffffffffffffffffffffffffff838183161783525050505061167c565b50505050565b60018081905550565b600033905090565b600080602060008451602086016000885af18061169f576040513d6000823e3d81fd5b3d9250600051915050600082146116ba5760018114156116d6565b60008473ffffffffffffffffffffffffffffffffffffffff163b145b1561171857836040517f5274afe700000000000000000000000000000000000000000000000000000000815260040161170f9190611a7d565b60405180910390fd5b50505050565b6040518060a00160405280600073ffffffffffffffffffffffffffffffffffffffff168152602001600081526020016000815260200160008152602001600081525090565b600073ffffffffffffffffffffffffffffffffffffffff82169050919050565b6000819050919050565b60006117a86117a361179e84611763565b611783565b611763565b9050919050565b60006117ba8261178d565b9050919050565b60006117cc826117af565b9050919050565b6117dc816117c1565b82525050565b60006020820190506117f760008301846117d3565b92915050565b600080fd5b600080fd5b600080fd5b600080fd5b600080fd5b60008083601f84011261182c5761182b611807565b5b8235905067ffffffffffffffff8111156118495761184861180c565b5b60208301915083602082028301111561186557611864611811565b5b9250929050565b60008083601f84011261188257611881611807565b5b8235905067ffffffffffffffff81111561189f5761189e61180c565b5b6020830191508360208202830111156118bb576118ba611811565b5b9250929050565b600080600080600080606087890312156118df576118de6117fd565b5b600087013567ffffffffffffffff8111156118fd576118fc611802565b5b61190989828a01611816565b9650965050602087013567ffffffffffffffff81111561192c5761192b611802565b5b61193889828a0161186c565b9450945050604087013567ffffffffffffffff81111561195b5761195a611802565b5b61196789828a0161186c565b92509250509295509295509295565b600061198182611763565b9050919050565b61199181611976565b811461199c57600080fd5b50565b6000813590506119ae81611988565b92915050565b6000602082840312156119ca576119c96117fd565b5b60006119d88482850161199f565b91505092915050565b6000819050919050565b6119f4816119e1565b82525050565b6000602082019050611a0f60008301846119eb565b92915050565b611a1e816119e1565b8114611a2957600080fd5b50565b600081359050611a3b81611a15565b92915050565b600060208284031215611a5757611a566117fd565b5b6000611a6584828501611a2c565b91505092915050565b611a7781611976565b82525050565b6000602082019050611a926000830184611a6e565b92915050565b60008115159050919050565b611aad81611a98565b82525050565b6000602082019050611ac86000830184611aa4565b92915050565b6000606082019050611ae360008301866119eb565b611af060208301856119eb565b611afd60408301846119eb565b949350505050565b6000608082019050611b1a60008301876119eb565b611b2760208301866119eb565b611b3460408301856119eb565b611b4160608301846119eb565b95945050505050565b60008060408385031215611b6157611b606117fd565b5b6000611b6f85828601611a2c565b9250506020611b8085828601611a2c565b9150509250929050565b600081519050919050565b600082825260208201905092915050565b6000819050602082019050919050565b611bbf81611976565b82525050565b611bce816119e1565b82525050565b60a082016000820151611bea6000850182611bb6565b506020820151611bfd6020850182611bc5565b506040820151611c106040850182611bc5565b506060820151611c236060850182611bc5565b506080820151611c366080850182611bc5565b50505050565b6000611c488383611bd4565b60a08301905092915050565b6000602082019050919050565b6000611c6c82611b8a565b611c768185611b95565b9350611c8183611ba6565b8060005b83811015611cb2578151611c998882611c3c565b9750611ca483611c54565b925050600181019050611c85565b5085935050505092915050565b60006020820190508181036000830152611cd98184611c61565b905092915050565b6000611cec826117af565b9050919050565b611cfc81611ce1565b82525050565b6000602082019050611d176000830184611cf3565b92915050565b600082825260208201905092915050565b7f4172726179206c656e67746873206d757374206d617463680000000000000000600082015250565b6000611d64601883611d1d565b9150611d6f82611d2e565b602082019050919050565b60006020820190508181036000830152611d9381611d57565b9050919050565b7f4e487b7100000000000000000000000000000000000000000000000000000000600052603260045260246000fd5b7f496e76616c696420616464726573730000000000000000000000000000000000600082015250565b6000611dff600f83611d1d565b9150611e0a82611dc9565b602082019050919050565b60006020820190508181036000830152611e2e81611df2565b9050919050565b7f4164647265737320646964206e6f7420696e7665737400000000000000000000600082015250565b6000611e6b601683611d1d565b9150611e7682611e35565b602082019050919050565b60006020820190508181036000830152611e9a81611e5e565b9050919050565b7f4e487b7100000000000000000000000000000000000000000000000000000000600052601160045260246000fd5b6000611edb826119e1565b91507fffffffffffffffffffffffffffffffffffffffffffffffffffffffffffffffff8203611f0d57611f0c611ea1565b5b600182019050919050565b600082825260208201905092915050565b6000819050919050565b6000611f3f8383611bb6565b60208301905092915050565b6000611f5a602084018461199f565b905092915050565b6000602082019050919050565b6000611f7b8385611f18565b9350611f8682611f29565b8060005b85811015611fbf57611f9c8284611f4b565b611fa68882611f33565b9750611fb183611f62565b925050600181019050611f8a565b5085925050509392505050565b600082825260208201905092915050565b600080fd5b82818337505050565b6000611ff78385611fcc565b93507f07ffffffffffffffffffffffffffffffffffffffffffffffffffffffffffffff83111561202a57612029611fdd565b5b60208302925061203b838584611fe2565b82840190509392505050565b6000606082019050818103600083015261206281888a611f6f565b90508181036020830152612077818688611feb565b9050818103604083015261208c818486611feb565b9050979650505050505050565b7f53616c65206e6f74207374617274656400000000000000000000000000000000600082015250565b60006120cf601083611d1d565b91506120da82612099565b602082019050919050565b600060208201905081810360008301526120fe816120c2565b9050919050565b7f53616c65207374696c6c20616374697665000000000000000000000000000000600082015250565b600061213b601183611d1d565b915061214682612105565b602082019050919050565b6000602082019050818103600083015261216a8161212e565b9050919050565b60008151905061218081611a15565b92915050565b60006020828403121561219c5761219b6117fd565b5b60006121aa84828501612171565b91505092915050565b7f4e6f2066756e647320746f207769746864726177000000000000000000000000600082015250565b60006121e9601483611d1d565b91506121f4826121b3565b602082019050919050565b60006020820190508181036000830152612218816121dc565b9050919050565b7f53616c6520616c72656164792061637469766500000000000000000000000000600082015250565b6000612255601383611d1d565b91506122608261221f565b602082019050919050565b6000602082019050818103600083015261228481612248565b9050919050565b6000612296826119e1565b91506122a1836119e1565b92508282019050808211156122b9576122b8611ea1565b5b92915050565b7f53616c6520656e64656400000000000000000000000000000000000000000000600082015250565b60006122f5600a83611d1d565b9150612300826122bf565b602082019050919050565b60006020820190508181036000830152612324816122e8565b9050919050565b7f416d6f756e74206d7573742062652067726561746572207468616e207a65726f600082015250565b6000612361602083611d1d565b915061236c8261232b565b602082019050919050565b6000602082019050818103600083015261239081612354565b9050919050565b7f416c7265616479206465706f7369746564000000000000000000000000000000600082015250565b60006123cd601183611d1d565b91506123d882612397565b602082019050919050565b600060208201905081810360008301526123fc816123c0565b9050919050565b600060408201905061241860008301856119eb565b61242560208301846119eb565b9392505050565b7f4e487b7100000000000000000000000000000000000000000000000000000000600052604160045260246000fd5b6000612466826119e1565b9150612471836119e1565b925082820390508181111561248957612488611ea1565b5b92915050565b60006040820190506124a46000830185611a6e565b6124b160208301846119eb565b9392505050565b60006060820190506124cd6000830186611a6e565b6124da6020830185611a6e565b6124e760408301846119eb565b94935050505056fea26469706673582212200cc8641e7c0cf9a48a59c6fafdb96b83eebcb2bb47c74afdd90d47a2be208dff64736f6c63430008140033",
  "devdoc": {
    "details": "Simple sale collector that accepts USDC deposits, snapshots staked balances,      and stores final token allocations and refund amounts",
    "errors": {
      "OwnableInvalidOwner(address)": [
        {
          "details": "The owner is not a valid owner account. (eg. `address(0)`)"
        }
      ],
      "OwnableUnauthorizedAccount(address)": [
        {
          "details": "The caller account is not authorized to perform an operation."
        }
      ],
      "ReentrancyGuardReentrantCall()": [
        {
          "details": "Unauthorized reentrant call."
        }
      ],
      "SafeERC20FailedOperation(address)": [
        {
          "details": "An operation with an ERC-20 token failed."
        }
      ]
    },
    "kind": "dev",
    "methods": {
      "constructor": {
        "details": "Constructor",
        "params": {
          "_saleDuration": "Duration of the sale in seconds",
          "_stakingContract": "Address of staking contract",
          "_usdcToken": "Address of USDC token"
        }
      },
      "deposit(uint256)": {
        "details": "Deposit USDC during the sale",
        "params": {
          "_amount": "Amount of USDC to deposit"
        }
      },
      "getAllInvestors(uint256,uint256)": {
        "details": "Get all investors with their complete information (paginated)",
        "params": {
          "limit": "Maximum number of investors to return",
          "offset": "Starting index for pagination"
        },
        "returns": {
          "_0": "Array of InvestorInfo structs"
        }
      },
      "getSaleTimes()": {
        "details": "Get sale timing information",
        "returns": {
          "saleDuration_": "Sale duration in seconds",
          "saleEnd_": "Sale end timestamp",
          "saleStart_": "Sale start timestamp"
        }
      },
      "getTotalInvested()": {
        "details": "Get total amount invested across all users",
        "returns": {
          "_0": "Total USDC invested"
        }
      },
      "getUserInfo(address)": {
        "details": "Get user investment information",
        "params": {
          "user": "Address of the user"
        },
        "returns": {
          "amountInvested_": "USDC deposited by user",
          "stakedSnapshot_": "Staked balance at deposit time",
          "tokenAllocation_": "Final token allocation",
          "usdcRefund_": "Final USDC refund amount"
        }
      },
      "isSaleActive()": {
        "details": "Check if sale is currently active",
        "returns": {
          "_0": "true if sale is active, false otherwise"
        }
      },
      "owner()": {
        "details": "Returns the address of the current owner."
      },
      "renounceOwnership()": {
        "details": "Leaves the contract without owner. It will not be possible to call `onlyOwner` functions. Can only be called by the current owner. NOTE: Renouncing ownership will leave the contract without an owner, thereby disabling any functionality that is only available to the owner."
      },
      "setAllocations(address[],uint256[],uint256[])": {
        "details": "Set allocations and refunds for investors (admin only)",
        "params": {
          "_addresses": "Array of investor addresses",
          "_tokenAllocations": "Array of token allocations",
          "_usdcRefunds": "Array of USDC refund amounts"
        }
      },
      "startSale()": {
        "details": "Start the sale (admin only)"
      },
      "transferOwnership(address)": {
        "details": "Transfers ownership of the contract to a new account (`newOwner`). Can only be called by the current owner."
      },
      "withdrawFunds()": {
        "details": "Withdraw all collected USDC after the sale (admin only)"
      }
    },
    "title": "InvestmentContract",
    "version": 1
  },
  "userdoc": {
    "kind": "user",
    "methods": {},
    "version": 1
  },
  "storageLayout": {
    "storage": [
      {
        "astId": 8,
        "contract": "contracts/InvestmentContract.sol:InvestmentContract",
        "label": "_owner",
        "offset": 0,
        "slot": "0",
        "type": "t_address"
      },
      {
        "astId": 820,
        "contract": "contracts/InvestmentContract.sol:InvestmentContract",
        "label": "_status",
        "offset": 0,
        "slot": "1",
        "type": "t_uint256"
      },
      {
        "astId": 917,
        "contract": "contracts/InvestmentContract.sol:InvestmentContract",
        "label": "saleStart",
        "offset": 0,
        "slot": "2",
        "type": "t_uint256"
      },
      {
        "astId": 919,
        "contract": "contracts/InvestmentContract.sol:InvestmentContract",
        "label": "saleEnd",
        "offset": 0,
        "slot": "3",
        "type": "t_uint256"
      },
      {
        "astId": 921,
        "contract": "contracts/InvestmentContract.sol:InvestmentContract",
        "label": "saleDuration",
        "offset": 0,
        "slot": "4",
        "type": "t_uint256"
      },
      {
        "astId": 923,
        "contract": "contracts/InvestmentContract.sol:InvestmentContract",
        "label": "totalInvested",
        "offset": 0,
        "slot": "5",
        "type": "t_uint256"
      },
      {
        "astId": 927,
        "contract": "contracts/InvestmentContract.sol:InvestmentContract",
        "label": "amountInvested",
        "offset": 0,
        "slot": "6",
        "type": "t_mapping(t_address,t_uint256)"
      },
      {
        "astId": 931,
        "contract": "contracts/InvestmentContract.sol:InvestmentContract",
        "label": "stakedSnapshot",
        "offset": 0,
        "slot": "7",
        "type": "t_mapping(t_address,t_uint256)"
      },
      {
        "astId": 935,
        "contract": "contracts/InvestmentContract.sol:InvestmentContract",
        "label": "tokenAllocation",
        "offset": 0,
        "slot": "8",
        "type": "t_mapping(t_address,t_uint256)"
      },
      {
        "astId": 939,
        "contract": "contracts/InvestmentContract.sol:InvestmentContract",
        "label": "usdcRefund",
        "offset": 0,
        "slot": "9",
        "type": "t_mapping(t_address,t_uint256)"
      },
      {
        "astId": 942,
        "contract": "contracts/InvestmentContract.sol:InvestmentContract",
        "label": "investors",
        "offset": 0,
        "slot": "10",
        "type": "t_array(t_address)dyn_storage"
      }
    ],
    "types": {
      "t_address": {
        "encoding": "inplace",
        "label": "address",
        "numberOfBytes": "20"
      },
      "t_array(t_address)dyn_storage": {
        "base": "t_address",
        "encoding": "dynamic_array",
        "label": "address[]",
        "numberOfBytes": "32"
      },
      "t_mapping(t_address,t_uint256)": {
        "encoding": "mapping",
        "key": "t_address",
        "label": "mapping(address => uint256)",
        "numberOfBytes": "32",
        "value": "t_uint256"
      },
      "t_uint256": {
        "encoding": "inplace",
        "label": "uint256",
        "numberOfBytes": "32"
      }
    }
  }
}