{
  "address": "0x01b87472AD1b8fE7d354Ca515E9521d01B4CedD3",
  "abi": [
    {
      "inputs": [
        {
          "internalType": "address",
          "name": "_usdcToken",
          "type": "address"
        },
        {
          "internalType": "address",
          "name": "_stakingContract",
          "type": "address"
        },
        {
          "internalType": "uint256",
          "name": "_saleDuration",
          "type": "uint256"
        }
      ],
      "stateMutability": "nonpayable",
      "type": "constructor"
    },
    {
      "inputs": [
        {
          "internalType": "address",
          "name": "owner",
          "type": "address"
        }
      ],
      "name": "OwnableInvalidOwner",
      "type": "error"
    },
    {
      "inputs": [
        {
          "internalType": "address",
          "name": "account",
          "type": "address"
        }
      ],
      "name": "OwnableUnauthorizedAccount",
      "type": "error"
    },
    {
      "inputs": [],
      "name": "ReentrancyGuardReentrantCall",
      "type": "error"
    },
    {
      "inputs": [
        {
          "internalType": "address",
          "name": "token",
          "type": "address"
        }
      ],
      "name": "SafeERC20FailedOperation",
      "type": "error"
    },
    {
      "anonymous": false,
      "inputs": [
        {
          "indexed": false,
          "internalType": "address[]",
          "name": "investors",
          "type": "address[]"
        },
        {
          "indexed": false,
          "internalType": "uint256[]",
          "name": "tokenAllocations",
          "type": "uint256[]"
        },
        {
          "indexed": false,
          "internalType": "uint256[]",
          "name": "usdcRefunds",
          "type": "uint256[]"
        }
      ],
      "name": "AllocationsSet",
      "type": "event"
    },
    {
      "anonymous": false,
      "inputs": [
        {
          "indexed": true,
          "internalType": "address",
          "name": "investor",
          "type": "address"
        },
        {
          "indexed": false,
          "internalType": "uint256",
          "name": "amount",
          "type": "uint256"
        },
        {
          "indexed": false,
          "internalType": "uint256",
          "name": "stakedSnapshot",
          "type": "uint256"
        }
      ],
      "name": "DepositMade",
      "type": "event"
    },
    {
      "anonymous": false,
      "inputs": [
        {
          "indexed": false,
          "internalType": "uint256",
          "name": "amount",
          "type": "uint256"
        }
      ],
      "name": "FundsWithdrawn",
      "type": "event"
    },
    {
      "anonymous": false,
      "inputs": [
        {
          "indexed": true,
          "internalType": "address",
          "name": "previousOwner",
          "type": "address"
        },
        {
          "indexed": true,
          "internalType": "address",
          "name": "newOwner",
          "type": "address"
        }
      ],
      "name": "OwnershipTransferred",
      "type": "event"
    },
    {
      "anonymous": false,
      "inputs": [
        {
          "indexed": false,
          "internalType": "uint256",
          "name": "startTime",
          "type": "uint256"
        },
        {
          "indexed": false,
          "internalType": "uint256",
          "name": "endTime",
          "type": "uint256"
        },
        {
          "indexed": false,
          "internalType": "uint256",
          "name": "duration",
          "type": "uint256"
        }
      ],
      "name": "SaleStarted",
      "type": "event"
    },
    {
      "inputs": [
        {
          "internalType": "address",
          "name": "",
          "type": "address"
        }
      ],
      "name": "amountInvested",
      "outputs": [
        {
          "internalType": "uint256",
          "name": "",
          "type": "uint256"
        }
      ],
      "stateMutability": "view",
      "type": "function"
    },
    {
      "inputs": [
        {
          "internalType": "uint256",
          "name": "_amount",
          "type": "uint256"
        }
      ],
      "name": "deposit",
      "outputs": [],
      "stateMutability": "nonpayable",
      "type": "function"
    },
    {
      "inputs": [
        {
          "internalType": "uint256",
          "name": "offset",
          "type": "uint256"
        },
        {
          "internalType": "uint256",
          "name": "limit",
          "type": "uint256"
        }
      ],
      "name": "getAllInvestors",
      "outputs": [
        {
          "components": [
            {
              "internalType": "address",
              "name": "investor",
              "type": "address"
            },
            {
              "internalType": "uint256",
              "name": "amountInvested",
              "type": "uint256"
            },
            {
              "internalType": "uint256",
              "name": "stakedSnapshot",
              "type": "uint256"
            },
            {
              "internalType": "uint256",
              "name": "tokenAllocation",
              "type": "uint256"
            },
            {
              "internalType": "uint256",
              "name": "usdcRefund",
              "type": "uint256"
            }
          ],
          "internalType": "struct IInvesting.InvestorInfo[]",
          "name": "",
          "type": "tuple[]"
        }
      ],
      "stateMutability": "view",
      "type": "function"
    },
    {
      "inputs": [],
      "name": "getSaleTimes",
      "outputs": [
        {
          "internalType": "uint256",
          "name": "saleStart_",
          "type": "uint256"
        },
        {
          "internalType": "uint256",
          "name": "saleEnd_",
          "type": "uint256"
        },
        {
          "internalType": "uint256",
          "name": "saleDuration_",
          "type": "uint256"
        }
      ],
      "stateMutability": "view",
      "type": "function"
    },
    {
      "inputs": [],
      "name": "getTotalInvested",
      "outputs": [
        {
          "internalType": "uint256",
          "name": "",
          "type": "uint256"
        }
      ],
      "stateMutability": "view",
      "type": "function"
    },
    {
      "inputs": [
        {
          "internalType": "address",
          "name": "user",
          "type": "address"
        }
      ],
      "name": "getUserInfo",
      "outputs": [
        {
          "internalType": "uint256",
          "name": "amountInvested_",
          "type": "uint256"
        },
        {
          "internalType": "uint256",
          "name": "stakedSnapshot_",
          "type": "uint256"
        },
        {
          "internalType": "uint256",
          "name": "tokenAllocation_",
          "type": "uint256"
        },
        {
          "internalType": "uint256",
          "name": "usdcRefund_",
          "type": "uint256"
        }
      ],
      "stateMutability": "view",
      "type": "function"
    },
    {
      "inputs": [
        {
          "internalType": "uint256",
          "name": "",
          "type": "uint256"
        }
      ],
      "name": "investors",
      "outputs": [
        {
          "internalType": "address",
          "name": "",
          "type": "address"
        }
      ],
      "stateMutability": "view",
      "type": "function"
    },
    {
      "inputs": [],
      "name": "isSaleActive",
      "outputs": [
        {
          "internalType": "bool",
          "name": "",
          "type": "bool"
        }
      ],
      "stateMutability": "view",
      "type": "function"
    },
    {
      "inputs": [],
      "name": "owner",
      "outputs": [
        {
          "internalType": "address",
          "name": "",
          "type": "address"
        }
      ],
      "stateMutability": "view",
      "type": "function"
    },
    {
      "inputs": [],
      "name": "renounceOwnership",
      "outputs": [],
      "stateMutability": "nonpayable",
      "type": "function"
    },
    {
      "inputs": [],
      "name": "saleDuration",
      "outputs": [
        {
          "internalType": "uint256",
          "name": "",
          "type": "uint256"
        }
      ],
      "stateMutability": "view",
      "type": "function"
    },
    {
      "inputs": [],
      "name": "saleEnd",
      "outputs": [
        {
          "internalType": "uint256",
          "name": "",
          "type": "uint256"
        }
      ],
      "stateMutability": "view",
      "type": "function"
    },
    {
      "inputs": [],
      "name": "saleStart",
      "outputs": [
        {
          "internalType": "uint256",
          "name": "",
          "type": "uint256"
        }
      ],
      "stateMutability": "view",
      "type": "function"
    },
    {
      "inputs": [
        {
          "internalType": "address[]",
          "name": "_addresses",
          "type": "address[]"
        },
        {
          "internalType": "uint256[]",
          "name": "_tokenAllocations",
          "type": "uint256[]"
        },
        {
          "internalType": "uint256[]",
          "name": "_usdcRefunds",
          "type": "uint256[]"
        }
      ],
      "name": "setAllocations",
      "outputs": [],
      "stateMutability": "nonpayable",
      "type": "function"
    },
    {
      "inputs": [
        {
          "internalType": "address",
          "name": "",
          "type": "address"
        }
      ],
      "name": "stakedSnapshot",
      "outputs": [
        {
          "internalType": "uint256",
          "name": "",
          "type": "uint256"
        }
      ],
      "stateMutability": "view",
      "type": "function"
    },
    {
      "inputs": [],
      "name": "stakingContract",
      "outputs": [
        {
          "internalType": "contract IStaking",
          "name": "",
          "type": "address"
        }
      ],
      "stateMutability": "view",
      "type": "function"
    },
    {
      "inputs": [],
      "name": "startSale",
      "outputs": [],
      "stateMutability": "nonpayable",
      "type": "function"
    },
    {
      "inputs": [
        {
          "internalType": "address",
          "name": "",
          "type": "address"
        }
      ],
      "name": "tokenAllocation",
      "outputs": [
        {
          "internalType": "uint256",
          "name": "",
          "type": "uint256"
        }
      ],
      "stateMutability": "view",
      "type": "function"
    },
    {
      "inputs": [],
      "name": "totalInvested",
      "outputs": [
        {
          "internalType": "uint256",
          "name": "",
          "type": "uint256"
        }
      ],
      "stateMutability": "view",
      "type": "function"
    },
    {
      "inputs": [
        {
          "internalType": "address",
          "name": "newOwner",
          "type": "address"
        }
      ],
      "name": "transferOwnership",
      "outputs": [],
      "stateMutability": "nonpayable",
      "type": "function"
    },
    {
      "inputs": [
        {
          "internalType": "address",
          "name": "",
          "type": "address"
        }
      ],
      "name": "usdcRefund",
      "outputs": [
        {
          "internalType": "uint256",
          "name": "",
          "type": "uint256"
        }
      ],
      "stateMutability": "view",
      "type": "function"
    },
    {
      "inputs": [],
      "name": "usdcToken",
      "outputs": [
        {
          "internalType": "contract IERC20",
          "name": "",
          "type": "address"
        }
      ],
      "stateMutability": "view",
      "type": "function"
    },
    {
      "inputs": [],
      "name": "withdrawFunds",
      "outputs": [],
      "stateMutability": "nonpayable",
      "type": "function"
    }
  ],
  "transactionHash": "0x90035af3d5eec84e53711341b788f5c49398cf9b8318322ac19f03937cb196d1",
  "args": [
    "0xEEec074eD8F45c0E553DD34280c6030b34ddAca5",
    "0x266Da9B9064803dEd6fE3FEeF0417A4f2a7e0c8E",
    7200
  ],
  "numDeployments": 1,
  "solcInputHash": "92a3712de1460c163fecb6f1c7362dbb",
  "bytecode": "0x60c06040523480156200001157600080fd5b5060405162002a8638038062002a868339818101604052810190620000379190620003d1565b33600073ffffffffffffffffffffffffffffffffffffffff168173ffffffffffffffffffffffffffffffffffffffff1603620000ad5760006040517f1e4fbdf7000000000000000000000000000000000000000000000000000000008152600401620000a491906200043e565b60405180910390fd5b620000be816200026860201b60201c565b5060018081905550600073ffffffffffffffffffffffffffffffffffffffff168373ffffffffffffffffffffffffffffffffffffffff160362000138576040517f08c379a00000000000000000000000000000000000000000000000000000000081526004016200012f90620004e2565b60405180910390fd5b600073ffffffffffffffffffffffffffffffffffffffff168273ffffffffffffffffffffffffffffffffffffffff1603620001aa576040517f08c379a0000000000000000000000000000000000000000000000000000000008152600401620001a1906200057a565b60405180910390fd5b60008111620001f0576040517f08c379a0000000000000000000000000000000000000000000000000000000008152600401620001e79062000612565b60405180910390fd5b8273ffffffffffffffffffffffffffffffffffffffff1660808173ffffffffffffffffffffffffffffffffffffffff16815250508173ffffffffffffffffffffffffffffffffffffffff1660a08173ffffffffffffffffffffffffffffffffffffffff16815250508060048190555050505062000634565b60008060009054906101000a900473ffffffffffffffffffffffffffffffffffffffff169050816000806101000a81548173ffffffffffffffffffffffffffffffffffffffff021916908373ffffffffffffffffffffffffffffffffffffffff1602179055508173ffffffffffffffffffffffffffffffffffffffff168173ffffffffffffffffffffffffffffffffffffffff167f8be0079c531659141344cd1fd0a4f28419497f9722a3daafe3b4186f6b6457e060405160405180910390a35050565b600080fd5b600073ffffffffffffffffffffffffffffffffffffffff82169050919050565b60006200035e8262000331565b9050919050565b620003708162000351565b81146200037c57600080fd5b50565b600081519050620003908162000365565b92915050565b6000819050919050565b620003ab8162000396565b8114620003b757600080fd5b50565b600081519050620003cb81620003a0565b92915050565b600080600060608486031215620003ed57620003ec6200032c565b5b6000620003fd868287016200037f565b935050602062000410868287016200037f565b92505060406200042386828701620003ba565b9150509250925092565b620004388162000351565b82525050565b60006020820190506200045560008301846200042d565b92915050565b600082825260208201905092915050565b7f5553444320746f6b656e20616464726573732063616e6e6f74206265207a657260008201527f6f00000000000000000000000000000000000000000000000000000000000000602082015250565b6000620004ca6021836200045b565b9150620004d7826200046c565b604082019050919050565b60006020820190508181036000830152620004fd81620004bb565b9050919050565b7f5374616b696e6720636f6e747261637420616464726573732063616e6e6f742060008201527f6265207a65726f00000000000000000000000000000000000000000000000000602082015250565b6000620005626027836200045b565b91506200056f8262000504565b604082019050919050565b60006020820190508181036000830152620005958162000553565b9050919050565b7f53616c65206475726174696f6e206d757374206265206772656174657220746860008201527f616e207a65726f00000000000000000000000000000000000000000000000000602082015250565b6000620005fa6027836200045b565b915062000607826200059c565b604082019050919050565b600060208201905081810360008301526200062d81620005eb565b9050919050565b60805160a0516124106200067660003960008181610dc50152611288015260008181610447015281816107800152818161086b0152610d7c01526124106000f3fe608060405234801561001057600080fd5b506004361061014d5760003560e01c806358d21178116100c3578063b66a0e5d1161007c578063b66a0e5d14610397578063b6b55f25146103a1578063c10b9358146103bd578063dd785ef8146103db578063ee99205c1461040b578063f2fde38b146104295761014d565b806358d21178146102e05780635f945733146103005780636386c1c71461031e578063715018a6146103515780638da5cb5b1461035b578063ab0bcc41146103795761014d565b80633c3d3af6116101155780633c3d3af6146101e45780633feb5f2b14610214578063440e1e69146102445780634c7f8929146102745780635216aeec146102a4578063564566a8146102c25761014d565b806311eac85514610152578063182a89e6146101705780631cbaa8481461018c57806324600fc3146101bc5780633711d9fb146101c6575b600080fd5b61015a610445565b6040516101679190611739565b60405180910390f35b61018a60048036038101906101859190611819565b610469565b005b6101a660048036038101906101a1919061190b565b6106d3565b6040516101b39190611951565b60405180910390f35b6101c46106eb565b005b6101ce6108e9565b6040516101db9190611951565b60405180910390f35b6101fe60048036038101906101f9919061190b565b6108ef565b60405161020b9190611951565b60405180910390f35b61022e60048036038101906102299190611998565b610907565b60405161023b91906119d4565b60405180910390f35b61025e6004803603810190610259919061190b565b610946565b60405161026b9190611951565b60405180910390f35b61028e6004803603810190610289919061190b565b61095e565b60405161029b9190611951565b60405180910390f35b6102ac610976565b6040516102b99190611951565b60405180910390f35b6102ca61097c565b6040516102d79190611a0a565b60405180910390f35b6102e86109a4565b6040516102f793929190611a25565b60405180910390f35b6103086109bd565b6040516103159190611951565b60405180910390f35b6103386004803603810190610333919061190b565b6109c7565b6040516103489493929190611a5c565b60405180910390f35b610359610adc565b005b610363610af0565b60405161037091906119d4565b60405180910390f35b610381610b19565b60405161038e9190611951565b60405180910390f35b61039f610b1f565b005b6103bb60048036038101906103b69190611998565b610bd8565b005b6103c5610fbf565b6040516103d29190611951565b60405180910390f35b6103f560048036038101906103f09190611aa1565b610fc5565b6040516104029190611c16565b60405180910390f35b610413611286565b6040516104209190611c59565b60405180910390f35b610443600480360381019061043e919061190b565b6112aa565b005b7f000000000000000000000000000000000000000000000000000000000000000081565b610471611330565b838390508686905014801561048b57508181905086869050145b6104ca576040517f08c379a00000000000000000000000000000000000000000000000000000000081526004016104c190611cd1565b60405180910390fd5b60005b8686905081101561068957600073ffffffffffffffffffffffffffffffffffffffff1687878381811061050357610502611cf1565b5b9050602002016020810190610518919061190b565b73ffffffffffffffffffffffffffffffffffffffff160361056e576040517f08c379a000000000000000000000000000000000000000000000000000000000815260040161056590611d6c565b60405180910390fd5b84848281811061058157610580611cf1565b5b905060200201356008600089898581811061059f5761059e611cf1565b5b90506020020160208101906105b4919061190b565b73ffffffffffffffffffffffffffffffffffffffff1673ffffffffffffffffffffffffffffffffffffffff1681526020019081526020016000208190555082828281811061060557610604611cf1565b5b905060200201356009600089898581811061062357610622611cf1565b5b9050602002016020810190610638919061190b565b73ffffffffffffffffffffffffffffffffffffffff1673ffffffffffffffffffffffffffffffffffffffff16815260200190815260200160002081905550808061068190611dbb565b9150506104cd565b507f85e8d2c09fca20f54db67ec51505bc0191ba3f71778c8dd16f18275b8cc994708686868686866040516106c396959493929190611f32565b60405180910390a1505050505050565b60096020528060005260406000206000915090505481565b6106f3611330565b600060025411610738576040517f08c379a000000000000000000000000000000000000000000000000000000000815260040161072f90611fd0565b60405180910390fd5b600354421161077c576040517f08c379a00000000000000000000000000000000000000000000000000000000081526004016107739061203c565b60405180910390fd5b60007f000000000000000000000000000000000000000000000000000000000000000073ffffffffffffffffffffffffffffffffffffffff166370a08231306040518263ffffffff1660e01b81526004016107d791906119d4565b602060405180830381865afa1580156107f4573d6000803e3d6000fd5b505050506040513d601f19601f820116820180604052508101906108189190612071565b90506000811161085d576040517f08c379a0000000000000000000000000000000000000000000000000000000008152600401610854906120ea565b60405180910390fd5b6108af610868610af0565b827f000000000000000000000000000000000000000000000000000000000000000073ffffffffffffffffffffffffffffffffffffffff166113b79092919063ffffffff16565b7f4a37b25aab49761ecf63117fe82b98d750917451133cf797507bc9fb5b96044a816040516108de9190611951565b60405180910390a150565b60045481565b60066020528060005260406000206000915090505481565b600a818154811061091757600080fd5b906000526020600020016000915054906101000a900473ffffffffffffffffffffffffffffffffffffffff1681565b60086020528060005260406000206000915090505481565b60076020528060005260406000206000915090505481565b60055481565b60008060025411801561099157506002544210155b801561099f57506003544211155b905090565b6000806000600254600354600454925092509250909192565b6000600554905090565b600080600080600660008673ffffffffffffffffffffffffffffffffffffffff1673ffffffffffffffffffffffffffffffffffffffff16815260200190815260200160002054600760008773ffffffffffffffffffffffffffffffffffffffff1673ffffffffffffffffffffffffffffffffffffffff16815260200190815260200160002054600860008873ffffffffffffffffffffffffffffffffffffffff1673ffffffffffffffffffffffffffffffffffffffff16815260200190815260200160002054600960008973ffffffffffffffffffffffffffffffffffffffff1673ffffffffffffffffffffffffffffffffffffffff1681526020019081526020016000205493509350935093509193509193565b610ae4611330565b610aee6000611436565b565b60008060009054906101000a900473ffffffffffffffffffffffffffffffffffffffff16905090565b60025481565b610b27611330565b60006002541480610b39575060035442115b610b78576040517f08c379a0000000000000000000000000000000000000000000000000000000008152600401610b6f90612156565b60405180910390fd5b42600281905550600454600254610b8f9190612176565b6003819055507f5ee5e9eecd6fd27ba20784f8da118fe26b697aca487c80f605baec0b88ed3636600254600354600454604051610bce93929190611a25565b60405180910390a1565b600060025411610c1d576040517f08c379a0000000000000000000000000000000000000000000000000000000008152600401610c1490611fd0565b60405180910390fd5b600254421015610c62576040517f08c379a0000000000000000000000000000000000000000000000000000000008152600401610c5990611fd0565b60405180910390fd5b600354421115610ca7576040517f08c379a0000000000000000000000000000000000000000000000000000000008152600401610c9e906121f6565b60405180910390fd5b610caf6114fa565b60008111610cf2576040517f08c379a0000000000000000000000000000000000000000000000000000000008152600401610ce990612262565b60405180910390fd5b6000600660003373ffffffffffffffffffffffffffffffffffffffff1673ffffffffffffffffffffffffffffffffffffffff1681526020019081526020016000205414610d74576040517f08c379a0000000000000000000000000000000000000000000000000000000008152600401610d6b906122ce565b60405180910390fd5b610dc13330837f000000000000000000000000000000000000000000000000000000000000000073ffffffffffffffffffffffffffffffffffffffff16611540909392919063ffffffff16565b60007f000000000000000000000000000000000000000000000000000000000000000073ffffffffffffffffffffffffffffffffffffffff16636e2f1696336040518263ffffffff1660e01b8152600401610e1c91906119d4565b602060405180830381865afa158015610e39573d6000803e3d6000fd5b505050506040513d601f19601f82011682018060405250810190610e5d9190612071565b905081600660003373ffffffffffffffffffffffffffffffffffffffff1673ffffffffffffffffffffffffffffffffffffffff1681526020019081526020016000208190555080600760003373ffffffffffffffffffffffffffffffffffffffff1673ffffffffffffffffffffffffffffffffffffffff16815260200190815260200160002081905550600a339080600181540180825580915050600190039060005260206000200160009091909190916101000a81548173ffffffffffffffffffffffffffffffffffffffff021916908373ffffffffffffffffffffffffffffffffffffffff1602179055508160056000828254610f5c9190612176565b925050819055503373ffffffffffffffffffffffffffffffffffffffff167f0b05f0d1cd0819f155b8a61f60baf7767c1ee49d04aeaab701df236140eb93f98383604051610fab9291906122ee565b60405180910390a250610fbc6115c2565b50565b60035481565b60606000600a80549050905080841061103557600067ffffffffffffffff811115610ff357610ff2612317565b5b60405190808252806020026020018201604052801561102c57816020015b611019611675565b8152602001906001900390816110115790505b50915050611280565b60008390508184866110479190612176565b111561105c5784826110599190612346565b90505b60008167ffffffffffffffff81111561107857611077612317565b5b6040519080825280602002602001820160405280156110b157816020015b61109e611675565b8152602001906001900390816110965790505b50905060005b82811015611278576000600a82896110cf9190612176565b815481106110e0576110df611cf1565b5b9060005260206000200160009054906101000a900473ffffffffffffffffffffffffffffffffffffffff1690506040518060a001604052808273ffffffffffffffffffffffffffffffffffffffff168152602001600660008473ffffffffffffffffffffffffffffffffffffffff1673ffffffffffffffffffffffffffffffffffffffff168152602001908152602001600020548152602001600760008473ffffffffffffffffffffffffffffffffffffffff1673ffffffffffffffffffffffffffffffffffffffff168152602001908152602001600020548152602001600860008473ffffffffffffffffffffffffffffffffffffffff1673ffffffffffffffffffffffffffffffffffffffff168152602001908152602001600020548152602001600960008473ffffffffffffffffffffffffffffffffffffffff1673ffffffffffffffffffffffffffffffffffffffff1681526020019081526020016000205481525083838151811061125957611258611cf1565b5b602002602001018190525050808061127090611dbb565b9150506110b7565b508093505050505b92915050565b7f000000000000000000000000000000000000000000000000000000000000000081565b6112b2611330565b600073ffffffffffffffffffffffffffffffffffffffff168173ffffffffffffffffffffffffffffffffffffffff16036113245760006040517f1e4fbdf700000000000000000000000000000000000000000000000000000000815260040161131b91906119d4565b60405180910390fd5b61132d81611436565b50565b6113386115cb565b73ffffffffffffffffffffffffffffffffffffffff16611356610af0565b73ffffffffffffffffffffffffffffffffffffffff16146113b5576113796115cb565b6040517f118cdaa70000000000000000000000000000000000000000000000000000000081526004016113ac91906119d4565b60405180910390fd5b565b611431838473ffffffffffffffffffffffffffffffffffffffff1663a9059cbb85856040516024016113ea92919061237a565b604051602081830303815290604052915060e01b6020820180517bffffffffffffffffffffffffffffffffffffffffffffffffffffffff83818316178352505050506115d3565b505050565b60008060009054906101000a900473ffffffffffffffffffffffffffffffffffffffff169050816000806101000a81548173ffffffffffffffffffffffffffffffffffffffff021916908373ffffffffffffffffffffffffffffffffffffffff1602179055508173ffffffffffffffffffffffffffffffffffffffff168173ffffffffffffffffffffffffffffffffffffffff167f8be0079c531659141344cd1fd0a4f28419497f9722a3daafe3b4186f6b6457e060405160405180910390a35050565b600260015403611536576040517f3ee5aeb500000000000000000000000000000000000000000000000000000000815260040160405180910390fd5b6002600181905550565b6115bc848573ffffffffffffffffffffffffffffffffffffffff166323b872dd868686604051602401611575939291906123a3565b604051602081830303815290604052915060e01b6020820180517bffffffffffffffffffffffffffffffffffffffffffffffffffffffff83818316178352505050506115d3565b50505050565b60018081905550565b600033905090565b600080602060008451602086016000885af1806115f6576040513d6000823e3d81fd5b3d92506000519150506000821461161157600181141561162d565b60008473ffffffffffffffffffffffffffffffffffffffff163b145b1561166f57836040517f5274afe700000000000000000000000000000000000000000000000000000000815260040161166691906119d4565b60405180910390fd5b50505050565b6040518060a00160405280600073ffffffffffffffffffffffffffffffffffffffff168152602001600081526020016000815260200160008152602001600081525090565b600073ffffffffffffffffffffffffffffffffffffffff82169050919050565b6000819050919050565b60006116ff6116fa6116f5846116ba565b6116da565b6116ba565b9050919050565b6000611711826116e4565b9050919050565b600061172382611706565b9050919050565b61173381611718565b82525050565b600060208201905061174e600083018461172a565b92915050565b600080fd5b600080fd5b600080fd5b600080fd5b600080fd5b60008083601f8401126117835761178261175e565b5b8235905067ffffffffffffffff8111156117a05761179f611763565b5b6020830191508360208202830111156117bc576117bb611768565b5b9250929050565b60008083601f8401126117d9576117d861175e565b5b8235905067ffffffffffffffff8111156117f6576117f5611763565b5b60208301915083602082028301111561181257611811611768565b5b9250929050565b6000806000806000806060878903121561183657611835611754565b5b600087013567ffffffffffffffff81111561185457611853611759565b5b61186089828a0161176d565b9650965050602087013567ffffffffffffffff81111561188357611882611759565b5b61188f89828a016117c3565b9450945050604087013567ffffffffffffffff8111156118b2576118b1611759565b5b6118be89828a016117c3565b92509250509295509295509295565b60006118d8826116ba565b9050919050565b6118e8816118cd565b81146118f357600080fd5b50565b600081359050611905816118df565b92915050565b60006020828403121561192157611920611754565b5b600061192f848285016118f6565b91505092915050565b6000819050919050565b61194b81611938565b82525050565b60006020820190506119666000830184611942565b92915050565b61197581611938565b811461198057600080fd5b50565b6000813590506119928161196c565b92915050565b6000602082840312156119ae576119ad611754565b5b60006119bc84828501611983565b91505092915050565b6119ce816118cd565b82525050565b60006020820190506119e960008301846119c5565b92915050565b60008115159050919050565b611a04816119ef565b82525050565b6000602082019050611a1f60008301846119fb565b92915050565b6000606082019050611a3a6000830186611942565b611a476020830185611942565b611a546040830184611942565b949350505050565b6000608082019050611a716000830187611942565b611a7e6020830186611942565b611a8b6040830185611942565b611a986060830184611942565b95945050505050565b60008060408385031215611ab857611ab7611754565b5b6000611ac685828601611983565b9250506020611ad785828601611983565b9150509250929050565b600081519050919050565b600082825260208201905092915050565b6000819050602082019050919050565b611b16816118cd565b82525050565b611b2581611938565b82525050565b60a082016000820151611b416000850182611b0d565b506020820151611b546020850182611b1c565b506040820151611b676040850182611b1c565b506060820151611b7a6060850182611b1c565b506080820151611b8d6080850182611b1c565b50505050565b6000611b9f8383611b2b565b60a08301905092915050565b6000602082019050919050565b6000611bc382611ae1565b611bcd8185611aec565b9350611bd883611afd565b8060005b83811015611c09578151611bf08882611b93565b9750611bfb83611bab565b925050600181019050611bdc565b5085935050505092915050565b60006020820190508181036000830152611c308184611bb8565b905092915050565b6000611c4382611706565b9050919050565b611c5381611c38565b82525050565b6000602082019050611c6e6000830184611c4a565b92915050565b600082825260208201905092915050565b7f4172726179206c656e67746873206d757374206d617463680000000000000000600082015250565b6000611cbb601883611c74565b9150611cc682611c85565b602082019050919050565b60006020820190508181036000830152611cea81611cae565b9050919050565b7f4e487b7100000000000000000000000000000000000000000000000000000000600052603260045260246000fd5b7f496e76616c696420616464726573730000000000000000000000000000000000600082015250565b6000611d56600f83611c74565b9150611d6182611d20565b602082019050919050565b60006020820190508181036000830152611d8581611d49565b9050919050565b7f4e487b7100000000000000000000000000000000000000000000000000000000600052601160045260246000fd5b6000611dc682611938565b91507fffffffffffffffffffffffffffffffffffffffffffffffffffffffffffffffff8203611df857611df7611d8c565b5b600182019050919050565b600082825260208201905092915050565b6000819050919050565b6000611e2a8383611b0d565b60208301905092915050565b6000611e4560208401846118f6565b905092915050565b6000602082019050919050565b6000611e668385611e03565b9350611e7182611e14565b8060005b85811015611eaa57611e878284611e36565b611e918882611e1e565b9750611e9c83611e4d565b925050600181019050611e75565b5085925050509392505050565b600082825260208201905092915050565b600080fd5b82818337505050565b6000611ee28385611eb7565b93507f07ffffffffffffffffffffffffffffffffffffffffffffffffffffffffffffff831115611f1557611f14611ec8565b5b602083029250611f26838584611ecd565b82840190509392505050565b60006060820190508181036000830152611f4d81888a611e5a565b90508181036020830152611f62818688611ed6565b90508181036040830152611f77818486611ed6565b9050979650505050505050565b7f53616c65206e6f74207374617274656400000000000000000000000000000000600082015250565b6000611fba601083611c74565b9150611fc582611f84565b602082019050919050565b60006020820190508181036000830152611fe981611fad565b9050919050565b7f53616c65207374696c6c20616374697665000000000000000000000000000000600082015250565b6000612026601183611c74565b915061203182611ff0565b602082019050919050565b6000602082019050818103600083015261205581612019565b9050919050565b60008151905061206b8161196c565b92915050565b60006020828403121561208757612086611754565b5b60006120958482850161205c565b91505092915050565b7f4e6f2066756e647320746f207769746864726177000000000000000000000000600082015250565b60006120d4601483611c74565b91506120df8261209e565b602082019050919050565b60006020820190508181036000830152612103816120c7565b9050919050565b7f53616c6520616c72656164792061637469766500000000000000000000000000600082015250565b6000612140601383611c74565b915061214b8261210a565b602082019050919050565b6000602082019050818103600083015261216f81612133565b9050919050565b600061218182611938565b915061218c83611938565b92508282019050808211156121a4576121a3611d8c565b5b92915050565b7f53616c6520656e64656400000000000000000000000000000000000000000000600082015250565b60006121e0600a83611c74565b91506121eb826121aa565b602082019050919050565b6000602082019050818103600083015261220f816121d3565b9050919050565b7f416d6f756e74206d7573742062652067726561746572207468616e207a65726f600082015250565b600061224c602083611c74565b915061225782612216565b602082019050919050565b6000602082019050818103600083015261227b8161223f565b9050919050565b7f416c7265616479206465706f7369746564000000000000000000000000000000600082015250565b60006122b8601183611c74565b91506122c382612282565b602082019050919050565b600060208201905081810360008301526122e7816122ab565b9050919050565b60006040820190506123036000830185611942565b6123106020830184611942565b9392505050565b7f4e487b7100000000000000000000000000000000000000000000000000000000600052604160045260246000fd5b600061235182611938565b915061235c83611938565b925082820390508181111561237457612373611d8c565b5b92915050565b600060408201905061238f60008301856119c5565b61239c6020830184611942565b9392505050565b60006060820190506123b860008301866119c5565b6123c560208301856119c5565b6123d26040830184611942565b94935050505056fea26469706673582212205486dba8ccc259b7c0dd0a35f0dc0ed09646576455c10900dfa757099c9c87a364736f6c63430008140033",
  "devdoc": {
    "details": "Simple sale collector that accepts USDC deposits, snapshots staked balances,      and stores final token allocations and refund amounts",
    "errors": {
      "OwnableInvalidOwner(address)": [
        {
          "details": "The owner is not a valid owner account. (eg. `address(0)`)"
        }
      ],
      "OwnableUnauthorizedAccount(address)": [
        {
          "details": "The caller account is not authorized to perform an operation."
        }
      ],
      "ReentrancyGuardReentrantCall()": [
        {
          "details": "Unauthorized reentrant call."
        }
      ],
      "SafeERC20FailedOperation(address)": [
        {
          "details": "An operation with an ERC-20 token failed."
        }
      ]
    },
    "kind": "dev",
    "methods": {
      "constructor": {
        "details": "Constructor",
        "params": {
          "_saleDuration": "Duration of the sale in seconds",
          "_stakingContract": "Address of staking contract",
          "_usdcToken": "Address of USDC token"
        }
      },
      "deposit(uint256)": {
        "details": "Deposit USDC during the sale",
        "params": {
          "_amount": "Amount of USDC to deposit"
        }
      },
      "getAllInvestors(uint256,uint256)": {
        "details": "Get all investors with their complete information (paginated)",
        "params": {
          "limit": "Maximum number of investors to return",
          "offset": "Starting index for pagination"
        },
        "returns": {
          "_0": "Array of InvestorInfo structs"
        }
      },
      "getSaleTimes()": {
        "details": "Get sale timing information",
        "returns": {
          "saleDuration_": "Sale duration in seconds",
          "saleEnd_": "Sale end timestamp",
          "saleStart_": "Sale start timestamp"
        }
      },
      "getTotalInvested()": {
        "details": "Get total amount invested across all users",
        "returns": {
          "_0": "Total USDC invested"
        }
      },
      "getUserInfo(address)": {
        "details": "Get user investment information",
        "params": {
          "user": "Address of the user"
        },
        "returns": {
          "amountInvested_": "USDC deposited by user",
          "stakedSnapshot_": "Staked balance at deposit time",
          "tokenAllocation_": "Final token allocation",
          "usdcRefund_": "Final USDC refund amount"
        }
      },
      "isSaleActive()": {
        "details": "Check if sale is currently active",
        "returns": {
          "_0": "true if sale is active, false otherwise"
        }
      },
      "owner()": {
        "details": "Returns the address of the current owner."
      },
      "renounceOwnership()": {
        "details": "Leaves the contract without owner. It will not be possible to call `onlyOwner` functions. Can only be called by the current owner. NOTE: Renouncing ownership will leave the contract without an owner, thereby disabling any functionality that is only available to the owner."
      },
      "setAllocations(address[],uint256[],uint256[])": {
        "details": "Set allocations and refunds for investors (admin only)",
        "params": {
          "_addresses": "Array of investor addresses",
          "_tokenAllocations": "Array of token allocations",
          "_usdcRefunds": "Array of USDC refund amounts"
        }
      },
      "startSale()": {
        "details": "Start the sale (admin only)"
      },
      "transferOwnership(address)": {
        "details": "Transfers ownership of the contract to a new account (`newOwner`). Can only be called by the current owner."
      },
      "withdrawFunds()": {
        "details": "Withdraw all collected USDC after the sale (admin only)"
      }
    },
    "title": "InvestmentContract",
    "version": 1
  },
  "userdoc": {
    "kind": "user",
    "methods": {},
    "version": 1
  },
  "storageLayout": {
    "storage": [
      {
        "astId": 8,
        "contract": "contracts/InvestmentContract.sol:InvestmentContract",
        "label": "_owner",
        "offset": 0,
        "slot": "0",
        "type": "t_address"
      },
      {
        "astId": 820,
        "contract": "contracts/InvestmentContract.sol:InvestmentContract",
        "label": "_status",
        "offset": 0,
        "slot": "1",
        "type": "t_uint256"
      },
      {
        "astId": 917,
        "contract": "contracts/InvestmentContract.sol:InvestmentContract",
        "label": "saleStart",
        "offset": 0,
        "slot": "2",
        "type": "t_uint256"
      },
      {
        "astId": 919,
        "contract": "contracts/InvestmentContract.sol:InvestmentContract",
        "label": "saleEnd",
        "offset": 0,
        "slot": "3",
        "type": "t_uint256"
      },
      {
        "astId": 921,
        "contract": "contracts/InvestmentContract.sol:InvestmentContract",
        "label": "saleDuration",
        "offset": 0,
        "slot": "4",
        "type": "t_uint256"
      },
      {
        "astId": 923,
        "contract": "contracts/InvestmentContract.sol:InvestmentContract",
        "label": "totalInvested",
        "offset": 0,
        "slot": "5",
        "type": "t_uint256"
      },
      {
        "astId": 927,
        "contract": "contracts/InvestmentContract.sol:InvestmentContract",
        "label": "amountInvested",
        "offset": 0,
        "slot": "6",
        "type": "t_mapping(t_address,t_uint256)"
      },
      {
        "astId": 931,
        "contract": "contracts/InvestmentContract.sol:InvestmentContract",
        "label": "stakedSnapshot",
        "offset": 0,
        "slot": "7",
        "type": "t_mapping(t_address,t_uint256)"
      },
      {
        "astId": 935,
        "contract": "contracts/InvestmentContract.sol:InvestmentContract",
        "label": "tokenAllocation",
        "offset": 0,
        "slot": "8",
        "type": "t_mapping(t_address,t_uint256)"
      },
      {
        "astId": 939,
        "contract": "contracts/InvestmentContract.sol:InvestmentContract",
        "label": "usdcRefund",
        "offset": 0,
        "slot": "9",
        "type": "t_mapping(t_address,t_uint256)"
      },
      {
        "astId": 942,
        "contract": "contracts/InvestmentContract.sol:InvestmentContract",
        "label": "investors",
        "offset": 0,
        "slot": "10",
        "type": "t_array(t_address)dyn_storage"
      }
    ],
    "types": {
      "t_address": {
        "encoding": "inplace",
        "label": "address",
        "numberOfBytes": "20"
      },
      "t_array(t_address)dyn_storage": {
        "base": "t_address",
        "encoding": "dynamic_array",
        "label": "address[]",
        "numberOfBytes": "32"
      },
      "t_mapping(t_address,t_uint256)": {
        "encoding": "mapping",
        "key": "t_address",
        "label": "mapping(address => uint256)",
        "numberOfBytes": "32",
        "value": "t_uint256"
      },
      "t_uint256": {
        "encoding": "inplace",
        "label": "uint256",
        "numberOfBytes": "32"
      }
    }
  }
}