{
  "address": "0xc08392d15C6EfaFa126364B0ddD4C18b82A1369e",
  "abi": [
    {
      "inputs": [
        {
          "internalType": "address",
          "name": "_token",
          "type": "address"
        },
        {
          "internalType": "bytes32",
          "name": "_merkleRoot",
          "type": "bytes32"
        }
      ],
      "stateMutability": "nonpayable",
      "type": "constructor"
    },
    {
      "inputs": [
        {
          "internalType": "address",
          "name": "owner",
          "type": "address"
        }
      ],
      "name": "OwnableInvalidOwner",
      "type": "error"
    },
    {
      "inputs": [
        {
          "internalType": "address",
          "name": "account",
          "type": "address"
        }
      ],
      "name": "OwnableUnauthorizedAccount",
      "type": "error"
    },
    {
      "inputs": [
        {
          "internalType": "address",
          "name": "token",
          "type": "address"
        }
      ],
      "name": "SafeERC20FailedOperation",
      "type": "error"
    },
    {
      "anonymous": false,
      "inputs": [
        {
          "indexed": true,
          "internalType": "address",
          "name": "account",
          "type": "address"
        },
        {
          "indexed": false,
          "internalType": "uint256",
          "name": "amount",
          "type": "uint256"
        }
      ],
      "name": "Claimed",
      "type": "event"
    },
    {
      "anonymous": false,
      "inputs": [
        {
          "indexed": true,
          "internalType": "address",
          "name": "previousOwner",
          "type": "address"
        },
        {
          "indexed": true,
          "internalType": "address",
          "name": "newOwner",
          "type": "address"
        }
      ],
      "name": "OwnershipTransferred",
      "type": "event"
    },
    {
      "anonymous": false,
      "inputs": [
        {
          "indexed": true,
          "internalType": "bytes32",
          "name": "oldRoot",
          "type": "bytes32"
        },
        {
          "indexed": true,
          "internalType": "bytes32",
          "name": "newRoot",
          "type": "bytes32"
        }
      ],
      "name": "RootChanged",
      "type": "event"
    },
    {
      "inputs": [
        {
          "internalType": "bytes32",
          "name": "_newMerkleRoot",
          "type": "bytes32"
        }
      ],
      "name": "changeRoot",
      "outputs": [],
      "stateMutability": "nonpayable",
      "type": "function"
    },
    {
      "inputs": [
        {
          "internalType": "address",
          "name": "account",
          "type": "address"
        },
        {
          "internalType": "uint256",
          "name": "amount",
          "type": "uint256"
        },
        {
          "internalType": "bytes32[]",
          "name": "merkleProof",
          "type": "bytes32[]"
        }
      ],
      "name": "claim",
      "outputs": [],
      "stateMutability": "nonpayable",
      "type": "function"
    },
    {
      "inputs": [
        {
          "internalType": "address",
          "name": "",
          "type": "address"
        }
      ],
      "name": "claimed",
      "outputs": [
        {
          "internalType": "bool",
          "name": "",
          "type": "bool"
        }
      ],
      "stateMutability": "view",
      "type": "function"
    },
    {
      "inputs": [
        {
          "internalType": "address",
          "name": "account",
          "type": "address"
        }
      ],
      "name": "isClaimed",
      "outputs": [
        {
          "internalType": "bool",
          "name": "",
          "type": "bool"
        }
      ],
      "stateMutability": "view",
      "type": "function"
    },
    {
      "inputs": [],
      "name": "merkleRoot",
      "outputs": [
        {
          "internalType": "bytes32",
          "name": "",
          "type": "bytes32"
        }
      ],
      "stateMutability": "view",
      "type": "function"
    },
    {
      "inputs": [],
      "name": "owner",
      "outputs": [
        {
          "internalType": "address",
          "name": "",
          "type": "address"
        }
      ],
      "stateMutability": "view",
      "type": "function"
    },
    {
      "inputs": [],
      "name": "renounceOwnership",
      "outputs": [],
      "stateMutability": "nonpayable",
      "type": "function"
    },
    {
      "inputs": [],
      "name": "token",
      "outputs": [
        {
          "internalType": "contract ERC20",
          "name": "",
          "type": "address"
        }
      ],
      "stateMutability": "view",
      "type": "function"
    },
    {
      "inputs": [
        {
          "internalType": "address",
          "name": "newOwner",
          "type": "address"
        }
      ],
      "name": "transferOwnership",
      "outputs": [],
      "stateMutability": "nonpayable",
      "type": "function"
    },
    {
      "inputs": [],
      "name": "withdrawRemainingTokens",
      "outputs": [],
      "stateMutability": "nonpayable",
      "type": "function"
    }
  ],
  "transactionHash": "0xc25cead6dc55eaccbdf6d9b4fec7eeda6bdc0f5add3b42eb041aa8a72eacc689",
  "args": [
    "0x6555255b8dEd3c538Cb398d9E36769f45D7d3ea7",
    "0xbf039e5e063fd7ba46470cae7d87dec4dd02e99464b5ea40e858b9d44e5b91d6"
  ],
  "numDeployments": 1,
  "solcInputHash": "9d01382444cf9e1a67396395124b68fd",
  "bytecode": "0x60a06040523480156200001157600080fd5b50604051620012d8380380620012d883398181016040528101906200003791906200026b565b33600073ffffffffffffffffffffffffffffffffffffffff168173ffffffffffffffffffffffffffffffffffffffff1603620000ad5760006040517f1e4fbdf7000000000000000000000000000000000000000000000000000000008152600401620000a49190620002c3565b60405180910390fd5b620000be816200010260201b60201c565b508173ffffffffffffffffffffffffffffffffffffffff1660808173ffffffffffffffffffffffffffffffffffffffff1681525050806001819055505050620002e0565b60008060009054906101000a900473ffffffffffffffffffffffffffffffffffffffff169050816000806101000a81548173ffffffffffffffffffffffffffffffffffffffff021916908373ffffffffffffffffffffffffffffffffffffffff1602179055508173ffffffffffffffffffffffffffffffffffffffff168173ffffffffffffffffffffffffffffffffffffffff167f8be0079c531659141344cd1fd0a4f28419497f9722a3daafe3b4186f6b6457e060405160405180910390a35050565b600080fd5b600073ffffffffffffffffffffffffffffffffffffffff82169050919050565b6000620001f882620001cb565b9050919050565b6200020a81620001eb565b81146200021657600080fd5b50565b6000815190506200022a81620001ff565b92915050565b6000819050919050565b620002458162000230565b81146200025157600080fd5b50565b60008151905062000265816200023a565b92915050565b60008060408385031215620002855762000284620001c6565b5b6000620002958582860162000219565b9250506020620002a88582860162000254565b9150509250929050565b620002bd81620001eb565b82525050565b6000602082019050620002da6000830184620002b2565b92915050565b608051610fc76200031160003960008181610371015281816104720152818161051a01526106880152610fc76000f3fe608060405234801561001057600080fd5b506004361061009e5760003560e01c80638cc08025116100665780638cc080251461010d5780638da5cb5b1461013d578063c884ef831461015b578063f2fde38b1461018b578063fc0c546a146101a75761009e565b80632eb4a7ab146100a35780633d13f874146100c15780633d59cd60146100dd578063715018a6146100f95780638afbf66914610103575b600080fd5b6100ab6101c5565b6040516100b891906109e6565b60405180910390f35b6100db60048036038101906100d69190610b04565b6101cb565b005b6100f760048036038101906100f29190610ba4565b61040a565b005b610101610452565b005b61010b610466565b005b61012760048036038101906101229190610bd1565b610561565b6040516101349190610c19565b60405180910390f35b6101456105b7565b6040516101529190610c43565b60405180910390f35b61017560048036038101906101709190610bd1565b6105e0565b6040516101829190610c19565b60405180910390f35b6101a560048036038101906101a09190610bd1565b610600565b005b6101af610686565b6040516101bc9190610cbd565b60405180910390f35b60015481565b600260008573ffffffffffffffffffffffffffffffffffffffff1673ffffffffffffffffffffffffffffffffffffffff16815260200190815260200160002060009054906101000a900460ff1615610258576040517f08c379a000000000000000000000000000000000000000000000000000000000815260040161024f90610d35565b60405180910390fd5b6000848460405160200161026d929190610dbe565b6040516020818303038152906040528051906020012090506102d3838380806020026020016040519081016040528093929190818152602001838360200280828437600081840152601f19601f82011690508083019250505050505050600154836106aa565b610312576040517f08c379a000000000000000000000000000000000000000000000000000000000815260040161030990610e36565b60405180910390fd5b6001600260008773ffffffffffffffffffffffffffffffffffffffff1673ffffffffffffffffffffffffffffffffffffffff16815260200190815260200160002060006101000a81548160ff0219169083151502179055506103b585857f000000000000000000000000000000000000000000000000000000000000000073ffffffffffffffffffffffffffffffffffffffff166106c19092919063ffffffff16565b8473ffffffffffffffffffffffffffffffffffffffff167fd8138f8a3f377c5259ca548e70e4c2de94f129f5a11036a15b69513cba2b426a856040516103fb9190610e65565b60405180910390a25050505050565b610412610740565b600060015490508160018190555081817f92f247115807457a9c60b05f44c4a4efb6193b0b9559d171999b156dedb6ecbb60405160405180910390a35050565b61045a610740565b61046460006107c7565b565b61046e610740565b60007f000000000000000000000000000000000000000000000000000000000000000073ffffffffffffffffffffffffffffffffffffffff166370a08231306040518263ffffffff1660e01b81526004016104c99190610c43565b602060405180830381865afa1580156104e6573d6000803e3d6000fd5b505050506040513d601f19601f8201168201806040525081019061050a9190610e95565b905061055e6105176105b7565b827f000000000000000000000000000000000000000000000000000000000000000073ffffffffffffffffffffffffffffffffffffffff166106c19092919063ffffffff16565b50565b6000600260008373ffffffffffffffffffffffffffffffffffffffff1673ffffffffffffffffffffffffffffffffffffffff16815260200190815260200160002060009054906101000a900460ff169050919050565b60008060009054906101000a900473ffffffffffffffffffffffffffffffffffffffff16905090565b60026020528060005260406000206000915054906101000a900460ff1681565b610608610740565b600073ffffffffffffffffffffffffffffffffffffffff168173ffffffffffffffffffffffffffffffffffffffff160361067a5760006040517f1e4fbdf70000000000000000000000000000000000000000000000000000000081526004016106719190610c43565b60405180910390fd5b610683816107c7565b50565b7f000000000000000000000000000000000000000000000000000000000000000081565b6000826106b7858461088b565b1490509392505050565b61073b838473ffffffffffffffffffffffffffffffffffffffff1663a9059cbb85856040516024016106f4929190610ec2565b604051602081830303815290604052915060e01b6020820180517bffffffffffffffffffffffffffffffffffffffffffffffffffffffff83818316178352505050506108e1565b505050565b610748610983565b73ffffffffffffffffffffffffffffffffffffffff166107666105b7565b73ffffffffffffffffffffffffffffffffffffffff16146107c557610789610983565b6040517f118cdaa70000000000000000000000000000000000000000000000000000000081526004016107bc9190610c43565b60405180910390fd5b565b60008060009054906101000a900473ffffffffffffffffffffffffffffffffffffffff169050816000806101000a81548173ffffffffffffffffffffffffffffffffffffffff021916908373ffffffffffffffffffffffffffffffffffffffff1602179055508173ffffffffffffffffffffffffffffffffffffffff168173ffffffffffffffffffffffffffffffffffffffff167f8be0079c531659141344cd1fd0a4f28419497f9722a3daafe3b4186f6b6457e060405160405180910390a35050565b60008082905060005b84518110156108d6576108c1828683815181106108b4576108b3610eeb565b5b602002602001015161098b565b915080806108ce90610f49565b915050610894565b508091505092915050565b600080602060008451602086016000885af180610904576040513d6000823e3d81fd5b3d92506000519150506000821461091f57600181141561093b565b60008473ffffffffffffffffffffffffffffffffffffffff163b145b1561097d57836040517f5274afe70000000000000000000000000000000000000000000000000000000081526004016109749190610c43565b60405180910390fd5b50505050565b600033905090565b60008183106109a35761099e82846109b6565b6109ae565b6109ad83836109b6565b5b905092915050565b600082600052816020526040600020905092915050565b6000819050919050565b6109e0816109cd565b82525050565b60006020820190506109fb60008301846109d7565b92915050565b600080fd5b600080fd5b600073ffffffffffffffffffffffffffffffffffffffff82169050919050565b6000610a3682610a0b565b9050919050565b610a4681610a2b565b8114610a5157600080fd5b50565b600081359050610a6381610a3d565b92915050565b6000819050919050565b610a7c81610a69565b8114610a8757600080fd5b50565b600081359050610a9981610a73565b92915050565b600080fd5b600080fd5b600080fd5b60008083601f840112610ac457610ac3610a9f565b5b8235905067ffffffffffffffff811115610ae157610ae0610aa4565b5b602083019150836020820283011115610afd57610afc610aa9565b5b9250929050565b60008060008060608587031215610b1e57610b1d610a01565b5b6000610b2c87828801610a54565b9450506020610b3d87828801610a8a565b935050604085013567ffffffffffffffff811115610b5e57610b5d610a06565b5b610b6a87828801610aae565b925092505092959194509250565b610b81816109cd565b8114610b8c57600080fd5b50565b600081359050610b9e81610b78565b92915050565b600060208284031215610bba57610bb9610a01565b5b6000610bc884828501610b8f565b91505092915050565b600060208284031215610be757610be6610a01565b5b6000610bf584828501610a54565b91505092915050565b60008115159050919050565b610c1381610bfe565b82525050565b6000602082019050610c2e6000830184610c0a565b92915050565b610c3d81610a2b565b82525050565b6000602082019050610c586000830184610c34565b92915050565b6000819050919050565b6000610c83610c7e610c7984610a0b565b610c5e565b610a0b565b9050919050565b6000610c9582610c68565b9050919050565b6000610ca782610c8a565b9050919050565b610cb781610c9c565b82525050565b6000602082019050610cd26000830184610cae565b92915050565b600082825260208201905092915050565b7f416c726561647920636c61696d65640000000000000000000000000000000000600082015250565b6000610d1f600f83610cd8565b9150610d2a82610ce9565b602082019050919050565b60006020820190508181036000830152610d4e81610d12565b9050919050565b60008160601b9050919050565b6000610d6d82610d55565b9050919050565b6000610d7f82610d62565b9050919050565b610d97610d9282610a2b565b610d74565b82525050565b6000819050919050565b610db8610db382610a69565b610d9d565b82525050565b6000610dca8285610d86565b601482019150610dda8284610da7565b6020820191508190509392505050565b7f496e76616c69642070726f6f6600000000000000000000000000000000000000600082015250565b6000610e20600d83610cd8565b9150610e2b82610dea565b602082019050919050565b60006020820190508181036000830152610e4f81610e13565b9050919050565b610e5f81610a69565b82525050565b6000602082019050610e7a6000830184610e56565b92915050565b600081519050610e8f81610a73565b92915050565b600060208284031215610eab57610eaa610a01565b5b6000610eb984828501610e80565b91505092915050565b6000604082019050610ed76000830185610c34565b610ee46020830184610e56565b9392505050565b7f4e487b7100000000000000000000000000000000000000000000000000000000600052603260045260246000fd5b7f4e487b7100000000000000000000000000000000000000000000000000000000600052601160045260246000fd5b6000610f5482610a69565b91507fffffffffffffffffffffffffffffffffffffffffffffffffffffffffffffffff8203610f8657610f85610f1a565b5b60018201905091905056fea264697066735822122031fdd9dedcb4adb4dd6926db0e4712b90888f72a86fec3c1d76e15909ebe560f64736f6c63430008140033",
  "devdoc": {
    "errors": {
      "OwnableInvalidOwner(address)": [
        {
          "details": "The owner is not a valid owner account. (eg. `address(0)`)"
        }
      ],
      "OwnableUnauthorizedAccount(address)": [
        {
          "details": "The caller account is not authorized to perform an operation."
        }
      ],
      "SafeERC20FailedOperation(address)": [
        {
          "details": "An operation with an ERC-20 token failed."
        }
      ]
    },
    "kind": "dev",
    "methods": {
      "owner()": {
        "details": "Returns the address of the current owner."
      },
      "renounceOwnership()": {
        "details": "Leaves the contract without owner. It will not be possible to call `onlyOwner` functions. Can only be called by the current owner. NOTE: Renouncing ownership will leave the contract without an owner, thereby disabling any functionality that is only available to the owner."
      },
      "transferOwnership(address)": {
        "details": "Transfers ownership of the contract to a new account (`newOwner`). Can only be called by the current owner."
      }
    },
    "version": 1
  },
  "userdoc": {
    "kind": "user",
    "methods": {},
    "version": 1
  },
  "storageLayout": {
    "storage": [
      {
        "astId": 8,
        "contract": "contracts/MerkleTreeDistributor.sol:MerkleTreeDistributor",
        "label": "_owner",
        "offset": 0,
        "slot": "0",
        "type": "t_address"
      },
      {
        "astId": 2633,
        "contract": "contracts/MerkleTreeDistributor.sol:MerkleTreeDistributor",
        "label": "merkleRoot",
        "offset": 0,
        "slot": "1",
        "type": "t_bytes32"
      },
      {
        "astId": 2637,
        "contract": "contracts/MerkleTreeDistributor.sol:MerkleTreeDistributor",
        "label": "claimed",
        "offset": 0,
        "slot": "2",
        "type": "t_mapping(t_address,t_bool)"
      }
    ],
    "types": {
      "t_address": {
        "encoding": "inplace",
        "label": "address",
        "numberOfBytes": "20"
      },
      "t_bool": {
        "encoding": "inplace",
        "label": "bool",
        "numberOfBytes": "1"
      },
      "t_bytes32": {
        "encoding": "inplace",
        "label": "bytes32",
        "numberOfBytes": "32"
      },
      "t_mapping(t_address,t_bool)": {
        "encoding": "mapping",
        "key": "t_address",
        "label": "mapping(address => bool)",
        "numberOfBytes": "32",
        "value": "t_bool"
      }
    }
  }
}