{
  "address": "0x392DBe0e659c1beA52657fAf2f7a04DdCcF87B46",
  "abi": [
    {
      "inputs": [
        {
          "internalType": "address",
          "name": "_usdcToken",
          "type": "address"
        }
      ],
      "stateMutability": "nonpayable",
      "type": "constructor"
    },
    {
      "inputs": [
        {
          "internalType": "address",
          "name": "owner",
          "type": "address"
        }
      ],
      "name": "OwnableInvalidOwner",
      "type": "error"
    },
    {
      "inputs": [
        {
          "internalType": "address",
          "name": "account",
          "type": "address"
        }
      ],
      "name": "OwnableUnauthorizedAccount",
      "type": "error"
    },
    {
      "inputs": [],
      "name": "ReentrancyGuardReentrantCall",
      "type": "error"
    },
    {
      "inputs": [
        {
          "internalType": "address",
          "name": "token",
          "type": "address"
        }
      ],
      "name": "SafeERC20FailedOperation",
      "type": "error"
    },
    {
      "anonymous": false,
      "inputs": [
        {
          "indexed": true,
          "internalType": "address",
          "name": "contributor",
          "type": "address"
        },
        {
          "indexed": false,
          "internalType": "uint256",
          "name": "amount",
          "type": "uint256"
        }
      ],
      "name": "ContributionMade",
      "type": "event"
    },
    {
      "anonymous": false,
      "inputs": [
        {
          "indexed": false,
          "internalType": "uint256",
          "name": "amount",
          "type": "uint256"
        }
      ],
      "name": "FundsWithdrawn",
      "type": "event"
    },
    {
      "anonymous": false,
      "inputs": [
        {
          "indexed": true,
          "internalType": "address",
          "name": "previousOwner",
          "type": "address"
        },
        {
          "indexed": true,
          "internalType": "address",
          "name": "newOwner",
          "type": "address"
        }
      ],
      "name": "OwnershipTransferred",
      "type": "event"
    },
    {
      "anonymous": false,
      "inputs": [
        {
          "indexed": false,
          "internalType": "bool",
          "name": "successful",
          "type": "bool"
        },
        {
          "indexed": false,
          "internalType": "uint256",
          "name": "totalRaised",
          "type": "uint256"
        }
      ],
      "name": "SaleFinalized",
      "type": "event"
    },
    {
      "anonymous": false,
      "inputs": [
        {
          "indexed": false,
          "internalType": "uint256",
          "name": "startTime",
          "type": "uint256"
        },
        {
          "indexed": false,
          "internalType": "uint256",
          "name": "endTime",
          "type": "uint256"
        }
      ],
      "name": "SaleStarted",
      "type": "event"
    },
    {
      "anonymous": false,
      "inputs": [
        {
          "indexed": true,
          "internalType": "address",
          "name": "user",
          "type": "address"
        },
        {
          "indexed": false,
          "internalType": "uint256",
          "name": "tier",
          "type": "uint256"
        }
      ],
      "name": "UserWhitelisted",
      "type": "event"
    },
    {
      "inputs": [],
      "name": "SALE_DURATION",
      "outputs": [
        {
          "internalType": "uint256",
          "name": "",
          "type": "uint256"
        }
      ],
      "stateMutability": "view",
      "type": "function"
    },
    {
      "inputs": [
        {
          "internalType": "address[]",
          "name": "_users",
          "type": "address[]"
        },
        {
          "internalType": "uint256[]",
          "name": "_tiers",
          "type": "uint256[]"
        }
      ],
      "name": "addMultipleToWhitelist",
      "outputs": [],
      "stateMutability": "nonpayable",
      "type": "function"
    },
    {
      "inputs": [
        {
          "internalType": "address",
          "name": "_contributor",
          "type": "address"
        },
        {
          "internalType": "uint256",
          "name": "_totalTokensAllocated",
          "type": "uint256"
        }
      ],
      "name": "calculateTokenAllocation",
      "outputs": [
        {
          "internalType": "uint256",
          "name": "",
          "type": "uint256"
        }
      ],
      "stateMutability": "view",
      "type": "function"
    },
    {
      "inputs": [
        {
          "internalType": "address",
          "name": "",
          "type": "address"
        }
      ],
      "name": "contributions",
      "outputs": [
        {
          "internalType": "uint256",
          "name": "",
          "type": "uint256"
        }
      ],
      "stateMutability": "view",
      "type": "function"
    },
    {
      "inputs": [
        {
          "internalType": "uint256",
          "name": "_amount",
          "type": "uint256"
        }
      ],
      "name": "deposit",
      "outputs": [],
      "stateMutability": "nonpayable",
      "type": "function"
    },
    {
      "inputs": [],
      "name": "finalizeSale",
      "outputs": [],
      "stateMutability": "nonpayable",
      "type": "function"
    },
    {
      "inputs": [
        {
          "internalType": "address",
          "name": "_contributor",
          "type": "address"
        }
      ],
      "name": "getContributionInfo",
      "outputs": [
        {
          "internalType": "uint256",
          "name": "_contribution",
          "type": "uint256"
        },
        {
          "internalType": "bool",
          "name": "_isWhitelisted",
          "type": "bool"
        }
      ],
      "stateMutability": "view",
      "type": "function"
    },
    {
      "inputs": [],
      "name": "getSaleInfo",
      "outputs": [
        {
          "internalType": "bool",
          "name": "_saleFinalized",
          "type": "bool"
        },
        {
          "internalType": "bool",
          "name": "_saleSuccessful",
          "type": "bool"
        },
        {
          "internalType": "uint256",
          "name": "_totalRaised",
          "type": "uint256"
        },
        {
          "internalType": "uint256",
          "name": "_startTime",
          "type": "uint256"
        },
        {
          "internalType": "uint256",
          "name": "_endTime",
          "type": "uint256"
        }
      ],
      "stateMutability": "view",
      "type": "function"
    },
    {
      "inputs": [],
      "name": "getTimeRemaining",
      "outputs": [
        {
          "internalType": "uint256",
          "name": "",
          "type": "uint256"
        }
      ],
      "stateMutability": "view",
      "type": "function"
    },
    {
      "inputs": [],
      "name": "owner",
      "outputs": [
        {
          "internalType": "address",
          "name": "",
          "type": "address"
        }
      ],
      "stateMutability": "view",
      "type": "function"
    },
    {
      "inputs": [],
      "name": "renounceOwnership",
      "outputs": [],
      "stateMutability": "nonpayable",
      "type": "function"
    },
    {
      "inputs": [],
      "name": "saleEndTime",
      "outputs": [
        {
          "internalType": "uint256",
          "name": "",
          "type": "uint256"
        }
      ],
      "stateMutability": "view",
      "type": "function"
    },
    {
      "inputs": [],
      "name": "saleFinalized",
      "outputs": [
        {
          "internalType": "bool",
          "name": "",
          "type": "bool"
        }
      ],
      "stateMutability": "view",
      "type": "function"
    },
    {
      "inputs": [],
      "name": "saleStartTime",
      "outputs": [
        {
          "internalType": "uint256",
          "name": "",
          "type": "uint256"
        }
      ],
      "stateMutability": "view",
      "type": "function"
    },
    {
      "inputs": [],
      "name": "saleSuccessful",
      "outputs": [
        {
          "internalType": "bool",
          "name": "",
          "type": "bool"
        }
      ],
      "stateMutability": "view",
      "type": "function"
    },
    {
      "inputs": [],
      "name": "startSale",
      "outputs": [],
      "stateMutability": "nonpayable",
      "type": "function"
    },
    {
      "inputs": [],
      "name": "totalRaised",
      "outputs": [
        {
          "internalType": "uint256",
          "name": "",
          "type": "uint256"
        }
      ],
      "stateMutability": "view",
      "type": "function"
    },
    {
      "inputs": [
        {
          "internalType": "address",
          "name": "newOwner",
          "type": "address"
        }
      ],
      "name": "transferOwnership",
      "outputs": [],
      "stateMutability": "nonpayable",
      "type": "function"
    },
    {
      "inputs": [],
      "name": "usdcToken",
      "outputs": [
        {
          "internalType": "contract IERC20",
          "name": "",
          "type": "address"
        }
      ],
      "stateMutability": "view",
      "type": "function"
    },
    {
      "inputs": [
        {
          "internalType": "address",
          "name": "",
          "type": "address"
        }
      ],
      "name": "whitelist",
      "outputs": [
        {
          "internalType": "uint256",
          "name": "",
          "type": "uint256"
        }
      ],
      "stateMutability": "view",
      "type": "function"
    },
    {
      "inputs": [],
      "name": "withdrawFunds",
      "outputs": [],
      "stateMutability": "nonpayable",
      "type": "function"
    }
  ],
  "transactionHash": "0x0d8b9a2b0154fa9b334c9dc74ba994bfa318316fc54c8ee74772758f793ce672",
  "args": [
    "0x833589fCD6eDb6E08f4c7C32D4f71b54bdA02913"
  ],
  "numDeployments": 1,
  "solcInputHash": "7f960442b4df567df2f98e930689d146",
  "bytecode": "0x60a06040523480156200001157600080fd5b50604051620025f0380380620025f08339818101604052810190620000379190620002a1565b33600073ffffffffffffffffffffffffffffffffffffffff168173ffffffffffffffffffffffffffffffffffffffff1603620000ad5760006040517f1e4fbdf7000000000000000000000000000000000000000000000000000000008152600401620000a49190620002e4565b60405180910390fd5b620000be816200017360201b60201c565b5060018081905550600073ffffffffffffffffffffffffffffffffffffffff168173ffffffffffffffffffffffffffffffffffffffff160362000138576040517f08c379a00000000000000000000000000000000000000000000000000000000081526004016200012f9062000388565b60405180910390fd5b8073ffffffffffffffffffffffffffffffffffffffff1660808173ffffffffffffffffffffffffffffffffffffffff168152505050620003aa565b60008060009054906101000a900473ffffffffffffffffffffffffffffffffffffffff169050816000806101000a81548173ffffffffffffffffffffffffffffffffffffffff021916908373ffffffffffffffffffffffffffffffffffffffff1602179055508173ffffffffffffffffffffffffffffffffffffffff168173ffffffffffffffffffffffffffffffffffffffff167f8be0079c531659141344cd1fd0a4f28419497f9722a3daafe3b4186f6b6457e060405160405180910390a35050565b600080fd5b600073ffffffffffffffffffffffffffffffffffffffff82169050919050565b600062000269826200023c565b9050919050565b6200027b816200025c565b81146200028757600080fd5b50565b6000815190506200029b8162000270565b92915050565b600060208284031215620002ba57620002b962000237565b5b6000620002ca848285016200028a565b91505092915050565b620002de816200025c565b82525050565b6000602082019050620002fb6000830184620002d3565b92915050565b600082825260208201905092915050565b7f5553444320746f6b656e20616464726573732063616e6e6f74206265207a657260008201527f6f00000000000000000000000000000000000000000000000000000000000000602082015250565b60006200037060218362000301565b91506200037d8262000312565b604082019050919050565b60006020820190508181036000830152620003a38162000361565b9050919050565b608051612215620003db600039600081816103ab0152818161047d015281816105680152610d5e01526122156000f3fe608060405234801561001057600080fd5b50600436106101375760003560e01c80639b19251a116100b8578063cd78d92c1161007c578063cd78d92c146102ce578063dac6270d146102ff578063db83694c1461031d578063ed338ff11461033f578063f2fde38b1461035d578063f881ccfa1461037957610137565b80639b19251a1461023c578063a5f0dea21461026c578063b66a0e5d1461028a578063b6b55f2514610294578063c5c4744c146102b057610137565b80635eabe01e116100ff5780635eabe01e146101bc5780636d79207c146101da578063715018a6146101f8578063870670fc146102025780638da5cb5b1461021e57610137565b806311eac8551461013c5780631cbaee2d1461015a57806324600fc31461017857806342e94c901461018257806358a687ec146101b2575b600080fd5b6101446103a9565b60405161015191906114ef565b60405180910390f35b6101626103cd565b60405161016f9190611523565b60405180910390f35b6101806103d3565b005b61019c60048036038101906101979190611586565b6105e6565b6040516101a99190611523565b60405180910390f35b6101ba6105fe565b005b6101c4610714565b6040516101d191906115ce565b60405180910390f35b6101e2610727565b6040516101ef9190611523565b60405180910390f35b61020061072e565b005b61021c600480360381019061021791906116a4565b610742565b005b610226610962565b6040516102339190611734565b60405180910390f35b61025660048036038101906102519190611586565b61098b565b6040516102639190611523565b60405180910390f35b6102746109a3565b60405161028191906115ce565b60405180910390f35b6102926109b6565b005b6102ae60048036038101906102a9919061177b565b610aba565b005b6102b8610e6b565b6040516102c59190611523565b60405180910390f35b6102e860048036038101906102e39190611586565b610e71565b6040516102f69291906117a8565b60405180910390f35b610307610f00565b6040516103149190611523565b60405180910390f35b610325610f36565b6040516103369594939291906117d1565b60405180910390f35b610347610f78565b6040516103549190611523565b60405180910390f35b61037760048036038101906103729190611586565b610f7e565b005b610393600480360381019061038e9190611824565b611004565b6040516103a09190611523565b60405180910390f35b7f000000000000000000000000000000000000000000000000000000000000000081565b60025481565b6103db61112b565b600560009054906101000a900460ff1661042a576040517f08c379a0000000000000000000000000000000000000000000000000000000008152600401610421906118c1565b60405180910390fd5b600560019054906101000a900460ff16610479576040517f08c379a00000000000000000000000000000000000000000000000000000000081526004016104709061192d565b60405180910390fd5b60007f000000000000000000000000000000000000000000000000000000000000000073ffffffffffffffffffffffffffffffffffffffff166370a08231306040518263ffffffff1660e01b81526004016104d49190611734565b602060405180830381865afa1580156104f1573d6000803e3d6000fd5b505050506040513d601f19601f820116820180604052508101906105159190611962565b90506000811161055a576040517f08c379a0000000000000000000000000000000000000000000000000000000008152600401610551906119db565b60405180910390fd5b6105ac610565610962565b827f000000000000000000000000000000000000000000000000000000000000000073ffffffffffffffffffffffffffffffffffffffff166111b29092919063ffffffff16565b7f4a37b25aab49761ecf63117fe82b98d750917451133cf797507bc9fb5b96044a816040516105db9190611523565b60405180910390a150565b60066020528060005260406000206000915090505481565b600560009054906101000a900460ff161561064e576040517f08c379a000000000000000000000000000000000000000000000000000000000815260040161064590611a47565b60405180910390fd5b6003544211610692576040517f08c379a000000000000000000000000000000000000000000000000000000000815260040161068990611ad9565b60405180910390fd5b6001600560006101000a81548160ff0219169083151502179055506001600560016101000a81548160ff0219169083151502179055507ff0d46ecf16ea6c4029ade01a6213d074c98f462769781b2a022fac1d81a58cbe600560019054906101000a900460ff1660045460405161070a929190611af9565b60405180910390a1565b600560019054906101000a900460ff1681565b6201518081565b61073661112b565b6107406000611231565b565b61074a61112b565b818190508484905014610792576040517f08c379a000000000000000000000000000000000000000000000000000000000815260040161078990611b94565b60405180910390fd5b60005b8484905081101561095b57600073ffffffffffffffffffffffffffffffffffffffff168585838181106107cb576107ca611bb4565b5b90506020020160208101906107e09190611586565b73ffffffffffffffffffffffffffffffffffffffff1603610836576040517f08c379a000000000000000000000000000000000000000000000000000000000815260040161082d90611c2f565b60405180910390fd5b82828281811061084957610848611bb4565b5b905060200201356007600087878581811061086757610866611bb4565b5b905060200201602081019061087c9190611586565b73ffffffffffffffffffffffffffffffffffffffff1673ffffffffffffffffffffffffffffffffffffffff168152602001908152602001600020819055508484828181106108cd576108cc611bb4565b5b90506020020160208101906108e29190611586565b73ffffffffffffffffffffffffffffffffffffffff167fcdbba03e839781c2474e5e9bf8e4d1c7aa5b2505bda8f93576309659a967b6b584848481811061092c5761092b611bb4565b5b905060200201356040516109409190611523565b60405180910390a2808061095390611c7e565b915050610795565b5050505050565b60008060009054906101000a900473ffffffffffffffffffffffffffffffffffffffff16905090565b60076020528060005260406000206000915090505481565b600560009054906101000a900460ff1681565b6109be61112b565b6003544211806109d057506000600254145b610a0f576040517f08c379a0000000000000000000000000000000000000000000000000000000008152600401610a0690611d12565b60405180910390fd5b600560009054906101000a900460ff1615610a5f576040517f08c379a0000000000000000000000000000000000000000000000000000000008152600401610a5690611a47565b60405180910390fd5b426002819055506201518042610a759190611d32565b6003819055507f87d03dcfa12666a6f670d52387c414c3147775a8cc623d78088c0e23b4a90346600254600354604051610ab0929190611d66565b60405180910390a1565b600060025411610aff576040517f08c379a0000000000000000000000000000000000000000000000000000000008152600401610af690611ddb565b60405180910390fd5b600254421015610b44576040517f08c379a0000000000000000000000000000000000000000000000000000000008152600401610b3b90611ddb565b60405180910390fd5b600354421115610b89576040517f08c379a0000000000000000000000000000000000000000000000000000000008152600401610b8090611e47565b60405180910390fd5b610b916112f5565b6000600760003373ffffffffffffffffffffffffffffffffffffffff1673ffffffffffffffffffffffffffffffffffffffff1681526020019081526020016000205411610c13576040517f08c379a0000000000000000000000000000000000000000000000000000000008152600401610c0a90611eb3565b60405180910390fd5b600760003373ffffffffffffffffffffffffffffffffffffffff1673ffffffffffffffffffffffffffffffffffffffff16815260200190815260200160002054600660003373ffffffffffffffffffffffffffffffffffffffff1673ffffffffffffffffffffffffffffffffffffffff168152602001908152602001600020541115610cd4576040517f08c379a0000000000000000000000000000000000000000000000000000000008152600401610ccb90611f1f565b60405180910390fd5b600760003373ffffffffffffffffffffffffffffffffffffffff1673ffffffffffffffffffffffffffffffffffffffff16815260200190815260200160002054811115610d56576040517f08c379a0000000000000000000000000000000000000000000000000000000008152600401610d4d90611fb1565b60405180910390fd5b610da33330837f000000000000000000000000000000000000000000000000000000000000000073ffffffffffffffffffffffffffffffffffffffff1661133b909392919063ffffffff16565b80600660003373ffffffffffffffffffffffffffffffffffffffff1673ffffffffffffffffffffffffffffffffffffffff1681526020019081526020016000206000828254610df29190611d32565b925050819055508060046000828254610e0b9190611d32565b925050819055503373ffffffffffffffffffffffffffffffffffffffff167f6770260ea820d2f539364e7617e021543aaf6d192f2fd2a47c20db6bd99a4eb982604051610e589190611523565b60405180910390a2610e686113bd565b50565b60045481565b600080600660008473ffffffffffffffffffffffffffffffffffffffff1673ffffffffffffffffffffffffffffffffffffffff168152602001908152602001600020546000600760008673ffffffffffffffffffffffffffffffffffffffff1673ffffffffffffffffffffffffffffffffffffffff168152602001908152602001600020541191509150915091565b6000806002541480610f1457506003544210155b15610f225760009050610f33565b42600354610f309190611fd1565b90505b90565b6000806000806000600560009054906101000a900460ff16600560019054906101000a900460ff16600454600254600354945094509450945094509091929394565b60035481565b610f8661112b565b600073ffffffffffffffffffffffffffffffffffffffff168173ffffffffffffffffffffffffffffffffffffffff1603610ff85760006040517f1e4fbdf7000000000000000000000000000000000000000000000000000000008152600401610fef9190611734565b60405180910390fd5b61100181611231565b50565b6000600560009054906101000a900460ff16801561102e5750600560019054906101000a900460ff165b61106d576040517f08c379a000000000000000000000000000000000000000000000000000000000815260040161106490612051565b60405180910390fd5b6000600454116110b2576040517f08c379a00000000000000000000000000000000000000000000000000000000081526004016110a9906120bd565b60405180910390fd5b6000600660008573ffffffffffffffffffffffffffffffffffffffff1673ffffffffffffffffffffffffffffffffffffffff16815260200190815260200160002054905060008103611108576000915050611125565b600454838261111791906120dd565b611121919061214e565b9150505b92915050565b6111336113c6565b73ffffffffffffffffffffffffffffffffffffffff16611151610962565b73ffffffffffffffffffffffffffffffffffffffff16146111b0576111746113c6565b6040517f118cdaa70000000000000000000000000000000000000000000000000000000081526004016111a79190611734565b60405180910390fd5b565b61122c838473ffffffffffffffffffffffffffffffffffffffff1663a9059cbb85856040516024016111e592919061217f565b604051602081830303815290604052915060e01b6020820180517bffffffffffffffffffffffffffffffffffffffffffffffffffffffff83818316178352505050506113ce565b505050565b60008060009054906101000a900473ffffffffffffffffffffffffffffffffffffffff169050816000806101000a81548173ffffffffffffffffffffffffffffffffffffffff021916908373ffffffffffffffffffffffffffffffffffffffff1602179055508173ffffffffffffffffffffffffffffffffffffffff168173ffffffffffffffffffffffffffffffffffffffff167f8be0079c531659141344cd1fd0a4f28419497f9722a3daafe3b4186f6b6457e060405160405180910390a35050565b600260015403611331576040517f3ee5aeb500000000000000000000000000000000000000000000000000000000815260040160405180910390fd5b6002600181905550565b6113b7848573ffffffffffffffffffffffffffffffffffffffff166323b872dd868686604051602401611370939291906121a8565b604051602081830303815290604052915060e01b6020820180517bffffffffffffffffffffffffffffffffffffffffffffffffffffffff83818316178352505050506113ce565b50505050565b60018081905550565b600033905090565b600080602060008451602086016000885af1806113f1576040513d6000823e3d81fd5b3d92506000519150506000821461140c576001811415611428565b60008473ffffffffffffffffffffffffffffffffffffffff163b145b1561146a57836040517f5274afe70000000000000000000000000000000000000000000000000000000081526004016114619190611734565b60405180910390fd5b50505050565b600073ffffffffffffffffffffffffffffffffffffffff82169050919050565b6000819050919050565b60006114b56114b06114ab84611470565b611490565b611470565b9050919050565b60006114c78261149a565b9050919050565b60006114d9826114bc565b9050919050565b6114e9816114ce565b82525050565b600060208201905061150460008301846114e0565b92915050565b6000819050919050565b61151d8161150a565b82525050565b60006020820190506115386000830184611514565b92915050565b600080fd5b600080fd5b600061155382611470565b9050919050565b61156381611548565b811461156e57600080fd5b50565b6000813590506115808161155a565b92915050565b60006020828403121561159c5761159b61153e565b5b60006115aa84828501611571565b91505092915050565b60008115159050919050565b6115c8816115b3565b82525050565b60006020820190506115e360008301846115bf565b92915050565b600080fd5b600080fd5b600080fd5b60008083601f84011261160e5761160d6115e9565b5b8235905067ffffffffffffffff81111561162b5761162a6115ee565b5b602083019150836020820283011115611647576116466115f3565b5b9250929050565b60008083601f840112611664576116636115e9565b5b8235905067ffffffffffffffff811115611681576116806115ee565b5b60208301915083602082028301111561169d5761169c6115f3565b5b9250929050565b600080600080604085870312156116be576116bd61153e565b5b600085013567ffffffffffffffff8111156116dc576116db611543565b5b6116e8878288016115f8565b9450945050602085013567ffffffffffffffff81111561170b5761170a611543565b5b6117178782880161164e565b925092505092959194509250565b61172e81611548565b82525050565b60006020820190506117496000830184611725565b92915050565b6117588161150a565b811461176357600080fd5b50565b6000813590506117758161174f565b92915050565b6000602082840312156117915761179061153e565b5b600061179f84828501611766565b91505092915050565b60006040820190506117bd6000830185611514565b6117ca60208301846115bf565b9392505050565b600060a0820190506117e660008301886115bf565b6117f360208301876115bf565b6118006040830186611514565b61180d6060830185611514565b61181a6080830184611514565b9695505050505050565b6000806040838503121561183b5761183a61153e565b5b600061184985828601611571565b925050602061185a85828601611766565b9150509250929050565b600082825260208201905092915050565b7f53616c65206e6f742066696e616c697a65640000000000000000000000000000600082015250565b60006118ab601283611864565b91506118b682611875565b602082019050919050565b600060208201905081810360008301526118da8161189e565b9050919050565b7f53616c6520776173206e6f74207375636365737366756c000000000000000000600082015250565b6000611917601783611864565b9150611922826118e1565b602082019050919050565b600060208201905081810360008301526119468161190a565b9050919050565b60008151905061195c8161174f565b92915050565b6000602082840312156119785761197761153e565b5b60006119868482850161194d565b91505092915050565b7f4e6f2066756e647320746f207769746864726177000000000000000000000000600082015250565b60006119c5601483611864565b91506119d08261198f565b602082019050919050565b600060208201905081810360008301526119f4816119b8565b9050919050565b7f53616c6520616c72656164792066696e616c697a656400000000000000000000600082015250565b6000611a31601683611864565b9150611a3c826119fb565b602082019050919050565b60006020820190508181036000830152611a6081611a24565b9050919050565b7f53616c6520706572696f64206e6f7420656e64656420616e642068617264206360008201527f6170206e6f742072656163686564000000000000000000000000000000000000602082015250565b6000611ac3602e83611864565b9150611ace82611a67565b604082019050919050565b60006020820190508181036000830152611af281611ab6565b9050919050565b6000604082019050611b0e60008301856115bf565b611b1b6020830184611514565b9392505050565b7f557365727320616e64207469657273206d75737420686176652074686520736160008201527f6d65206c656e6774680000000000000000000000000000000000000000000000602082015250565b6000611b7e602983611864565b9150611b8982611b22565b604082019050919050565b60006020820190508181036000830152611bad81611b71565b9050919050565b7f4e487b7100000000000000000000000000000000000000000000000000000000600052603260045260246000fd5b7f496e76616c696420616464726573730000000000000000000000000000000000600082015250565b6000611c19600f83611864565b9150611c2482611be3565b602082019050919050565b60006020820190508181036000830152611c4881611c0c565b9050919050565b7f4e487b7100000000000000000000000000000000000000000000000000000000600052601160045260246000fd5b6000611c898261150a565b91507fffffffffffffffffffffffffffffffffffffffffffffffffffffffffffffffff8203611cbb57611cba611c4f565b5b600182019050919050565b7f53616c6520616c726561647920616374697665206f722066696e616c697a6564600082015250565b6000611cfc602083611864565b9150611d0782611cc6565b602082019050919050565b60006020820190508181036000830152611d2b81611cef565b9050919050565b6000611d3d8261150a565b9150611d488361150a565b9250828201905080821115611d6057611d5f611c4f565b5b92915050565b6000604082019050611d7b6000830185611514565b611d886020830184611514565b9392505050565b7f53616c65206e6f74207374617274656400000000000000000000000000000000600082015250565b6000611dc5601083611864565b9150611dd082611d8f565b602082019050919050565b60006020820190508181036000830152611df481611db8565b9050919050565b7f53616c6520656e64656400000000000000000000000000000000000000000000600082015250565b6000611e31600a83611864565b9150611e3c82611dfb565b602082019050919050565b60006020820190508181036000830152611e6081611e24565b9050919050565b7f41646472657373206e6f742077686974656c6973746564000000000000000000600082015250565b6000611e9d601783611864565b9150611ea882611e67565b602082019050919050565b60006020820190508181036000830152611ecc81611e90565b9050919050565b7f416c726561647920636f6e74726962757465642066756c6c20616d6f756e7400600082015250565b6000611f09601f83611864565b9150611f1482611ed3565b602082019050919050565b60006020820190508181036000830152611f3881611efc565b9050919050565b7f416d6f756e74206d757374206265206c657373207468616e206f72206571756160008201527f6c20746f2077686974656c697374000000000000000000000000000000000000602082015250565b6000611f9b602e83611864565b9150611fa682611f3f565b604082019050919050565b60006020820190508181036000830152611fca81611f8e565b9050919050565b6000611fdc8261150a565b9150611fe78361150a565b9250828203905081811115611fff57611ffe611c4f565b5b92915050565b7f53616c65206e6f74207375636365737366756c6c792066696e616c697a656400600082015250565b600061203b601f83611864565b915061204682612005565b602082019050919050565b6000602082019050818103600083015261206a8161202e565b9050919050565b7f4e6f20636f6e747269627574696f6e7300000000000000000000000000000000600082015250565b60006120a7601083611864565b91506120b282612071565b602082019050919050565b600060208201905081810360008301526120d68161209a565b9050919050565b60006120e88261150a565b91506120f38361150a565b92508282026121018161150a565b9150828204841483151761211857612117611c4f565b5b5092915050565b7f4e487b7100000000000000000000000000000000000000000000000000000000600052601260045260246000fd5b60006121598261150a565b91506121648361150a565b9250826121745761217361211f565b5b828204905092915050565b60006040820190506121946000830185611725565b6121a16020830184611514565b9392505050565b60006060820190506121bd6000830186611725565b6121ca6020830185611725565b6121d76040830184611514565b94935050505056fea264697066735822122059bc56728d24fa40a8157c7447bae7e57ef54b1ca691158d9e9b55786d3d322c64736f6c63430008140033",
  "devdoc": {
    "details": "Presale contract for Backroom token with USDC contributions",
    "errors": {
      "OwnableInvalidOwner(address)": [
        {
          "details": "The owner is not a valid owner account. (eg. `address(0)`)"
        }
      ],
      "OwnableUnauthorizedAccount(address)": [
        {
          "details": "The caller account is not authorized to perform an operation."
        }
      ],
      "ReentrancyGuardReentrantCall()": [
        {
          "details": "Unauthorized reentrant call."
        }
      ],
      "SafeERC20FailedOperation(address)": [
        {
          "details": "An operation with an ERC-20 token failed."
        }
      ]
    },
    "kind": "dev",
    "methods": {
      "addMultipleToWhitelist(address[],uint256[])": {
        "details": "Add multiple users to whitelist (admin only)"
      },
      "calculateTokenAllocation(address,uint256)": {
        "details": "Calculate token allocation for a contributor (view only, for off-chain reference)",
        "params": {
          "_contributor": "Address to calculate for",
          "_totalTokensAllocated": "Total tokens allocated to presale (e.g., 5% of supply)"
        }
      },
      "deposit(uint256)": {
        "details": "Contribute USDC to the presale"
      },
      "finalizeSale()": {
        "details": "Finalize the sale after 24 hours"
      },
      "getContributionInfo(address)": {
        "details": "Get contribution info for an address"
      },
      "getSaleInfo()": {
        "details": "Get sale status information"
      },
      "getTimeRemaining()": {
        "details": "Get time remaining in sale"
      },
      "owner()": {
        "details": "Returns the address of the current owner."
      },
      "renounceOwnership()": {
        "details": "Leaves the contract without owner. It will not be possible to call `onlyOwner` functions. Can only be called by the current owner. NOTE: Renouncing ownership will leave the contract without an owner, thereby disabling any functionality that is only available to the owner."
      },
      "startSale()": {
        "details": "Start the presale (admin only)"
      },
      "transferOwnership(address)": {
        "details": "Transfers ownership of the contract to a new account (`newOwner`). Can only be called by the current owner."
      },
      "withdrawFunds()": {
        "details": "Withdraw raised funds if sale was successful (admin only)"
      }
    },
    "title": "Presale",
    "version": 1
  },
  "userdoc": {
    "kind": "user",
    "methods": {},
    "version": 1
  },
  "storageLayout": {
    "storage": [
      {
        "astId": 8,
        "contract": "contracts/Presale.sol:Presale",
        "label": "_owner",
        "offset": 0,
        "slot": "0",
        "type": "t_address"
      },
      {
        "astId": 820,
        "contract": "contracts/Presale.sol:Presale",
        "label": "_status",
        "offset": 0,
        "slot": "1",
        "type": "t_uint256"
      },
      {
        "astId": 910,
        "contract": "contracts/Presale.sol:Presale",
        "label": "saleStartTime",
        "offset": 0,
        "slot": "2",
        "type": "t_uint256"
      },
      {
        "astId": 912,
        "contract": "contracts/Presale.sol:Presale",
        "label": "saleEndTime",
        "offset": 0,
        "slot": "3",
        "type": "t_uint256"
      },
      {
        "astId": 914,
        "contract": "contracts/Presale.sol:Presale",
        "label": "totalRaised",
        "offset": 0,
        "slot": "4",
        "type": "t_uint256"
      },
      {
        "astId": 916,
        "contract": "contracts/Presale.sol:Presale",
        "label": "saleFinalized",
        "offset": 0,
        "slot": "5",
        "type": "t_bool"
      },
      {
        "astId": 918,
        "contract": "contracts/Presale.sol:Presale",
        "label": "saleSuccessful",
        "offset": 1,
        "slot": "5",
        "type": "t_bool"
      },
      {
        "astId": 925,
        "contract": "contracts/Presale.sol:Presale",
        "label": "contributions",
        "offset": 0,
        "slot": "6",
        "type": "t_mapping(t_address,t_uint256)"
      },
      {
        "astId": 929,
        "contract": "contracts/Presale.sol:Presale",
        "label": "whitelist",
        "offset": 0,
        "slot": "7",
        "type": "t_mapping(t_address,t_uint256)"
      }
    ],
    "types": {
      "t_address": {
        "encoding": "inplace",
        "label": "address",
        "numberOfBytes": "20"
      },
      "t_bool": {
        "encoding": "inplace",
        "label": "bool",
        "numberOfBytes": "1"
      },
      "t_mapping(t_address,t_uint256)": {
        "encoding": "mapping",
        "key": "t_address",
        "label": "mapping(address => uint256)",
        "numberOfBytes": "32",
        "value": "t_uint256"
      },
      "t_uint256": {
        "encoding": "inplace",
        "label": "uint256",
        "numberOfBytes": "32"
      }
    }
  }
}