{
  "address": "0x07266ddA260FFA567FB721dD60541F20765fc9DF",
  "abi": [
    {
      "inputs": [
        {
          "internalType": "uint256",
          "name": "_softCap",
          "type": "uint256"
        },
        {
          "internalType": "uint256",
          "name": "_hardCap",
          "type": "uint256"
        },
        {
          "internalType": "uint256",
          "name": "_minContribution",
          "type": "uint256"
        },
        {
          "internalType": "uint256",
          "name": "_maxContribution",
          "type": "uint256"
        }
      ],
      "stateMutability": "nonpayable",
      "type": "constructor"
    },
    {
      "inputs": [
        {
          "internalType": "address",
          "name": "owner",
          "type": "address"
        }
      ],
      "name": "OwnableInvalidOwner",
      "type": "error"
    },
    {
      "inputs": [
        {
          "internalType": "address",
          "name": "account",
          "type": "address"
        }
      ],
      "name": "OwnableUnauthorizedAccount",
      "type": "error"
    },
    {
      "inputs": [],
      "name": "ReentrancyGuardReentrantCall",
      "type": "error"
    },
    {
      "anonymous": false,
      "inputs": [
        {
          "indexed": true,
          "internalType": "address",
          "name": "contributor",
          "type": "address"
        },
        {
          "indexed": false,
          "internalType": "uint256",
          "name": "amount",
          "type": "uint256"
        }
      ],
      "name": "ContributionMade",
      "type": "event"
    },
    {
      "anonymous": false,
      "inputs": [
        {
          "indexed": false,
          "internalType": "uint256",
          "name": "amount",
          "type": "uint256"
        }
      ],
      "name": "FundsWithdrawn",
      "type": "event"
    },
    {
      "anonymous": false,
      "inputs": [
        {
          "indexed": true,
          "internalType": "address",
          "name": "previousOwner",
          "type": "address"
        },
        {
          "indexed": true,
          "internalType": "address",
          "name": "newOwner",
          "type": "address"
        }
      ],
      "name": "OwnershipTransferred",
      "type": "event"
    },
    {
      "anonymous": false,
      "inputs": [
        {
          "indexed": true,
          "internalType": "address",
          "name": "contributor",
          "type": "address"
        },
        {
          "indexed": false,
          "internalType": "uint256",
          "name": "amount",
          "type": "uint256"
        }
      ],
      "name": "RefundClaimed",
      "type": "event"
    },
    {
      "anonymous": false,
      "inputs": [
        {
          "indexed": false,
          "internalType": "bool",
          "name": "successful",
          "type": "bool"
        },
        {
          "indexed": false,
          "internalType": "uint256",
          "name": "totalRaised",
          "type": "uint256"
        }
      ],
      "name": "SaleFinalized",
      "type": "event"
    },
    {
      "anonymous": false,
      "inputs": [
        {
          "indexed": false,
          "internalType": "uint256",
          "name": "startTime",
          "type": "uint256"
        },
        {
          "indexed": false,
          "internalType": "uint256",
          "name": "endTime",
          "type": "uint256"
        }
      ],
      "name": "SaleStarted",
      "type": "event"
    },
    {
      "inputs": [],
      "name": "SALE_DURATION",
      "outputs": [
        {
          "internalType": "uint256",
          "name": "",
          "type": "uint256"
        }
      ],
      "stateMutability": "view",
      "type": "function"
    },
    {
      "inputs": [
        {
          "internalType": "address",
          "name": "_contributor",
          "type": "address"
        },
        {
          "internalType": "uint256",
          "name": "_totalTokensAllocated",
          "type": "uint256"
        }
      ],
      "name": "calculateTokenAllocation",
      "outputs": [
        {
          "internalType": "uint256",
          "name": "",
          "type": "uint256"
        }
      ],
      "stateMutability": "view",
      "type": "function"
    },
    {
      "inputs": [],
      "name": "claimRefund",
      "outputs": [],
      "stateMutability": "nonpayable",
      "type": "function"
    },
    {
      "inputs": [
        {
          "internalType": "address",
          "name": "",
          "type": "address"
        }
      ],
      "name": "contributions",
      "outputs": [
        {
          "internalType": "uint256",
          "name": "",
          "type": "uint256"
        }
      ],
      "stateMutability": "view",
      "type": "function"
    },
    {
      "inputs": [],
      "name": "deposit",
      "outputs": [],
      "stateMutability": "payable",
      "type": "function"
    },
    {
      "inputs": [],
      "name": "finalizeSale",
      "outputs": [],
      "stateMutability": "nonpayable",
      "type": "function"
    },
    {
      "inputs": [
        {
          "internalType": "address",
          "name": "_contributor",
          "type": "address"
        }
      ],
      "name": "getContributionInfo",
      "outputs": [
        {
          "internalType": "uint256",
          "name": "_contribution",
          "type": "uint256"
        },
        {
          "internalType": "bool",
          "name": "_hasContributed",
          "type": "bool"
        }
      ],
      "stateMutability": "view",
      "type": "function"
    },
    {
      "inputs": [],
      "name": "getSaleInfo",
      "outputs": [
        {
          "internalType": "bool",
          "name": "_saleFinalized",
          "type": "bool"
        },
        {
          "internalType": "bool",
          "name": "_saleSuccessful",
          "type": "bool"
        },
        {
          "internalType": "uint256",
          "name": "_totalRaised",
          "type": "uint256"
        },
        {
          "internalType": "uint256",
          "name": "_startTime",
          "type": "uint256"
        },
        {
          "internalType": "uint256",
          "name": "_endTime",
          "type": "uint256"
        }
      ],
      "stateMutability": "view",
      "type": "function"
    },
    {
      "inputs": [],
      "name": "getTimeRemaining",
      "outputs": [
        {
          "internalType": "uint256",
          "name": "",
          "type": "uint256"
        }
      ],
      "stateMutability": "view",
      "type": "function"
    },
    {
      "inputs": [],
      "name": "hardCap",
      "outputs": [
        {
          "internalType": "uint256",
          "name": "",
          "type": "uint256"
        }
      ],
      "stateMutability": "view",
      "type": "function"
    },
    {
      "inputs": [
        {
          "internalType": "address",
          "name": "",
          "type": "address"
        }
      ],
      "name": "hasContributed",
      "outputs": [
        {
          "internalType": "bool",
          "name": "",
          "type": "bool"
        }
      ],
      "stateMutability": "view",
      "type": "function"
    },
    {
      "inputs": [],
      "name": "maxContribution",
      "outputs": [
        {
          "internalType": "uint256",
          "name": "",
          "type": "uint256"
        }
      ],
      "stateMutability": "view",
      "type": "function"
    },
    {
      "inputs": [],
      "name": "minContribution",
      "outputs": [
        {
          "internalType": "uint256",
          "name": "",
          "type": "uint256"
        }
      ],
      "stateMutability": "view",
      "type": "function"
    },
    {
      "inputs": [],
      "name": "owner",
      "outputs": [
        {
          "internalType": "address",
          "name": "",
          "type": "address"
        }
      ],
      "stateMutability": "view",
      "type": "function"
    },
    {
      "inputs": [],
      "name": "renounceOwnership",
      "outputs": [],
      "stateMutability": "nonpayable",
      "type": "function"
    },
    {
      "inputs": [],
      "name": "saleEndTime",
      "outputs": [
        {
          "internalType": "uint256",
          "name": "",
          "type": "uint256"
        }
      ],
      "stateMutability": "view",
      "type": "function"
    },
    {
      "inputs": [],
      "name": "saleFinalized",
      "outputs": [
        {
          "internalType": "bool",
          "name": "",
          "type": "bool"
        }
      ],
      "stateMutability": "view",
      "type": "function"
    },
    {
      "inputs": [],
      "name": "saleStartTime",
      "outputs": [
        {
          "internalType": "uint256",
          "name": "",
          "type": "uint256"
        }
      ],
      "stateMutability": "view",
      "type": "function"
    },
    {
      "inputs": [],
      "name": "saleSuccessful",
      "outputs": [
        {
          "internalType": "bool",
          "name": "",
          "type": "bool"
        }
      ],
      "stateMutability": "view",
      "type": "function"
    },
    {
      "inputs": [],
      "name": "softCap",
      "outputs": [
        {
          "internalType": "uint256",
          "name": "",
          "type": "uint256"
        }
      ],
      "stateMutability": "view",
      "type": "function"
    },
    {
      "inputs": [],
      "name": "startSale",
      "outputs": [],
      "stateMutability": "nonpayable",
      "type": "function"
    },
    {
      "inputs": [],
      "name": "totalRaised",
      "outputs": [
        {
          "internalType": "uint256",
          "name": "",
          "type": "uint256"
        }
      ],
      "stateMutability": "view",
      "type": "function"
    },
    {
      "inputs": [
        {
          "internalType": "address",
          "name": "newOwner",
          "type": "address"
        }
      ],
      "name": "transferOwnership",
      "outputs": [],
      "stateMutability": "nonpayable",
      "type": "function"
    },
    {
      "inputs": [],
      "name": "withdrawFunds",
      "outputs": [],
      "stateMutability": "nonpayable",
      "type": "function"
    }
  ],
  "transactionHash": "0x33dd421dc55f02d8450a3ef7af3d17f7db5fa31fa15014fe0424d50cb52aa167",
  "args": [
    "40000000000000000000",
    "160000000000000000000",
    "20000000000000000",
    "5000000000000000000"
  ],
  "numDeployments": 1,
  "solcInputHash": "186ec159ebeb40103707f873fbdf367d",
  "bytecode": "0x60806040523480156200001157600080fd5b506040516200287a3803806200287a83398181016040528101906200003791906200034d565b33600073ffffffffffffffffffffffffffffffffffffffff168173ffffffffffffffffffffffffffffffffffffffff1603620000ad5760006040517f1e4fbdf7000000000000000000000000000000000000000000000000000000008152600401620000a4919062000404565b60405180910390fd5b620000be816200024960201b60201c565b5060018081905550600084116200010c576040517f08c379a0000000000000000000000000000000000000000000000000000000008152600401620001039062000482565b60405180910390fd5b83831162000151576040517f08c379a00000000000000000000000000000000000000000000000000000000081526004016200014890620004f4565b60405180910390fd5b6000821162000197576040517f08c379a00000000000000000000000000000000000000000000000000000000081526004016200018e9062000566565b60405180910390fd5b81811015620001dd576040517f08c379a0000000000000000000000000000000000000000000000000000000008152600401620001d490620005d8565b60405180910390fd5b8281111562000223576040517f08c379a00000000000000000000000000000000000000000000000000000000081526004016200021a9062000670565b60405180910390fd5b836002819055508260038190555081600481905550806005819055505050505062000692565b60008060009054906101000a900473ffffffffffffffffffffffffffffffffffffffff169050816000806101000a81548173ffffffffffffffffffffffffffffffffffffffff021916908373ffffffffffffffffffffffffffffffffffffffff1602179055508173ffffffffffffffffffffffffffffffffffffffff168173ffffffffffffffffffffffffffffffffffffffff167f8be0079c531659141344cd1fd0a4f28419497f9722a3daafe3b4186f6b6457e060405160405180910390a35050565b600080fd5b6000819050919050565b620003278162000312565b81146200033357600080fd5b50565b60008151905062000347816200031c565b92915050565b600080600080608085870312156200036a57620003696200030d565b5b60006200037a8782880162000336565b94505060206200038d8782880162000336565b9350506040620003a08782880162000336565b9250506060620003b38782880162000336565b91505092959194509250565b600073ffffffffffffffffffffffffffffffffffffffff82169050919050565b6000620003ec82620003bf565b9050919050565b620003fe81620003df565b82525050565b60006020820190506200041b6000830184620003f3565b92915050565b600082825260208201905092915050565b7f536f667420636170206d757374206265203e2030000000000000000000000000600082015250565b60006200046a60148362000421565b9150620004778262000432565b602082019050919050565b600060208201905081810360008301526200049d816200045b565b9050919050565b7f4861726420636170206d757374206265203e20736f6674206361700000000000600082015250565b6000620004dc601b8362000421565b9150620004e982620004a4565b602082019050919050565b600060208201905081810360008301526200050f81620004cd565b9050919050565b7f4d696e20636f6e747269627574696f6e206d757374206265203e203000000000600082015250565b60006200054e601c8362000421565b91506200055b8262000516565b602082019050919050565b6000602082019050818103600083015262000581816200053f565b9050919050565b7f4d6178206d757374206265203e3d206d696e20636f6e747269627574696f6e00600082015250565b6000620005c0601f8362000421565b9150620005cd8262000588565b602082019050919050565b60006020820190508181036000830152620005f381620005b1565b9050919050565b7f4d617820636f6e747269627574696f6e2063616e6e6f7420657863656564206860008201527f6172642063617000000000000000000000000000000000000000000000000000602082015250565b60006200065860278362000421565b91506200066582620005fa565b604082019050919050565b600060208201905081810360008301526200068b8162000649565b9050919050565b6121d880620006a26000396000f3fe60806040526004361061014b5760003560e01c8063aaffadf3116100b6578063dac6270d1161006f578063dac6270d14610408578063db83694c14610433578063ed338ff114610462578063f2fde38b1461048d578063f881ccfa146104b6578063fb86a404146104f35761014b565b8063aaffadf31461033c578063b5545a3c14610367578063b66a0e5d1461037e578063c5c4744c14610395578063cd78d92c146103c0578063d0e30db0146103fe5761014b565b80636d79207c116101085780636d79207c1461024e578063715018a6146102795780638d3d6576146102905780638da5cb5b146102bb578063906a26e0146102e6578063a5f0dea2146103115761014b565b80631cbaee2d14610150578063205b19461461017b57806324600fc3146101b857806342e94c90146101cf57806358a687ec1461020c5780635eabe01e14610223575b600080fd5b34801561015c57600080fd5b5061016561051e565b6040516101729190611537565b60405180910390f35b34801561018757600080fd5b506101a2600480360381019061019d91906115b5565b610524565b6040516101af91906115fd565b60405180910390f35b3480156101c457600080fd5b506101cd610544565b005b3480156101db57600080fd5b506101f660048036038101906101f191906115b5565b610720565b6040516102039190611537565b60405180910390f35b34801561021857600080fd5b50610221610738565b005b34801561022f57600080fd5b506102386107e5565b60405161024591906115fd565b60405180910390f35b34801561025a57600080fd5b506102636107f8565b6040516102709190611537565b60405180910390f35b34801561028557600080fd5b5061028e6107ff565b005b34801561029c57600080fd5b506102a5610813565b6040516102b29190611537565b60405180910390f35b3480156102c757600080fd5b506102d0610819565b6040516102dd9190611627565b60405180910390f35b3480156102f257600080fd5b506102fb610842565b6040516103089190611537565b60405180910390f35b34801561031d57600080fd5b50610326610848565b60405161033391906115fd565b60405180910390f35b34801561034857600080fd5b5061035161085b565b60405161035e9190611537565b60405180910390f35b34801561037357600080fd5b5061037c610861565b005b34801561038a57600080fd5b50610393610b79565b005b3480156103a157600080fd5b506103aa610c7d565b6040516103b79190611537565b60405180910390f35b3480156103cc57600080fd5b506103e760048036038101906103e291906115b5565b610c83565b6040516103f5929190611642565b60405180910390f35b610406610d1c565b005b34801561041457600080fd5b5061041d6110c3565b60405161042a9190611537565b60405180910390f35b34801561043f57600080fd5b506104486110f9565b60405161045995949392919061166b565b60405180910390f35b34801561046e57600080fd5b5061047761113b565b6040516104849190611537565b60405180910390f35b34801561049957600080fd5b506104b460048036038101906104af91906115b5565b611141565b005b3480156104c257600080fd5b506104dd60048036038101906104d891906116ea565b6111c7565b6040516104ea9190611537565b60405180910390f35b3480156104ff57600080fd5b506105086112ee565b6040516105159190611537565b60405180910390f35b60065481565b600b6020528060005260406000206000915054906101000a900460ff1681565b61054c6112f4565b600960009054906101000a900460ff1661059b576040517f08c379a000000000000000000000000000000000000000000000000000000000815260040161059290611787565b60405180910390fd5b600960019054906101000a900460ff166105ea576040517f08c379a00000000000000000000000000000000000000000000000000000000081526004016105e1906117f3565b60405180910390fd5b600047905060008111610632576040517f08c379a00000000000000000000000000000000000000000000000000000000081526004016106299061185f565b60405180910390fd5b600061063c610819565b73ffffffffffffffffffffffffffffffffffffffff168260405161065f906118b0565b60006040518083038185875af1925050503d806000811461069c576040519150601f19603f3d011682016040523d82523d6000602084013e6106a1565b606091505b50509050806106e5576040517f08c379a00000000000000000000000000000000000000000000000000000000081526004016106dc90611911565b60405180910390fd5b7f4a37b25aab49761ecf63117fe82b98d750917451133cf797507bc9fb5b96044a826040516107149190611537565b60405180910390a15050565b600a6020528060005260406000206000915090505481565b600960009054906101000a900460ff1615610788576040517f08c379a000000000000000000000000000000000000000000000000000000000815260040161077f9061197d565b60405180910390fd5b60075442118061079c575060035460085410155b6107db576040517f08c379a00000000000000000000000000000000000000000000000000000000081526004016107d290611a0f565b60405180910390fd5b6107e361137b565b565b600960019054906101000a900460ff1681565b6201518081565b6108076112f4565b6108116000611403565b565b60055481565b60008060009054906101000a900473ffffffffffffffffffffffffffffffffffffffff16905090565b60025481565b600960009054906101000a900460ff1681565b60045481565b600960009054906101000a900460ff166108b0576040517f08c379a00000000000000000000000000000000000000000000000000000000081526004016108a790611787565b60405180910390fd5b6108b86114c7565b600960019054906101000a900460ff1615610908576040517f08c379a00000000000000000000000000000000000000000000000000000000081526004016108ff90611a7b565b60405180910390fd5b600b60003373ffffffffffffffffffffffffffffffffffffffff1673ffffffffffffffffffffffffffffffffffffffff16815260200190815260200160002060009054906101000a900460ff16610994576040517f08c379a000000000000000000000000000000000000000000000000000000000815260040161098b90611ae7565b60405180910390fd5b6000600a60003373ffffffffffffffffffffffffffffffffffffffff1673ffffffffffffffffffffffffffffffffffffffff16815260200190815260200160002054905060008111610a1b576040517f08c379a0000000000000000000000000000000000000000000000000000000008152600401610a1290611b53565b60405180910390fd5b6000600b60003373ffffffffffffffffffffffffffffffffffffffff1673ffffffffffffffffffffffffffffffffffffffff16815260200190815260200160002060006101000a81548160ff02191690831515021790555060003373ffffffffffffffffffffffffffffffffffffffff1682604051610a99906118b0565b60006040518083038185875af1925050503d8060008114610ad6576040519150601f19603f3d011682016040523d82523d6000602084013e610adb565b606091505b5050905080610b1f576040517f08c379a0000000000000000000000000000000000000000000000000000000008152600401610b1690611bbf565b60405180910390fd5b3373ffffffffffffffffffffffffffffffffffffffff167f358fe4192934d3bf28ae181feda1f4bd08ca67f5e2fad55582cce5eb67304ae983604051610b659190611537565b60405180910390a25050610b7761150d565b565b610b816112f4565b600754421180610b9357506000600654145b610bd2576040517f08c379a0000000000000000000000000000000000000000000000000000000008152600401610bc990611c2b565b60405180910390fd5b600960009054906101000a900460ff1615610c22576040517f08c379a0000000000000000000000000000000000000000000000000000000008152600401610c199061197d565b60405180910390fd5b426006819055506201518042610c389190611c7a565b6007819055507f87d03dcfa12666a6f670d52387c414c3147775a8cc623d78088c0e23b4a90346600654600754604051610c73929190611cae565b60405180910390a1565b60085481565b600080600a60008473ffffffffffffffffffffffffffffffffffffffff1673ffffffffffffffffffffffffffffffffffffffff16815260200190815260200160002054600b60008573ffffffffffffffffffffffffffffffffffffffff1673ffffffffffffffffffffffffffffffffffffffff16815260200190815260200160002060009054906101000a900460ff1691509150915091565b600060065411610d61576040517f08c379a0000000000000000000000000000000000000000000000000000000008152600401610d5890611d23565b60405180910390fd5b600654421015610da6576040517f08c379a0000000000000000000000000000000000000000000000000000000008152600401610d9d90611d23565b60405180910390fd5b600754421115610deb576040517f08c379a0000000000000000000000000000000000000000000000000000000008152600401610de290611d8f565b60405180910390fd5b60035460085410610e31576040517f08c379a0000000000000000000000000000000000000000000000000000000008152600401610e2890611dfb565b60405180910390fd5b610e396114c7565b600454341015610e7e576040517f08c379a0000000000000000000000000000000000000000000000000000000008152600401610e7590611e67565b60405180910390fd5b600b60003373ffffffffffffffffffffffffffffffffffffffff1673ffffffffffffffffffffffffffffffffffffffff16815260200190815260200160002060009054906101000a900460ff1615610f0b576040517f08c379a0000000000000000000000000000000000000000000000000000000008152600401610f0290611ed3565b60405180910390fd5b600554341115610f50576040517f08c379a0000000000000000000000000000000000000000000000000000000008152600401610f4790611f3f565b60405180910390fd5b60035434600854610f619190611c7a565b1115610fa2576040517f08c379a0000000000000000000000000000000000000000000000000000000008152600401610f9990611fab565b60405180910390fd5b34600a60003373ffffffffffffffffffffffffffffffffffffffff1673ffffffffffffffffffffffffffffffffffffffff168152602001908152602001600020819055506001600b60003373ffffffffffffffffffffffffffffffffffffffff1673ffffffffffffffffffffffffffffffffffffffff16815260200190815260200160002060006101000a81548160ff02191690831515021790555034600860008282546110509190611c7a565b925050819055503373ffffffffffffffffffffffffffffffffffffffff167f6770260ea820d2f539364e7617e021543aaf6d192f2fd2a47c20db6bd99a4eb93460405161109d9190611537565b60405180910390a2600354600854106110b9576110b861137b565b5b6110c161150d565b565b60008060065414806110d757506007544210155b156110e557600090506110f6565b426007546110f39190611fcb565b90505b90565b6000806000806000600960009054906101000a900460ff16600960019054906101000a900460ff16600854600654600754945094509450945094509091929394565b60075481565b6111496112f4565b600073ffffffffffffffffffffffffffffffffffffffff168173ffffffffffffffffffffffffffffffffffffffff16036111bb5760006040517f1e4fbdf70000000000000000000000000000000000000000000000000000000081526004016111b29190611627565b60405180910390fd5b6111c481611403565b50565b6000600960009054906101000a900460ff1680156111f15750600960019054906101000a900460ff165b611230576040517f08c379a00000000000000000000000000000000000000000000000000000000081526004016112279061204b565b60405180910390fd5b600060085411611275576040517f08c379a000000000000000000000000000000000000000000000000000000000815260040161126c906120b7565b60405180910390fd5b6000600a60008573ffffffffffffffffffffffffffffffffffffffff1673ffffffffffffffffffffffffffffffffffffffff168152602001908152602001600020549050600081036112cb5760009150506112e8565b60085483826112da91906120d7565b6112e49190612148565b9150505b92915050565b60035481565b6112fc611516565b73ffffffffffffffffffffffffffffffffffffffff1661131a610819565b73ffffffffffffffffffffffffffffffffffffffff16146113795761133d611516565b6040517f118cdaa70000000000000000000000000000000000000000000000000000000081526004016113709190611627565b60405180910390fd5b565b6001600960006101000a81548160ff0219169083151502179055506002546008541015600960016101000a81548160ff0219169083151502179055507ff0d46ecf16ea6c4029ade01a6213d074c98f462769781b2a022fac1d81a58cbe600960019054906101000a900460ff166008546040516113f9929190612179565b60405180910390a1565b60008060009054906101000a900473ffffffffffffffffffffffffffffffffffffffff169050816000806101000a81548173ffffffffffffffffffffffffffffffffffffffff021916908373ffffffffffffffffffffffffffffffffffffffff1602179055508173ffffffffffffffffffffffffffffffffffffffff168173ffffffffffffffffffffffffffffffffffffffff167f8be0079c531659141344cd1fd0a4f28419497f9722a3daafe3b4186f6b6457e060405160405180910390a35050565b600260015403611503576040517f3ee5aeb500000000000000000000000000000000000000000000000000000000815260040160405180910390fd5b6002600181905550565b60018081905550565b600033905090565b6000819050919050565b6115318161151e565b82525050565b600060208201905061154c6000830184611528565b92915050565b600080fd5b600073ffffffffffffffffffffffffffffffffffffffff82169050919050565b600061158282611557565b9050919050565b61159281611577565b811461159d57600080fd5b50565b6000813590506115af81611589565b92915050565b6000602082840312156115cb576115ca611552565b5b60006115d9848285016115a0565b91505092915050565b60008115159050919050565b6115f7816115e2565b82525050565b600060208201905061161260008301846115ee565b92915050565b61162181611577565b82525050565b600060208201905061163c6000830184611618565b92915050565b60006040820190506116576000830185611528565b61166460208301846115ee565b9392505050565b600060a08201905061168060008301886115ee565b61168d60208301876115ee565b61169a6040830186611528565b6116a76060830185611528565b6116b46080830184611528565b9695505050505050565b6116c78161151e565b81146116d257600080fd5b50565b6000813590506116e4816116be565b92915050565b6000806040838503121561170157611700611552565b5b600061170f858286016115a0565b9250506020611720858286016116d5565b9150509250929050565b600082825260208201905092915050565b7f53616c65206e6f742066696e616c697a65640000000000000000000000000000600082015250565b600061177160128361172a565b915061177c8261173b565b602082019050919050565b600060208201905081810360008301526117a081611764565b9050919050565b7f53616c6520776173206e6f74207375636365737366756c000000000000000000600082015250565b60006117dd60178361172a565b91506117e8826117a7565b602082019050919050565b6000602082019050818103600083015261180c816117d0565b9050919050565b7f4e6f2066756e647320746f207769746864726177000000000000000000000000600082015250565b600061184960148361172a565b915061185482611813565b602082019050919050565b600060208201905081810360008301526118788161183c565b9050919050565b600081905092915050565b50565b600061189a60008361187f565b91506118a58261188a565b600082019050919050565b60006118bb8261188d565b9150819050919050565b7f5769746864726177616c206661696c6564000000000000000000000000000000600082015250565b60006118fb60118361172a565b9150611906826118c5565b602082019050919050565b6000602082019050818103600083015261192a816118ee565b9050919050565b7f53616c6520616c72656164792066696e616c697a656400000000000000000000600082015250565b600061196760168361172a565b915061197282611931565b602082019050919050565b600060208201905081810360008301526119968161195a565b9050919050565b7f53616c6520706572696f64206e6f7420656e64656420616e642068617264206360008201527f6170206e6f742072656163686564000000000000000000000000000000000000602082015250565b60006119f9602e8361172a565b9150611a048261199d565b604082019050919050565b60006020820190508181036000830152611a28816119ec565b9050919050565b7f53616c6520776173207375636365737366756c2c206e6f20726566756e647300600082015250565b6000611a65601f8361172a565b9150611a7082611a2f565b602082019050919050565b60006020820190508181036000830152611a9481611a58565b9050919050565b7f4e6f20636f6e747269627574696f6e20666f756e640000000000000000000000600082015250565b6000611ad160158361172a565b9150611adc82611a9b565b602082019050919050565b60006020820190508181036000830152611b0081611ac4565b9050919050565b7f4e6f20726566756e6420617661696c61626c6500000000000000000000000000600082015250565b6000611b3d60138361172a565b9150611b4882611b07565b602082019050919050565b60006020820190508181036000830152611b6c81611b30565b9050919050565b7f526566756e64207472616e73666572206661696c656400000000000000000000600082015250565b6000611ba960168361172a565b9150611bb482611b73565b602082019050919050565b60006020820190508181036000830152611bd881611b9c565b9050919050565b7f53616c6520616c726561647920616374697665206f722066696e616c697a6564600082015250565b6000611c1560208361172a565b9150611c2082611bdf565b602082019050919050565b60006020820190508181036000830152611c4481611c08565b9050919050565b7f4e487b7100000000000000000000000000000000000000000000000000000000600052601160045260246000fd5b6000611c858261151e565b9150611c908361151e565b9250828201905080821115611ca857611ca7611c4b565b5b92915050565b6000604082019050611cc36000830185611528565b611cd06020830184611528565b9392505050565b7f53616c65206e6f74207374617274656400000000000000000000000000000000600082015250565b6000611d0d60108361172a565b9150611d1882611cd7565b602082019050919050565b60006020820190508181036000830152611d3c81611d00565b9050919050565b7f53616c6520656e64656400000000000000000000000000000000000000000000600082015250565b6000611d79600a8361172a565b9150611d8482611d43565b602082019050919050565b60006020820190508181036000830152611da881611d6c565b9050919050565b7f4861726420636170207265616368656400000000000000000000000000000000600082015250565b6000611de560108361172a565b9150611df082611daf565b602082019050919050565b60006020820190508181036000830152611e1481611dd8565b9050919050565b7f42656c6f77206d696e696d756d20636f6e747269627574696f6e000000000000600082015250565b6000611e51601a8361172a565b9150611e5c82611e1b565b602082019050919050565b60006020820190508181036000830152611e8081611e44565b9050919050565b7f416c726561647920636f6e747269627574656400000000000000000000000000600082015250565b6000611ebd60138361172a565b9150611ec882611e87565b602082019050919050565b60006020820190508181036000830152611eec81611eb0565b9050919050565b7f45786365656473206d6178696d756d20636f6e747269627574696f6e00000000600082015250565b6000611f29601c8361172a565b9150611f3482611ef3565b602082019050919050565b60006020820190508181036000830152611f5881611f1c565b9050919050565b7f576f756c64206578636565642068617264206361700000000000000000000000600082015250565b6000611f9560158361172a565b9150611fa082611f5f565b602082019050919050565b60006020820190508181036000830152611fc481611f88565b9050919050565b6000611fd68261151e565b9150611fe18361151e565b9250828203905081811115611ff957611ff8611c4b565b5b92915050565b7f53616c65206e6f74207375636365737366756c6c792066696e616c697a656400600082015250565b6000612035601f8361172a565b915061204082611fff565b602082019050919050565b6000602082019050818103600083015261206481612028565b9050919050565b7f4e6f20636f6e747269627574696f6e7300000000000000000000000000000000600082015250565b60006120a160108361172a565b91506120ac8261206b565b602082019050919050565b600060208201905081810360008301526120d081612094565b9050919050565b60006120e28261151e565b91506120ed8361151e565b92508282026120fb8161151e565b9150828204841483151761211257612111611c4b565b5b5092915050565b7f4e487b7100000000000000000000000000000000000000000000000000000000600052601260045260246000fd5b60006121538261151e565b915061215e8361151e565b92508261216e5761216d612119565b5b828204905092915050565b600060408201905061218e60008301856115ee565b61219b6020830184611528565b939250505056fea2646970667358221220a4501760e2f7dc77a344fbca7fa32a1b50eb1286792209f188fb74e7a02b01d364736f6c63430008140033",
  "devdoc": {
    "details": "Presale contract for Backroom token with ETH contributions",
    "errors": {
      "OwnableInvalidOwner(address)": [
        {
          "details": "The owner is not a valid owner account. (eg. `address(0)`)"
        }
      ],
      "OwnableUnauthorizedAccount(address)": [
        {
          "details": "The caller account is not authorized to perform an operation."
        }
      ],
      "ReentrancyGuardReentrantCall()": [
        {
          "details": "Unauthorized reentrant call."
        }
      ]
    },
    "kind": "dev",
    "methods": {
      "calculateTokenAllocation(address,uint256)": {
        "details": "Calculate token allocation for a contributor (view only, for off-chain reference)",
        "params": {
          "_contributor": "Address to calculate for",
          "_totalTokensAllocated": "Total tokens allocated to presale (e.g., 5% of supply)"
        }
      },
      "claimRefund()": {
        "details": "Claim refund if sale failed (contributors only)"
      },
      "deposit()": {
        "details": "Contribute ETH to the presale"
      },
      "finalizeSale()": {
        "details": "Finalize the sale after 24 hours or when hard cap is reached"
      },
      "getContributionInfo(address)": {
        "details": "Get contribution info for an address"
      },
      "getSaleInfo()": {
        "details": "Get sale status information"
      },
      "getTimeRemaining()": {
        "details": "Get time remaining in sale"
      },
      "owner()": {
        "details": "Returns the address of the current owner."
      },
      "renounceOwnership()": {
        "details": "Leaves the contract without owner. It will not be possible to call `onlyOwner` functions. Can only be called by the current owner. NOTE: Renouncing ownership will leave the contract without an owner, thereby disabling any functionality that is only available to the owner."
      },
      "startSale()": {
        "details": "Start the presale (admin only)"
      },
      "transferOwnership(address)": {
        "details": "Transfers ownership of the contract to a new account (`newOwner`). Can only be called by the current owner."
      },
      "withdrawFunds()": {
        "details": "Withdraw raised funds if sale was successful (admin only)"
      }
    },
    "title": "BackroomPresale",
    "version": 1
  },
  "userdoc": {
    "kind": "user",
    "methods": {},
    "version": 1
  },
  "storageLayout": {
    "storage": [
      {
        "astId": 8,
        "contract": "contracts/Presale.sol:BackroomPresale",
        "label": "_owner",
        "offset": 0,
        "slot": "0",
        "type": "t_address"
      },
      {
        "astId": 1498,
        "contract": "contracts/Presale.sol:BackroomPresale",
        "label": "_status",
        "offset": 0,
        "slot": "1",
        "type": "t_uint256"
      },
      {
        "astId": 2158,
        "contract": "contracts/Presale.sol:BackroomPresale",
        "label": "softCap",
        "offset": 0,
        "slot": "2",
        "type": "t_uint256"
      },
      {
        "astId": 2160,
        "contract": "contracts/Presale.sol:BackroomPresale",
        "label": "hardCap",
        "offset": 0,
        "slot": "3",
        "type": "t_uint256"
      },
      {
        "astId": 2162,
        "contract": "contracts/Presale.sol:BackroomPresale",
        "label": "minContribution",
        "offset": 0,
        "slot": "4",
        "type": "t_uint256"
      },
      {
        "astId": 2164,
        "contract": "contracts/Presale.sol:BackroomPresale",
        "label": "maxContribution",
        "offset": 0,
        "slot": "5",
        "type": "t_uint256"
      },
      {
        "astId": 2166,
        "contract": "contracts/Presale.sol:BackroomPresale",
        "label": "saleStartTime",
        "offset": 0,
        "slot": "6",
        "type": "t_uint256"
      },
      {
        "astId": 2168,
        "contract": "contracts/Presale.sol:BackroomPresale",
        "label": "saleEndTime",
        "offset": 0,
        "slot": "7",
        "type": "t_uint256"
      },
      {
        "astId": 2170,
        "contract": "contracts/Presale.sol:BackroomPresale",
        "label": "totalRaised",
        "offset": 0,
        "slot": "8",
        "type": "t_uint256"
      },
      {
        "astId": 2172,
        "contract": "contracts/Presale.sol:BackroomPresale",
        "label": "saleFinalized",
        "offset": 0,
        "slot": "9",
        "type": "t_bool"
      },
      {
        "astId": 2174,
        "contract": "contracts/Presale.sol:BackroomPresale",
        "label": "saleSuccessful",
        "offset": 1,
        "slot": "9",
        "type": "t_bool"
      },
      {
        "astId": 2181,
        "contract": "contracts/Presale.sol:BackroomPresale",
        "label": "contributions",
        "offset": 0,
        "slot": "10",
        "type": "t_mapping(t_address,t_uint256)"
      },
      {
        "astId": 2185,
        "contract": "contracts/Presale.sol:BackroomPresale",
        "label": "hasContributed",
        "offset": 0,
        "slot": "11",
        "type": "t_mapping(t_address,t_bool)"
      }
    ],
    "types": {
      "t_address": {
        "encoding": "inplace",
        "label": "address",
        "numberOfBytes": "20"
      },
      "t_bool": {
        "encoding": "inplace",
        "label": "bool",
        "numberOfBytes": "1"
      },
      "t_mapping(t_address,t_bool)": {
        "encoding": "mapping",
        "key": "t_address",
        "label": "mapping(address => bool)",
        "numberOfBytes": "32",
        "value": "t_bool"
      },
      "t_mapping(t_address,t_uint256)": {
        "encoding": "mapping",
        "key": "t_address",
        "label": "mapping(address => uint256)",
        "numberOfBytes": "32",
        "value": "t_uint256"
      },
      "t_uint256": {
        "encoding": "inplace",
        "label": "uint256",
        "numberOfBytes": "32"
      }
    }
  }
}